{
	"src/reclaim/Addresses.sol": {
		"Addresses": {
			"abi": [
				{
					"inputs": [],
					"name": "ARBITRUM_MAINNET",
					"outputs": [
						{
							"internalType": "address",
							"name": "",
							"type": "address"
						}
					],
					"stateMutability": "view",
					"type": "function"
				},
				{
					"inputs": [],
					"name": "BASE_MAINNET",
					"outputs": [
						{
							"internalType": "address",
							"name": "",
							"type": "address"
						}
					],
					"stateMutability": "view",
					"type": "function"
				},
				{
					"inputs": [],
					"name": "BASE_SEPOLIA_TESTNET",
					"outputs": [
						{
							"internalType": "address",
							"name": "",
							"type": "address"
						}
					],
					"stateMutability": "view",
					"type": "function"
				},
				{
					"inputs": [],
					"name": "BNB_MAINNET",
					"outputs": [
						{
							"internalType": "address",
							"name": "",
							"type": "address"
						}
					],
					"stateMutability": "view",
					"type": "function"
				},
				{
					"inputs": [],
					"name": "LINEA_TESTNET",
					"outputs": [
						{
							"internalType": "address",
							"name": "",
							"type": "address"
						}
					],
					"stateMutability": "view",
					"type": "function"
				},
				{
					"inputs": [],
					"name": "OPTIMISM_GOERLI_TESTNET",
					"outputs": [
						{
							"internalType": "address",
							"name": "",
							"type": "address"
						}
					],
					"stateMutability": "view",
					"type": "function"
				},
				{
					"inputs": [],
					"name": "OPTIMISM_MAINNET",
					"outputs": [
						{
							"internalType": "address",
							"name": "",
							"type": "address"
						}
					],
					"stateMutability": "view",
					"type": "function"
				},
				{
					"inputs": [],
					"name": "PLOYGON_MUMBAI_TESTNET",
					"outputs": [
						{
							"internalType": "address",
							"name": "",
							"type": "address"
						}
					],
					"stateMutability": "view",
					"type": "function"
				},
				{
					"inputs": [],
					"name": "POLYGON_MAINNET",
					"outputs": [
						{
							"internalType": "address",
							"name": "",
							"type": "address"
						}
					],
					"stateMutability": "view",
					"type": "function"
				}
			],
			"devdoc": {
				"kind": "dev",
				"methods": {},
				"version": 1
			},
			"evm": {
				"assembly": "    /* \"src/reclaim/Addresses.sol\":90:1006  library Addresses {... */\n  dataSize(sub_0)\n  dataOffset(sub_0)\n  0x0b\n  dup3\n  dup3\n  dup3\n  codecopy\n  dup1\n  mload\n  0x00\n  byte\n  0x73\n  eq\n  tag_1\n  jumpi\n  mstore(0x00, 0x4e487b7100000000000000000000000000000000000000000000000000000000)\n  mstore(0x04, 0x00)\n  revert(0x00, 0x24)\ntag_1:\n  mstore(0x00, address)\n  0x73\n  dup2\n  mstore8\n  dup3\n  dup2\n  return\nstop\n\nsub_0: assembly {\n        /* \"src/reclaim/Addresses.sol\":90:1006  library Addresses {... */\n      eq(address, deployTimeAddress())\n      mstore(0x40, 0x80)\n      jumpi(tag_1, lt(calldatasize, 0x04))\n      shr(0xe0, calldataload(0x00))\n      dup1\n      0x975b95ba\n      gt\n      tag_11\n      jumpi\n      dup1\n      0x975b95ba\n      eq\n      tag_6\n      jumpi\n      dup1\n      0xb1c66135\n      eq\n      tag_7\n      jumpi\n      dup1\n      0xc0f47484\n      eq\n      tag_8\n      jumpi\n      dup1\n      0xd9821603\n      eq\n      tag_9\n      jumpi\n      dup1\n      0xfbf95309\n      eq\n      tag_10\n      jumpi\n      jump(tag_1)\n    tag_11:\n      dup1\n      0x63b0c907\n      eq\n      tag_2\n      jumpi\n      dup1\n      0x833df64f\n      eq\n      tag_3\n      jumpi\n      dup1\n      0x8d1c4533\n      eq\n      tag_4\n      jumpi\n      dup1\n      0x923e10d9\n      eq\n      tag_5\n      jumpi\n    tag_1:\n      revert(0x00, 0x00)\n        /* \"src/reclaim/Addresses.sol\":114:203  address public constant BASE_MAINNET =... */\n    tag_2:\n      tag_12\n      tag_13\n      jump\t// in\n    tag_12:\n      mload(0x40)\n      tag_14\n      swap2\n      swap1\n      tag_15\n      jump\t// in\n    tag_14:\n      mload(0x40)\n      dup1\n      swap2\n      sub\n      swap1\n      return\n        /* \"src/reclaim/Addresses.sol\":209:297  address public constant BNB_MAINNET =... */\n    tag_3:\n      tag_16\n      tag_17\n      jump\t// in\n    tag_16:\n      mload(0x40)\n      tag_18\n      swap2\n      swap1\n      tag_15\n      jump\t// in\n    tag_18:\n      mload(0x40)\n      dup1\n      swap2\n      sub\n      swap1\n      return\n        /* \"src/reclaim/Addresses.sol\":401:494  address public constant ARBITRUM_MAINNET =... */\n    tag_4:\n      tag_19\n      tag_20\n      jump\t// in\n    tag_19:\n      mload(0x40)\n      tag_21\n      swap2\n      swap1\n      tag_15\n      jump\t// in\n    tag_21:\n      mload(0x40)\n      dup1\n      swap2\n      sub\n      swap1\n      return\n        /* \"src/reclaim/Addresses.sol\":303:395  address public constant POLYGON_MAINNET =... */\n    tag_5:\n      tag_22\n      tag_23\n      jump\t// in\n    tag_22:\n      mload(0x40)\n      tag_24\n      swap2\n      swap1\n      tag_15\n      jump\t// in\n    tag_24:\n      mload(0x40)\n      dup1\n      swap2\n      sub\n      swap1\n      return\n        /* \"src/reclaim/Addresses.sol\":500:593  address public constant OPTIMISM_MAINNET =... */\n    tag_6:\n      tag_25\n      tag_26\n      jump\t// in\n    tag_25:\n      mload(0x40)\n      tag_27\n      swap2\n      swap1\n      tag_15\n      jump\t// in\n    tag_27:\n      mload(0x40)\n      dup1\n      swap2\n      sub\n      swap1\n      return\n        /* \"src/reclaim/Addresses.sol\":705:795  address public constant LINEA_TESTNET =... */\n    tag_7:\n      tag_28\n      tag_29\n      jump\t// in\n    tag_28:\n      mload(0x40)\n      tag_30\n      swap2\n      swap1\n      tag_15\n      jump\t// in\n    tag_30:\n      mload(0x40)\n      dup1\n      swap2\n      sub\n      swap1\n      return\n        /* \"src/reclaim/Addresses.sol\":801:900  address public constant PLOYGON_MUMBAI_TESTNET =... */\n    tag_8:\n      tag_31\n      tag_32\n      jump\t// in\n    tag_31:\n      mload(0x40)\n      tag_33\n      swap2\n      swap1\n      tag_15\n      jump\t// in\n    tag_33:\n      mload(0x40)\n      dup1\n      swap2\n      sub\n      swap1\n      return\n        /* \"src/reclaim/Addresses.sol\":906:1003  address public constant BASE_SEPOLIA_TESTNET =... */\n    tag_9:\n      tag_34\n      tag_35\n      jump\t// in\n    tag_34:\n      mload(0x40)\n      tag_36\n      swap2\n      swap1\n      tag_15\n      jump\t// in\n    tag_36:\n      mload(0x40)\n      dup1\n      swap2\n      sub\n      swap1\n      return\n        /* \"src/reclaim/Addresses.sol\":599:699  address public constant OPTIMISM_GOERLI_TESTNET =... */\n    tag_10:\n      tag_37\n      tag_38\n      jump\t// in\n    tag_37:\n      mload(0x40)\n      tag_39\n      swap2\n      swap1\n      tag_15\n      jump\t// in\n    tag_39:\n      mload(0x40)\n      dup1\n      swap2\n      sub\n      swap1\n      return\n        /* \"src/reclaim/Addresses.sol\":114:203  address public constant BASE_MAINNET =... */\n    tag_13:\n        /* \"src/reclaim/Addresses.sol\":161:203  0xACE04E6DeB9567C1B8F37D113F2Da9E690Fc128d */\n      0xace04e6deb9567c1b8f37d113f2da9e690fc128d\n        /* \"src/reclaim/Addresses.sol\":114:203  address public constant BASE_MAINNET =... */\n      dup2\n      jump\t// out\n        /* \"src/reclaim/Addresses.sol\":209:297  address public constant BNB_MAINNET =... */\n    tag_17:\n        /* \"src/reclaim/Addresses.sol\":255:297  0x1bbb0896aC6F4E32a89157C73Fb830325a441cb9 */\n      0x1bbb0896ac6f4e32a89157c73fb830325a441cb9\n        /* \"src/reclaim/Addresses.sol\":209:297  address public constant BNB_MAINNET =... */\n      dup2\n      jump\t// out\n        /* \"src/reclaim/Addresses.sol\":401:494  address public constant ARBITRUM_MAINNET =... */\n    tag_20:\n        /* \"src/reclaim/Addresses.sol\":452:494  0xe79A453bD088F4A58656b315a7C1f8Ea3473CCf1 */\n      0xe79a453bd088f4a58656b315a7c1f8ea3473ccf1\n        /* \"src/reclaim/Addresses.sol\":401:494  address public constant ARBITRUM_MAINNET =... */\n      dup2\n      jump\t// out\n        /* \"src/reclaim/Addresses.sol\":303:395  address public constant POLYGON_MAINNET =... */\n    tag_23:\n        /* \"src/reclaim/Addresses.sol\":353:395  0xd6534f52CEB3d0139b915bc0C3278a94687fA5C7 */\n      0xd6534f52ceb3d0139b915bc0c3278a94687fa5c7\n        /* \"src/reclaim/Addresses.sol\":303:395  address public constant POLYGON_MAINNET =... */\n      dup2\n      jump\t// out\n        /* \"src/reclaim/Addresses.sol\":500:593  address public constant OPTIMISM_MAINNET =... */\n    tag_26:\n        /* \"src/reclaim/Addresses.sol\":551:593  0xe79A453bD088F4A58656b315a7C1f8Ea3473CCf1 */\n      0xe79a453bd088f4a58656b315a7c1f8ea3473ccf1\n        /* \"src/reclaim/Addresses.sol\":500:593  address public constant OPTIMISM_MAINNET =... */\n      dup2\n      jump\t// out\n        /* \"src/reclaim/Addresses.sol\":705:795  address public constant LINEA_TESTNET =... */\n    tag_29:\n        /* \"src/reclaim/Addresses.sol\":753:795  0xf223E215B2c9A2E5FE1B2971d5694684b2E734C1 */\n      0xf223e215b2c9a2e5fe1b2971d5694684b2e734c1\n        /* \"src/reclaim/Addresses.sol\":705:795  address public constant LINEA_TESTNET =... */\n      dup2\n      jump\t// out\n        /* \"src/reclaim/Addresses.sol\":801:900  address public constant PLOYGON_MUMBAI_TESTNET =... */\n    tag_32:\n        /* \"src/reclaim/Addresses.sol\":858:900  0xd6534f52CEB3d0139b915bc0C3278a94687fA5C7 */\n      0xd6534f52ceb3d0139b915bc0c3278a94687fa5c7\n        /* \"src/reclaim/Addresses.sol\":801:900  address public constant PLOYGON_MUMBAI_TESTNET =... */\n      dup2\n      jump\t// out\n        /* \"src/reclaim/Addresses.sol\":906:1003  address public constant BASE_SEPOLIA_TESTNET =... */\n    tag_35:\n        /* \"src/reclaim/Addresses.sol\":961:1003  0xF90085f5Fd1a3bEb8678623409b3811eCeC5f6A5 */\n      0xf90085f5fd1a3beb8678623409b3811ecec5f6a5\n        /* \"src/reclaim/Addresses.sol\":906:1003  address public constant BASE_SEPOLIA_TESTNET =... */\n      dup2\n      jump\t// out\n        /* \"src/reclaim/Addresses.sol\":599:699  address public constant OPTIMISM_GOERLI_TESTNET =... */\n    tag_38:\n        /* \"src/reclaim/Addresses.sol\":657:699  0x2f0306D698685BEf7ff50745BFF7178F0d117ba8 */\n      0x2f0306d698685bef7ff50745bff7178f0d117ba8\n        /* \"src/reclaim/Addresses.sol\":599:699  address public constant OPTIMISM_GOERLI_TESTNET =... */\n      dup2\n      jump\t// out\n        /* \"#utility.yul\":7:133   */\n    tag_40:\n        /* \"#utility.yul\":44:51   */\n      0x00\n        /* \"#utility.yul\":84:126   */\n      0xffffffffffffffffffffffffffffffffffffffff\n        /* \"#utility.yul\":77:82   */\n      dup3\n        /* \"#utility.yul\":73:127   */\n      and\n        /* \"#utility.yul\":62:127   */\n      swap1\n      pop\n        /* \"#utility.yul\":7:133   */\n      swap2\n      swap1\n      pop\n      jump\t// out\n        /* \"#utility.yul\":139:235   */\n    tag_41:\n        /* \"#utility.yul\":176:183   */\n      0x00\n        /* \"#utility.yul\":205:229   */\n      tag_46\n        /* \"#utility.yul\":223:228   */\n      dup3\n        /* \"#utility.yul\":205:229   */\n      tag_40\n      jump\t// in\n    tag_46:\n        /* \"#utility.yul\":194:229   */\n      swap1\n      pop\n        /* \"#utility.yul\":139:235   */\n      swap2\n      swap1\n      pop\n      jump\t// out\n        /* \"#utility.yul\":241:367   */\n    tag_42:\n        /* \"#utility.yul\":336:360   */\n      tag_48\n        /* \"#utility.yul\":354:359   */\n      dup2\n        /* \"#utility.yul\":336:360   */\n      tag_41\n      jump\t// in\n    tag_48:\n        /* \"#utility.yul\":331:334   */\n      dup3\n        /* \"#utility.yul\":324:361   */\n      mstore\n        /* \"#utility.yul\":241:367   */\n      pop\n      pop\n      jump\t// out\n        /* \"#utility.yul\":373:611   */\n    tag_15:\n        /* \"#utility.yul\":474:478   */\n      0x00\n        /* \"#utility.yul\":512:514   */\n      0x20\n        /* \"#utility.yul\":501:510   */\n      dup3\n        /* \"#utility.yul\":497:515   */\n      add\n        /* \"#utility.yul\":489:515   */\n      swap1\n      pop\n        /* \"#utility.yul\":525:604   */\n      tag_50\n        /* \"#utility.yul\":601:602   */\n      0x00\n        /* \"#utility.yul\":590:599   */\n      dup4\n        /* \"#utility.yul\":586:603   */\n      add\n        /* \"#utility.yul\":577:583   */\n      dup5\n        /* \"#utility.yul\":525:604   */\n      tag_42\n      jump\t// in\n    tag_50:\n        /* \"#utility.yul\":373:611   */\n      swap3\n      swap2\n      pop\n      pop\n      jump\t// out\n\n    auxdata: 0xa264697066735822122045f5d40beef1468dbf722ebde487834bf3d46690adb9433330cb0baf30370e9a64736f6c634300081b0033\n}\n",
				"bytecode": {
					"linkReferences": {},
					"object": "61031461004d600b8282823980515f1a6073146041577f4e487b71000000000000000000000000000000000000000000000000000000005f525f60045260245ffd5b305f52607381538281f3fe730000000000000000000000000000000000000000301460806040526004361061009c575f3560e01c8063975b95ba1161006f578063975b95ba14610118578063b1c6613514610136578063c0f4748414610154578063d982160314610172578063fbf95309146101905761009c565b806363b0c907146100a0578063833df64f146100be5780638d1c4533146100dc578063923e10d9146100fa575b5f5ffd5b6100a86101ae565b6040516100b591906102c5565b60405180910390f35b6100c66101c6565b6040516100d391906102c5565b60405180910390f35b6100e46101de565b6040516100f191906102c5565b60405180910390f35b6101026101f6565b60405161010f91906102c5565b60405180910390f35b61012061020e565b60405161012d91906102c5565b60405180910390f35b61013e610226565b60405161014b91906102c5565b60405180910390f35b61015c61023e565b60405161016991906102c5565b60405180910390f35b61017a610256565b60405161018791906102c5565b60405180910390f35b61019861026e565b6040516101a591906102c5565b60405180910390f35b73ace04e6deb9567c1b8f37d113f2da9e690fc128d81565b731bbb0896ac6f4e32a89157c73fb830325a441cb981565b73e79a453bd088f4a58656b315a7c1f8ea3473ccf181565b73d6534f52ceb3d0139b915bc0c3278a94687fa5c781565b73e79a453bd088f4a58656b315a7c1f8ea3473ccf181565b73f223e215b2c9a2e5fe1b2971d5694684b2e734c181565b73d6534f52ceb3d0139b915bc0c3278a94687fa5c781565b73f90085f5fd1a3beb8678623409b3811ecec5f6a581565b732f0306d698685bef7ff50745bff7178f0d117ba881565b5f73ffffffffffffffffffffffffffffffffffffffff82169050919050565b5f6102af82610286565b9050919050565b6102bf816102a5565b82525050565b5f6020820190506102d85f8301846102b6565b9291505056fea264697066735822122045f5d40beef1468dbf722ebde487834bf3d46690adb9433330cb0baf30370e9a64736f6c634300081b0033",
					"opcodes": "PUSH2 0x314 PUSH2 0x4D PUSH1 0xB DUP3 DUP3 DUP3 CODECOPY DUP1 MLOAD PUSH0 BYTE PUSH1 0x73 EQ PUSH1 0x41 JUMPI PUSH32 0x4E487B7100000000000000000000000000000000000000000000000000000000 PUSH0 MSTORE PUSH0 PUSH1 0x4 MSTORE PUSH1 0x24 PUSH0 REVERT JUMPDEST ADDRESS PUSH0 MSTORE PUSH1 0x73 DUP2 MSTORE8 DUP3 DUP2 RETURN INVALID PUSH20 0x0 ADDRESS EQ PUSH1 0x80 PUSH1 0x40 MSTORE PUSH1 0x4 CALLDATASIZE LT PUSH2 0x9C JUMPI PUSH0 CALLDATALOAD PUSH1 0xE0 SHR DUP1 PUSH4 0x975B95BA GT PUSH2 0x6F JUMPI DUP1 PUSH4 0x975B95BA EQ PUSH2 0x118 JUMPI DUP1 PUSH4 0xB1C66135 EQ PUSH2 0x136 JUMPI DUP1 PUSH4 0xC0F47484 EQ PUSH2 0x154 JUMPI DUP1 PUSH4 0xD9821603 EQ PUSH2 0x172 JUMPI DUP1 PUSH4 0xFBF95309 EQ PUSH2 0x190 JUMPI PUSH2 0x9C JUMP JUMPDEST DUP1 PUSH4 0x63B0C907 EQ PUSH2 0xA0 JUMPI DUP1 PUSH4 0x833DF64F EQ PUSH2 0xBE JUMPI DUP1 PUSH4 0x8D1C4533 EQ PUSH2 0xDC JUMPI DUP1 PUSH4 0x923E10D9 EQ PUSH2 0xFA JUMPI JUMPDEST PUSH0 PUSH0 REVERT JUMPDEST PUSH2 0xA8 PUSH2 0x1AE JUMP JUMPDEST PUSH1 0x40 MLOAD PUSH2 0xB5 SWAP2 SWAP1 PUSH2 0x2C5 JUMP JUMPDEST PUSH1 0x40 MLOAD DUP1 SWAP2 SUB SWAP1 RETURN JUMPDEST PUSH2 0xC6 PUSH2 0x1C6 JUMP JUMPDEST PUSH1 0x40 MLOAD PUSH2 0xD3 SWAP2 SWAP1 PUSH2 0x2C5 JUMP JUMPDEST PUSH1 0x40 MLOAD DUP1 SWAP2 SUB SWAP1 RETURN JUMPDEST PUSH2 0xE4 PUSH2 0x1DE JUMP JUMPDEST PUSH1 0x40 MLOAD PUSH2 0xF1 SWAP2 SWAP1 PUSH2 0x2C5 JUMP JUMPDEST PUSH1 0x40 MLOAD DUP1 SWAP2 SUB SWAP1 RETURN JUMPDEST PUSH2 0x102 PUSH2 0x1F6 JUMP JUMPDEST PUSH1 0x40 MLOAD PUSH2 0x10F SWAP2 SWAP1 PUSH2 0x2C5 JUMP JUMPDEST PUSH1 0x40 MLOAD DUP1 SWAP2 SUB SWAP1 RETURN JUMPDEST PUSH2 0x120 PUSH2 0x20E JUMP JUMPDEST PUSH1 0x40 MLOAD PUSH2 0x12D SWAP2 SWAP1 PUSH2 0x2C5 JUMP JUMPDEST PUSH1 0x40 MLOAD DUP1 SWAP2 SUB SWAP1 RETURN JUMPDEST PUSH2 0x13E PUSH2 0x226 JUMP JUMPDEST PUSH1 0x40 MLOAD PUSH2 0x14B SWAP2 SWAP1 PUSH2 0x2C5 JUMP JUMPDEST PUSH1 0x40 MLOAD DUP1 SWAP2 SUB SWAP1 RETURN JUMPDEST PUSH2 0x15C PUSH2 0x23E JUMP JUMPDEST PUSH1 0x40 MLOAD PUSH2 0x169 SWAP2 SWAP1 PUSH2 0x2C5 JUMP JUMPDEST PUSH1 0x40 MLOAD DUP1 SWAP2 SUB SWAP1 RETURN JUMPDEST PUSH2 0x17A PUSH2 0x256 JUMP JUMPDEST PUSH1 0x40 MLOAD PUSH2 0x187 SWAP2 SWAP1 PUSH2 0x2C5 JUMP JUMPDEST PUSH1 0x40 MLOAD DUP1 SWAP2 SUB SWAP1 RETURN JUMPDEST PUSH2 0x198 PUSH2 0x26E JUMP JUMPDEST PUSH1 0x40 MLOAD PUSH2 0x1A5 SWAP2 SWAP1 PUSH2 0x2C5 JUMP JUMPDEST PUSH1 0x40 MLOAD DUP1 SWAP2 SUB SWAP1 RETURN JUMPDEST PUSH20 0xACE04E6DEB9567C1B8F37D113F2DA9E690FC128D DUP2 JUMP JUMPDEST PUSH20 0x1BBB0896AC6F4E32A89157C73FB830325A441CB9 DUP2 JUMP JUMPDEST PUSH20 0xE79A453BD088F4A58656B315A7C1F8EA3473CCF1 DUP2 JUMP JUMPDEST PUSH20 0xD6534F52CEB3D0139B915BC0C3278A94687FA5C7 DUP2 JUMP JUMPDEST PUSH20 0xE79A453BD088F4A58656B315A7C1F8EA3473CCF1 DUP2 JUMP JUMPDEST PUSH20 0xF223E215B2C9A2E5FE1B2971D5694684B2E734C1 DUP2 JUMP JUMPDEST PUSH20 0xD6534F52CEB3D0139B915BC0C3278A94687FA5C7 DUP2 JUMP JUMPDEST PUSH20 0xF90085F5FD1A3BEB8678623409B3811ECEC5F6A5 DUP2 JUMP JUMPDEST PUSH20 0x2F0306D698685BEF7FF50745BFF7178F0D117BA8 DUP2 JUMP JUMPDEST PUSH0 PUSH20 0xFFFFFFFFFFFFFFFFFFFFFFFFFFFFFFFFFFFFFFFF DUP3 AND SWAP1 POP SWAP2 SWAP1 POP JUMP JUMPDEST PUSH0 PUSH2 0x2AF DUP3 PUSH2 0x286 JUMP JUMPDEST SWAP1 POP SWAP2 SWAP1 POP JUMP JUMPDEST PUSH2 0x2BF DUP2 PUSH2 0x2A5 JUMP JUMPDEST DUP3 MSTORE POP POP JUMP JUMPDEST PUSH0 PUSH1 0x20 DUP3 ADD SWAP1 POP PUSH2 0x2D8 PUSH0 DUP4 ADD DUP5 PUSH2 0x2B6 JUMP JUMPDEST SWAP3 SWAP2 POP POP JUMP INVALID LOG2 PUSH5 0x6970667358 0x22 SLT KECCAK256 GASLIMIT CREATE2 0xD4 SIGNEXTEND 0xEE CALL CHAINID DUP14 0xBF PUSH19 0x2EBDE487834BF3D46690ADB9433330CB0BAF30 CALLDATACOPY 0xE SWAP11 PUSH5 0x736F6C6343 STOP ADDMOD SHL STOP CALLER "
				},
				"gasEstimates": {
					"creation": {
						"codeDepositCost": "157600",
						"executionCost": "225",
						"totalCost": "157825"
					},
					"external": {
						"ARBITRUM_MAINNET()": "402",
						"BASE_MAINNET()": "358",
						"BASE_SEPOLIA_TESTNET()": "423",
						"BNB_MAINNET()": "380",
						"LINEA_TESTNET()": "379",
						"OPTIMISM_GOERLI_TESTNET()": "445",
						"OPTIMISM_MAINNET()": "357",
						"PLOYGON_MUMBAI_TESTNET()": "401",
						"POLYGON_MAINNET()": "424"
					}
				},
				"methodIdentifiers": {
					"ARBITRUM_MAINNET()": "8d1c4533",
					"BASE_MAINNET()": "63b0c907",
					"BASE_SEPOLIA_TESTNET()": "d9821603",
					"BNB_MAINNET()": "833df64f",
					"LINEA_TESTNET()": "b1c66135",
					"OPTIMISM_GOERLI_TESTNET()": "fbf95309",
					"OPTIMISM_MAINNET()": "975b95ba",
					"PLOYGON_MUMBAI_TESTNET()": "c0f47484",
					"POLYGON_MAINNET()": "923e10d9"
				}
			},
			"storageLayout": {
				"storage": [],
				"types": null
			},
			"userdoc": {
				"kind": "user",
				"methods": {},
				"notice": "Reclaim's addresses",
				"version": 1
			}
		}
	}
}