{
	"data": {
		"bytecode": {
			"linkReferences": {},
			"object": "6080604052348015600e575f80fd5b506201518060015f6101000a81548163ffffffff021916908363ffffffff1602179055505f600160046101000a81548163ffffffff021916908363ffffffff16021790555033600160086101000a81548173ffffffffffffffffffffffffffffffffffffffff021916908373ffffffffffffffffffffffffffffffffffffffff160217905550613671806100a15f395ff3fe608060405234801561000f575f80fd5b5060043610610086575f3560e01c8063766718081161005957806376671808146101245780638da5cb5b14610142578063a960e69e14610160578063c6b61e4c1461017c57610086565b806310abbe561461008a578063289989fd146100ba5780633d3c3e07146100d85780634729504c14610108575b5f80fd5b6100a4600480360381019061009f91906119d6565b6101af565b6040516100b19190611bca565b60405180910390f35b6100c26103d4565b6040516100cf9190611bf9565b60405180910390f35b6100f260048036038101906100ed9190611c12565b6103e9565b6040516100ff9190611d5d565b60405180910390f35b610122600480360381019061011d9190611e08565b610817565b005b61012c610b3d565b6040516101399190611bf9565b60405180910390f35b61014a610b53565b6040516101579190611e74565b60405180910390f35b61017a6004803603810190610175919061237b565b610b79565b005b610196600480360381019061019191906123f5565b610d7f565b6040516101a6949392919061242f565b60405180910390f35b60605f6101bb856103e9565b90505f6101e6856040516020016101d29190612492565b604051602081830303815290604052610df2565b6101f58763ffffffff1661100c565b610205846080015160ff1661100c565b6102148763ffffffff1661100c565b6040516020016102279493929190612530565b60405160208183030381529060405290505f81805190602001206040516020016102519190612492565b60405160208183030381529060405290505f836060015190505f846080015160ff1667ffffffffffffffff81111561028c5761028b611e91565b5b6040519080825280602002602001820160405280156102c557816020015b6102b26118ea565b8152602001906001900390816102aa5790505b5090505f825190505f805b876080015160ff168163ffffffff1610156103c2575f6102f0878461118a565b90505f84826102ff91906125bb565b9050868181518110610314576103136125eb565b5b6020026020010151868463ffffffff1681518110610335576103346125eb565b5b602002602001018190525089606001516001866103529190612645565b81518110610363576103626125eb565b5b602002602001015187828151811061037e5761037d6125eb565b5b602002602001018190525087516004856103989190612678565b6103a291906125bb565b93506001856103b19190612645565b9450505080806001019150506102d0565b50829750505050505050509392505050565b60015f9054906101000a900463ffffffff1681565b6103f1611919565b5f8263ffffffff1603610609575f60015f805490506104109190612645565b81548110610421576104206125eb565b5b905f5260205f2090600302016040518060a00160405290815f82015f9054906101000a900463ffffffff1663ffffffff1663ffffffff1681526020015f820160049054906101000a900463ffffffff1663ffffffff1663ffffffff1681526020015f820160089054906101000a900463ffffffff1663ffffffff1663ffffffff16815260200160018201805480602002602001604051908101604052809291908181526020015f905b828210156105de578382905f5260205f2090600202016040518060400160405290815f82015f9054906101000a900473ffffffffffffffffffffffffffffffffffffffff1673ffffffffffffffffffffffffffffffffffffffff1673ffffffffffffffffffffffffffffffffffffffff16815260200160018201805461054f906126d8565b80601f016020809104026020016040519081016040528092919081815260200182805461057b906126d8565b80156105c65780601f1061059d576101008083540402835291602001916105c6565b820191905f5260205f20905b8154815290600101906020018083116105a957829003601f168201915b505050505081525050815260200190600101906104ca565b505050508152602001600282015f9054906101000a900460ff1660ff1660ff16815250509050610812565b5f6001836106179190612708565b63ffffffff168154811061062e5761062d6125eb565b5b905f5260205f2090600302016040518060a00160405290815f82015f9054906101000a900463ffffffff1663ffffffff1663ffffffff1681526020015f820160049054906101000a900463ffffffff1663ffffffff1663ffffffff1681526020015f820160089054906101000a900463ffffffff1663ffffffff1663ffffffff16815260200160018201805480602002602001604051908101604052809291908181526020015f905b828210156107eb578382905f5260205f2090600202016040518060400160405290815f82015f9054906101000a900473ffffffffffffffffffffffffffffffffffffffff1673ffffffffffffffffffffffffffffffffffffffff1673ffffffffffffffffffffffffffffffffffffffff16815260200160018201805461075c906126d8565b80601f0160208091040260200160405190810160405280929190818152602001828054610788906126d8565b80156107d35780601f106107aa576101008083540402835291602001916107d3565b820191905f5260205f20905b8154815290600101906020018083116107b657829003601f168201915b505050505081525050815260200190600101906106d7565b505050508152602001600282015f9054906101000a900460ff1660ff1660ff168152505090505b919050565b3373ffffffffffffffffffffffffffffffffffffffff16600160089054906101000a900473ffffffffffffffffffffffffffffffffffffffff1673ffffffffffffffffffffffffffffffffffffffff16146108a7576040517f08c379a000000000000000000000000000000000000000000000000000000000815260040161089e90612799565b60405180910390fd5b5f60015f9054906101000a900463ffffffff1663ffffffff16036108e9576201518060015f6101000a81548163ffffffff021916908363ffffffff1602179055505b5f8080549050111561094657425f60015f805490506109089190612645565b81548110610919576109186125eb565b5b905f5260205f2090600302015f0160086101000a81548163ffffffff021916908363ffffffff1602179055505b60018060048282829054906101000a900463ffffffff1661096791906127b7565b92506101000a81548163ffffffff021916908363ffffffff1602179055505f8060018160018154018082558091505003905f5260205f2090600302019050600160049054906101000a900463ffffffff16815f015f6101000a81548163ffffffff021916908363ffffffff16021790555042815f0160046101000a81548163ffffffff021916908363ffffffff16021790555060015f9054906101000a900463ffffffff1663ffffffff1642610a1d9190612678565b815f0160086101000a81548163ffffffff021916908363ffffffff16021790555081816002015f6101000a81548160ff021916908360ff1602179055505f5b84849050811015610ad15781600101858583818110610a7e57610a7d6125eb565b5b9050602002810190610a9091906127fa565b908060018154018082558091505060019003905f5260205f2090600202015f909190919091508181610ac29190612c0f565b50508080600101915050610a5c565b507fb2a1462b8d912a9fe495da7a1188c48bb87bac4644a0931aa4ce2dd7017ce3655f60015f80549050610b059190612645565b81548110610b1657610b156125eb565b5b905f5260205f209060030201604051610b2f9190612efd565b60405180910390a150505050565b600160049054906101000a900463ffffffff1681565b600160089054906101000a900473ffffffffffffffffffffffffffffffffffffffff1681565b5f8160200151602001515111610bc4576040517f08c379a0000000000000000000000000000000000000000000000000000000008152600401610bbb90612f67565b60405180910390fd5b5f604051806040016040528083602001515f0151815260200183602001516020015181525090505f610bf8835f01516111f5565b90508083602001515f01515f015114610c0f575f80fd5b5f610c3b84602001515f01516060015185602001515f01515f015186602001515f0151604001516101af565b90505f610c4784611238565b90508151815114610c8d576040517f08c379a0000000000000000000000000000000000000000000000000000000008152600401610c8490612ff5565b60405180910390fd5b5f5b846020015151811015610d77575f805b8451811015610d2857848181518110610cbb57610cba6125eb565b5b60200260200101515f015173ffffffffffffffffffffffffffffffffffffffff16848481518110610cef57610cee6125eb565b5b602002602001015173ffffffffffffffffffffffffffffffffffffffff1603610d1b5760019150610d28565b8080600101915050610c9f565b5080610d69576040517f08c379a0000000000000000000000000000000000000000000000000000000008152600401610d609061305d565b60405180910390fd5b508080600101915050610c8f565b505050505050565b5f8181548110610d8d575f80fd5b905f5260205f2090600302015f91509050805f015f9054906101000a900463ffffffff1690805f0160049054906101000a900463ffffffff1690805f0160089054906101000a900463ffffffff1690806002015f9054906101000a900460ff16905084565b60605f60028351610e03919061307b565b67ffffffffffffffff811115610e1c57610e1b611e91565b5b6040519080825280601f01601f191660200182016040528015610e4e5781602001600182028036833780820191505090505b5090505f6040518060400160405280601081526020017f303132333435363738396162636465660000000000000000000000000000000081525090505f5b8451811015610fe257818251868381518110610eab57610eaa6125eb565b5b602001015160f81c60f81b60f81c60ff16610ec691906130bc565b81518110610ed757610ed66125eb565b5b602001015160f81c60f81b83600283610ef0919061307b565b81518110610f0157610f006125eb565b5b60200101907effffffffffffffffffffffffffffffffffffffffffffffffffffffffffffff191690815f1a905350818251868381518110610f4557610f446125eb565b5b602001015160f81c60f81b60f81c60ff16610f6091906125bb565b81518110610f7157610f706125eb565b5b602001015160f81c60f81b836001600284610f8c919061307b565b610f969190612678565b81518110610fa757610fa66125eb565b5b60200101907effffffffffffffffffffffffffffffffffffffffffffffffffffffffffffff191690815f1a9053508080600101915050610e8c565b5081604051602001610ff4919061317a565b60405160208183030381529060405292505050919050565b60605f8203611052576040518060400160405280600181526020017f30000000000000000000000000000000000000000000000000000000000000008152509050611185565b5f8290505f5b5f821461108157808061106a9061319b565b915050600a8261107a91906130bc565b9150611058565b5f8167ffffffffffffffff81111561109c5761109b611e91565b5b6040519080825280601f01601f1916602001820160405280156110ce5781602001600182028036833780820191505090505b5090505f8290505b5f861461117d576001816110ea9190612645565b90505f600a80886110fb91906130bc565b611105919061307b565b876111109190612645565b603061111c91906131e2565b90505f8160f81b905080848481518110611139576111386125eb565b5b60200101907effffffffffffffffffffffffffffffffffffffffffffffffffffffffffffff191690815f1a905350600a8861117491906130bc565b975050506110d6565b819450505050505b919050565b5f825160048361119a9190612678565b11156111db576040517f08c379a00000000000000000000000000000000000000000000000000000000081526004016111d290613286565b60405180910390fd5b5f8260048501015190508063ffffffff1691505092915050565b5f80825f015183602001518460400151604051602001611217939291906132a4565b60405160208183030381529060405290508080519060200120915050919050565b60605f611247835f0151611336565b90505f83602001515167ffffffffffffffff81111561126957611268611e91565b5b6040519080825280602002602001820160405280156112975781602001602082028036833780820191505090505b5090505f5b84602001515181101561132b576112d183866020015183815181106112c4576112c36125eb565b5b60200260200101516113bf565b8282815181106112e4576112e36125eb565b5b602002602001019073ffffffffffffffffffffffffffffffffffffffff16908173ffffffffffffffffffffffffffffffffffffffff1681525050808060010191505061129c565b508092505050919050565b6060611363825f015160405160200161134f9190612492565b604051602081830303815290604052610df2565b6113708360200151611408565b611383846040015163ffffffff1661100c565b611396856060015163ffffffff1661100c565b6040516020016113a99493929190612530565b6040516020818303038152906040529050919050565b5f806113cb845161100c565b846040516020016113dd929190613334565b6040516020818303038152906040528051906020012090506113ff81846115dd565b91505092915050565b60605f602867ffffffffffffffff81111561142657611425611e91565b5b6040519080825280601f01601f1916602001820160405280156114585781602001600182028036833780820191505090505b5090505f5b60148110156115b4575f8160136114749190612645565b6008611480919061307b565b600261148c9190613491565b8573ffffffffffffffffffffffffffffffffffffffff166114ad91906130bc565b60f81b90505f60108260f81c6114c391906134db565b60f81b90505f8160f81c60106114d9919061350b565b8360f81c6114e79190613547565b60f81b90506114f582611607565b85856002611503919061307b565b81518110611514576115136125eb565b5b60200101907effffffffffffffffffffffffffffffffffffffffffffffffffffffffffffff191690815f1a90535061154b81611607565b85600186600261155b919061307b565b6115659190612678565b81518110611576576115756125eb565b5b60200101907effffffffffffffffffffffffffffffffffffffffffffffffffffffffffffff191690815f1a905350505050808060010191505061145d565b50806040516020016115c6919061317a565b604051602081830303815290604052915050919050565b5f805f806115eb868661164c565b9250925092506115fb82826116a1565b82935050505092915050565b5f600a8260f81c60ff1610156116315760308260f81c61162791906131e2565b60f81b9050611647565b60578260f81c61164191906131e2565b60f81b90505b919050565b5f805f604184510361168c575f805f602087015192506040870151915060608701515f1a905061167e88828585611803565b95509550955050505061169a565b5f600285515f1b9250925092505b9250925092565b5f60038111156116b4576116b361357b565b5b8260038111156116c7576116c661357b565b5b03156117ff57600160038111156116e1576116e061357b565b5b8260038111156116f4576116f361357b565b5b0361172b576040517ff645eedf00000000000000000000000000000000000000000000000000000000815260040160405180910390fd5b6002600381111561173f5761173e61357b565b5b8260038111156117525761175161357b565b5b0361179657805f1c6040517ffce698f700000000000000000000000000000000000000000000000000000000815260040161178d91906135b7565b60405180910390fd5b6003808111156117a9576117a861357b565b5b8260038111156117bc576117bb61357b565b5b036117fe57806040517fd78bce0c0000000000000000000000000000000000000000000000000000000081526004016117f591906135df565b60405180910390fd5b5b5050565b5f805f7f7fffffffffffffffffffffffffffffff5d576e7357a4501ddfe92f46681b20a0845f1c111561183f575f6003859250925092506118e0565b5f6001888888886040515f815260200160405260405161186294939291906135f8565b6020604051602081039080840390855afa158015611882573d5f803e3d5ffd5b5050506020604051035190505f73ffffffffffffffffffffffffffffffffffffffff168173ffffffffffffffffffffffffffffffffffffffff16036118d3575f60015f801b935093509350506118e0565b805f805f1b935093509350505b9450945094915050565b60405180604001604052805f73ffffffffffffffffffffffffffffffffffffffff168152602001606081525090565b6040518060a001604052805f63ffffffff1681526020015f63ffffffff1681526020015f63ffffffff168152602001606081526020015f60ff1681525090565b5f604051905090565b5f80fd5b5f80fd5b5f63ffffffff82169050919050565b6119828161196a565b811461198c575f80fd5b50565b5f8135905061199d81611979565b92915050565b5f819050919050565b6119b5816119a3565b81146119bf575f80fd5b50565b5f813590506119d0816119ac565b92915050565b5f805f606084860312156119ed576119ec611962565b5b5f6119fa8682870161198f565b9350506020611a0b868287016119c2565b9250506040611a1c8682870161198f565b9150509250925092565b5f81519050919050565b5f82825260208201905092915050565b5f819050602082019050919050565b5f73ffffffffffffffffffffffffffffffffffffffff82169050919050565b5f611a7882611a4f565b9050919050565b611a8881611a6e565b82525050565b5f81519050919050565b5f82825260208201905092915050565b8281835e5f83830152505050565b5f601f19601f8301169050919050565b5f611ad082611a8e565b611ada8185611a98565b9350611aea818560208601611aa8565b611af381611ab6565b840191505092915050565b5f604083015f830151611b135f860182611a7f565b5060208301518482036020860152611b2b8282611ac6565b9150508091505092915050565b5f611b438383611afe565b905092915050565b5f602082019050919050565b5f611b6182611a26565b611b6b8185611a30565b935083602082028501611b7d85611a40565b805f5b85811015611bb85784840389528151611b998582611b38565b9450611ba483611b4b565b925060208a01995050600181019050611b80565b50829750879550505050505092915050565b5f6020820190508181035f830152611be28184611b57565b905092915050565b611bf38161196a565b82525050565b5f602082019050611c0c5f830184611bea565b92915050565b5f60208284031215611c2757611c26611962565b5b5f611c348482850161198f565b91505092915050565b611c468161196a565b82525050565b5f82825260208201905092915050565b5f611c6682611a26565b611c708185611c4c565b935083602082028501611c8285611a40565b805f5b85811015611cbd5784840389528151611c9e8582611b38565b9450611ca983611b4b565b925060208a01995050600181019050611c85565b50829750879550505050505092915050565b5f60ff82169050919050565b611ce481611ccf565b82525050565b5f60a083015f830151611cff5f860182611c3d565b506020830151611d126020860182611c3d565b506040830151611d256040860182611c3d565b5060608301518482036060860152611d3d8282611c5c565b9150506080830151611d526080860182611cdb565b508091505092915050565b5f6020820190508181035f830152611d758184611cea565b905092915050565b5f80fd5b5f80fd5b5f80fd5b5f8083601f840112611d9e57611d9d611d7d565b5b8235905067ffffffffffffffff811115611dbb57611dba611d81565b5b602083019150836020820283011115611dd757611dd6611d85565b5b9250929050565b611de781611ccf565b8114611df1575f80fd5b50565b5f81359050611e0281611dde565b92915050565b5f805f60408486031215611e1f57611e1e611962565b5b5f84013567ffffffffffffffff811115611e3c57611e3b611966565b5b611e4886828701611d89565b93509350506020611e5b86828701611df4565b9150509250925092565b611e6e81611a6e565b82525050565b5f602082019050611e875f830184611e65565b92915050565b5f80fd5b7f4e487b71000000000000000000000000000000000000000000000000000000005f52604160045260245ffd5b611ec782611ab6565b810181811067ffffffffffffffff82111715611ee657611ee5611e91565b5b80604052505050565b5f611ef8611959565b9050611f048282611ebe565b919050565b5f80fd5b5f80fd5b5f67ffffffffffffffff821115611f2b57611f2a611e91565b5b611f3482611ab6565b9050602081019050919050565b828183375f83830152505050565b5f611f61611f5c84611f11565b611eef565b905082815260208101848484011115611f7d57611f7c611f0d565b5b611f88848285611f41565b509392505050565b5f82601f830112611fa457611fa3611d7d565b5b8135611fb4848260208601611f4f565b91505092915050565b5f60608284031215611fd257611fd1611e8d565b5b611fdc6060611eef565b90505f82013567ffffffffffffffff811115611ffb57611ffa611f09565b5b61200784828501611f90565b5f83015250602082013567ffffffffffffffff81111561202a57612029611f09565b5b61203684828501611f90565b602083015250604082013567ffffffffffffffff81111561205a57612059611f09565b5b61206684828501611f90565b60408301525092915050565b61207b81611a6e565b8114612085575f80fd5b50565b5f8135905061209681612072565b92915050565b5f608082840312156120b1576120b0611e8d565b5b6120bb6080611eef565b90505f6120ca848285016119c2565b5f8301525060206120dd84828501612088565b60208301525060406120f18482850161198f565b60408301525060606121058482850161198f565b60608301525092915050565b5f67ffffffffffffffff82111561212b5761212a611e91565b5b602082029050602081019050919050565b5f67ffffffffffffffff82111561215657612155611e91565b5b61215f82611ab6565b9050602081019050919050565b5f61217e6121798461213c565b611eef565b90508281526020810184848401111561219a57612199611f0d565b5b6121a5848285611f41565b509392505050565b5f82601f8301126121c1576121c0611d7d565b5b81356121d184826020860161216c565b91505092915050565b5f6121ec6121e784612111565b611eef565b9050808382526020820190506020840283018581111561220f5761220e611d85565b5b835b8181101561225657803567ffffffffffffffff81111561223457612233611d7d565b5b80860161224189826121ad565b85526020850194505050602081019050612211565b5050509392505050565b5f82601f83011261227457612273611d7d565b5b81356122848482602086016121da565b91505092915050565b5f60a082840312156122a2576122a1611e8d565b5b6122ac6040611eef565b90505f6122bb8482850161209c565b5f83015250608082013567ffffffffffffffff8111156122de576122dd611f09565b5b6122ea84828501612260565b60208301525092915050565b5f6040828403121561230b5761230a611e8d565b5b6123156040611eef565b90505f82013567ffffffffffffffff81111561233457612333611f09565b5b61234084828501611fbd565b5f83015250602082013567ffffffffffffffff81111561236357612362611f09565b5b61236f8482850161228d565b60208301525092915050565b5f602082840312156123905761238f611962565b5b5f82013567ffffffffffffffff8111156123ad576123ac611966565b5b6123b9848285016122f6565b91505092915050565b5f819050919050565b6123d4816123c2565b81146123de575f80fd5b50565b5f813590506123ef816123cb565b92915050565b5f6020828403121561240a57612409611962565b5b5f612417848285016123e1565b91505092915050565b61242981611ccf565b82525050565b5f6080820190506124425f830187611bea565b61244f6020830186611bea565b61245c6040830185611bea565b6124696060830184612420565b95945050505050565b5f819050919050565b61248c612487826119a3565b612472565b82525050565b5f61249d828461247b565b60208201915081905092915050565b5f81905092915050565b5f6124c082611a8e565b6124ca81856124ac565b93506124da818560208601611aa8565b80840191505092915050565b7f0a000000000000000000000000000000000000000000000000000000000000005f82015250565b5f61251a6001836124ac565b9150612525826124e6565b600182019050919050565b5f61253b82876124b6565b91506125468261250e565b915061255282866124b6565b915061255d8261250e565b915061256982856124b6565b91506125748261250e565b915061258082846124b6565b915081905095945050505050565b7f4e487b71000000000000000000000000000000000000000000000000000000005f52601260045260245ffd5b5f6125c5826123c2565b91506125d0836123c2565b9250826125e0576125df61258e565b5b828206905092915050565b7f4e487b71000000000000000000000000000000000000000000000000000000005f52603260045260245ffd5b7f4e487b71000000000000000000000000000000000000000000000000000000005f52601160045260245ffd5b5f61264f826123c2565b915061265a836123c2565b925082820390508181111561267257612671612618565b5b92915050565b5f612682826123c2565b915061268d836123c2565b92508282019050808211156126a5576126a4612618565b5b92915050565b7f4e487b71000000000000000000000000000000000000000000000000000000005f52602260045260245ffd5b5f60028204905060018216806126ef57607f821691505b602082108103612702576127016126ab565b5b50919050565b5f6127128261196a565b915061271d8361196a565b9250828203905063ffffffff81111561273957612738612618565b5b92915050565b5f82825260208201905092915050565b7f4f6e6c79204f776e6572000000000000000000000000000000000000000000005f82015250565b5f612783600a8361273f565b915061278e8261274f565b602082019050919050565b5f6020820190508181035f8301526127b081612777565b9050919050565b5f6127c18261196a565b91506127cc8361196a565b9250828201905063ffffffff8111156127e8576127e7612618565b5b92915050565b5f80fd5b5f80fd5b5f80fd5b5f82356001604003833603038112612815576128146127ee565b5b80830191505092915050565b5f813561282d81612072565b80915050919050565b5f815f1b9050919050565b5f73ffffffffffffffffffffffffffffffffffffffff61286084612836565b9350801983169250808416831791505092915050565b5f819050919050565b5f61289961289461288f84611a4f565b612876565b611a4f565b9050919050565b5f6128aa8261287f565b9050919050565b5f6128bb826128a0565b9050919050565b5f819050919050565b6128d4826128b1565b6128e76128e0826128c2565b8354612841565b8255505050565b5f808335600160200384360303811261290a576129096127ee565b5b80840192508235915067ffffffffffffffff82111561292c5761292b6127f2565b5b602083019250600182023603831315612948576129476127f6565b5b509250929050565b5f82905092915050565b5f819050815f5260205f209050919050565b5f6020601f8301049050919050565b5f82821b905092915050565b5f600883026129b67fffffffffffffffffffffffffffffffffffffffffffffffffffffffffffffffff8261297b565b6129c0868361297b565b95508019841693508086168417925050509392505050565b5f6129f26129ed6129e8846123c2565b612876565b6123c2565b9050919050565b5f819050919050565b612a0b836129d8565b612a1f612a17826129f9565b848454612987565b825550505050565b5f90565b612a33612a27565b612a3e818484612a02565b505050565b5b81811015612a6157612a565f82612a2b565b600181019050612a44565b5050565b601f821115612aa657612a778161295a565b612a808461296c565b81016020851015612a8f578190505b612aa3612a9b8561296c565b830182612a43565b50505b505050565b5f82821c905092915050565b5f612ac65f1984600802612aab565b1980831691505092915050565b5f612ade8383612ab7565b9150826002028217905092915050565b612af88383612950565b67ffffffffffffffff811115612b1157612b10611e91565b5b612b1b82546126d8565b612b26828285612a65565b5f601f831160018114612b53575f8415612b41578287013590505b612b4b8582612ad3565b865550612bb2565b601f198416612b618661295a565b5f5b82811015612b8857848901358255600182019150602085019450602081019050612b63565b86831015612ba55784890135612ba1601f891682612ab7565b8355505b6001600288020188555050505b50505050505050565b612bc6838383612aee565b505050565b5f81015f830180612bdb81612821565b9050612be781846128cb565b5050506001810160208301612bfc81856128ee565b612c07818386612bbb565b505050505050565b612c198282612bcb565b5050565b5f815f1c9050919050565b5f63ffffffff82169050919050565b5f612c49612c4483612c1d565b612c28565b9050919050565b5f8160201c9050919050565b5f612c6e612c6983612c50565b612c28565b9050919050565b5f8160401c9050919050565b5f612c93612c8e83612c75565b612c28565b9050919050565b5f81549050919050565b5f819050815f5260205f209050919050565b5f73ffffffffffffffffffffffffffffffffffffffff82169050919050565b5f612ce7612ce283612c1d565b612cb6565b9050919050565b5f8154612cfa816126d8565b612d048186611a98565b9450600182165f8114612d1e5760018114612d3457612d66565b60ff198316865281151560200286019350612d66565b612d3d8561295a565b5f5b83811015612d5e57815481890152600182019150602081019050612d3f565b808801955050505b50505092915050565b5f604083015f808401549050612d8481612cd5565b612d905f870182611a7f565b50600184018583036020870152612da78382612cee565b925050819250505092915050565b5f612dc08383612d6f565b905092915050565b5f600282019050919050565b5f612dde82612c9a565b612de88185611c4c565b935083602082028501612dfa85612ca4565b805f5b85811015612e3457848403895281612e158582612db5565b9450612e2083612dc8565b925060208a01995050600181019050612dfd565b50829750879550505050505092915050565b5f60ff82169050919050565b5f612e64612e5f83612c1d565b612e46565b9050919050565b5f60a083015f808401549050612e8081612c37565b612e8c5f870182611c3d565b50612e9681612c5c565b612ea36020870182611c3d565b50612ead81612c81565b612eba6040870182611c3d565b50600184018583036060870152612ed18382612dd4565b92505060028401549050612ee481612e52565b612ef16080870182611cdb565b50819250505092915050565b5f6020820190508181035f830152612f158184612e6b565b905092915050565b7f4e6f207369676e617475726573000000000000000000000000000000000000005f82015250565b5f612f51600d8361273f565b9150612f5c82612f1d565b602082019050919050565b5f6020820190508181035f830152612f7e81612f45565b9050919050565b7f4e756d626572206f66207369676e617475726573206e6f7420657175616c20745f8201527f6f206e756d626572206f66207769746e65737365730000000000000000000000602082015250565b5f612fdf60358361273f565b9150612fea82612f85565b604082019050919050565b5f6020820190508181035f83015261300c81612fd3565b9050919050565b7f5369676e6174757265206e6f7420617070726f707269617465000000000000005f82015250565b5f61304760198361273f565b915061305282613013565b602082019050919050565b5f6020820190508181035f8301526130748161303b565b9050919050565b5f613085826123c2565b9150613090836123c2565b925082820261309e816123c2565b915082820484148315176130b5576130b4612618565b5b5092915050565b5f6130c6826123c2565b91506130d1836123c2565b9250826130e1576130e061258e565b5b828204905092915050565b7f30780000000000000000000000000000000000000000000000000000000000005f82015250565b5f6131206002836124ac565b915061312b826130ec565b600282019050919050565b5f81519050919050565b5f81905092915050565b5f61315482613136565b61315e8185613140565b935061316e818560208601611aa8565b80840191505092915050565b5f61318482613114565b9150613190828461314a565b915081905092915050565b5f6131a5826123c2565b91507fffffffffffffffffffffffffffffffffffffffffffffffffffffffffffffffff82036131d7576131d6612618565b5b600182019050919050565b5f6131ec82611ccf565b91506131f783611ccf565b9250828201905060ff8111156132105761320f612618565b5b92915050565b7f4f6666736574202b2034206d7573742062652077697468696e206461746120625f8201527f6f756e6473000000000000000000000000000000000000000000000000000000602082015250565b5f61327060258361273f565b915061327b82613216565b604082019050919050565b5f6020820190508181035f83015261329d81613264565b9050919050565b5f6132af82866124b6565b91506132ba8261250e565b91506132c682856124b6565b91506132d18261250e565b91506132dd82846124b6565b9150819050949350505050565b7f19457468657265756d205369676e6564204d6573736167653a0a0000000000005f82015250565b5f61331e601a836124ac565b9150613329826132ea565b601a82019050919050565b5f61333e82613312565b915061334a82856124b6565b9150613356828461314a565b91508190509392505050565b5f8160011c9050919050565b5f808291508390505b60018511156133b75780860481111561339357613392612618565b5b60018516156133a25780820291505b80810290506133b085613362565b9450613377565b94509492505050565b5f826133cf576001905061348a565b816133dc575f905061348a565b81600181146133f257600281146133fc5761342b565b600191505061348a565b60ff84111561340e5761340d612618565b5b8360020a91508482111561342557613424612618565b5b5061348a565b5060208310610133831016604e8410600b84101617156134605782820a90508381111561345b5761345a612618565b5b61348a565b61346d848484600161336e565b9250905081840481111561348457613483612618565b5b81810290505b9392505050565b5f61349b826123c2565b91506134a6836123c2565b92506134d37fffffffffffffffffffffffffffffffffffffffffffffffffffffffffffffffff84846133c0565b905092915050565b5f6134e582611ccf565b91506134f083611ccf565b925082613500576134ff61258e565b5b828204905092915050565b5f61351582611ccf565b915061352083611ccf565b925082820261352e81611ccf565b91508082146135405761353f612618565b5b5092915050565b5f61355182611ccf565b915061355c83611ccf565b9250828203905060ff81111561357557613574612618565b5b92915050565b7f4e487b71000000000000000000000000000000000000000000000000000000005f52602160045260245ffd5b6135b1816123c2565b82525050565b5f6020820190506135ca5f8301846135a8565b92915050565b6135d9816119a3565b82525050565b5f6020820190506135f25f8301846135d0565b92915050565b5f60808201905061360b5f8301876135d0565b6136186020830186612420565b61362560408301856135d0565b61363260608301846135d0565b9594505050505056fea26469706673582212200905149531f88aadde336e340c87e37773762ed9ca629faa8e3b1cf46e7f9adf64736f6c634300081a0033",
			"opcodes": "PUSH1 0x80 PUSH1 0x40 MSTORE CALLVALUE DUP1 ISZERO PUSH1 0xE JUMPI PUSH0 DUP1 REVERT JUMPDEST POP PUSH3 0x15180 PUSH1 0x1 PUSH0 PUSH2 0x100 EXP DUP2 SLOAD DUP2 PUSH4 0xFFFFFFFF MUL NOT AND SWAP1 DUP4 PUSH4 0xFFFFFFFF AND MUL OR SWAP1 SSTORE POP PUSH0 PUSH1 0x1 PUSH1 0x4 PUSH2 0x100 EXP DUP2 SLOAD DUP2 PUSH4 0xFFFFFFFF MUL NOT AND SWAP1 DUP4 PUSH4 0xFFFFFFFF AND MUL OR SWAP1 SSTORE POP CALLER PUSH1 0x1 PUSH1 0x8 PUSH2 0x100 EXP DUP2 SLOAD DUP2 PUSH20 0xFFFFFFFFFFFFFFFFFFFFFFFFFFFFFFFFFFFFFFFF MUL NOT AND SWAP1 DUP4 PUSH20 0xFFFFFFFFFFFFFFFFFFFFFFFFFFFFFFFFFFFFFFFF AND MUL OR SWAP1 SSTORE POP PUSH2 0x3671 DUP1 PUSH2 0xA1 PUSH0 CODECOPY PUSH0 RETURN INVALID PUSH1 0x80 PUSH1 0x40 MSTORE CALLVALUE DUP1 ISZERO PUSH2 0xF JUMPI PUSH0 DUP1 REVERT JUMPDEST POP PUSH1 0x4 CALLDATASIZE LT PUSH2 0x86 JUMPI PUSH0 CALLDATALOAD PUSH1 0xE0 SHR DUP1 PUSH4 0x76671808 GT PUSH2 0x59 JUMPI DUP1 PUSH4 0x76671808 EQ PUSH2 0x124 JUMPI DUP1 PUSH4 0x8DA5CB5B EQ PUSH2 0x142 JUMPI DUP1 PUSH4 0xA960E69E EQ PUSH2 0x160 JUMPI DUP1 PUSH4 0xC6B61E4C EQ PUSH2 0x17C JUMPI PUSH2 0x86 JUMP JUMPDEST DUP1 PUSH4 0x10ABBE56 EQ PUSH2 0x8A JUMPI DUP1 PUSH4 0x289989FD EQ PUSH2 0xBA JUMPI DUP1 PUSH4 0x3D3C3E07 EQ PUSH2 0xD8 JUMPI DUP1 PUSH4 0x4729504C EQ PUSH2 0x108 JUMPI JUMPDEST PUSH0 DUP1 REVERT JUMPDEST PUSH2 0xA4 PUSH1 0x4 DUP1 CALLDATASIZE SUB DUP2 ADD SWAP1 PUSH2 0x9F SWAP2 SWAP1 PUSH2 0x19D6 JUMP JUMPDEST PUSH2 0x1AF JUMP JUMPDEST PUSH1 0x40 MLOAD PUSH2 0xB1 SWAP2 SWAP1 PUSH2 0x1BCA JUMP JUMPDEST PUSH1 0x40 MLOAD DUP1 SWAP2 SUB SWAP1 RETURN JUMPDEST PUSH2 0xC2 PUSH2 0x3D4 JUMP JUMPDEST PUSH1 0x40 MLOAD PUSH2 0xCF SWAP2 SWAP1 PUSH2 0x1BF9 JUMP JUMPDEST PUSH1 0x40 MLOAD DUP1 SWAP2 SUB SWAP1 RETURN JUMPDEST PUSH2 0xF2 PUSH1 0x4 DUP1 CALLDATASIZE SUB DUP2 ADD SWAP1 PUSH2 0xED SWAP2 SWAP1 PUSH2 0x1C12 JUMP JUMPDEST PUSH2 0x3E9 JUMP JUMPDEST PUSH1 0x40 MLOAD PUSH2 0xFF SWAP2 SWAP1 PUSH2 0x1D5D JUMP JUMPDEST PUSH1 0x40 MLOAD DUP1 SWAP2 SUB SWAP1 RETURN JUMPDEST PUSH2 0x122 PUSH1 0x4 DUP1 CALLDATASIZE SUB DUP2 ADD SWAP1 PUSH2 0x11D SWAP2 SWAP1 PUSH2 0x1E08 JUMP JUMPDEST PUSH2 0x817 JUMP JUMPDEST STOP JUMPDEST PUSH2 0x12C PUSH2 0xB3D JUMP JUMPDEST PUSH1 0x40 MLOAD PUSH2 0x139 SWAP2 SWAP1 PUSH2 0x1BF9 JUMP JUMPDEST PUSH1 0x40 MLOAD DUP1 SWAP2 SUB SWAP1 RETURN JUMPDEST PUSH2 0x14A PUSH2 0xB53 JUMP JUMPDEST PUSH1 0x40 MLOAD PUSH2 0x157 SWAP2 SWAP1 PUSH2 0x1E74 JUMP JUMPDEST PUSH1 0x40 MLOAD DUP1 SWAP2 SUB SWAP1 RETURN JUMPDEST PUSH2 0x17A PUSH1 0x4 DUP1 CALLDATASIZE SUB DUP2 ADD SWAP1 PUSH2 0x175 SWAP2 SWAP1 PUSH2 0x237B JUMP JUMPDEST PUSH2 0xB79 JUMP JUMPDEST STOP JUMPDEST PUSH2 0x196 PUSH1 0x4 DUP1 CALLDATASIZE SUB DUP2 ADD SWAP1 PUSH2 0x191 SWAP2 SWAP1 PUSH2 0x23F5 JUMP JUMPDEST PUSH2 0xD7F JUMP JUMPDEST PUSH1 0x40 MLOAD PUSH2 0x1A6 SWAP5 SWAP4 SWAP3 SWAP2 SWAP1 PUSH2 0x242F JUMP JUMPDEST PUSH1 0x40 MLOAD DUP1 SWAP2 SUB SWAP1 RETURN JUMPDEST PUSH1 0x60 PUSH0 PUSH2 0x1BB DUP6 PUSH2 0x3E9 JUMP JUMPDEST SWAP1 POP PUSH0 PUSH2 0x1E6 DUP6 PUSH1 0x40 MLOAD PUSH1 0x20 ADD PUSH2 0x1D2 SWAP2 SWAP1 PUSH2 0x2492 JUMP JUMPDEST PUSH1 0x40 MLOAD PUSH1 0x20 DUP2 DUP4 SUB SUB DUP2 MSTORE SWAP1 PUSH1 0x40 MSTORE PUSH2 0xDF2 JUMP JUMPDEST PUSH2 0x1F5 DUP8 PUSH4 0xFFFFFFFF AND PUSH2 0x100C JUMP JUMPDEST PUSH2 0x205 DUP5 PUSH1 0x80 ADD MLOAD PUSH1 0xFF AND PUSH2 0x100C JUMP JUMPDEST PUSH2 0x214 DUP8 PUSH4 0xFFFFFFFF AND PUSH2 0x100C JUMP JUMPDEST PUSH1 0x40 MLOAD PUSH1 0x20 ADD PUSH2 0x227 SWAP5 SWAP4 SWAP3 SWAP2 SWAP1 PUSH2 0x2530 JUMP JUMPDEST PUSH1 0x40 MLOAD PUSH1 0x20 DUP2 DUP4 SUB SUB DUP2 MSTORE SWAP1 PUSH1 0x40 MSTORE SWAP1 POP PUSH0 DUP2 DUP1 MLOAD SWAP1 PUSH1 0x20 ADD KECCAK256 PUSH1 0x40 MLOAD PUSH1 0x20 ADD PUSH2 0x251 SWAP2 SWAP1 PUSH2 0x2492 JUMP JUMPDEST PUSH1 0x40 MLOAD PUSH1 0x20 DUP2 DUP4 SUB SUB DUP2 MSTORE SWAP1 PUSH1 0x40 MSTORE SWAP1 POP PUSH0 DUP4 PUSH1 0x60 ADD MLOAD SWAP1 POP PUSH0 DUP5 PUSH1 0x80 ADD MLOAD PUSH1 0xFF AND PUSH8 0xFFFFFFFFFFFFFFFF DUP2 GT ISZERO PUSH2 0x28C JUMPI PUSH2 0x28B PUSH2 0x1E91 JUMP JUMPDEST JUMPDEST PUSH1 0x40 MLOAD SWAP1 DUP1 DUP3 MSTORE DUP1 PUSH1 0x20 MUL PUSH1 0x20 ADD DUP3 ADD PUSH1 0x40 MSTORE DUP1 ISZERO PUSH2 0x2C5 JUMPI DUP2 PUSH1 0x20 ADD JUMPDEST PUSH2 0x2B2 PUSH2 0x18EA JUMP JUMPDEST DUP2 MSTORE PUSH1 0x20 ADD SWAP1 PUSH1 0x1 SWAP1 SUB SWAP1 DUP2 PUSH2 0x2AA JUMPI SWAP1 POP JUMPDEST POP SWAP1 POP PUSH0 DUP3 MLOAD SWAP1 POP PUSH0 DUP1 JUMPDEST DUP8 PUSH1 0x80 ADD MLOAD PUSH1 0xFF AND DUP2 PUSH4 0xFFFFFFFF AND LT ISZERO PUSH2 0x3C2 JUMPI PUSH0 PUSH2 0x2F0 DUP8 DUP5 PUSH2 0x118A JUMP JUMPDEST SWAP1 POP PUSH0 DUP5 DUP3 PUSH2 0x2FF SWAP2 SWAP1 PUSH2 0x25BB JUMP JUMPDEST SWAP1 POP DUP7 DUP2 DUP2 MLOAD DUP2 LT PUSH2 0x314 JUMPI PUSH2 0x313 PUSH2 0x25EB JUMP JUMPDEST JUMPDEST PUSH1 0x20 MUL PUSH1 0x20 ADD ADD MLOAD DUP7 DUP5 PUSH4 0xFFFFFFFF AND DUP2 MLOAD DUP2 LT PUSH2 0x335 JUMPI PUSH2 0x334 PUSH2 0x25EB JUMP JUMPDEST JUMPDEST PUSH1 0x20 MUL PUSH1 0x20 ADD ADD DUP2 SWAP1 MSTORE POP DUP10 PUSH1 0x60 ADD MLOAD PUSH1 0x1 DUP7 PUSH2 0x352 SWAP2 SWAP1 PUSH2 0x2645 JUMP JUMPDEST DUP2 MLOAD DUP2 LT PUSH2 0x363 JUMPI PUSH2 0x362 PUSH2 0x25EB JUMP JUMPDEST JUMPDEST PUSH1 0x20 MUL PUSH1 0x20 ADD ADD MLOAD DUP8 DUP3 DUP2 MLOAD DUP2 LT PUSH2 0x37E JUMPI PUSH2 0x37D PUSH2 0x25EB JUMP JUMPDEST JUMPDEST PUSH1 0x20 MUL PUSH1 0x20 ADD ADD DUP2 SWAP1 MSTORE POP DUP8 MLOAD PUSH1 0x4 DUP6 PUSH2 0x398 SWAP2 SWAP1 PUSH2 0x2678 JUMP JUMPDEST PUSH2 0x3A2 SWAP2 SWAP1 PUSH2 0x25BB JUMP JUMPDEST SWAP4 POP PUSH1 0x1 DUP6 PUSH2 0x3B1 SWAP2 SWAP1 PUSH2 0x2645 JUMP JUMPDEST SWAP5 POP POP POP DUP1 DUP1 PUSH1 0x1 ADD SWAP2 POP POP PUSH2 0x2D0 JUMP JUMPDEST POP DUP3 SWAP8 POP POP POP POP POP POP POP POP SWAP4 SWAP3 POP POP POP JUMP JUMPDEST PUSH1 0x1 PUSH0 SWAP1 SLOAD SWAP1 PUSH2 0x100 EXP SWAP1 DIV PUSH4 0xFFFFFFFF AND DUP2 JUMP JUMPDEST PUSH2 0x3F1 PUSH2 0x1919 JUMP JUMPDEST PUSH0 DUP3 PUSH4 0xFFFFFFFF AND SUB PUSH2 0x609 JUMPI PUSH0 PUSH1 0x1 PUSH0 DUP1 SLOAD SWAP1 POP PUSH2 0x410 SWAP2 SWAP1 PUSH2 0x2645 JUMP JUMPDEST DUP2 SLOAD DUP2 LT PUSH2 0x421 JUMPI PUSH2 0x420 PUSH2 0x25EB JUMP JUMPDEST JUMPDEST SWAP1 PUSH0 MSTORE PUSH1 0x20 PUSH0 KECCAK256 SWAP1 PUSH1 0x3 MUL ADD PUSH1 0x40 MLOAD DUP1 PUSH1 0xA0 ADD PUSH1 0x40 MSTORE SWAP1 DUP2 PUSH0 DUP3 ADD PUSH0 SWAP1 SLOAD SWAP1 PUSH2 0x100 EXP SWAP1 DIV PUSH4 0xFFFFFFFF AND PUSH4 0xFFFFFFFF AND PUSH4 0xFFFFFFFF AND DUP2 MSTORE PUSH1 0x20 ADD PUSH0 DUP3 ADD PUSH1 0x4 SWAP1 SLOAD SWAP1 PUSH2 0x100 EXP SWAP1 DIV PUSH4 0xFFFFFFFF AND PUSH4 0xFFFFFFFF AND PUSH4 0xFFFFFFFF AND DUP2 MSTORE PUSH1 0x20 ADD PUSH0 DUP3 ADD PUSH1 0x8 SWAP1 SLOAD SWAP1 PUSH2 0x100 EXP SWAP1 DIV PUSH4 0xFFFFFFFF AND PUSH4 0xFFFFFFFF AND PUSH4 0xFFFFFFFF AND DUP2 MSTORE PUSH1 0x20 ADD PUSH1 0x1 DUP3 ADD DUP1 SLOAD DUP1 PUSH1 0x20 MUL PUSH1 0x20 ADD PUSH1 0x40 MLOAD SWAP1 DUP2 ADD PUSH1 0x40 MSTORE DUP1 SWAP3 SWAP2 SWAP1 DUP2 DUP2 MSTORE PUSH1 0x20 ADD PUSH0 SWAP1 JUMPDEST DUP3 DUP3 LT ISZERO PUSH2 0x5DE JUMPI DUP4 DUP3 SWAP1 PUSH0 MSTORE PUSH1 0x20 PUSH0 KECCAK256 SWAP1 PUSH1 0x2 MUL ADD PUSH1 0x40 MLOAD DUP1 PUSH1 0x40 ADD PUSH1 0x40 MSTORE SWAP1 DUP2 PUSH0 DUP3 ADD PUSH0 SWAP1 SLOAD SWAP1 PUSH2 0x100 EXP SWAP1 DIV PUSH20 0xFFFFFFFFFFFFFFFFFFFFFFFFFFFFFFFFFFFFFFFF AND PUSH20 0xFFFFFFFFFFFFFFFFFFFFFFFFFFFFFFFFFFFFFFFF AND PUSH20 0xFFFFFFFFFFFFFFFFFFFFFFFFFFFFFFFFFFFFFFFF AND DUP2 MSTORE PUSH1 0x20 ADD PUSH1 0x1 DUP3 ADD DUP1 SLOAD PUSH2 0x54F SWAP1 PUSH2 0x26D8 JUMP JUMPDEST DUP1 PUSH1 0x1F ADD PUSH1 0x20 DUP1 SWAP2 DIV MUL PUSH1 0x20 ADD PUSH1 0x40 MLOAD SWAP1 DUP2 ADD PUSH1 0x40 MSTORE DUP1 SWAP3 SWAP2 SWAP1 DUP2 DUP2 MSTORE PUSH1 0x20 ADD DUP3 DUP1 SLOAD PUSH2 0x57B SWAP1 PUSH2 0x26D8 JUMP JUMPDEST DUP1 ISZERO PUSH2 0x5C6 JUMPI DUP1 PUSH1 0x1F LT PUSH2 0x59D JUMPI PUSH2 0x100 DUP1 DUP4 SLOAD DIV MUL DUP4 MSTORE SWAP2 PUSH1 0x20 ADD SWAP2 PUSH2 0x5C6 JUMP JUMPDEST DUP3 ADD SWAP2 SWAP1 PUSH0 MSTORE PUSH1 0x20 PUSH0 KECCAK256 SWAP1 JUMPDEST DUP2 SLOAD DUP2 MSTORE SWAP1 PUSH1 0x1 ADD SWAP1 PUSH1 0x20 ADD DUP1 DUP4 GT PUSH2 0x5A9 JUMPI DUP3 SWAP1 SUB PUSH1 0x1F AND DUP3 ADD SWAP2 JUMPDEST POP POP POP POP POP DUP2 MSTORE POP POP DUP2 MSTORE PUSH1 0x20 ADD SWAP1 PUSH1 0x1 ADD SWAP1 PUSH2 0x4CA JUMP JUMPDEST POP POP POP POP DUP2 MSTORE PUSH1 0x20 ADD PUSH1 0x2 DUP3 ADD PUSH0 SWAP1 SLOAD SWAP1 PUSH2 0x100 EXP SWAP1 DIV PUSH1 0xFF AND PUSH1 0xFF AND PUSH1 0xFF AND DUP2 MSTORE POP POP SWAP1 POP PUSH2 0x812 JUMP JUMPDEST PUSH0 PUSH1 0x1 DUP4 PUSH2 0x617 SWAP2 SWAP1 PUSH2 0x2708 JUMP JUMPDEST PUSH4 0xFFFFFFFF AND DUP2 SLOAD DUP2 LT PUSH2 0x62E JUMPI PUSH2 0x62D PUSH2 0x25EB JUMP JUMPDEST JUMPDEST SWAP1 PUSH0 MSTORE PUSH1 0x20 PUSH0 KECCAK256 SWAP1 PUSH1 0x3 MUL ADD PUSH1 0x40 MLOAD DUP1 PUSH1 0xA0 ADD PUSH1 0x40 MSTORE SWAP1 DUP2 PUSH0 DUP3 ADD PUSH0 SWAP1 SLOAD SWAP1 PUSH2 0x100 EXP SWAP1 DIV PUSH4 0xFFFFFFFF AND PUSH4 0xFFFFFFFF AND PUSH4 0xFFFFFFFF AND DUP2 MSTORE PUSH1 0x20 ADD PUSH0 DUP3 ADD PUSH1 0x4 SWAP1 SLOAD SWAP1 PUSH2 0x100 EXP SWAP1 DIV PUSH4 0xFFFFFFFF AND PUSH4 0xFFFFFFFF AND PUSH4 0xFFFFFFFF AND DUP2 MSTORE PUSH1 0x20 ADD PUSH0 DUP3 ADD PUSH1 0x8 SWAP1 SLOAD SWAP1 PUSH2 0x100 EXP SWAP1 DIV PUSH4 0xFFFFFFFF AND PUSH4 0xFFFFFFFF AND PUSH4 0xFFFFFFFF AND DUP2 MSTORE PUSH1 0x20 ADD PUSH1 0x1 DUP3 ADD DUP1 SLOAD DUP1 PUSH1 0x20 MUL PUSH1 0x20 ADD PUSH1 0x40 MLOAD SWAP1 DUP2 ADD PUSH1 0x40 MSTORE DUP1 SWAP3 SWAP2 SWAP1 DUP2 DUP2 MSTORE PUSH1 0x20 ADD PUSH0 SWAP1 JUMPDEST DUP3 DUP3 LT ISZERO PUSH2 0x7EB JUMPI DUP4 DUP3 SWAP1 PUSH0 MSTORE PUSH1 0x20 PUSH0 KECCAK256 SWAP1 PUSH1 0x2 MUL ADD PUSH1 0x40 MLOAD DUP1 PUSH1 0x40 ADD PUSH1 0x40 MSTORE SWAP1 DUP2 PUSH0 DUP3 ADD PUSH0 SWAP1 SLOAD SWAP1 PUSH2 0x100 EXP SWAP1 DIV PUSH20 0xFFFFFFFFFFFFFFFFFFFFFFFFFFFFFFFFFFFFFFFF AND PUSH20 0xFFFFFFFFFFFFFFFFFFFFFFFFFFFFFFFFFFFFFFFF AND PUSH20 0xFFFFFFFFFFFFFFFFFFFFFFFFFFFFFFFFFFFFFFFF AND DUP2 MSTORE PUSH1 0x20 ADD PUSH1 0x1 DUP3 ADD DUP1 SLOAD PUSH2 0x75C SWAP1 PUSH2 0x26D8 JUMP JUMPDEST DUP1 PUSH1 0x1F ADD PUSH1 0x20 DUP1 SWAP2 DIV MUL PUSH1 0x20 ADD PUSH1 0x40 MLOAD SWAP1 DUP2 ADD PUSH1 0x40 MSTORE DUP1 SWAP3 SWAP2 SWAP1 DUP2 DUP2 MSTORE PUSH1 0x20 ADD DUP3 DUP1 SLOAD PUSH2 0x788 SWAP1 PUSH2 0x26D8 JUMP JUMPDEST DUP1 ISZERO PUSH2 0x7D3 JUMPI DUP1 PUSH1 0x1F LT PUSH2 0x7AA JUMPI PUSH2 0x100 DUP1 DUP4 SLOAD DIV MUL DUP4 MSTORE SWAP2 PUSH1 0x20 ADD SWAP2 PUSH2 0x7D3 JUMP JUMPDEST DUP3 ADD SWAP2 SWAP1 PUSH0 MSTORE PUSH1 0x20 PUSH0 KECCAK256 SWAP1 JUMPDEST DUP2 SLOAD DUP2 MSTORE SWAP1 PUSH1 0x1 ADD SWAP1 PUSH1 0x20 ADD DUP1 DUP4 GT PUSH2 0x7B6 JUMPI DUP3 SWAP1 SUB PUSH1 0x1F AND DUP3 ADD SWAP2 JUMPDEST POP POP POP POP POP DUP2 MSTORE POP POP DUP2 MSTORE PUSH1 0x20 ADD SWAP1 PUSH1 0x1 ADD SWAP1 PUSH2 0x6D7 JUMP JUMPDEST POP POP POP POP DUP2 MSTORE PUSH1 0x20 ADD PUSH1 0x2 DUP3 ADD PUSH0 SWAP1 SLOAD SWAP1 PUSH2 0x100 EXP SWAP1 DIV PUSH1 0xFF AND PUSH1 0xFF AND PUSH1 0xFF AND DUP2 MSTORE POP POP SWAP1 POP JUMPDEST SWAP2 SWAP1 POP JUMP JUMPDEST CALLER PUSH20 0xFFFFFFFFFFFFFFFFFFFFFFFFFFFFFFFFFFFFFFFF AND PUSH1 0x1 PUSH1 0x8 SWAP1 SLOAD SWAP1 PUSH2 0x100 EXP SWAP1 DIV PUSH20 0xFFFFFFFFFFFFFFFFFFFFFFFFFFFFFFFFFFFFFFFF AND PUSH20 0xFFFFFFFFFFFFFFFFFFFFFFFFFFFFFFFFFFFFFFFF AND EQ PUSH2 0x8A7 JUMPI PUSH1 0x40 MLOAD PUSH32 0x8C379A000000000000000000000000000000000000000000000000000000000 DUP2 MSTORE PUSH1 0x4 ADD PUSH2 0x89E SWAP1 PUSH2 0x2799 JUMP JUMPDEST PUSH1 0x40 MLOAD DUP1 SWAP2 SUB SWAP1 REVERT JUMPDEST PUSH0 PUSH1 0x1 PUSH0 SWAP1 SLOAD SWAP1 PUSH2 0x100 EXP SWAP1 DIV PUSH4 0xFFFFFFFF AND PUSH4 0xFFFFFFFF AND SUB PUSH2 0x8E9 JUMPI PUSH3 0x15180 PUSH1 0x1 PUSH0 PUSH2 0x100 EXP DUP2 SLOAD DUP2 PUSH4 0xFFFFFFFF MUL NOT AND SWAP1 DUP4 PUSH4 0xFFFFFFFF AND MUL OR SWAP1 SSTORE POP JUMPDEST PUSH0 DUP1 DUP1 SLOAD SWAP1 POP GT ISZERO PUSH2 0x946 JUMPI TIMESTAMP PUSH0 PUSH1 0x1 PUSH0 DUP1 SLOAD SWAP1 POP PUSH2 0x908 SWAP2 SWAP1 PUSH2 0x2645 JUMP JUMPDEST DUP2 SLOAD DUP2 LT PUSH2 0x919 JUMPI PUSH2 0x918 PUSH2 0x25EB JUMP JUMPDEST JUMPDEST SWAP1 PUSH0 MSTORE PUSH1 0x20 PUSH0 KECCAK256 SWAP1 PUSH1 0x3 MUL ADD PUSH0 ADD PUSH1 0x8 PUSH2 0x100 EXP DUP2 SLOAD DUP2 PUSH4 0xFFFFFFFF MUL NOT AND SWAP1 DUP4 PUSH4 0xFFFFFFFF AND MUL OR SWAP1 SSTORE POP JUMPDEST PUSH1 0x1 DUP1 PUSH1 0x4 DUP3 DUP3 DUP3 SWAP1 SLOAD SWAP1 PUSH2 0x100 EXP SWAP1 DIV PUSH4 0xFFFFFFFF AND PUSH2 0x967 SWAP2 SWAP1 PUSH2 0x27B7 JUMP JUMPDEST SWAP3 POP PUSH2 0x100 EXP DUP2 SLOAD DUP2 PUSH4 0xFFFFFFFF MUL NOT AND SWAP1 DUP4 PUSH4 0xFFFFFFFF AND MUL OR SWAP1 SSTORE POP PUSH0 DUP1 PUSH1 0x1 DUP2 PUSH1 0x1 DUP2 SLOAD ADD DUP1 DUP3 SSTORE DUP1 SWAP2 POP POP SUB SWAP1 PUSH0 MSTORE PUSH1 0x20 PUSH0 KECCAK256 SWAP1 PUSH1 0x3 MUL ADD SWAP1 POP PUSH1 0x1 PUSH1 0x4 SWAP1 SLOAD SWAP1 PUSH2 0x100 EXP SWAP1 DIV PUSH4 0xFFFFFFFF AND DUP2 PUSH0 ADD PUSH0 PUSH2 0x100 EXP DUP2 SLOAD DUP2 PUSH4 0xFFFFFFFF MUL NOT AND SWAP1 DUP4 PUSH4 0xFFFFFFFF AND MUL OR SWAP1 SSTORE POP TIMESTAMP DUP2 PUSH0 ADD PUSH1 0x4 PUSH2 0x100 EXP DUP2 SLOAD DUP2 PUSH4 0xFFFFFFFF MUL NOT AND SWAP1 DUP4 PUSH4 0xFFFFFFFF AND MUL OR SWAP1 SSTORE POP PUSH1 0x1 PUSH0 SWAP1 SLOAD SWAP1 PUSH2 0x100 EXP SWAP1 DIV PUSH4 0xFFFFFFFF AND PUSH4 0xFFFFFFFF AND TIMESTAMP PUSH2 0xA1D SWAP2 SWAP1 PUSH2 0x2678 JUMP JUMPDEST DUP2 PUSH0 ADD PUSH1 0x8 PUSH2 0x100 EXP DUP2 SLOAD DUP2 PUSH4 0xFFFFFFFF MUL NOT AND SWAP1 DUP4 PUSH4 0xFFFFFFFF AND MUL OR SWAP1 SSTORE POP DUP2 DUP2 PUSH1 0x2 ADD PUSH0 PUSH2 0x100 EXP DUP2 SLOAD DUP2 PUSH1 0xFF MUL NOT AND SWAP1 DUP4 PUSH1 0xFF AND MUL OR SWAP1 SSTORE POP PUSH0 JUMPDEST DUP5 DUP5 SWAP1 POP DUP2 LT ISZERO PUSH2 0xAD1 JUMPI DUP2 PUSH1 0x1 ADD DUP6 DUP6 DUP4 DUP2 DUP2 LT PUSH2 0xA7E JUMPI PUSH2 0xA7D PUSH2 0x25EB JUMP JUMPDEST JUMPDEST SWAP1 POP PUSH1 0x20 MUL DUP2 ADD SWAP1 PUSH2 0xA90 SWAP2 SWAP1 PUSH2 0x27FA JUMP JUMPDEST SWAP1 DUP1 PUSH1 0x1 DUP2 SLOAD ADD DUP1 DUP3 SSTORE DUP1 SWAP2 POP POP PUSH1 0x1 SWAP1 SUB SWAP1 PUSH0 MSTORE PUSH1 0x20 PUSH0 KECCAK256 SWAP1 PUSH1 0x2 MUL ADD PUSH0 SWAP1 SWAP2 SWAP1 SWAP2 SWAP1 SWAP2 POP DUP2 DUP2 PUSH2 0xAC2 SWAP2 SWAP1 PUSH2 0x2C0F JUMP JUMPDEST POP POP DUP1 DUP1 PUSH1 0x1 ADD SWAP2 POP POP PUSH2 0xA5C JUMP JUMPDEST POP PUSH32 0xB2A1462B8D912A9FE495DA7A1188C48BB87BAC4644A0931AA4CE2DD7017CE365 PUSH0 PUSH1 0x1 PUSH0 DUP1 SLOAD SWAP1 POP PUSH2 0xB05 SWAP2 SWAP1 PUSH2 0x2645 JUMP JUMPDEST DUP2 SLOAD DUP2 LT PUSH2 0xB16 JUMPI PUSH2 0xB15 PUSH2 0x25EB JUMP JUMPDEST JUMPDEST SWAP1 PUSH0 MSTORE PUSH1 0x20 PUSH0 KECCAK256 SWAP1 PUSH1 0x3 MUL ADD PUSH1 0x40 MLOAD PUSH2 0xB2F SWAP2 SWAP1 PUSH2 0x2EFD JUMP JUMPDEST PUSH1 0x40 MLOAD DUP1 SWAP2 SUB SWAP1 LOG1 POP POP POP POP JUMP JUMPDEST PUSH1 0x1 PUSH1 0x4 SWAP1 SLOAD SWAP1 PUSH2 0x100 EXP SWAP1 DIV PUSH4 0xFFFFFFFF AND DUP2 JUMP JUMPDEST PUSH1 0x1 PUSH1 0x8 SWAP1 SLOAD SWAP1 PUSH2 0x100 EXP SWAP1 DIV PUSH20 0xFFFFFFFFFFFFFFFFFFFFFFFFFFFFFFFFFFFFFFFF AND DUP2 JUMP JUMPDEST PUSH0 DUP2 PUSH1 0x20 ADD MLOAD PUSH1 0x20 ADD MLOAD MLOAD GT PUSH2 0xBC4 JUMPI PUSH1 0x40 MLOAD PUSH32 0x8C379A000000000000000000000000000000000000000000000000000000000 DUP2 MSTORE PUSH1 0x4 ADD PUSH2 0xBBB SWAP1 PUSH2 0x2F67 JUMP JUMPDEST PUSH1 0x40 MLOAD DUP1 SWAP2 SUB SWAP1 REVERT JUMPDEST PUSH0 PUSH1 0x40 MLOAD DUP1 PUSH1 0x40 ADD PUSH1 0x40 MSTORE DUP1 DUP4 PUSH1 0x20 ADD MLOAD PUSH0 ADD MLOAD DUP2 MSTORE PUSH1 0x20 ADD DUP4 PUSH1 0x20 ADD MLOAD PUSH1 0x20 ADD MLOAD DUP2 MSTORE POP SWAP1 POP PUSH0 PUSH2 0xBF8 DUP4 PUSH0 ADD MLOAD PUSH2 0x11F5 JUMP JUMPDEST SWAP1 POP DUP1 DUP4 PUSH1 0x20 ADD MLOAD PUSH0 ADD MLOAD PUSH0 ADD MLOAD EQ PUSH2 0xC0F JUMPI PUSH0 DUP1 REVERT JUMPDEST PUSH0 PUSH2 0xC3B DUP5 PUSH1 0x20 ADD MLOAD PUSH0 ADD MLOAD PUSH1 0x60 ADD MLOAD DUP6 PUSH1 0x20 ADD MLOAD PUSH0 ADD MLOAD PUSH0 ADD MLOAD DUP7 PUSH1 0x20 ADD MLOAD PUSH0 ADD MLOAD PUSH1 0x40 ADD MLOAD PUSH2 0x1AF JUMP JUMPDEST SWAP1 POP PUSH0 PUSH2 0xC47 DUP5 PUSH2 0x1238 JUMP JUMPDEST SWAP1 POP DUP2 MLOAD DUP2 MLOAD EQ PUSH2 0xC8D JUMPI PUSH1 0x40 MLOAD PUSH32 0x8C379A000000000000000000000000000000000000000000000000000000000 DUP2 MSTORE PUSH1 0x4 ADD PUSH2 0xC84 SWAP1 PUSH2 0x2FF5 JUMP JUMPDEST PUSH1 0x40 MLOAD DUP1 SWAP2 SUB SWAP1 REVERT JUMPDEST PUSH0 JUMPDEST DUP5 PUSH1 0x20 ADD MLOAD MLOAD DUP2 LT ISZERO PUSH2 0xD77 JUMPI PUSH0 DUP1 JUMPDEST DUP5 MLOAD DUP2 LT ISZERO PUSH2 0xD28 JUMPI DUP5 DUP2 DUP2 MLOAD DUP2 LT PUSH2 0xCBB JUMPI PUSH2 0xCBA PUSH2 0x25EB JUMP JUMPDEST JUMPDEST PUSH1 0x20 MUL PUSH1 0x20 ADD ADD MLOAD PUSH0 ADD MLOAD PUSH20 0xFFFFFFFFFFFFFFFFFFFFFFFFFFFFFFFFFFFFFFFF AND DUP5 DUP5 DUP2 MLOAD DUP2 LT PUSH2 0xCEF JUMPI PUSH2 0xCEE PUSH2 0x25EB JUMP JUMPDEST JUMPDEST PUSH1 0x20 MUL PUSH1 0x20 ADD ADD MLOAD PUSH20 0xFFFFFFFFFFFFFFFFFFFFFFFFFFFFFFFFFFFFFFFF AND SUB PUSH2 0xD1B JUMPI PUSH1 0x1 SWAP2 POP PUSH2 0xD28 JUMP JUMPDEST DUP1 DUP1 PUSH1 0x1 ADD SWAP2 POP POP PUSH2 0xC9F JUMP JUMPDEST POP DUP1 PUSH2 0xD69 JUMPI PUSH1 0x40 MLOAD PUSH32 0x8C379A000000000000000000000000000000000000000000000000000000000 DUP2 MSTORE PUSH1 0x4 ADD PUSH2 0xD60 SWAP1 PUSH2 0x305D JUMP JUMPDEST PUSH1 0x40 MLOAD DUP1 SWAP2 SUB SWAP1 REVERT JUMPDEST POP DUP1 DUP1 PUSH1 0x1 ADD SWAP2 POP POP PUSH2 0xC8F JUMP JUMPDEST POP POP POP POP POP POP JUMP JUMPDEST PUSH0 DUP2 DUP2 SLOAD DUP2 LT PUSH2 0xD8D JUMPI PUSH0 DUP1 REVERT JUMPDEST SWAP1 PUSH0 MSTORE PUSH1 0x20 PUSH0 KECCAK256 SWAP1 PUSH1 0x3 MUL ADD PUSH0 SWAP2 POP SWAP1 POP DUP1 PUSH0 ADD PUSH0 SWAP1 SLOAD SWAP1 PUSH2 0x100 EXP SWAP1 DIV PUSH4 0xFFFFFFFF AND SWAP1 DUP1 PUSH0 ADD PUSH1 0x4 SWAP1 SLOAD SWAP1 PUSH2 0x100 EXP SWAP1 DIV PUSH4 0xFFFFFFFF AND SWAP1 DUP1 PUSH0 ADD PUSH1 0x8 SWAP1 SLOAD SWAP1 PUSH2 0x100 EXP SWAP1 DIV PUSH4 0xFFFFFFFF AND SWAP1 DUP1 PUSH1 0x2 ADD PUSH0 SWAP1 SLOAD SWAP1 PUSH2 0x100 EXP SWAP1 DIV PUSH1 0xFF AND SWAP1 POP DUP5 JUMP JUMPDEST PUSH1 0x60 PUSH0 PUSH1 0x2 DUP4 MLOAD PUSH2 0xE03 SWAP2 SWAP1 PUSH2 0x307B JUMP JUMPDEST PUSH8 0xFFFFFFFFFFFFFFFF DUP2 GT ISZERO PUSH2 0xE1C JUMPI PUSH2 0xE1B PUSH2 0x1E91 JUMP JUMPDEST JUMPDEST PUSH1 0x40 MLOAD SWAP1 DUP1 DUP3 MSTORE DUP1 PUSH1 0x1F ADD PUSH1 0x1F NOT AND PUSH1 0x20 ADD DUP3 ADD PUSH1 0x40 MSTORE DUP1 ISZERO PUSH2 0xE4E JUMPI DUP2 PUSH1 0x20 ADD PUSH1 0x1 DUP3 MUL DUP1 CALLDATASIZE DUP4 CALLDATACOPY DUP1 DUP3 ADD SWAP2 POP POP SWAP1 POP JUMPDEST POP SWAP1 POP PUSH0 PUSH1 0x40 MLOAD DUP1 PUSH1 0x40 ADD PUSH1 0x40 MSTORE DUP1 PUSH1 0x10 DUP2 MSTORE PUSH1 0x20 ADD PUSH32 0x3031323334353637383961626364656600000000000000000000000000000000 DUP2 MSTORE POP SWAP1 POP PUSH0 JUMPDEST DUP5 MLOAD DUP2 LT ISZERO PUSH2 0xFE2 JUMPI DUP2 DUP3 MLOAD DUP7 DUP4 DUP2 MLOAD DUP2 LT PUSH2 0xEAB JUMPI PUSH2 0xEAA PUSH2 0x25EB JUMP JUMPDEST JUMPDEST PUSH1 0x20 ADD ADD MLOAD PUSH1 0xF8 SHR PUSH1 0xF8 SHL PUSH1 0xF8 SHR PUSH1 0xFF AND PUSH2 0xEC6 SWAP2 SWAP1 PUSH2 0x30BC JUMP JUMPDEST DUP2 MLOAD DUP2 LT PUSH2 0xED7 JUMPI PUSH2 0xED6 PUSH2 0x25EB JUMP JUMPDEST JUMPDEST PUSH1 0x20 ADD ADD MLOAD PUSH1 0xF8 SHR PUSH1 0xF8 SHL DUP4 PUSH1 0x2 DUP4 PUSH2 0xEF0 SWAP2 SWAP1 PUSH2 0x307B JUMP JUMPDEST DUP2 MLOAD DUP2 LT PUSH2 0xF01 JUMPI PUSH2 0xF00 PUSH2 0x25EB JUMP JUMPDEST JUMPDEST PUSH1 0x20 ADD ADD SWAP1 PUSH31 0xFFFFFFFFFFFFFFFFFFFFFFFFFFFFFFFFFFFFFFFFFFFFFFFFFFFFFFFFFFFFFF NOT AND SWAP1 DUP2 PUSH0 BYTE SWAP1 MSTORE8 POP DUP2 DUP3 MLOAD DUP7 DUP4 DUP2 MLOAD DUP2 LT PUSH2 0xF45 JUMPI PUSH2 0xF44 PUSH2 0x25EB JUMP JUMPDEST JUMPDEST PUSH1 0x20 ADD ADD MLOAD PUSH1 0xF8 SHR PUSH1 0xF8 SHL PUSH1 0xF8 SHR PUSH1 0xFF AND PUSH2 0xF60 SWAP2 SWAP1 PUSH2 0x25BB JUMP JUMPDEST DUP2 MLOAD DUP2 LT PUSH2 0xF71 JUMPI PUSH2 0xF70 PUSH2 0x25EB JUMP JUMPDEST JUMPDEST PUSH1 0x20 ADD ADD MLOAD PUSH1 0xF8 SHR PUSH1 0xF8 SHL DUP4 PUSH1 0x1 PUSH1 0x2 DUP5 PUSH2 0xF8C SWAP2 SWAP1 PUSH2 0x307B JUMP JUMPDEST PUSH2 0xF96 SWAP2 SWAP1 PUSH2 0x2678 JUMP JUMPDEST DUP2 MLOAD DUP2 LT PUSH2 0xFA7 JUMPI PUSH2 0xFA6 PUSH2 0x25EB JUMP JUMPDEST JUMPDEST PUSH1 0x20 ADD ADD SWAP1 PUSH31 0xFFFFFFFFFFFFFFFFFFFFFFFFFFFFFFFFFFFFFFFFFFFFFFFFFFFFFFFFFFFFFF NOT AND SWAP1 DUP2 PUSH0 BYTE SWAP1 MSTORE8 POP DUP1 DUP1 PUSH1 0x1 ADD SWAP2 POP POP PUSH2 0xE8C JUMP JUMPDEST POP DUP2 PUSH1 0x40 MLOAD PUSH1 0x20 ADD PUSH2 0xFF4 SWAP2 SWAP1 PUSH2 0x317A JUMP JUMPDEST PUSH1 0x40 MLOAD PUSH1 0x20 DUP2 DUP4 SUB SUB DUP2 MSTORE SWAP1 PUSH1 0x40 MSTORE SWAP3 POP POP POP SWAP2 SWAP1 POP JUMP JUMPDEST PUSH1 0x60 PUSH0 DUP3 SUB PUSH2 0x1052 JUMPI PUSH1 0x40 MLOAD DUP1 PUSH1 0x40 ADD PUSH1 0x40 MSTORE DUP1 PUSH1 0x1 DUP2 MSTORE PUSH1 0x20 ADD PUSH32 0x3000000000000000000000000000000000000000000000000000000000000000 DUP2 MSTORE POP SWAP1 POP PUSH2 0x1185 JUMP JUMPDEST PUSH0 DUP3 SWAP1 POP PUSH0 JUMPDEST PUSH0 DUP3 EQ PUSH2 0x1081 JUMPI DUP1 DUP1 PUSH2 0x106A SWAP1 PUSH2 0x319B JUMP JUMPDEST SWAP2 POP POP PUSH1 0xA DUP3 PUSH2 0x107A SWAP2 SWAP1 PUSH2 0x30BC JUMP JUMPDEST SWAP2 POP PUSH2 0x1058 JUMP JUMPDEST PUSH0 DUP2 PUSH8 0xFFFFFFFFFFFFFFFF DUP2 GT ISZERO PUSH2 0x109C JUMPI PUSH2 0x109B PUSH2 0x1E91 JUMP JUMPDEST JUMPDEST PUSH1 0x40 MLOAD SWAP1 DUP1 DUP3 MSTORE DUP1 PUSH1 0x1F ADD PUSH1 0x1F NOT AND PUSH1 0x20 ADD DUP3 ADD PUSH1 0x40 MSTORE DUP1 ISZERO PUSH2 0x10CE JUMPI DUP2 PUSH1 0x20 ADD PUSH1 0x1 DUP3 MUL DUP1 CALLDATASIZE DUP4 CALLDATACOPY DUP1 DUP3 ADD SWAP2 POP POP SWAP1 POP JUMPDEST POP SWAP1 POP PUSH0 DUP3 SWAP1 POP JUMPDEST PUSH0 DUP7 EQ PUSH2 0x117D JUMPI PUSH1 0x1 DUP2 PUSH2 0x10EA SWAP2 SWAP1 PUSH2 0x2645 JUMP JUMPDEST SWAP1 POP PUSH0 PUSH1 0xA DUP1 DUP9 PUSH2 0x10FB SWAP2 SWAP1 PUSH2 0x30BC JUMP JUMPDEST PUSH2 0x1105 SWAP2 SWAP1 PUSH2 0x307B JUMP JUMPDEST DUP8 PUSH2 0x1110 SWAP2 SWAP1 PUSH2 0x2645 JUMP JUMPDEST PUSH1 0x30 PUSH2 0x111C SWAP2 SWAP1 PUSH2 0x31E2 JUMP JUMPDEST SWAP1 POP PUSH0 DUP2 PUSH1 0xF8 SHL SWAP1 POP DUP1 DUP5 DUP5 DUP2 MLOAD DUP2 LT PUSH2 0x1139 JUMPI PUSH2 0x1138 PUSH2 0x25EB JUMP JUMPDEST JUMPDEST PUSH1 0x20 ADD ADD SWAP1 PUSH31 0xFFFFFFFFFFFFFFFFFFFFFFFFFFFFFFFFFFFFFFFFFFFFFFFFFFFFFFFFFFFFFF NOT AND SWAP1 DUP2 PUSH0 BYTE SWAP1 MSTORE8 POP PUSH1 0xA DUP9 PUSH2 0x1174 SWAP2 SWAP1 PUSH2 0x30BC JUMP JUMPDEST SWAP8 POP POP POP PUSH2 0x10D6 JUMP JUMPDEST DUP2 SWAP5 POP POP POP POP POP JUMPDEST SWAP2 SWAP1 POP JUMP JUMPDEST PUSH0 DUP3 MLOAD PUSH1 0x4 DUP4 PUSH2 0x119A SWAP2 SWAP1 PUSH2 0x2678 JUMP JUMPDEST GT ISZERO PUSH2 0x11DB JUMPI PUSH1 0x40 MLOAD PUSH32 0x8C379A000000000000000000000000000000000000000000000000000000000 DUP2 MSTORE PUSH1 0x4 ADD PUSH2 0x11D2 SWAP1 PUSH2 0x3286 JUMP JUMPDEST PUSH1 0x40 MLOAD DUP1 SWAP2 SUB SWAP1 REVERT JUMPDEST PUSH0 DUP3 PUSH1 0x4 DUP6 ADD ADD MLOAD SWAP1 POP DUP1 PUSH4 0xFFFFFFFF AND SWAP2 POP POP SWAP3 SWAP2 POP POP JUMP JUMPDEST PUSH0 DUP1 DUP3 PUSH0 ADD MLOAD DUP4 PUSH1 0x20 ADD MLOAD DUP5 PUSH1 0x40 ADD MLOAD PUSH1 0x40 MLOAD PUSH1 0x20 ADD PUSH2 0x1217 SWAP4 SWAP3 SWAP2 SWAP1 PUSH2 0x32A4 JUMP JUMPDEST PUSH1 0x40 MLOAD PUSH1 0x20 DUP2 DUP4 SUB SUB DUP2 MSTORE SWAP1 PUSH1 0x40 MSTORE SWAP1 POP DUP1 DUP1 MLOAD SWAP1 PUSH1 0x20 ADD KECCAK256 SWAP2 POP POP SWAP2 SWAP1 POP JUMP JUMPDEST PUSH1 0x60 PUSH0 PUSH2 0x1247 DUP4 PUSH0 ADD MLOAD PUSH2 0x1336 JUMP JUMPDEST SWAP1 POP PUSH0 DUP4 PUSH1 0x20 ADD MLOAD MLOAD PUSH8 0xFFFFFFFFFFFFFFFF DUP2 GT ISZERO PUSH2 0x1269 JUMPI PUSH2 0x1268 PUSH2 0x1E91 JUMP JUMPDEST JUMPDEST PUSH1 0x40 MLOAD SWAP1 DUP1 DUP3 MSTORE DUP1 PUSH1 0x20 MUL PUSH1 0x20 ADD DUP3 ADD PUSH1 0x40 MSTORE DUP1 ISZERO PUSH2 0x1297 JUMPI DUP2 PUSH1 0x20 ADD PUSH1 0x20 DUP3 MUL DUP1 CALLDATASIZE DUP4 CALLDATACOPY DUP1 DUP3 ADD SWAP2 POP POP SWAP1 POP JUMPDEST POP SWAP1 POP PUSH0 JUMPDEST DUP5 PUSH1 0x20 ADD MLOAD MLOAD DUP2 LT ISZERO PUSH2 0x132B JUMPI PUSH2 0x12D1 DUP4 DUP7 PUSH1 0x20 ADD MLOAD DUP4 DUP2 MLOAD DUP2 LT PUSH2 0x12C4 JUMPI PUSH2 0x12C3 PUSH2 0x25EB JUMP JUMPDEST JUMPDEST PUSH1 0x20 MUL PUSH1 0x20 ADD ADD MLOAD PUSH2 0x13BF JUMP JUMPDEST DUP3 DUP3 DUP2 MLOAD DUP2 LT PUSH2 0x12E4 JUMPI PUSH2 0x12E3 PUSH2 0x25EB JUMP JUMPDEST JUMPDEST PUSH1 0x20 MUL PUSH1 0x20 ADD ADD SWAP1 PUSH20 0xFFFFFFFFFFFFFFFFFFFFFFFFFFFFFFFFFFFFFFFF AND SWAP1 DUP2 PUSH20 0xFFFFFFFFFFFFFFFFFFFFFFFFFFFFFFFFFFFFFFFF AND DUP2 MSTORE POP POP DUP1 DUP1 PUSH1 0x1 ADD SWAP2 POP POP PUSH2 0x129C JUMP JUMPDEST POP DUP1 SWAP3 POP POP POP SWAP2 SWAP1 POP JUMP JUMPDEST PUSH1 0x60 PUSH2 0x1363 DUP3 PUSH0 ADD MLOAD PUSH1 0x40 MLOAD PUSH1 0x20 ADD PUSH2 0x134F SWAP2 SWAP1 PUSH2 0x2492 JUMP JUMPDEST PUSH1 0x40 MLOAD PUSH1 0x20 DUP2 DUP4 SUB SUB DUP2 MSTORE SWAP1 PUSH1 0x40 MSTORE PUSH2 0xDF2 JUMP JUMPDEST PUSH2 0x1370 DUP4 PUSH1 0x20 ADD MLOAD PUSH2 0x1408 JUMP JUMPDEST PUSH2 0x1383 DUP5 PUSH1 0x40 ADD MLOAD PUSH4 0xFFFFFFFF AND PUSH2 0x100C JUMP JUMPDEST PUSH2 0x1396 DUP6 PUSH1 0x60 ADD MLOAD PUSH4 0xFFFFFFFF AND PUSH2 0x100C JUMP JUMPDEST PUSH1 0x40 MLOAD PUSH1 0x20 ADD PUSH2 0x13A9 SWAP5 SWAP4 SWAP3 SWAP2 SWAP1 PUSH2 0x2530 JUMP JUMPDEST PUSH1 0x40 MLOAD PUSH1 0x20 DUP2 DUP4 SUB SUB DUP2 MSTORE SWAP1 PUSH1 0x40 MSTORE SWAP1 POP SWAP2 SWAP1 POP JUMP JUMPDEST PUSH0 DUP1 PUSH2 0x13CB DUP5 MLOAD PUSH2 0x100C JUMP JUMPDEST DUP5 PUSH1 0x40 MLOAD PUSH1 0x20 ADD PUSH2 0x13DD SWAP3 SWAP2 SWAP1 PUSH2 0x3334 JUMP JUMPDEST PUSH1 0x40 MLOAD PUSH1 0x20 DUP2 DUP4 SUB SUB DUP2 MSTORE SWAP1 PUSH1 0x40 MSTORE DUP1 MLOAD SWAP1 PUSH1 0x20 ADD KECCAK256 SWAP1 POP PUSH2 0x13FF DUP2 DUP5 PUSH2 0x15DD JUMP JUMPDEST SWAP2 POP POP SWAP3 SWAP2 POP POP JUMP JUMPDEST PUSH1 0x60 PUSH0 PUSH1 0x28 PUSH8 0xFFFFFFFFFFFFFFFF DUP2 GT ISZERO PUSH2 0x1426 JUMPI PUSH2 0x1425 PUSH2 0x1E91 JUMP JUMPDEST JUMPDEST PUSH1 0x40 MLOAD SWAP1 DUP1 DUP3 MSTORE DUP1 PUSH1 0x1F ADD PUSH1 0x1F NOT AND PUSH1 0x20 ADD DUP3 ADD PUSH1 0x40 MSTORE DUP1 ISZERO PUSH2 0x1458 JUMPI DUP2 PUSH1 0x20 ADD PUSH1 0x1 DUP3 MUL DUP1 CALLDATASIZE DUP4 CALLDATACOPY DUP1 DUP3 ADD SWAP2 POP POP SWAP1 POP JUMPDEST POP SWAP1 POP PUSH0 JUMPDEST PUSH1 0x14 DUP2 LT ISZERO PUSH2 0x15B4 JUMPI PUSH0 DUP2 PUSH1 0x13 PUSH2 0x1474 SWAP2 SWAP1 PUSH2 0x2645 JUMP JUMPDEST PUSH1 0x8 PUSH2 0x1480 SWAP2 SWAP1 PUSH2 0x307B JUMP JUMPDEST PUSH1 0x2 PUSH2 0x148C SWAP2 SWAP1 PUSH2 0x3491 JUMP JUMPDEST DUP6 PUSH20 0xFFFFFFFFFFFFFFFFFFFFFFFFFFFFFFFFFFFFFFFF AND PUSH2 0x14AD SWAP2 SWAP1 PUSH2 0x30BC JUMP JUMPDEST PUSH1 0xF8 SHL SWAP1 POP PUSH0 PUSH1 0x10 DUP3 PUSH1 0xF8 SHR PUSH2 0x14C3 SWAP2 SWAP1 PUSH2 0x34DB JUMP JUMPDEST PUSH1 0xF8 SHL SWAP1 POP PUSH0 DUP2 PUSH1 0xF8 SHR PUSH1 0x10 PUSH2 0x14D9 SWAP2 SWAP1 PUSH2 0x350B JUMP JUMPDEST DUP4 PUSH1 0xF8 SHR PUSH2 0x14E7 SWAP2 SWAP1 PUSH2 0x3547 JUMP JUMPDEST PUSH1 0xF8 SHL SWAP1 POP PUSH2 0x14F5 DUP3 PUSH2 0x1607 JUMP JUMPDEST DUP6 DUP6 PUSH1 0x2 PUSH2 0x1503 SWAP2 SWAP1 PUSH2 0x307B JUMP JUMPDEST DUP2 MLOAD DUP2 LT PUSH2 0x1514 JUMPI PUSH2 0x1513 PUSH2 0x25EB JUMP JUMPDEST JUMPDEST PUSH1 0x20 ADD ADD SWAP1 PUSH31 0xFFFFFFFFFFFFFFFFFFFFFFFFFFFFFFFFFFFFFFFFFFFFFFFFFFFFFFFFFFFFFF NOT AND SWAP1 DUP2 PUSH0 BYTE SWAP1 MSTORE8 POP PUSH2 0x154B DUP2 PUSH2 0x1607 JUMP JUMPDEST DUP6 PUSH1 0x1 DUP7 PUSH1 0x2 PUSH2 0x155B SWAP2 SWAP1 PUSH2 0x307B JUMP JUMPDEST PUSH2 0x1565 SWAP2 SWAP1 PUSH2 0x2678 JUMP JUMPDEST DUP2 MLOAD DUP2 LT PUSH2 0x1576 JUMPI PUSH2 0x1575 PUSH2 0x25EB JUMP JUMPDEST JUMPDEST PUSH1 0x20 ADD ADD SWAP1 PUSH31 0xFFFFFFFFFFFFFFFFFFFFFFFFFFFFFFFFFFFFFFFFFFFFFFFFFFFFFFFFFFFFFF NOT AND SWAP1 DUP2 PUSH0 BYTE SWAP1 MSTORE8 POP POP POP POP DUP1 DUP1 PUSH1 0x1 ADD SWAP2 POP POP PUSH2 0x145D JUMP JUMPDEST POP DUP1 PUSH1 0x40 MLOAD PUSH1 0x20 ADD PUSH2 0x15C6 SWAP2 SWAP1 PUSH2 0x317A JUMP JUMPDEST PUSH1 0x40 MLOAD PUSH1 0x20 DUP2 DUP4 SUB SUB DUP2 MSTORE SWAP1 PUSH1 0x40 MSTORE SWAP2 POP POP SWAP2 SWAP1 POP JUMP JUMPDEST PUSH0 DUP1 PUSH0 DUP1 PUSH2 0x15EB DUP7 DUP7 PUSH2 0x164C JUMP JUMPDEST SWAP3 POP SWAP3 POP SWAP3 POP PUSH2 0x15FB DUP3 DUP3 PUSH2 0x16A1 JUMP JUMPDEST DUP3 SWAP4 POP POP POP POP SWAP3 SWAP2 POP POP JUMP JUMPDEST PUSH0 PUSH1 0xA DUP3 PUSH1 0xF8 SHR PUSH1 0xFF AND LT ISZERO PUSH2 0x1631 JUMPI PUSH1 0x30 DUP3 PUSH1 0xF8 SHR PUSH2 0x1627 SWAP2 SWAP1 PUSH2 0x31E2 JUMP JUMPDEST PUSH1 0xF8 SHL SWAP1 POP PUSH2 0x1647 JUMP JUMPDEST PUSH1 0x57 DUP3 PUSH1 0xF8 SHR PUSH2 0x1641 SWAP2 SWAP1 PUSH2 0x31E2 JUMP JUMPDEST PUSH1 0xF8 SHL SWAP1 POP JUMPDEST SWAP2 SWAP1 POP JUMP JUMPDEST PUSH0 DUP1 PUSH0 PUSH1 0x41 DUP5 MLOAD SUB PUSH2 0x168C JUMPI PUSH0 DUP1 PUSH0 PUSH1 0x20 DUP8 ADD MLOAD SWAP3 POP PUSH1 0x40 DUP8 ADD MLOAD SWAP2 POP PUSH1 0x60 DUP8 ADD MLOAD PUSH0 BYTE SWAP1 POP PUSH2 0x167E DUP9 DUP3 DUP6 DUP6 PUSH2 0x1803 JUMP JUMPDEST SWAP6 POP SWAP6 POP SWAP6 POP POP POP POP PUSH2 0x169A JUMP JUMPDEST PUSH0 PUSH1 0x2 DUP6 MLOAD PUSH0 SHL SWAP3 POP SWAP3 POP SWAP3 POP JUMPDEST SWAP3 POP SWAP3 POP SWAP3 JUMP JUMPDEST PUSH0 PUSH1 0x3 DUP2 GT ISZERO PUSH2 0x16B4 JUMPI PUSH2 0x16B3 PUSH2 0x357B JUMP JUMPDEST JUMPDEST DUP3 PUSH1 0x3 DUP2 GT ISZERO PUSH2 0x16C7 JUMPI PUSH2 0x16C6 PUSH2 0x357B JUMP JUMPDEST JUMPDEST SUB ISZERO PUSH2 0x17FF JUMPI PUSH1 0x1 PUSH1 0x3 DUP2 GT ISZERO PUSH2 0x16E1 JUMPI PUSH2 0x16E0 PUSH2 0x357B JUMP JUMPDEST JUMPDEST DUP3 PUSH1 0x3 DUP2 GT ISZERO PUSH2 0x16F4 JUMPI PUSH2 0x16F3 PUSH2 0x357B JUMP JUMPDEST JUMPDEST SUB PUSH2 0x172B JUMPI PUSH1 0x40 MLOAD PUSH32 0xF645EEDF00000000000000000000000000000000000000000000000000000000 DUP2 MSTORE PUSH1 0x4 ADD PUSH1 0x40 MLOAD DUP1 SWAP2 SUB SWAP1 REVERT JUMPDEST PUSH1 0x2 PUSH1 0x3 DUP2 GT ISZERO PUSH2 0x173F JUMPI PUSH2 0x173E PUSH2 0x357B JUMP JUMPDEST JUMPDEST DUP3 PUSH1 0x3 DUP2 GT ISZERO PUSH2 0x1752 JUMPI PUSH2 0x1751 PUSH2 0x357B JUMP JUMPDEST JUMPDEST SUB PUSH2 0x1796 JUMPI DUP1 PUSH0 SHR PUSH1 0x40 MLOAD PUSH32 0xFCE698F700000000000000000000000000000000000000000000000000000000 DUP2 MSTORE PUSH1 0x4 ADD PUSH2 0x178D SWAP2 SWAP1 PUSH2 0x35B7 JUMP JUMPDEST PUSH1 0x40 MLOAD DUP1 SWAP2 SUB SWAP1 REVERT JUMPDEST PUSH1 0x3 DUP1 DUP2 GT ISZERO PUSH2 0x17A9 JUMPI PUSH2 0x17A8 PUSH2 0x357B JUMP JUMPDEST JUMPDEST DUP3 PUSH1 0x3 DUP2 GT ISZERO PUSH2 0x17BC JUMPI PUSH2 0x17BB PUSH2 0x357B JUMP JUMPDEST JUMPDEST SUB PUSH2 0x17FE JUMPI DUP1 PUSH1 0x40 MLOAD PUSH32 0xD78BCE0C00000000000000000000000000000000000000000000000000000000 DUP2 MSTORE PUSH1 0x4 ADD PUSH2 0x17F5 SWAP2 SWAP1 PUSH2 0x35DF JUMP JUMPDEST PUSH1 0x40 MLOAD DUP1 SWAP2 SUB SWAP1 REVERT JUMPDEST JUMPDEST POP POP JUMP JUMPDEST PUSH0 DUP1 PUSH0 PUSH32 0x7FFFFFFFFFFFFFFFFFFFFFFFFFFFFFFF5D576E7357A4501DDFE92F46681B20A0 DUP5 PUSH0 SHR GT ISZERO PUSH2 0x183F JUMPI PUSH0 PUSH1 0x3 DUP6 SWAP3 POP SWAP3 POP SWAP3 POP PUSH2 0x18E0 JUMP JUMPDEST PUSH0 PUSH1 0x1 DUP9 DUP9 DUP9 DUP9 PUSH1 0x40 MLOAD PUSH0 DUP2 MSTORE PUSH1 0x20 ADD PUSH1 0x40 MSTORE PUSH1 0x40 MLOAD PUSH2 0x1862 SWAP5 SWAP4 SWAP3 SWAP2 SWAP1 PUSH2 0x35F8 JUMP JUMPDEST PUSH1 0x20 PUSH1 0x40 MLOAD PUSH1 0x20 DUP2 SUB SWAP1 DUP1 DUP5 SUB SWAP1 DUP6 GAS STATICCALL ISZERO DUP1 ISZERO PUSH2 0x1882 JUMPI RETURNDATASIZE PUSH0 DUP1 RETURNDATACOPY RETURNDATASIZE PUSH0 REVERT JUMPDEST POP POP POP PUSH1 0x20 PUSH1 0x40 MLOAD SUB MLOAD SWAP1 POP PUSH0 PUSH20 0xFFFFFFFFFFFFFFFFFFFFFFFFFFFFFFFFFFFFFFFF AND DUP2 PUSH20 0xFFFFFFFFFFFFFFFFFFFFFFFFFFFFFFFFFFFFFFFF AND SUB PUSH2 0x18D3 JUMPI PUSH0 PUSH1 0x1 PUSH0 DUP1 SHL SWAP4 POP SWAP4 POP SWAP4 POP POP PUSH2 0x18E0 JUMP JUMPDEST DUP1 PUSH0 DUP1 PUSH0 SHL SWAP4 POP SWAP4 POP SWAP4 POP POP JUMPDEST SWAP5 POP SWAP5 POP SWAP5 SWAP2 POP POP JUMP JUMPDEST PUSH1 0x40 MLOAD DUP1 PUSH1 0x40 ADD PUSH1 0x40 MSTORE DUP1 PUSH0 PUSH20 0xFFFFFFFFFFFFFFFFFFFFFFFFFFFFFFFFFFFFFFFF AND DUP2 MSTORE PUSH1 0x20 ADD PUSH1 0x60 DUP2 MSTORE POP SWAP1 JUMP JUMPDEST PUSH1 0x40 MLOAD DUP1 PUSH1 0xA0 ADD PUSH1 0x40 MSTORE DUP1 PUSH0 PUSH4 0xFFFFFFFF AND DUP2 MSTORE PUSH1 0x20 ADD PUSH0 PUSH4 0xFFFFFFFF AND DUP2 MSTORE PUSH1 0x20 ADD PUSH0 PUSH4 0xFFFFFFFF AND DUP2 MSTORE PUSH1 0x20 ADD PUSH1 0x60 DUP2 MSTORE PUSH1 0x20 ADD PUSH0 PUSH1 0xFF AND DUP2 MSTORE POP SWAP1 JUMP JUMPDEST PUSH0 PUSH1 0x40 MLOAD SWAP1 POP SWAP1 JUMP JUMPDEST PUSH0 DUP1 REVERT JUMPDEST PUSH0 DUP1 REVERT JUMPDEST PUSH0 PUSH4 0xFFFFFFFF DUP3 AND SWAP1 POP SWAP2 SWAP1 POP JUMP JUMPDEST PUSH2 0x1982 DUP2 PUSH2 0x196A JUMP JUMPDEST DUP2 EQ PUSH2 0x198C JUMPI PUSH0 DUP1 REVERT JUMPDEST POP JUMP JUMPDEST PUSH0 DUP2 CALLDATALOAD SWAP1 POP PUSH2 0x199D DUP2 PUSH2 0x1979 JUMP JUMPDEST SWAP3 SWAP2 POP POP JUMP JUMPDEST PUSH0 DUP2 SWAP1 POP SWAP2 SWAP1 POP JUMP JUMPDEST PUSH2 0x19B5 DUP2 PUSH2 0x19A3 JUMP JUMPDEST DUP2 EQ PUSH2 0x19BF JUMPI PUSH0 DUP1 REVERT JUMPDEST POP JUMP JUMPDEST PUSH0 DUP2 CALLDATALOAD SWAP1 POP PUSH2 0x19D0 DUP2 PUSH2 0x19AC JUMP JUMPDEST SWAP3 SWAP2 POP POP JUMP JUMPDEST PUSH0 DUP1 PUSH0 PUSH1 0x60 DUP5 DUP7 SUB SLT ISZERO PUSH2 0x19ED JUMPI PUSH2 0x19EC PUSH2 0x1962 JUMP JUMPDEST JUMPDEST PUSH0 PUSH2 0x19FA DUP7 DUP3 DUP8 ADD PUSH2 0x198F JUMP JUMPDEST SWAP4 POP POP PUSH1 0x20 PUSH2 0x1A0B DUP7 DUP3 DUP8 ADD PUSH2 0x19C2 JUMP JUMPDEST SWAP3 POP POP PUSH1 0x40 PUSH2 0x1A1C DUP7 DUP3 DUP8 ADD PUSH2 0x198F JUMP JUMPDEST SWAP2 POP POP SWAP3 POP SWAP3 POP SWAP3 JUMP JUMPDEST PUSH0 DUP2 MLOAD SWAP1 POP SWAP2 SWAP1 POP JUMP JUMPDEST PUSH0 DUP3 DUP3 MSTORE PUSH1 0x20 DUP3 ADD SWAP1 POP SWAP3 SWAP2 POP POP JUMP JUMPDEST PUSH0 DUP2 SWAP1 POP PUSH1 0x20 DUP3 ADD SWAP1 POP SWAP2 SWAP1 POP JUMP JUMPDEST PUSH0 PUSH20 0xFFFFFFFFFFFFFFFFFFFFFFFFFFFFFFFFFFFFFFFF DUP3 AND SWAP1 POP SWAP2 SWAP1 POP JUMP JUMPDEST PUSH0 PUSH2 0x1A78 DUP3 PUSH2 0x1A4F JUMP JUMPDEST SWAP1 POP SWAP2 SWAP1 POP JUMP JUMPDEST PUSH2 0x1A88 DUP2 PUSH2 0x1A6E JUMP JUMPDEST DUP3 MSTORE POP POP JUMP JUMPDEST PUSH0 DUP2 MLOAD SWAP1 POP SWAP2 SWAP1 POP JUMP JUMPDEST PUSH0 DUP3 DUP3 MSTORE PUSH1 0x20 DUP3 ADD SWAP1 POP SWAP3 SWAP2 POP POP JUMP JUMPDEST DUP3 DUP2 DUP4 MCOPY PUSH0 DUP4 DUP4 ADD MSTORE POP POP POP JUMP JUMPDEST PUSH0 PUSH1 0x1F NOT PUSH1 0x1F DUP4 ADD AND SWAP1 POP SWAP2 SWAP1 POP JUMP JUMPDEST PUSH0 PUSH2 0x1AD0 DUP3 PUSH2 0x1A8E JUMP JUMPDEST PUSH2 0x1ADA DUP2 DUP6 PUSH2 0x1A98 JUMP JUMPDEST SWAP4 POP PUSH2 0x1AEA DUP2 DUP6 PUSH1 0x20 DUP7 ADD PUSH2 0x1AA8 JUMP JUMPDEST PUSH2 0x1AF3 DUP2 PUSH2 0x1AB6 JUMP JUMPDEST DUP5 ADD SWAP2 POP POP SWAP3 SWAP2 POP POP JUMP JUMPDEST PUSH0 PUSH1 0x40 DUP4 ADD PUSH0 DUP4 ADD MLOAD PUSH2 0x1B13 PUSH0 DUP7 ADD DUP3 PUSH2 0x1A7F JUMP JUMPDEST POP PUSH1 0x20 DUP4 ADD MLOAD DUP5 DUP3 SUB PUSH1 0x20 DUP7 ADD MSTORE PUSH2 0x1B2B DUP3 DUP3 PUSH2 0x1AC6 JUMP JUMPDEST SWAP2 POP POP DUP1 SWAP2 POP POP SWAP3 SWAP2 POP POP JUMP JUMPDEST PUSH0 PUSH2 0x1B43 DUP4 DUP4 PUSH2 0x1AFE JUMP JUMPDEST SWAP1 POP SWAP3 SWAP2 POP POP JUMP JUMPDEST PUSH0 PUSH1 0x20 DUP3 ADD SWAP1 POP SWAP2 SWAP1 POP JUMP JUMPDEST PUSH0 PUSH2 0x1B61 DUP3 PUSH2 0x1A26 JUMP JUMPDEST PUSH2 0x1B6B DUP2 DUP6 PUSH2 0x1A30 JUMP JUMPDEST SWAP4 POP DUP4 PUSH1 0x20 DUP3 MUL DUP6 ADD PUSH2 0x1B7D DUP6 PUSH2 0x1A40 JUMP JUMPDEST DUP1 PUSH0 JUMPDEST DUP6 DUP2 LT ISZERO PUSH2 0x1BB8 JUMPI DUP5 DUP5 SUB DUP10 MSTORE DUP2 MLOAD PUSH2 0x1B99 DUP6 DUP3 PUSH2 0x1B38 JUMP JUMPDEST SWAP5 POP PUSH2 0x1BA4 DUP4 PUSH2 0x1B4B JUMP JUMPDEST SWAP3 POP PUSH1 0x20 DUP11 ADD SWAP10 POP POP PUSH1 0x1 DUP2 ADD SWAP1 POP PUSH2 0x1B80 JUMP JUMPDEST POP DUP3 SWAP8 POP DUP8 SWAP6 POP POP POP POP POP POP SWAP3 SWAP2 POP POP JUMP JUMPDEST PUSH0 PUSH1 0x20 DUP3 ADD SWAP1 POP DUP2 DUP2 SUB PUSH0 DUP4 ADD MSTORE PUSH2 0x1BE2 DUP2 DUP5 PUSH2 0x1B57 JUMP JUMPDEST SWAP1 POP SWAP3 SWAP2 POP POP JUMP JUMPDEST PUSH2 0x1BF3 DUP2 PUSH2 0x196A JUMP JUMPDEST DUP3 MSTORE POP POP JUMP JUMPDEST PUSH0 PUSH1 0x20 DUP3 ADD SWAP1 POP PUSH2 0x1C0C PUSH0 DUP4 ADD DUP5 PUSH2 0x1BEA JUMP JUMPDEST SWAP3 SWAP2 POP POP JUMP JUMPDEST PUSH0 PUSH1 0x20 DUP3 DUP5 SUB SLT ISZERO PUSH2 0x1C27 JUMPI PUSH2 0x1C26 PUSH2 0x1962 JUMP JUMPDEST JUMPDEST PUSH0 PUSH2 0x1C34 DUP5 DUP3 DUP6 ADD PUSH2 0x198F JUMP JUMPDEST SWAP2 POP POP SWAP3 SWAP2 POP POP JUMP JUMPDEST PUSH2 0x1C46 DUP2 PUSH2 0x196A JUMP JUMPDEST DUP3 MSTORE POP POP JUMP JUMPDEST PUSH0 DUP3 DUP3 MSTORE PUSH1 0x20 DUP3 ADD SWAP1 POP SWAP3 SWAP2 POP POP JUMP JUMPDEST PUSH0 PUSH2 0x1C66 DUP3 PUSH2 0x1A26 JUMP JUMPDEST PUSH2 0x1C70 DUP2 DUP6 PUSH2 0x1C4C JUMP JUMPDEST SWAP4 POP DUP4 PUSH1 0x20 DUP3 MUL DUP6 ADD PUSH2 0x1C82 DUP6 PUSH2 0x1A40 JUMP JUMPDEST DUP1 PUSH0 JUMPDEST DUP6 DUP2 LT ISZERO PUSH2 0x1CBD JUMPI DUP5 DUP5 SUB DUP10 MSTORE DUP2 MLOAD PUSH2 0x1C9E DUP6 DUP3 PUSH2 0x1B38 JUMP JUMPDEST SWAP5 POP PUSH2 0x1CA9 DUP4 PUSH2 0x1B4B JUMP JUMPDEST SWAP3 POP PUSH1 0x20 DUP11 ADD SWAP10 POP POP PUSH1 0x1 DUP2 ADD SWAP1 POP PUSH2 0x1C85 JUMP JUMPDEST POP DUP3 SWAP8 POP DUP8 SWAP6 POP POP POP POP POP POP SWAP3 SWAP2 POP POP JUMP JUMPDEST PUSH0 PUSH1 0xFF DUP3 AND SWAP1 POP SWAP2 SWAP1 POP JUMP JUMPDEST PUSH2 0x1CE4 DUP2 PUSH2 0x1CCF JUMP JUMPDEST DUP3 MSTORE POP POP JUMP JUMPDEST PUSH0 PUSH1 0xA0 DUP4 ADD PUSH0 DUP4 ADD MLOAD PUSH2 0x1CFF PUSH0 DUP7 ADD DUP3 PUSH2 0x1C3D JUMP JUMPDEST POP PUSH1 0x20 DUP4 ADD MLOAD PUSH2 0x1D12 PUSH1 0x20 DUP7 ADD DUP3 PUSH2 0x1C3D JUMP JUMPDEST POP PUSH1 0x40 DUP4 ADD MLOAD PUSH2 0x1D25 PUSH1 0x40 DUP7 ADD DUP3 PUSH2 0x1C3D JUMP JUMPDEST POP PUSH1 0x60 DUP4 ADD MLOAD DUP5 DUP3 SUB PUSH1 0x60 DUP7 ADD MSTORE PUSH2 0x1D3D DUP3 DUP3 PUSH2 0x1C5C JUMP JUMPDEST SWAP2 POP POP PUSH1 0x80 DUP4 ADD MLOAD PUSH2 0x1D52 PUSH1 0x80 DUP7 ADD DUP3 PUSH2 0x1CDB JUMP JUMPDEST POP DUP1 SWAP2 POP POP SWAP3 SWAP2 POP POP JUMP JUMPDEST PUSH0 PUSH1 0x20 DUP3 ADD SWAP1 POP DUP2 DUP2 SUB PUSH0 DUP4 ADD MSTORE PUSH2 0x1D75 DUP2 DUP5 PUSH2 0x1CEA JUMP JUMPDEST SWAP1 POP SWAP3 SWAP2 POP POP JUMP JUMPDEST PUSH0 DUP1 REVERT JUMPDEST PUSH0 DUP1 REVERT JUMPDEST PUSH0 DUP1 REVERT JUMPDEST PUSH0 DUP1 DUP4 PUSH1 0x1F DUP5 ADD SLT PUSH2 0x1D9E JUMPI PUSH2 0x1D9D PUSH2 0x1D7D JUMP JUMPDEST JUMPDEST DUP3 CALLDATALOAD SWAP1 POP PUSH8 0xFFFFFFFFFFFFFFFF DUP2 GT ISZERO PUSH2 0x1DBB JUMPI PUSH2 0x1DBA PUSH2 0x1D81 JUMP JUMPDEST JUMPDEST PUSH1 0x20 DUP4 ADD SWAP2 POP DUP4 PUSH1 0x20 DUP3 MUL DUP4 ADD GT ISZERO PUSH2 0x1DD7 JUMPI PUSH2 0x1DD6 PUSH2 0x1D85 JUMP JUMPDEST JUMPDEST SWAP3 POP SWAP3 SWAP1 POP JUMP JUMPDEST PUSH2 0x1DE7 DUP2 PUSH2 0x1CCF JUMP JUMPDEST DUP2 EQ PUSH2 0x1DF1 JUMPI PUSH0 DUP1 REVERT JUMPDEST POP JUMP JUMPDEST PUSH0 DUP2 CALLDATALOAD SWAP1 POP PUSH2 0x1E02 DUP2 PUSH2 0x1DDE JUMP JUMPDEST SWAP3 SWAP2 POP POP JUMP JUMPDEST PUSH0 DUP1 PUSH0 PUSH1 0x40 DUP5 DUP7 SUB SLT ISZERO PUSH2 0x1E1F JUMPI PUSH2 0x1E1E PUSH2 0x1962 JUMP JUMPDEST JUMPDEST PUSH0 DUP5 ADD CALLDATALOAD PUSH8 0xFFFFFFFFFFFFFFFF DUP2 GT ISZERO PUSH2 0x1E3C JUMPI PUSH2 0x1E3B PUSH2 0x1966 JUMP JUMPDEST JUMPDEST PUSH2 0x1E48 DUP7 DUP3 DUP8 ADD PUSH2 0x1D89 JUMP JUMPDEST SWAP4 POP SWAP4 POP POP PUSH1 0x20 PUSH2 0x1E5B DUP7 DUP3 DUP8 ADD PUSH2 0x1DF4 JUMP JUMPDEST SWAP2 POP POP SWAP3 POP SWAP3 POP SWAP3 JUMP JUMPDEST PUSH2 0x1E6E DUP2 PUSH2 0x1A6E JUMP JUMPDEST DUP3 MSTORE POP POP JUMP JUMPDEST PUSH0 PUSH1 0x20 DUP3 ADD SWAP1 POP PUSH2 0x1E87 PUSH0 DUP4 ADD DUP5 PUSH2 0x1E65 JUMP JUMPDEST SWAP3 SWAP2 POP POP JUMP JUMPDEST PUSH0 DUP1 REVERT JUMPDEST PUSH32 0x4E487B7100000000000000000000000000000000000000000000000000000000 PUSH0 MSTORE PUSH1 0x41 PUSH1 0x4 MSTORE PUSH1 0x24 PUSH0 REVERT JUMPDEST PUSH2 0x1EC7 DUP3 PUSH2 0x1AB6 JUMP JUMPDEST DUP2 ADD DUP2 DUP2 LT PUSH8 0xFFFFFFFFFFFFFFFF DUP3 GT OR ISZERO PUSH2 0x1EE6 JUMPI PUSH2 0x1EE5 PUSH2 0x1E91 JUMP JUMPDEST JUMPDEST DUP1 PUSH1 0x40 MSTORE POP POP POP JUMP JUMPDEST PUSH0 PUSH2 0x1EF8 PUSH2 0x1959 JUMP JUMPDEST SWAP1 POP PUSH2 0x1F04 DUP3 DUP3 PUSH2 0x1EBE JUMP JUMPDEST SWAP2 SWAP1 POP JUMP JUMPDEST PUSH0 DUP1 REVERT JUMPDEST PUSH0 DUP1 REVERT JUMPDEST PUSH0 PUSH8 0xFFFFFFFFFFFFFFFF DUP3 GT ISZERO PUSH2 0x1F2B JUMPI PUSH2 0x1F2A PUSH2 0x1E91 JUMP JUMPDEST JUMPDEST PUSH2 0x1F34 DUP3 PUSH2 0x1AB6 JUMP JUMPDEST SWAP1 POP PUSH1 0x20 DUP2 ADD SWAP1 POP SWAP2 SWAP1 POP JUMP JUMPDEST DUP3 DUP2 DUP4 CALLDATACOPY PUSH0 DUP4 DUP4 ADD MSTORE POP POP POP JUMP JUMPDEST PUSH0 PUSH2 0x1F61 PUSH2 0x1F5C DUP5 PUSH2 0x1F11 JUMP JUMPDEST PUSH2 0x1EEF JUMP JUMPDEST SWAP1 POP DUP3 DUP2 MSTORE PUSH1 0x20 DUP2 ADD DUP5 DUP5 DUP5 ADD GT ISZERO PUSH2 0x1F7D JUMPI PUSH2 0x1F7C PUSH2 0x1F0D JUMP JUMPDEST JUMPDEST PUSH2 0x1F88 DUP5 DUP3 DUP6 PUSH2 0x1F41 JUMP JUMPDEST POP SWAP4 SWAP3 POP POP POP JUMP JUMPDEST PUSH0 DUP3 PUSH1 0x1F DUP4 ADD SLT PUSH2 0x1FA4 JUMPI PUSH2 0x1FA3 PUSH2 0x1D7D JUMP JUMPDEST JUMPDEST DUP2 CALLDATALOAD PUSH2 0x1FB4 DUP5 DUP3 PUSH1 0x20 DUP7 ADD PUSH2 0x1F4F JUMP JUMPDEST SWAP2 POP POP SWAP3 SWAP2 POP POP JUMP JUMPDEST PUSH0 PUSH1 0x60 DUP3 DUP5 SUB SLT ISZERO PUSH2 0x1FD2 JUMPI PUSH2 0x1FD1 PUSH2 0x1E8D JUMP JUMPDEST JUMPDEST PUSH2 0x1FDC PUSH1 0x60 PUSH2 0x1EEF JUMP JUMPDEST SWAP1 POP PUSH0 DUP3 ADD CALLDATALOAD PUSH8 0xFFFFFFFFFFFFFFFF DUP2 GT ISZERO PUSH2 0x1FFB JUMPI PUSH2 0x1FFA PUSH2 0x1F09 JUMP JUMPDEST JUMPDEST PUSH2 0x2007 DUP5 DUP3 DUP6 ADD PUSH2 0x1F90 JUMP JUMPDEST PUSH0 DUP4 ADD MSTORE POP PUSH1 0x20 DUP3 ADD CALLDATALOAD PUSH8 0xFFFFFFFFFFFFFFFF DUP2 GT ISZERO PUSH2 0x202A JUMPI PUSH2 0x2029 PUSH2 0x1F09 JUMP JUMPDEST JUMPDEST PUSH2 0x2036 DUP5 DUP3 DUP6 ADD PUSH2 0x1F90 JUMP JUMPDEST PUSH1 0x20 DUP4 ADD MSTORE POP PUSH1 0x40 DUP3 ADD CALLDATALOAD PUSH8 0xFFFFFFFFFFFFFFFF DUP2 GT ISZERO PUSH2 0x205A JUMPI PUSH2 0x2059 PUSH2 0x1F09 JUMP JUMPDEST JUMPDEST PUSH2 0x2066 DUP5 DUP3 DUP6 ADD PUSH2 0x1F90 JUMP JUMPDEST PUSH1 0x40 DUP4 ADD MSTORE POP SWAP3 SWAP2 POP POP JUMP JUMPDEST PUSH2 0x207B DUP2 PUSH2 0x1A6E JUMP JUMPDEST DUP2 EQ PUSH2 0x2085 JUMPI PUSH0 DUP1 REVERT JUMPDEST POP JUMP JUMPDEST PUSH0 DUP2 CALLDATALOAD SWAP1 POP PUSH2 0x2096 DUP2 PUSH2 0x2072 JUMP JUMPDEST SWAP3 SWAP2 POP POP JUMP JUMPDEST PUSH0 PUSH1 0x80 DUP3 DUP5 SUB SLT ISZERO PUSH2 0x20B1 JUMPI PUSH2 0x20B0 PUSH2 0x1E8D JUMP JUMPDEST JUMPDEST PUSH2 0x20BB PUSH1 0x80 PUSH2 0x1EEF JUMP JUMPDEST SWAP1 POP PUSH0 PUSH2 0x20CA DUP5 DUP3 DUP6 ADD PUSH2 0x19C2 JUMP JUMPDEST PUSH0 DUP4 ADD MSTORE POP PUSH1 0x20 PUSH2 0x20DD DUP5 DUP3 DUP6 ADD PUSH2 0x2088 JUMP JUMPDEST PUSH1 0x20 DUP4 ADD MSTORE POP PUSH1 0x40 PUSH2 0x20F1 DUP5 DUP3 DUP6 ADD PUSH2 0x198F JUMP JUMPDEST PUSH1 0x40 DUP4 ADD MSTORE POP PUSH1 0x60 PUSH2 0x2105 DUP5 DUP3 DUP6 ADD PUSH2 0x198F JUMP JUMPDEST PUSH1 0x60 DUP4 ADD MSTORE POP SWAP3 SWAP2 POP POP JUMP JUMPDEST PUSH0 PUSH8 0xFFFFFFFFFFFFFFFF DUP3 GT ISZERO PUSH2 0x212B JUMPI PUSH2 0x212A PUSH2 0x1E91 JUMP JUMPDEST JUMPDEST PUSH1 0x20 DUP3 MUL SWAP1 POP PUSH1 0x20 DUP2 ADD SWAP1 POP SWAP2 SWAP1 POP JUMP JUMPDEST PUSH0 PUSH8 0xFFFFFFFFFFFFFFFF DUP3 GT ISZERO PUSH2 0x2156 JUMPI PUSH2 0x2155 PUSH2 0x1E91 JUMP JUMPDEST JUMPDEST PUSH2 0x215F DUP3 PUSH2 0x1AB6 JUMP JUMPDEST SWAP1 POP PUSH1 0x20 DUP2 ADD SWAP1 POP SWAP2 SWAP1 POP JUMP JUMPDEST PUSH0 PUSH2 0x217E PUSH2 0x2179 DUP5 PUSH2 0x213C JUMP JUMPDEST PUSH2 0x1EEF JUMP JUMPDEST SWAP1 POP DUP3 DUP2 MSTORE PUSH1 0x20 DUP2 ADD DUP5 DUP5 DUP5 ADD GT ISZERO PUSH2 0x219A JUMPI PUSH2 0x2199 PUSH2 0x1F0D JUMP JUMPDEST JUMPDEST PUSH2 0x21A5 DUP5 DUP3 DUP6 PUSH2 0x1F41 JUMP JUMPDEST POP SWAP4 SWAP3 POP POP POP JUMP JUMPDEST PUSH0 DUP3 PUSH1 0x1F DUP4 ADD SLT PUSH2 0x21C1 JUMPI PUSH2 0x21C0 PUSH2 0x1D7D JUMP JUMPDEST JUMPDEST DUP2 CALLDATALOAD PUSH2 0x21D1 DUP5 DUP3 PUSH1 0x20 DUP7 ADD PUSH2 0x216C JUMP JUMPDEST SWAP2 POP POP SWAP3 SWAP2 POP POP JUMP JUMPDEST PUSH0 PUSH2 0x21EC PUSH2 0x21E7 DUP5 PUSH2 0x2111 JUMP JUMPDEST PUSH2 0x1EEF JUMP JUMPDEST SWAP1 POP DUP1 DUP4 DUP3 MSTORE PUSH1 0x20 DUP3 ADD SWAP1 POP PUSH1 0x20 DUP5 MUL DUP4 ADD DUP6 DUP2 GT ISZERO PUSH2 0x220F JUMPI PUSH2 0x220E PUSH2 0x1D85 JUMP JUMPDEST JUMPDEST DUP4 JUMPDEST DUP2 DUP2 LT ISZERO PUSH2 0x2256 JUMPI DUP1 CALLDATALOAD PUSH8 0xFFFFFFFFFFFFFFFF DUP2 GT ISZERO PUSH2 0x2234 JUMPI PUSH2 0x2233 PUSH2 0x1D7D JUMP JUMPDEST JUMPDEST DUP1 DUP7 ADD PUSH2 0x2241 DUP10 DUP3 PUSH2 0x21AD JUMP JUMPDEST DUP6 MSTORE PUSH1 0x20 DUP6 ADD SWAP5 POP POP POP PUSH1 0x20 DUP2 ADD SWAP1 POP PUSH2 0x2211 JUMP JUMPDEST POP POP POP SWAP4 SWAP3 POP POP POP JUMP JUMPDEST PUSH0 DUP3 PUSH1 0x1F DUP4 ADD SLT PUSH2 0x2274 JUMPI PUSH2 0x2273 PUSH2 0x1D7D JUMP JUMPDEST JUMPDEST DUP2 CALLDATALOAD PUSH2 0x2284 DUP5 DUP3 PUSH1 0x20 DUP7 ADD PUSH2 0x21DA JUMP JUMPDEST SWAP2 POP POP SWAP3 SWAP2 POP POP JUMP JUMPDEST PUSH0 PUSH1 0xA0 DUP3 DUP5 SUB SLT ISZERO PUSH2 0x22A2 JUMPI PUSH2 0x22A1 PUSH2 0x1E8D JUMP JUMPDEST JUMPDEST PUSH2 0x22AC PUSH1 0x40 PUSH2 0x1EEF JUMP JUMPDEST SWAP1 POP PUSH0 PUSH2 0x22BB DUP5 DUP3 DUP6 ADD PUSH2 0x209C JUMP JUMPDEST PUSH0 DUP4 ADD MSTORE POP PUSH1 0x80 DUP3 ADD CALLDATALOAD PUSH8 0xFFFFFFFFFFFFFFFF DUP2 GT ISZERO PUSH2 0x22DE JUMPI PUSH2 0x22DD PUSH2 0x1F09 JUMP JUMPDEST JUMPDEST PUSH2 0x22EA DUP5 DUP3 DUP6 ADD PUSH2 0x2260 JUMP JUMPDEST PUSH1 0x20 DUP4 ADD MSTORE POP SWAP3 SWAP2 POP POP JUMP JUMPDEST PUSH0 PUSH1 0x40 DUP3 DUP5 SUB SLT ISZERO PUSH2 0x230B JUMPI PUSH2 0x230A PUSH2 0x1E8D JUMP JUMPDEST JUMPDEST PUSH2 0x2315 PUSH1 0x40 PUSH2 0x1EEF JUMP JUMPDEST SWAP1 POP PUSH0 DUP3 ADD CALLDATALOAD PUSH8 0xFFFFFFFFFFFFFFFF DUP2 GT ISZERO PUSH2 0x2334 JUMPI PUSH2 0x2333 PUSH2 0x1F09 JUMP JUMPDEST JUMPDEST PUSH2 0x2340 DUP5 DUP3 DUP6 ADD PUSH2 0x1FBD JUMP JUMPDEST PUSH0 DUP4 ADD MSTORE POP PUSH1 0x20 DUP3 ADD CALLDATALOAD PUSH8 0xFFFFFFFFFFFFFFFF DUP2 GT ISZERO PUSH2 0x2363 JUMPI PUSH2 0x2362 PUSH2 0x1F09 JUMP JUMPDEST JUMPDEST PUSH2 0x236F DUP5 DUP3 DUP6 ADD PUSH2 0x228D JUMP JUMPDEST PUSH1 0x20 DUP4 ADD MSTORE POP SWAP3 SWAP2 POP POP JUMP JUMPDEST PUSH0 PUSH1 0x20 DUP3 DUP5 SUB SLT ISZERO PUSH2 0x2390 JUMPI PUSH2 0x238F PUSH2 0x1962 JUMP JUMPDEST JUMPDEST PUSH0 DUP3 ADD CALLDATALOAD PUSH8 0xFFFFFFFFFFFFFFFF DUP2 GT ISZERO PUSH2 0x23AD JUMPI PUSH2 0x23AC PUSH2 0x1966 JUMP JUMPDEST JUMPDEST PUSH2 0x23B9 DUP5 DUP3 DUP6 ADD PUSH2 0x22F6 JUMP JUMPDEST SWAP2 POP POP SWAP3 SWAP2 POP POP JUMP JUMPDEST PUSH0 DUP2 SWAP1 POP SWAP2 SWAP1 POP JUMP JUMPDEST PUSH2 0x23D4 DUP2 PUSH2 0x23C2 JUMP JUMPDEST DUP2 EQ PUSH2 0x23DE JUMPI PUSH0 DUP1 REVERT JUMPDEST POP JUMP JUMPDEST PUSH0 DUP2 CALLDATALOAD SWAP1 POP PUSH2 0x23EF DUP2 PUSH2 0x23CB JUMP JUMPDEST SWAP3 SWAP2 POP POP JUMP JUMPDEST PUSH0 PUSH1 0x20 DUP3 DUP5 SUB SLT ISZERO PUSH2 0x240A JUMPI PUSH2 0x2409 PUSH2 0x1962 JUMP JUMPDEST JUMPDEST PUSH0 PUSH2 0x2417 DUP5 DUP3 DUP6 ADD PUSH2 0x23E1 JUMP JUMPDEST SWAP2 POP POP SWAP3 SWAP2 POP POP JUMP JUMPDEST PUSH2 0x2429 DUP2 PUSH2 0x1CCF JUMP JUMPDEST DUP3 MSTORE POP POP JUMP JUMPDEST PUSH0 PUSH1 0x80 DUP3 ADD SWAP1 POP PUSH2 0x2442 PUSH0 DUP4 ADD DUP8 PUSH2 0x1BEA JUMP JUMPDEST PUSH2 0x244F PUSH1 0x20 DUP4 ADD DUP7 PUSH2 0x1BEA JUMP JUMPDEST PUSH2 0x245C PUSH1 0x40 DUP4 ADD DUP6 PUSH2 0x1BEA JUMP JUMPDEST PUSH2 0x2469 PUSH1 0x60 DUP4 ADD DUP5 PUSH2 0x2420 JUMP JUMPDEST SWAP6 SWAP5 POP POP POP POP POP JUMP JUMPDEST PUSH0 DUP2 SWAP1 POP SWAP2 SWAP1 POP JUMP JUMPDEST PUSH2 0x248C PUSH2 0x2487 DUP3 PUSH2 0x19A3 JUMP JUMPDEST PUSH2 0x2472 JUMP JUMPDEST DUP3 MSTORE POP POP JUMP JUMPDEST PUSH0 PUSH2 0x249D DUP3 DUP5 PUSH2 0x247B JUMP JUMPDEST PUSH1 0x20 DUP3 ADD SWAP2 POP DUP2 SWAP1 POP SWAP3 SWAP2 POP POP JUMP JUMPDEST PUSH0 DUP2 SWAP1 POP SWAP3 SWAP2 POP POP JUMP JUMPDEST PUSH0 PUSH2 0x24C0 DUP3 PUSH2 0x1A8E JUMP JUMPDEST PUSH2 0x24CA DUP2 DUP6 PUSH2 0x24AC JUMP JUMPDEST SWAP4 POP PUSH2 0x24DA DUP2 DUP6 PUSH1 0x20 DUP7 ADD PUSH2 0x1AA8 JUMP JUMPDEST DUP1 DUP5 ADD SWAP2 POP POP SWAP3 SWAP2 POP POP JUMP JUMPDEST PUSH32 0xA00000000000000000000000000000000000000000000000000000000000000 PUSH0 DUP3 ADD MSTORE POP JUMP JUMPDEST PUSH0 PUSH2 0x251A PUSH1 0x1 DUP4 PUSH2 0x24AC JUMP JUMPDEST SWAP2 POP PUSH2 0x2525 DUP3 PUSH2 0x24E6 JUMP JUMPDEST PUSH1 0x1 DUP3 ADD SWAP1 POP SWAP2 SWAP1 POP JUMP JUMPDEST PUSH0 PUSH2 0x253B DUP3 DUP8 PUSH2 0x24B6 JUMP JUMPDEST SWAP2 POP PUSH2 0x2546 DUP3 PUSH2 0x250E JUMP JUMPDEST SWAP2 POP PUSH2 0x2552 DUP3 DUP7 PUSH2 0x24B6 JUMP JUMPDEST SWAP2 POP PUSH2 0x255D DUP3 PUSH2 0x250E JUMP JUMPDEST SWAP2 POP PUSH2 0x2569 DUP3 DUP6 PUSH2 0x24B6 JUMP JUMPDEST SWAP2 POP PUSH2 0x2574 DUP3 PUSH2 0x250E JUMP JUMPDEST SWAP2 POP PUSH2 0x2580 DUP3 DUP5 PUSH2 0x24B6 JUMP JUMPDEST SWAP2 POP DUP2 SWAP1 POP SWAP6 SWAP5 POP POP POP POP POP JUMP JUMPDEST PUSH32 0x4E487B7100000000000000000000000000000000000000000000000000000000 PUSH0 MSTORE PUSH1 0x12 PUSH1 0x4 MSTORE PUSH1 0x24 PUSH0 REVERT JUMPDEST PUSH0 PUSH2 0x25C5 DUP3 PUSH2 0x23C2 JUMP JUMPDEST SWAP2 POP PUSH2 0x25D0 DUP4 PUSH2 0x23C2 JUMP JUMPDEST SWAP3 POP DUP3 PUSH2 0x25E0 JUMPI PUSH2 0x25DF PUSH2 0x258E JUMP JUMPDEST JUMPDEST DUP3 DUP3 MOD SWAP1 POP SWAP3 SWAP2 POP POP JUMP JUMPDEST PUSH32 0x4E487B7100000000000000000000000000000000000000000000000000000000 PUSH0 MSTORE PUSH1 0x32 PUSH1 0x4 MSTORE PUSH1 0x24 PUSH0 REVERT JUMPDEST PUSH32 0x4E487B7100000000000000000000000000000000000000000000000000000000 PUSH0 MSTORE PUSH1 0x11 PUSH1 0x4 MSTORE PUSH1 0x24 PUSH0 REVERT JUMPDEST PUSH0 PUSH2 0x264F DUP3 PUSH2 0x23C2 JUMP JUMPDEST SWAP2 POP PUSH2 0x265A DUP4 PUSH2 0x23C2 JUMP JUMPDEST SWAP3 POP DUP3 DUP3 SUB SWAP1 POP DUP2 DUP2 GT ISZERO PUSH2 0x2672 JUMPI PUSH2 0x2671 PUSH2 0x2618 JUMP JUMPDEST JUMPDEST SWAP3 SWAP2 POP POP JUMP JUMPDEST PUSH0 PUSH2 0x2682 DUP3 PUSH2 0x23C2 JUMP JUMPDEST SWAP2 POP PUSH2 0x268D DUP4 PUSH2 0x23C2 JUMP JUMPDEST SWAP3 POP DUP3 DUP3 ADD SWAP1 POP DUP1 DUP3 GT ISZERO PUSH2 0x26A5 JUMPI PUSH2 0x26A4 PUSH2 0x2618 JUMP JUMPDEST JUMPDEST SWAP3 SWAP2 POP POP JUMP JUMPDEST PUSH32 0x4E487B7100000000000000000000000000000000000000000000000000000000 PUSH0 MSTORE PUSH1 0x22 PUSH1 0x4 MSTORE PUSH1 0x24 PUSH0 REVERT JUMPDEST PUSH0 PUSH1 0x2 DUP3 DIV SWAP1 POP PUSH1 0x1 DUP3 AND DUP1 PUSH2 0x26EF JUMPI PUSH1 0x7F DUP3 AND SWAP2 POP JUMPDEST PUSH1 0x20 DUP3 LT DUP2 SUB PUSH2 0x2702 JUMPI PUSH2 0x2701 PUSH2 0x26AB JUMP JUMPDEST JUMPDEST POP SWAP2 SWAP1 POP JUMP JUMPDEST PUSH0 PUSH2 0x2712 DUP3 PUSH2 0x196A JUMP JUMPDEST SWAP2 POP PUSH2 0x271D DUP4 PUSH2 0x196A JUMP JUMPDEST SWAP3 POP DUP3 DUP3 SUB SWAP1 POP PUSH4 0xFFFFFFFF DUP2 GT ISZERO PUSH2 0x2739 JUMPI PUSH2 0x2738 PUSH2 0x2618 JUMP JUMPDEST JUMPDEST SWAP3 SWAP2 POP POP JUMP JUMPDEST PUSH0 DUP3 DUP3 MSTORE PUSH1 0x20 DUP3 ADD SWAP1 POP SWAP3 SWAP2 POP POP JUMP JUMPDEST PUSH32 0x4F6E6C79204F776E657200000000000000000000000000000000000000000000 PUSH0 DUP3 ADD MSTORE POP JUMP JUMPDEST PUSH0 PUSH2 0x2783 PUSH1 0xA DUP4 PUSH2 0x273F JUMP JUMPDEST SWAP2 POP PUSH2 0x278E DUP3 PUSH2 0x274F JUMP JUMPDEST PUSH1 0x20 DUP3 ADD SWAP1 POP SWAP2 SWAP1 POP JUMP JUMPDEST PUSH0 PUSH1 0x20 DUP3 ADD SWAP1 POP DUP2 DUP2 SUB PUSH0 DUP4 ADD MSTORE PUSH2 0x27B0 DUP2 PUSH2 0x2777 JUMP JUMPDEST SWAP1 POP SWAP2 SWAP1 POP JUMP JUMPDEST PUSH0 PUSH2 0x27C1 DUP3 PUSH2 0x196A JUMP JUMPDEST SWAP2 POP PUSH2 0x27CC DUP4 PUSH2 0x196A JUMP JUMPDEST SWAP3 POP DUP3 DUP3 ADD SWAP1 POP PUSH4 0xFFFFFFFF DUP2 GT ISZERO PUSH2 0x27E8 JUMPI PUSH2 0x27E7 PUSH2 0x2618 JUMP JUMPDEST JUMPDEST SWAP3 SWAP2 POP POP JUMP JUMPDEST PUSH0 DUP1 REVERT JUMPDEST PUSH0 DUP1 REVERT JUMPDEST PUSH0 DUP1 REVERT JUMPDEST PUSH0 DUP3 CALLDATALOAD PUSH1 0x1 PUSH1 0x40 SUB DUP4 CALLDATASIZE SUB SUB DUP2 SLT PUSH2 0x2815 JUMPI PUSH2 0x2814 PUSH2 0x27EE JUMP JUMPDEST JUMPDEST DUP1 DUP4 ADD SWAP2 POP POP SWAP3 SWAP2 POP POP JUMP JUMPDEST PUSH0 DUP2 CALLDATALOAD PUSH2 0x282D DUP2 PUSH2 0x2072 JUMP JUMPDEST DUP1 SWAP2 POP POP SWAP2 SWAP1 POP JUMP JUMPDEST PUSH0 DUP2 PUSH0 SHL SWAP1 POP SWAP2 SWAP1 POP JUMP JUMPDEST PUSH0 PUSH20 0xFFFFFFFFFFFFFFFFFFFFFFFFFFFFFFFFFFFFFFFF PUSH2 0x2860 DUP5 PUSH2 0x2836 JUMP JUMPDEST SWAP4 POP DUP1 NOT DUP4 AND SWAP3 POP DUP1 DUP5 AND DUP4 OR SWAP2 POP POP SWAP3 SWAP2 POP POP JUMP JUMPDEST PUSH0 DUP2 SWAP1 POP SWAP2 SWAP1 POP JUMP JUMPDEST PUSH0 PUSH2 0x2899 PUSH2 0x2894 PUSH2 0x288F DUP5 PUSH2 0x1A4F JUMP JUMPDEST PUSH2 0x2876 JUMP JUMPDEST PUSH2 0x1A4F JUMP JUMPDEST SWAP1 POP SWAP2 SWAP1 POP JUMP JUMPDEST PUSH0 PUSH2 0x28AA DUP3 PUSH2 0x287F JUMP JUMPDEST SWAP1 POP SWAP2 SWAP1 POP JUMP JUMPDEST PUSH0 PUSH2 0x28BB DUP3 PUSH2 0x28A0 JUMP JUMPDEST SWAP1 POP SWAP2 SWAP1 POP JUMP JUMPDEST PUSH0 DUP2 SWAP1 POP SWAP2 SWAP1 POP JUMP JUMPDEST PUSH2 0x28D4 DUP3 PUSH2 0x28B1 JUMP JUMPDEST PUSH2 0x28E7 PUSH2 0x28E0 DUP3 PUSH2 0x28C2 JUMP JUMPDEST DUP4 SLOAD PUSH2 0x2841 JUMP JUMPDEST DUP3 SSTORE POP POP POP JUMP JUMPDEST PUSH0 DUP1 DUP4 CALLDATALOAD PUSH1 0x1 PUSH1 0x20 SUB DUP5 CALLDATASIZE SUB SUB DUP2 SLT PUSH2 0x290A JUMPI PUSH2 0x2909 PUSH2 0x27EE JUMP JUMPDEST JUMPDEST DUP1 DUP5 ADD SWAP3 POP DUP3 CALLDATALOAD SWAP2 POP PUSH8 0xFFFFFFFFFFFFFFFF DUP3 GT ISZERO PUSH2 0x292C JUMPI PUSH2 0x292B PUSH2 0x27F2 JUMP JUMPDEST JUMPDEST PUSH1 0x20 DUP4 ADD SWAP3 POP PUSH1 0x1 DUP3 MUL CALLDATASIZE SUB DUP4 SGT ISZERO PUSH2 0x2948 JUMPI PUSH2 0x2947 PUSH2 0x27F6 JUMP JUMPDEST JUMPDEST POP SWAP3 POP SWAP3 SWAP1 POP JUMP JUMPDEST PUSH0 DUP3 SWAP1 POP SWAP3 SWAP2 POP POP JUMP JUMPDEST PUSH0 DUP2 SWAP1 POP DUP2 PUSH0 MSTORE PUSH1 0x20 PUSH0 KECCAK256 SWAP1 POP SWAP2 SWAP1 POP JUMP JUMPDEST PUSH0 PUSH1 0x20 PUSH1 0x1F DUP4 ADD DIV SWAP1 POP SWAP2 SWAP1 POP JUMP JUMPDEST PUSH0 DUP3 DUP3 SHL SWAP1 POP SWAP3 SWAP2 POP POP JUMP JUMPDEST PUSH0 PUSH1 0x8 DUP4 MUL PUSH2 0x29B6 PUSH32 0xFFFFFFFFFFFFFFFFFFFFFFFFFFFFFFFFFFFFFFFFFFFFFFFFFFFFFFFFFFFFFFFF DUP3 PUSH2 0x297B JUMP JUMPDEST PUSH2 0x29C0 DUP7 DUP4 PUSH2 0x297B JUMP JUMPDEST SWAP6 POP DUP1 NOT DUP5 AND SWAP4 POP DUP1 DUP7 AND DUP5 OR SWAP3 POP POP POP SWAP4 SWAP3 POP POP POP JUMP JUMPDEST PUSH0 PUSH2 0x29F2 PUSH2 0x29ED PUSH2 0x29E8 DUP5 PUSH2 0x23C2 JUMP JUMPDEST PUSH2 0x2876 JUMP JUMPDEST PUSH2 0x23C2 JUMP JUMPDEST SWAP1 POP SWAP2 SWAP1 POP JUMP JUMPDEST PUSH0 DUP2 SWAP1 POP SWAP2 SWAP1 POP JUMP JUMPDEST PUSH2 0x2A0B DUP4 PUSH2 0x29D8 JUMP JUMPDEST PUSH2 0x2A1F PUSH2 0x2A17 DUP3 PUSH2 0x29F9 JUMP JUMPDEST DUP5 DUP5 SLOAD PUSH2 0x2987 JUMP JUMPDEST DUP3 SSTORE POP POP POP POP JUMP JUMPDEST PUSH0 SWAP1 JUMP JUMPDEST PUSH2 0x2A33 PUSH2 0x2A27 JUMP JUMPDEST PUSH2 0x2A3E DUP2 DUP5 DUP5 PUSH2 0x2A02 JUMP JUMPDEST POP POP POP JUMP JUMPDEST JUMPDEST DUP2 DUP2 LT ISZERO PUSH2 0x2A61 JUMPI PUSH2 0x2A56 PUSH0 DUP3 PUSH2 0x2A2B JUMP JUMPDEST PUSH1 0x1 DUP2 ADD SWAP1 POP PUSH2 0x2A44 JUMP JUMPDEST POP POP JUMP JUMPDEST PUSH1 0x1F DUP3 GT ISZERO PUSH2 0x2AA6 JUMPI PUSH2 0x2A77 DUP2 PUSH2 0x295A JUMP JUMPDEST PUSH2 0x2A80 DUP5 PUSH2 0x296C JUMP JUMPDEST DUP2 ADD PUSH1 0x20 DUP6 LT ISZERO PUSH2 0x2A8F JUMPI DUP2 SWAP1 POP JUMPDEST PUSH2 0x2AA3 PUSH2 0x2A9B DUP6 PUSH2 0x296C JUMP JUMPDEST DUP4 ADD DUP3 PUSH2 0x2A43 JUMP JUMPDEST POP POP JUMPDEST POP POP POP JUMP JUMPDEST PUSH0 DUP3 DUP3 SHR SWAP1 POP SWAP3 SWAP2 POP POP JUMP JUMPDEST PUSH0 PUSH2 0x2AC6 PUSH0 NOT DUP5 PUSH1 0x8 MUL PUSH2 0x2AAB JUMP JUMPDEST NOT DUP1 DUP4 AND SWAP2 POP POP SWAP3 SWAP2 POP POP JUMP JUMPDEST PUSH0 PUSH2 0x2ADE DUP4 DUP4 PUSH2 0x2AB7 JUMP JUMPDEST SWAP2 POP DUP3 PUSH1 0x2 MUL DUP3 OR SWAP1 POP SWAP3 SWAP2 POP POP JUMP JUMPDEST PUSH2 0x2AF8 DUP4 DUP4 PUSH2 0x2950 JUMP JUMPDEST PUSH8 0xFFFFFFFFFFFFFFFF DUP2 GT ISZERO PUSH2 0x2B11 JUMPI PUSH2 0x2B10 PUSH2 0x1E91 JUMP JUMPDEST JUMPDEST PUSH2 0x2B1B DUP3 SLOAD PUSH2 0x26D8 JUMP JUMPDEST PUSH2 0x2B26 DUP3 DUP3 DUP6 PUSH2 0x2A65 JUMP JUMPDEST PUSH0 PUSH1 0x1F DUP4 GT PUSH1 0x1 DUP2 EQ PUSH2 0x2B53 JUMPI PUSH0 DUP5 ISZERO PUSH2 0x2B41 JUMPI DUP3 DUP8 ADD CALLDATALOAD SWAP1 POP JUMPDEST PUSH2 0x2B4B DUP6 DUP3 PUSH2 0x2AD3 JUMP JUMPDEST DUP7 SSTORE POP PUSH2 0x2BB2 JUMP JUMPDEST PUSH1 0x1F NOT DUP5 AND PUSH2 0x2B61 DUP7 PUSH2 0x295A JUMP JUMPDEST PUSH0 JUMPDEST DUP3 DUP2 LT ISZERO PUSH2 0x2B88 JUMPI DUP5 DUP10 ADD CALLDATALOAD DUP3 SSTORE PUSH1 0x1 DUP3 ADD SWAP2 POP PUSH1 0x20 DUP6 ADD SWAP5 POP PUSH1 0x20 DUP2 ADD SWAP1 POP PUSH2 0x2B63 JUMP JUMPDEST DUP7 DUP4 LT ISZERO PUSH2 0x2BA5 JUMPI DUP5 DUP10 ADD CALLDATALOAD PUSH2 0x2BA1 PUSH1 0x1F DUP10 AND DUP3 PUSH2 0x2AB7 JUMP JUMPDEST DUP4 SSTORE POP JUMPDEST PUSH1 0x1 PUSH1 0x2 DUP9 MUL ADD DUP9 SSTORE POP POP POP JUMPDEST POP POP POP POP POP POP POP JUMP JUMPDEST PUSH2 0x2BC6 DUP4 DUP4 DUP4 PUSH2 0x2AEE JUMP JUMPDEST POP POP POP JUMP JUMPDEST PUSH0 DUP2 ADD PUSH0 DUP4 ADD DUP1 PUSH2 0x2BDB DUP2 PUSH2 0x2821 JUMP JUMPDEST SWAP1 POP PUSH2 0x2BE7 DUP2 DUP5 PUSH2 0x28CB JUMP JUMPDEST POP POP POP PUSH1 0x1 DUP2 ADD PUSH1 0x20 DUP4 ADD PUSH2 0x2BFC DUP2 DUP6 PUSH2 0x28EE JUMP JUMPDEST PUSH2 0x2C07 DUP2 DUP4 DUP7 PUSH2 0x2BBB JUMP JUMPDEST POP POP POP POP POP POP JUMP JUMPDEST PUSH2 0x2C19 DUP3 DUP3 PUSH2 0x2BCB JUMP JUMPDEST POP POP JUMP JUMPDEST PUSH0 DUP2 PUSH0 SHR SWAP1 POP SWAP2 SWAP1 POP JUMP JUMPDEST PUSH0 PUSH4 0xFFFFFFFF DUP3 AND SWAP1 POP SWAP2 SWAP1 POP JUMP JUMPDEST PUSH0 PUSH2 0x2C49 PUSH2 0x2C44 DUP4 PUSH2 0x2C1D JUMP JUMPDEST PUSH2 0x2C28 JUMP JUMPDEST SWAP1 POP SWAP2 SWAP1 POP JUMP JUMPDEST PUSH0 DUP2 PUSH1 0x20 SHR SWAP1 POP SWAP2 SWAP1 POP JUMP JUMPDEST PUSH0 PUSH2 0x2C6E PUSH2 0x2C69 DUP4 PUSH2 0x2C50 JUMP JUMPDEST PUSH2 0x2C28 JUMP JUMPDEST SWAP1 POP SWAP2 SWAP1 POP JUMP JUMPDEST PUSH0 DUP2 PUSH1 0x40 SHR SWAP1 POP SWAP2 SWAP1 POP JUMP JUMPDEST PUSH0 PUSH2 0x2C93 PUSH2 0x2C8E DUP4 PUSH2 0x2C75 JUMP JUMPDEST PUSH2 0x2C28 JUMP JUMPDEST SWAP1 POP SWAP2 SWAP1 POP JUMP JUMPDEST PUSH0 DUP2 SLOAD SWAP1 POP SWAP2 SWAP1 POP JUMP JUMPDEST PUSH0 DUP2 SWAP1 POP DUP2 PUSH0 MSTORE PUSH1 0x20 PUSH0 KECCAK256 SWAP1 POP SWAP2 SWAP1 POP JUMP JUMPDEST PUSH0 PUSH20 0xFFFFFFFFFFFFFFFFFFFFFFFFFFFFFFFFFFFFFFFF DUP3 AND SWAP1 POP SWAP2 SWAP1 POP JUMP JUMPDEST PUSH0 PUSH2 0x2CE7 PUSH2 0x2CE2 DUP4 PUSH2 0x2C1D JUMP JUMPDEST PUSH2 0x2CB6 JUMP JUMPDEST SWAP1 POP SWAP2 SWAP1 POP JUMP JUMPDEST PUSH0 DUP2 SLOAD PUSH2 0x2CFA DUP2 PUSH2 0x26D8 JUMP JUMPDEST PUSH2 0x2D04 DUP2 DUP7 PUSH2 0x1A98 JUMP JUMPDEST SWAP5 POP PUSH1 0x1 DUP3 AND PUSH0 DUP2 EQ PUSH2 0x2D1E JUMPI PUSH1 0x1 DUP2 EQ PUSH2 0x2D34 JUMPI PUSH2 0x2D66 JUMP JUMPDEST PUSH1 0xFF NOT DUP4 AND DUP7 MSTORE DUP2 ISZERO ISZERO PUSH1 0x20 MUL DUP7 ADD SWAP4 POP PUSH2 0x2D66 JUMP JUMPDEST PUSH2 0x2D3D DUP6 PUSH2 0x295A JUMP JUMPDEST PUSH0 JUMPDEST DUP4 DUP2 LT ISZERO PUSH2 0x2D5E JUMPI DUP2 SLOAD DUP2 DUP10 ADD MSTORE PUSH1 0x1 DUP3 ADD SWAP2 POP PUSH1 0x20 DUP2 ADD SWAP1 POP PUSH2 0x2D3F JUMP JUMPDEST DUP1 DUP9 ADD SWAP6 POP POP POP JUMPDEST POP POP POP SWAP3 SWAP2 POP POP JUMP JUMPDEST PUSH0 PUSH1 0x40 DUP4 ADD PUSH0 DUP1 DUP5 ADD SLOAD SWAP1 POP PUSH2 0x2D84 DUP2 PUSH2 0x2CD5 JUMP JUMPDEST PUSH2 0x2D90 PUSH0 DUP8 ADD DUP3 PUSH2 0x1A7F JUMP JUMPDEST POP PUSH1 0x1 DUP5 ADD DUP6 DUP4 SUB PUSH1 0x20 DUP8 ADD MSTORE PUSH2 0x2DA7 DUP4 DUP3 PUSH2 0x2CEE JUMP JUMPDEST SWAP3 POP POP DUP2 SWAP3 POP POP POP SWAP3 SWAP2 POP POP JUMP JUMPDEST PUSH0 PUSH2 0x2DC0 DUP4 DUP4 PUSH2 0x2D6F JUMP JUMPDEST SWAP1 POP SWAP3 SWAP2 POP POP JUMP JUMPDEST PUSH0 PUSH1 0x2 DUP3 ADD SWAP1 POP SWAP2 SWAP1 POP JUMP JUMPDEST PUSH0 PUSH2 0x2DDE DUP3 PUSH2 0x2C9A JUMP JUMPDEST PUSH2 0x2DE8 DUP2 DUP6 PUSH2 0x1C4C JUMP JUMPDEST SWAP4 POP DUP4 PUSH1 0x20 DUP3 MUL DUP6 ADD PUSH2 0x2DFA DUP6 PUSH2 0x2CA4 JUMP JUMPDEST DUP1 PUSH0 JUMPDEST DUP6 DUP2 LT ISZERO PUSH2 0x2E34 JUMPI DUP5 DUP5 SUB DUP10 MSTORE DUP2 PUSH2 0x2E15 DUP6 DUP3 PUSH2 0x2DB5 JUMP JUMPDEST SWAP5 POP PUSH2 0x2E20 DUP4 PUSH2 0x2DC8 JUMP JUMPDEST SWAP3 POP PUSH1 0x20 DUP11 ADD SWAP10 POP POP PUSH1 0x1 DUP2 ADD SWAP1 POP PUSH2 0x2DFD JUMP JUMPDEST POP DUP3 SWAP8 POP DUP8 SWAP6 POP POP POP POP POP POP SWAP3 SWAP2 POP POP JUMP JUMPDEST PUSH0 PUSH1 0xFF DUP3 AND SWAP1 POP SWAP2 SWAP1 POP JUMP JUMPDEST PUSH0 PUSH2 0x2E64 PUSH2 0x2E5F DUP4 PUSH2 0x2C1D JUMP JUMPDEST PUSH2 0x2E46 JUMP JUMPDEST SWAP1 POP SWAP2 SWAP1 POP JUMP JUMPDEST PUSH0 PUSH1 0xA0 DUP4 ADD PUSH0 DUP1 DUP5 ADD SLOAD SWAP1 POP PUSH2 0x2E80 DUP2 PUSH2 0x2C37 JUMP JUMPDEST PUSH2 0x2E8C PUSH0 DUP8 ADD DUP3 PUSH2 0x1C3D JUMP JUMPDEST POP PUSH2 0x2E96 DUP2 PUSH2 0x2C5C JUMP JUMPDEST PUSH2 0x2EA3 PUSH1 0x20 DUP8 ADD DUP3 PUSH2 0x1C3D JUMP JUMPDEST POP PUSH2 0x2EAD DUP2 PUSH2 0x2C81 JUMP JUMPDEST PUSH2 0x2EBA PUSH1 0x40 DUP8 ADD DUP3 PUSH2 0x1C3D JUMP JUMPDEST POP PUSH1 0x1 DUP5 ADD DUP6 DUP4 SUB PUSH1 0x60 DUP8 ADD MSTORE PUSH2 0x2ED1 DUP4 DUP3 PUSH2 0x2DD4 JUMP JUMPDEST SWAP3 POP POP PUSH1 0x2 DUP5 ADD SLOAD SWAP1 POP PUSH2 0x2EE4 DUP2 PUSH2 0x2E52 JUMP JUMPDEST PUSH2 0x2EF1 PUSH1 0x80 DUP8 ADD DUP3 PUSH2 0x1CDB JUMP JUMPDEST POP DUP2 SWAP3 POP POP POP SWAP3 SWAP2 POP POP JUMP JUMPDEST PUSH0 PUSH1 0x20 DUP3 ADD SWAP1 POP DUP2 DUP2 SUB PUSH0 DUP4 ADD MSTORE PUSH2 0x2F15 DUP2 DUP5 PUSH2 0x2E6B JUMP JUMPDEST SWAP1 POP SWAP3 SWAP2 POP POP JUMP JUMPDEST PUSH32 0x4E6F207369676E61747572657300000000000000000000000000000000000000 PUSH0 DUP3 ADD MSTORE POP JUMP JUMPDEST PUSH0 PUSH2 0x2F51 PUSH1 0xD DUP4 PUSH2 0x273F JUMP JUMPDEST SWAP2 POP PUSH2 0x2F5C DUP3 PUSH2 0x2F1D JUMP JUMPDEST PUSH1 0x20 DUP3 ADD SWAP1 POP SWAP2 SWAP1 POP JUMP JUMPDEST PUSH0 PUSH1 0x20 DUP3 ADD SWAP1 POP DUP2 DUP2 SUB PUSH0 DUP4 ADD MSTORE PUSH2 0x2F7E DUP2 PUSH2 0x2F45 JUMP JUMPDEST SWAP1 POP SWAP2 SWAP1 POP JUMP JUMPDEST PUSH32 0x4E756D626572206F66207369676E617475726573206E6F7420657175616C2074 PUSH0 DUP3 ADD MSTORE PUSH32 0x6F206E756D626572206F66207769746E65737365730000000000000000000000 PUSH1 0x20 DUP3 ADD MSTORE POP JUMP JUMPDEST PUSH0 PUSH2 0x2FDF PUSH1 0x35 DUP4 PUSH2 0x273F JUMP JUMPDEST SWAP2 POP PUSH2 0x2FEA DUP3 PUSH2 0x2F85 JUMP JUMPDEST PUSH1 0x40 DUP3 ADD SWAP1 POP SWAP2 SWAP1 POP JUMP JUMPDEST PUSH0 PUSH1 0x20 DUP3 ADD SWAP1 POP DUP2 DUP2 SUB PUSH0 DUP4 ADD MSTORE PUSH2 0x300C DUP2 PUSH2 0x2FD3 JUMP JUMPDEST SWAP1 POP SWAP2 SWAP1 POP JUMP JUMPDEST PUSH32 0x5369676E6174757265206E6F7420617070726F70726961746500000000000000 PUSH0 DUP3 ADD MSTORE POP JUMP JUMPDEST PUSH0 PUSH2 0x3047 PUSH1 0x19 DUP4 PUSH2 0x273F JUMP JUMPDEST SWAP2 POP PUSH2 0x3052 DUP3 PUSH2 0x3013 JUMP JUMPDEST PUSH1 0x20 DUP3 ADD SWAP1 POP SWAP2 SWAP1 POP JUMP JUMPDEST PUSH0 PUSH1 0x20 DUP3 ADD SWAP1 POP DUP2 DUP2 SUB PUSH0 DUP4 ADD MSTORE PUSH2 0x3074 DUP2 PUSH2 0x303B JUMP JUMPDEST SWAP1 POP SWAP2 SWAP1 POP JUMP JUMPDEST PUSH0 PUSH2 0x3085 DUP3 PUSH2 0x23C2 JUMP JUMPDEST SWAP2 POP PUSH2 0x3090 DUP4 PUSH2 0x23C2 JUMP JUMPDEST SWAP3 POP DUP3 DUP3 MUL PUSH2 0x309E DUP2 PUSH2 0x23C2 JUMP JUMPDEST SWAP2 POP DUP3 DUP3 DIV DUP5 EQ DUP4 ISZERO OR PUSH2 0x30B5 JUMPI PUSH2 0x30B4 PUSH2 0x2618 JUMP JUMPDEST JUMPDEST POP SWAP3 SWAP2 POP POP JUMP JUMPDEST PUSH0 PUSH2 0x30C6 DUP3 PUSH2 0x23C2 JUMP JUMPDEST SWAP2 POP PUSH2 0x30D1 DUP4 PUSH2 0x23C2 JUMP JUMPDEST SWAP3 POP DUP3 PUSH2 0x30E1 JUMPI PUSH2 0x30E0 PUSH2 0x258E JUMP JUMPDEST JUMPDEST DUP3 DUP3 DIV SWAP1 POP SWAP3 SWAP2 POP POP JUMP JUMPDEST PUSH32 0x3078000000000000000000000000000000000000000000000000000000000000 PUSH0 DUP3 ADD MSTORE POP JUMP JUMPDEST PUSH0 PUSH2 0x3120 PUSH1 0x2 DUP4 PUSH2 0x24AC JUMP JUMPDEST SWAP2 POP PUSH2 0x312B DUP3 PUSH2 0x30EC JUMP JUMPDEST PUSH1 0x2 DUP3 ADD SWAP1 POP SWAP2 SWAP1 POP JUMP JUMPDEST PUSH0 DUP2 MLOAD SWAP1 POP SWAP2 SWAP1 POP JUMP JUMPDEST PUSH0 DUP2 SWAP1 POP SWAP3 SWAP2 POP POP JUMP JUMPDEST PUSH0 PUSH2 0x3154 DUP3 PUSH2 0x3136 JUMP JUMPDEST PUSH2 0x315E DUP2 DUP6 PUSH2 0x3140 JUMP JUMPDEST SWAP4 POP PUSH2 0x316E DUP2 DUP6 PUSH1 0x20 DUP7 ADD PUSH2 0x1AA8 JUMP JUMPDEST DUP1 DUP5 ADD SWAP2 POP POP SWAP3 SWAP2 POP POP JUMP JUMPDEST PUSH0 PUSH2 0x3184 DUP3 PUSH2 0x3114 JUMP JUMPDEST SWAP2 POP PUSH2 0x3190 DUP3 DUP5 PUSH2 0x314A JUMP JUMPDEST SWAP2 POP DUP2 SWAP1 POP SWAP3 SWAP2 POP POP JUMP JUMPDEST PUSH0 PUSH2 0x31A5 DUP3 PUSH2 0x23C2 JUMP JUMPDEST SWAP2 POP PUSH32 0xFFFFFFFFFFFFFFFFFFFFFFFFFFFFFFFFFFFFFFFFFFFFFFFFFFFFFFFFFFFFFFFF DUP3 SUB PUSH2 0x31D7 JUMPI PUSH2 0x31D6 PUSH2 0x2618 JUMP JUMPDEST JUMPDEST PUSH1 0x1 DUP3 ADD SWAP1 POP SWAP2 SWAP1 POP JUMP JUMPDEST PUSH0 PUSH2 0x31EC DUP3 PUSH2 0x1CCF JUMP JUMPDEST SWAP2 POP PUSH2 0x31F7 DUP4 PUSH2 0x1CCF JUMP JUMPDEST SWAP3 POP DUP3 DUP3 ADD SWAP1 POP PUSH1 0xFF DUP2 GT ISZERO PUSH2 0x3210 JUMPI PUSH2 0x320F PUSH2 0x2618 JUMP JUMPDEST JUMPDEST SWAP3 SWAP2 POP POP JUMP JUMPDEST PUSH32 0x4F6666736574202B2034206D7573742062652077697468696E20646174612062 PUSH0 DUP3 ADD MSTORE PUSH32 0x6F756E6473000000000000000000000000000000000000000000000000000000 PUSH1 0x20 DUP3 ADD MSTORE POP JUMP JUMPDEST PUSH0 PUSH2 0x3270 PUSH1 0x25 DUP4 PUSH2 0x273F JUMP JUMPDEST SWAP2 POP PUSH2 0x327B DUP3 PUSH2 0x3216 JUMP JUMPDEST PUSH1 0x40 DUP3 ADD SWAP1 POP SWAP2 SWAP1 POP JUMP JUMPDEST PUSH0 PUSH1 0x20 DUP3 ADD SWAP1 POP DUP2 DUP2 SUB PUSH0 DUP4 ADD MSTORE PUSH2 0x329D DUP2 PUSH2 0x3264 JUMP JUMPDEST SWAP1 POP SWAP2 SWAP1 POP JUMP JUMPDEST PUSH0 PUSH2 0x32AF DUP3 DUP7 PUSH2 0x24B6 JUMP JUMPDEST SWAP2 POP PUSH2 0x32BA DUP3 PUSH2 0x250E JUMP JUMPDEST SWAP2 POP PUSH2 0x32C6 DUP3 DUP6 PUSH2 0x24B6 JUMP JUMPDEST SWAP2 POP PUSH2 0x32D1 DUP3 PUSH2 0x250E JUMP JUMPDEST SWAP2 POP PUSH2 0x32DD DUP3 DUP5 PUSH2 0x24B6 JUMP JUMPDEST SWAP2 POP DUP2 SWAP1 POP SWAP5 SWAP4 POP POP POP POP JUMP JUMPDEST PUSH32 0x19457468657265756D205369676E6564204D6573736167653A0A000000000000 PUSH0 DUP3 ADD MSTORE POP JUMP JUMPDEST PUSH0 PUSH2 0x331E PUSH1 0x1A DUP4 PUSH2 0x24AC JUMP JUMPDEST SWAP2 POP PUSH2 0x3329 DUP3 PUSH2 0x32EA JUMP JUMPDEST PUSH1 0x1A DUP3 ADD SWAP1 POP SWAP2 SWAP1 POP JUMP JUMPDEST PUSH0 PUSH2 0x333E DUP3 PUSH2 0x3312 JUMP JUMPDEST SWAP2 POP PUSH2 0x334A DUP3 DUP6 PUSH2 0x24B6 JUMP JUMPDEST SWAP2 POP PUSH2 0x3356 DUP3 DUP5 PUSH2 0x314A JUMP JUMPDEST SWAP2 POP DUP2 SWAP1 POP SWAP4 SWAP3 POP POP POP JUMP JUMPDEST PUSH0 DUP2 PUSH1 0x1 SHR SWAP1 POP SWAP2 SWAP1 POP JUMP JUMPDEST PUSH0 DUP1 DUP3 SWAP2 POP DUP4 SWAP1 POP JUMPDEST PUSH1 0x1 DUP6 GT ISZERO PUSH2 0x33B7 JUMPI DUP1 DUP7 DIV DUP2 GT ISZERO PUSH2 0x3393 JUMPI PUSH2 0x3392 PUSH2 0x2618 JUMP JUMPDEST JUMPDEST PUSH1 0x1 DUP6 AND ISZERO PUSH2 0x33A2 JUMPI DUP1 DUP3 MUL SWAP2 POP JUMPDEST DUP1 DUP2 MUL SWAP1 POP PUSH2 0x33B0 DUP6 PUSH2 0x3362 JUMP JUMPDEST SWAP5 POP PUSH2 0x3377 JUMP JUMPDEST SWAP5 POP SWAP5 SWAP3 POP POP POP JUMP JUMPDEST PUSH0 DUP3 PUSH2 0x33CF JUMPI PUSH1 0x1 SWAP1 POP PUSH2 0x348A JUMP JUMPDEST DUP2 PUSH2 0x33DC JUMPI PUSH0 SWAP1 POP PUSH2 0x348A JUMP JUMPDEST DUP2 PUSH1 0x1 DUP2 EQ PUSH2 0x33F2 JUMPI PUSH1 0x2 DUP2 EQ PUSH2 0x33FC JUMPI PUSH2 0x342B JUMP JUMPDEST PUSH1 0x1 SWAP2 POP POP PUSH2 0x348A JUMP JUMPDEST PUSH1 0xFF DUP5 GT ISZERO PUSH2 0x340E JUMPI PUSH2 0x340D PUSH2 0x2618 JUMP JUMPDEST JUMPDEST DUP4 PUSH1 0x2 EXP SWAP2 POP DUP5 DUP3 GT ISZERO PUSH2 0x3425 JUMPI PUSH2 0x3424 PUSH2 0x2618 JUMP JUMPDEST JUMPDEST POP PUSH2 0x348A JUMP JUMPDEST POP PUSH1 0x20 DUP4 LT PUSH2 0x133 DUP4 LT AND PUSH1 0x4E DUP5 LT PUSH1 0xB DUP5 LT AND OR ISZERO PUSH2 0x3460 JUMPI DUP3 DUP3 EXP SWAP1 POP DUP4 DUP2 GT ISZERO PUSH2 0x345B JUMPI PUSH2 0x345A PUSH2 0x2618 JUMP JUMPDEST JUMPDEST PUSH2 0x348A JUMP JUMPDEST PUSH2 0x346D DUP5 DUP5 DUP5 PUSH1 0x1 PUSH2 0x336E JUMP JUMPDEST SWAP3 POP SWAP1 POP DUP2 DUP5 DIV DUP2 GT ISZERO PUSH2 0x3484 JUMPI PUSH2 0x3483 PUSH2 0x2618 JUMP JUMPDEST JUMPDEST DUP2 DUP2 MUL SWAP1 POP JUMPDEST SWAP4 SWAP3 POP POP POP JUMP JUMPDEST PUSH0 PUSH2 0x349B DUP3 PUSH2 0x23C2 JUMP JUMPDEST SWAP2 POP PUSH2 0x34A6 DUP4 PUSH2 0x23C2 JUMP JUMPDEST SWAP3 POP PUSH2 0x34D3 PUSH32 0xFFFFFFFFFFFFFFFFFFFFFFFFFFFFFFFFFFFFFFFFFFFFFFFFFFFFFFFFFFFFFFFF DUP5 DUP5 PUSH2 0x33C0 JUMP JUMPDEST SWAP1 POP SWAP3 SWAP2 POP POP JUMP JUMPDEST PUSH0 PUSH2 0x34E5 DUP3 PUSH2 0x1CCF JUMP JUMPDEST SWAP2 POP PUSH2 0x34F0 DUP4 PUSH2 0x1CCF JUMP JUMPDEST SWAP3 POP DUP3 PUSH2 0x3500 JUMPI PUSH2 0x34FF PUSH2 0x258E JUMP JUMPDEST JUMPDEST DUP3 DUP3 DIV SWAP1 POP SWAP3 SWAP2 POP POP JUMP JUMPDEST PUSH0 PUSH2 0x3515 DUP3 PUSH2 0x1CCF JUMP JUMPDEST SWAP2 POP PUSH2 0x3520 DUP4 PUSH2 0x1CCF JUMP JUMPDEST SWAP3 POP DUP3 DUP3 MUL PUSH2 0x352E DUP2 PUSH2 0x1CCF JUMP JUMPDEST SWAP2 POP DUP1 DUP3 EQ PUSH2 0x3540 JUMPI PUSH2 0x353F PUSH2 0x2618 JUMP JUMPDEST JUMPDEST POP SWAP3 SWAP2 POP POP JUMP JUMPDEST PUSH0 PUSH2 0x3551 DUP3 PUSH2 0x1CCF JUMP JUMPDEST SWAP2 POP PUSH2 0x355C DUP4 PUSH2 0x1CCF JUMP JUMPDEST SWAP3 POP DUP3 DUP3 SUB SWAP1 POP PUSH1 0xFF DUP2 GT ISZERO PUSH2 0x3575 JUMPI PUSH2 0x3574 PUSH2 0x2618 JUMP JUMPDEST JUMPDEST SWAP3 SWAP2 POP POP JUMP JUMPDEST PUSH32 0x4E487B7100000000000000000000000000000000000000000000000000000000 PUSH0 MSTORE PUSH1 0x21 PUSH1 0x4 MSTORE PUSH1 0x24 PUSH0 REVERT JUMPDEST PUSH2 0x35B1 DUP2 PUSH2 0x23C2 JUMP JUMPDEST DUP3 MSTORE POP POP JUMP JUMPDEST PUSH0 PUSH1 0x20 DUP3 ADD SWAP1 POP PUSH2 0x35CA PUSH0 DUP4 ADD DUP5 PUSH2 0x35A8 JUMP JUMPDEST SWAP3 SWAP2 POP POP JUMP JUMPDEST PUSH2 0x35D9 DUP2 PUSH2 0x19A3 JUMP JUMPDEST DUP3 MSTORE POP POP JUMP JUMPDEST PUSH0 PUSH1 0x20 DUP3 ADD SWAP1 POP PUSH2 0x35F2 PUSH0 DUP4 ADD DUP5 PUSH2 0x35D0 JUMP JUMPDEST SWAP3 SWAP2 POP POP JUMP JUMPDEST PUSH0 PUSH1 0x80 DUP3 ADD SWAP1 POP PUSH2 0x360B PUSH0 DUP4 ADD DUP8 PUSH2 0x35D0 JUMP JUMPDEST PUSH2 0x3618 PUSH1 0x20 DUP4 ADD DUP7 PUSH2 0x2420 JUMP JUMPDEST PUSH2 0x3625 PUSH1 0x40 DUP4 ADD DUP6 PUSH2 0x35D0 JUMP JUMPDEST PUSH2 0x3632 PUSH1 0x60 DUP4 ADD DUP5 PUSH2 0x35D0 JUMP JUMPDEST SWAP6 SWAP5 POP POP POP POP POP JUMP INVALID LOG2 PUSH5 0x6970667358 0x22 SLT KECCAK256 MULMOD SDIV EQ SWAP6 BALANCE 0xF8 DUP11 0xAD 0xDE CALLER PUSH15 0x340C87E37773762ED9CA629FAA8E3B SHR DELEGATECALL PUSH15 0x7F9ADF64736F6C634300081A003300 "
		},
		"gasEstimates": {
			"creation": {
				"codeDepositCost": "2787400",
				"executionCost": "75934",
				"totalCost": "2863334"
			},
			"external": {
				"addNewEpoch((address,string)[],uint8)": "infinite",
				"currentEpoch()": "2517",
				"epochDurationS()": "2489",
				"epochs(uint256)": "infinite",
				"fetchEpoch(uint32)": "infinite",
				"fetchWitnessesForClaim(uint32,bytes32,uint32)": "infinite",
				"owner()": "2581",
				"verifyProof(((string,string,string),((bytes32,address,uint32,uint32),bytes[])))": "infinite"
			},
			"internal": {
				"uintDifference(uint256,uint256)": "infinite"
			}
		},
		"methodIdentifiers": {
			"addNewEpoch((address,string)[],uint8)": "4729504c",
			"currentEpoch()": "76671808",
			"epochDurationS()": "289989fd",
			"epochs(uint256)": "c6b61e4c",
			"fetchEpoch(uint32)": "3d3c3e07",
			"fetchWitnessesForClaim(uint32,bytes32,uint32)": "10abbe56",
			"owner()": "8da5cb5b",
			"verifyProof(((string,string,string),((bytes32,address,uint32,uint32),bytes[])))": "a960e69e"
		}
	},
	"abi": [
		{
			"inputs": [],
			"stateMutability": "nonpayable",
			"type": "constructor"
		},
		{
			"inputs": [],
			"name": "ECDSAInvalidSignature",
			"type": "error"
		},
		{
			"inputs": [
				{
					"internalType": "uint256",
					"name": "length",
					"type": "uint256"
				}
			],
			"name": "ECDSAInvalidSignatureLength",
			"type": "error"
		},
		{
			"inputs": [
				{
					"internalType": "bytes32",
					"name": "s",
					"type": "bytes32"
				}
			],
			"name": "ECDSAInvalidSignatureS",
			"type": "error"
		},
		{
			"anonymous": false,
			"inputs": [
				{
					"components": [
						{
							"internalType": "uint32",
							"name": "id",
							"type": "uint32"
						},
						{
							"internalType": "uint32",
							"name": "timestampStart",
							"type": "uint32"
						},
						{
							"internalType": "uint32",
							"name": "timestampEnd",
							"type": "uint32"
						},
						{
							"components": [
								{
									"internalType": "address",
									"name": "addr",
									"type": "address"
								},
								{
									"internalType": "string",
									"name": "host",
									"type": "string"
								}
							],
							"internalType": "struct Reclaim.Witness[]",
							"name": "witnesses",
							"type": "tuple[]"
						},
						{
							"internalType": "uint8",
							"name": "minimumWitnessesForClaimCreation",
							"type": "uint8"
						}
					],
					"indexed": false,
					"internalType": "struct Reclaim.Epoch",
					"name": "epoch",
					"type": "tuple"
				}
			],
			"name": "EpochAdded",
			"type": "event"
		},
		{
			"inputs": [
				{
					"components": [
						{
							"internalType": "address",
							"name": "addr",
							"type": "address"
						},
						{
							"internalType": "string",
							"name": "host",
							"type": "string"
						}
					],
					"internalType": "struct Reclaim.Witness[]",
					"name": "witnesses",
					"type": "tuple[]"
				},
				{
					"internalType": "uint8",
					"name": "requisiteWitnessesForClaimCreate",
					"type": "uint8"
				}
			],
			"name": "addNewEpoch",
			"outputs": [],
			"stateMutability": "nonpayable",
			"type": "function"
		},
		{
			"inputs": [],
			"name": "currentEpoch",
			"outputs": [
				{
					"internalType": "uint32",
					"name": "",
					"type": "uint32"
				}
			],
			"stateMutability": "view",
			"type": "function"
		},
		{
			"inputs": [],
			"name": "epochDurationS",
			"outputs": [
				{
					"internalType": "uint32",
					"name": "",
					"type": "uint32"
				}
			],
			"stateMutability": "view",
			"type": "function"
		},
		{
			"inputs": [
				{
					"internalType": "uint256",
					"name": "",
					"type": "uint256"
				}
			],
			"name": "epochs",
			"outputs": [
				{
					"internalType": "uint32",
					"name": "id",
					"type": "uint32"
				},
				{
					"internalType": "uint32",
					"name": "timestampStart",
					"type": "uint32"
				},
				{
					"internalType": "uint32",
					"name": "timestampEnd",
					"type": "uint32"
				},
				{
					"internalType": "uint8",
					"name": "minimumWitnessesForClaimCreation",
					"type": "uint8"
				}
			],
			"stateMutability": "view",
			"type": "function"
		},
		{
			"inputs": [
				{
					"internalType": "uint32",
					"name": "epoch",
					"type": "uint32"
				}
			],
			"name": "fetchEpoch",
			"outputs": [
				{
					"components": [
						{
							"internalType": "uint32",
							"name": "id",
							"type": "uint32"
						},
						{
							"internalType": "uint32",
							"name": "timestampStart",
							"type": "uint32"
						},
						{
							"internalType": "uint32",
							"name": "timestampEnd",
							"type": "uint32"
						},
						{
							"components": [
								{
									"internalType": "address",
									"name": "addr",
									"type": "address"
								},
								{
									"internalType": "string",
									"name": "host",
									"type": "string"
								}
							],
							"internalType": "struct Reclaim.Witness[]",
							"name": "witnesses",
							"type": "tuple[]"
						},
						{
							"internalType": "uint8",
							"name": "minimumWitnessesForClaimCreation",
							"type": "uint8"
						}
					],
					"internalType": "struct Reclaim.Epoch",
					"name": "",
					"type": "tuple"
				}
			],
			"stateMutability": "view",
			"type": "function"
		},
		{
			"inputs": [
				{
					"internalType": "uint32",
					"name": "epoch",
					"type": "uint32"
				},
				{
					"internalType": "bytes32",
					"name": "identifier",
					"type": "bytes32"
				},
				{
					"internalType": "uint32",
					"name": "timestampS",
					"type": "uint32"
				}
			],
			"name": "fetchWitnessesForClaim",
			"outputs": [
				{
					"components": [
						{
							"internalType": "address",
							"name": "addr",
							"type": "address"
						},
						{
							"internalType": "string",
							"name": "host",
							"type": "string"
						}
					],
					"internalType": "struct Reclaim.Witness[]",
					"name": "",
					"type": "tuple[]"
				}
			],
			"stateMutability": "view",
			"type": "function"
		},
		{
			"inputs": [],
			"name": "owner",
			"outputs": [
				{
					"internalType": "address",
					"name": "",
					"type": "address"
				}
			],
			"stateMutability": "view",
			"type": "function"
		},
		{
			"inputs": [
				{
					"components": [
						{
							"components": [
								{
									"internalType": "string",
									"name": "provider",
									"type": "string"
								},
								{
									"internalType": "string",
									"name": "parameters",
									"type": "string"
								},
								{
									"internalType": "string",
									"name": "context",
									"type": "string"
								}
							],
							"internalType": "struct Claims.ClaimInfo",
							"name": "claimInfo",
							"type": "tuple"
						},
						{
							"components": [
								{
									"components": [
										{
											"internalType": "bytes32",
											"name": "identifier",
											"type": "bytes32"
										},
										{
											"internalType": "address",
											"name": "owner",
											"type": "address"
										},
										{
											"internalType": "uint32",
											"name": "timestampS",
											"type": "uint32"
										},
										{
											"internalType": "uint32",
											"name": "epoch",
											"type": "uint32"
										}
									],
									"internalType": "struct Claims.CompleteClaimData",
									"name": "claim",
									"type": "tuple"
								},
								{
									"internalType": "bytes[]",
									"name": "signatures",
									"type": "bytes[]"
								}
							],
							"internalType": "struct Claims.SignedClaim",
							"name": "signedClaim",
							"type": "tuple"
						}
					],
					"internalType": "struct Reclaim.Proof",
					"name": "proof",
					"type": "tuple"
				}
			],
			"name": "verifyProof",
			"outputs": [],
			"stateMutability": "view",
			"type": "function"
		}
	]
}