{
	"data": {
		"bytecode": {
			"linkReferences": {},
			"object": "6080604052348015600e575f5ffd5b506201518060015f6101000a81548163ffffffff021916908363ffffffff1602179055505f600160046101000a81548163ffffffff021916908363ffffffff16021790555033600160086101000a81548173ffffffffffffffffffffffffffffffffffffffff021916908373ffffffffffffffffffffffffffffffffffffffff1602179055506136dd806100a15f395ff3fe608060405234801561000f575f5ffd5b5060043610610086575f3560e01c8063766718081161005957806376671808146101245780638da5cb5b14610142578063a960e69e14610160578063c6b61e4c1461019057610086565b806310abbe561461008a578063289989fd146100ba5780633d3c3e07146100d85780634729504c14610108575b5f5ffd5b6100a4600480360381019061009f9190611a0c565b6101c3565b6040516100b19190611c00565b60405180910390f35b6100c26103ee565b6040516100cf9190611c2f565b60405180910390f35b6100f260048036038101906100ed9190611c48565b610403565b6040516100ff9190611d93565b60405180910390f35b610122600480360381019061011d9190611e3e565b610831565b005b61012c610b5a565b6040516101399190611c2f565b60405180910390f35b61014a610b70565b6040516101579190611eaa565b60405180910390f35b61017a600480360381019061017591906123b1565b610b96565b6040516101879190612412565b60405180910390f35b6101aa60048036038101906101a5919061245e565b610dac565b6040516101ba9493929190612498565b60405180910390f35b60605f6101cf85610403565b90505f6101fa856040516020016101e691906124fb565b604051602081830303815290604052610e1f565b6102098763ffffffff1661103c565b610219846080015160ff1661103c565b6102288763ffffffff1661103c565b60405160200161023b9493929190612599565b60405160208183030381529060405290505f818051906020012060405160200161026591906124fb565b60405160208183030381529060405290505f836060015190505f846080015160ff1667ffffffffffffffff8111156102a05761029f611ec7565b5b6040519080825280602002602001820160405280156102d957816020015b6102c6611920565b8152602001906001900390816102be5790505b5090505f825190505f5f90505f5f90505b876080015160ff168163ffffffff1610156103dc575f61030a87846111ba565b90505f84826103199190612624565b905086818151811061032e5761032d612654565b5b6020026020010151868463ffffffff168151811061034f5761034e612654565b5b6020026020010181905250896060015160018661036c91906126ae565b8151811061037d5761037c612654565b5b602002602001015187828151811061039857610397612654565b5b602002602001018190525087516004856103b291906126e1565b6103bc9190612624565b93506001856103cb91906126ae565b9450505080806001019150506102ea565b50829750505050505050509392505050565b60015f9054906101000a900463ffffffff1681565b61040b61194f565b5f8263ffffffff1603610623575f60015f8054905061042a91906126ae565b8154811061043b5761043a612654565b5b905f5260205f2090600302016040518060a00160405290815f82015f9054906101000a900463ffffffff1663ffffffff1663ffffffff1681526020015f820160049054906101000a900463ffffffff1663ffffffff1663ffffffff1681526020015f820160089054906101000a900463ffffffff1663ffffffff1663ffffffff16815260200160018201805480602002602001604051908101604052809291908181526020015f905b828210156105f8578382905f5260205f2090600202016040518060400160405290815f82015f9054906101000a900473ffffffffffffffffffffffffffffffffffffffff1673ffffffffffffffffffffffffffffffffffffffff1673ffffffffffffffffffffffffffffffffffffffff16815260200160018201805461056990612741565b80601f016020809104026020016040519081016040528092919081815260200182805461059590612741565b80156105e05780601f106105b7576101008083540402835291602001916105e0565b820191905f5260205f20905b8154815290600101906020018083116105c357829003601f168201915b505050505081525050815260200190600101906104e4565b505050508152602001600282015f9054906101000a900460ff1660ff1660ff1681525050905061082c565b5f6001836106319190612771565b63ffffffff168154811061064857610647612654565b5b905f5260205f2090600302016040518060a00160405290815f82015f9054906101000a900463ffffffff1663ffffffff1663ffffffff1681526020015f820160049054906101000a900463ffffffff1663ffffffff1663ffffffff1681526020015f820160089054906101000a900463ffffffff1663ffffffff1663ffffffff16815260200160018201805480602002602001604051908101604052809291908181526020015f905b82821015610805578382905f5260205f2090600202016040518060400160405290815f82015f9054906101000a900473ffffffffffffffffffffffffffffffffffffffff1673ffffffffffffffffffffffffffffffffffffffff1673ffffffffffffffffffffffffffffffffffffffff16815260200160018201805461077690612741565b80601f01602080910402602001604051908101604052809291908181526020018280546107a290612741565b80156107ed5780601f106107c4576101008083540402835291602001916107ed565b820191905f5260205f20905b8154815290600101906020018083116107d057829003601f168201915b505050505081525050815260200190600101906106f1565b505050508152602001600282015f9054906101000a900460ff1660ff1660ff168152505090505b919050565b3373ffffffffffffffffffffffffffffffffffffffff16600160089054906101000a900473ffffffffffffffffffffffffffffffffffffffff1673ffffffffffffffffffffffffffffffffffffffff16146108c1576040517f08c379a00000000000000000000000000000000000000000000000000000000081526004016108b890612802565b60405180910390fd5b5f60015f9054906101000a900463ffffffff1663ffffffff1603610903576201518060015f6101000a81548163ffffffff021916908363ffffffff1602179055505b5f5f80549050111561096057425f60015f8054905061092291906126ae565b8154811061093357610932612654565b5b905f5260205f2090600302015f0160086101000a81548163ffffffff021916908363ffffffff1602179055505b60018060048282829054906101000a900463ffffffff166109819190612820565b92506101000a81548163ffffffff021916908363ffffffff1602179055505f5f60018160018154018082558091505003905f5260205f2090600302019050600160049054906101000a900463ffffffff16815f015f6101000a81548163ffffffff021916908363ffffffff16021790555042815f0160046101000a81548163ffffffff021916908363ffffffff16021790555060015f9054906101000a900463ffffffff1663ffffffff1642610a3791906126e1565b815f0160086101000a81548163ffffffff021916908363ffffffff16021790555081816002015f6101000a81548160ff021916908360ff1602179055505f5f90505b84849050811015610aee5781600101858583818110610a9b57610a9a612654565b5b9050602002810190610aad9190612863565b908060018154018082558091505060019003905f5260205f2090600202015f909190919091508181610adf9190612c7b565b50508080600101915050610a79565b507fb2a1462b8d912a9fe495da7a1188c48bb87bac4644a0931aa4ce2dd7017ce3655f60015f80549050610b2291906126ae565b81548110610b3357610b32612654565b5b905f5260205f209060030201604051610b4c9190612f69565b60405180910390a150505050565b600160049054906101000a900463ffffffff1681565b600160089054906101000a900473ffffffffffffffffffffffffffffffffffffffff1681565b5f5f8260200151602001515111610be2576040517f08c379a0000000000000000000000000000000000000000000000000000000008152600401610bd990612fd3565b60405180910390fd5b5f604051806040016040528084602001515f0151815260200184602001516020015181525090505f610c16845f0151611225565b90508084602001515f01515f015114610c2d575f5ffd5b5f610c5985602001515f01516060015186602001515f01515f015187602001515f0151604001516101c3565b90505f610c6584611268565b90508151815114610cab576040517f08c379a0000000000000000000000000000000000000000000000000000000008152600401610ca290613061565b60405180910390fd5b5f5f90505b846020015151811015610d9e575f5f90505f5f90505b8451811015610d4f57848181518110610ce257610ce1612654565b5b60200260200101515f015173ffffffffffffffffffffffffffffffffffffffff16848481518110610d1657610d15612654565b5b602002602001015173ffffffffffffffffffffffffffffffffffffffff1603610d425760019150610d4f565b8080600101915050610cc6565b5080610d90576040517f08c379a0000000000000000000000000000000000000000000000000000000008152600401610d87906130c9565b60405180910390fd5b508080600101915050610cb0565b506001945050505050919050565b5f8181548110610dba575f80fd5b905f5260205f2090600302015f91509050805f015f9054906101000a900463ffffffff1690805f0160049054906101000a900463ffffffff1690805f0160089054906101000a900463ffffffff1690806002015f9054906101000a900460ff16905084565b60605f60028351610e3091906130e7565b67ffffffffffffffff811115610e4957610e48611ec7565b5b6040519080825280601f01601f191660200182016040528015610e7b5781602001600182028036833780820191505090505b5090505f6040518060400160405280601081526020017f303132333435363738396162636465660000000000000000000000000000000081525090505f5f90505b845181101561101257818251868381518110610edb57610eda612654565b5b602001015160f81c60f81b60f81c60ff16610ef69190613128565b81518110610f0757610f06612654565b5b602001015160f81c60f81b83600283610f2091906130e7565b81518110610f3157610f30612654565b5b60200101907effffffffffffffffffffffffffffffffffffffffffffffffffffffffffffff191690815f1a905350818251868381518110610f7557610f74612654565b5b602001015160f81c60f81b60f81c60ff16610f909190612624565b81518110610fa157610fa0612654565b5b602001015160f81c60f81b836001600284610fbc91906130e7565b610fc691906126e1565b81518110610fd757610fd6612654565b5b60200101907effffffffffffffffffffffffffffffffffffffffffffffffffffffffffffff191690815f1a9053508080600101915050610ebc565b508160405160200161102491906131e6565b60405160208183030381529060405292505050919050565b60605f8203611082576040518060400160405280600181526020017f300000000000000000000000000000000000000000000000000000000000000081525090506111b5565b5f8290505f5b5f82146110b157808061109a90613207565b915050600a826110aa9190613128565b9150611088565b5f8167ffffffffffffffff8111156110cc576110cb611ec7565b5b6040519080825280601f01601f1916602001820160405280156110fe5781602001600182028036833780820191505090505b5090505f8290505b5f86146111ad5760018161111a91906126ae565b90505f600a808861112b9190613128565b61113591906130e7565b8761114091906126ae565b603061114c919061324e565b90505f8160f81b90508084848151811061116957611168612654565b5b60200101907effffffffffffffffffffffffffffffffffffffffffffffffffffffffffffff191690815f1a905350600a886111a49190613128565b97505050611106565b819450505050505b919050565b5f82516004836111ca91906126e1565b111561120b576040517f08c379a0000000000000000000000000000000000000000000000000000000008152600401611202906132f2565b60405180910390fd5b5f8260048501015190508063ffffffff1691505092915050565b5f5f825f01518360200151846040015160405160200161124793929190613310565b60405160208183030381529060405290508080519060200120915050919050565b60605f611277835f0151611369565b90505f83602001515167ffffffffffffffff81111561129957611298611ec7565b5b6040519080825280602002602001820160405280156112c75781602001602082028036833780820191505090505b5090505f5f90505b84602001515181101561135e5761130483866020015183815181106112f7576112f6612654565b5b60200260200101516113f2565b82828151811061131757611316612654565b5b602002602001019073ffffffffffffffffffffffffffffffffffffffff16908173ffffffffffffffffffffffffffffffffffffffff168152505080806001019150506112cf565b508092505050919050565b6060611396825f015160405160200161138291906124fb565b604051602081830303815290604052610e1f565b6113a3836020015161143b565b6113b6846040015163ffffffff1661103c565b6113c9856060015163ffffffff1661103c565b6040516020016113dc9493929190612599565b6040516020818303038152906040529050919050565b5f5f6113fe845161103c565b846040516020016114109291906133a0565b6040516020818303038152906040528051906020012090506114328184611613565b91505092915050565b60605f602867ffffffffffffffff81111561145957611458611ec7565b5b6040519080825280601f01601f19166020018201604052801561148b5781602001600182028036833780820191505090505b5090505f5f90505b60148110156115ea575f8160136114aa91906126ae565b60086114b691906130e7565b60026114c291906134fd565b8573ffffffffffffffffffffffffffffffffffffffff166114e39190613128565b60f81b90505f60108260f81c6114f99190613547565b60f81b90505f8160f81c601061150f9190613577565b8360f81c61151d91906135b3565b60f81b905061152b8261163d565b8585600261153991906130e7565b8151811061154a57611549612654565b5b60200101907effffffffffffffffffffffffffffffffffffffffffffffffffffffffffffff191690815f1a9053506115818161163d565b85600186600261159191906130e7565b61159b91906126e1565b815181106115ac576115ab612654565b5b60200101907effffffffffffffffffffffffffffffffffffffffffffffffffffffffffffff191690815f1a9053505050508080600101915050611493565b50806040516020016115fc91906131e6565b604051602081830303815290604052915050919050565b5f5f5f5f6116218686611682565b92509250925061163182826116d7565b82935050505092915050565b5f600a8260f81c60ff1610156116675760308260f81c61165d919061324e565b60f81b905061167d565b60578260f81c611677919061324e565b60f81b90505b919050565b5f5f5f60418451036116c2575f5f5f602087015192506040870151915060608701515f1a90506116b488828585611839565b9550955095505050506116d0565b5f600285515f1b9250925092505b9250925092565b5f60038111156116ea576116e96135e7565b5b8260038111156116fd576116fc6135e7565b5b03156118355760016003811115611717576117166135e7565b5b82600381111561172a576117296135e7565b5b03611761576040517ff645eedf00000000000000000000000000000000000000000000000000000000815260040160405180910390fd5b60026003811115611775576117746135e7565b5b826003811115611788576117876135e7565b5b036117cc57805f1c6040517ffce698f70000000000000000000000000000000000000000000000000000000081526004016117c39190613623565b60405180910390fd5b6003808111156117df576117de6135e7565b5b8260038111156117f2576117f16135e7565b5b0361183457806040517fd78bce0c00000000000000000000000000000000000000000000000000000000815260040161182b919061364b565b60405180910390fd5b5b5050565b5f5f5f7f7fffffffffffffffffffffffffffffff5d576e7357a4501ddfe92f46681b20a0845f1c1115611875575f600385925092509250611916565b5f6001888888886040515f81526020016040526040516118989493929190613664565b6020604051602081039080840390855afa1580156118b8573d5f5f3e3d5ffd5b5050506020604051035190505f73ffffffffffffffffffffffffffffffffffffffff168173ffffffffffffffffffffffffffffffffffffffff1603611909575f60015f5f1b93509350935050611916565b805f5f5f1b935093509350505b9450945094915050565b60405180604001604052805f73ffffffffffffffffffffffffffffffffffffffff168152602001606081525090565b6040518060a001604052805f63ffffffff1681526020015f63ffffffff1681526020015f63ffffffff168152602001606081526020015f60ff1681525090565b5f604051905090565b5f5ffd5b5f5ffd5b5f63ffffffff82169050919050565b6119b8816119a0565b81146119c2575f5ffd5b50565b5f813590506119d3816119af565b92915050565b5f819050919050565b6119eb816119d9565b81146119f5575f5ffd5b50565b5f81359050611a06816119e2565b92915050565b5f5f5f60608486031215611a2357611a22611998565b5b5f611a30868287016119c5565b9350506020611a41868287016119f8565b9250506040611a52868287016119c5565b9150509250925092565b5f81519050919050565b5f82825260208201905092915050565b5f819050602082019050919050565b5f73ffffffffffffffffffffffffffffffffffffffff82169050919050565b5f611aae82611a85565b9050919050565b611abe81611aa4565b82525050565b5f81519050919050565b5f82825260208201905092915050565b8281835e5f83830152505050565b5f601f19601f8301169050919050565b5f611b0682611ac4565b611b108185611ace565b9350611b20818560208601611ade565b611b2981611aec565b840191505092915050565b5f604083015f830151611b495f860182611ab5565b5060208301518482036020860152611b618282611afc565b9150508091505092915050565b5f611b798383611b34565b905092915050565b5f602082019050919050565b5f611b9782611a5c565b611ba18185611a66565b935083602082028501611bb385611a76565b805f5b85811015611bee5784840389528151611bcf8582611b6e565b9450611bda83611b81565b925060208a01995050600181019050611bb6565b50829750879550505050505092915050565b5f6020820190508181035f830152611c188184611b8d565b905092915050565b611c29816119a0565b82525050565b5f602082019050611c425f830184611c20565b92915050565b5f60208284031215611c5d57611c5c611998565b5b5f611c6a848285016119c5565b91505092915050565b611c7c816119a0565b82525050565b5f82825260208201905092915050565b5f611c9c82611a5c565b611ca68185611c82565b935083602082028501611cb885611a76565b805f5b85811015611cf35784840389528151611cd48582611b6e565b9450611cdf83611b81565b925060208a01995050600181019050611cbb565b50829750879550505050505092915050565b5f60ff82169050919050565b611d1a81611d05565b82525050565b5f60a083015f830151611d355f860182611c73565b506020830151611d486020860182611c73565b506040830151611d5b6040860182611c73565b5060608301518482036060860152611d738282611c92565b9150506080830151611d886080860182611d11565b508091505092915050565b5f6020820190508181035f830152611dab8184611d20565b905092915050565b5f5ffd5b5f5ffd5b5f5ffd5b5f5f83601f840112611dd457611dd3611db3565b5b8235905067ffffffffffffffff811115611df157611df0611db7565b5b602083019150836020820283011115611e0d57611e0c611dbb565b5b9250929050565b611e1d81611d05565b8114611e27575f5ffd5b50565b5f81359050611e3881611e14565b92915050565b5f5f5f60408486031215611e5557611e54611998565b5b5f84013567ffffffffffffffff811115611e7257611e7161199c565b5b611e7e86828701611dbf565b93509350506020611e9186828701611e2a565b9150509250925092565b611ea481611aa4565b82525050565b5f602082019050611ebd5f830184611e9b565b92915050565b5f5ffd5b7f4e487b71000000000000000000000000000000000000000000000000000000005f52604160045260245ffd5b611efd82611aec565b810181811067ffffffffffffffff82111715611f1c57611f1b611ec7565b5b80604052505050565b5f611f2e61198f565b9050611f3a8282611ef4565b919050565b5f5ffd5b5f5ffd5b5f67ffffffffffffffff821115611f6157611f60611ec7565b5b611f6a82611aec565b9050602081019050919050565b828183375f83830152505050565b5f611f97611f9284611f47565b611f25565b905082815260208101848484011115611fb357611fb2611f43565b5b611fbe848285611f77565b509392505050565b5f82601f830112611fda57611fd9611db3565b5b8135611fea848260208601611f85565b91505092915050565b5f6060828403121561200857612007611ec3565b5b6120126060611f25565b90505f82013567ffffffffffffffff81111561203157612030611f3f565b5b61203d84828501611fc6565b5f83015250602082013567ffffffffffffffff8111156120605761205f611f3f565b5b61206c84828501611fc6565b602083015250604082013567ffffffffffffffff8111156120905761208f611f3f565b5b61209c84828501611fc6565b60408301525092915050565b6120b181611aa4565b81146120bb575f5ffd5b50565b5f813590506120cc816120a8565b92915050565b5f608082840312156120e7576120e6611ec3565b5b6120f16080611f25565b90505f612100848285016119f8565b5f830152506020612113848285016120be565b6020830152506040612127848285016119c5565b604083015250606061213b848285016119c5565b60608301525092915050565b5f67ffffffffffffffff82111561216157612160611ec7565b5b602082029050602081019050919050565b5f67ffffffffffffffff82111561218c5761218b611ec7565b5b61219582611aec565b9050602081019050919050565b5f6121b46121af84612172565b611f25565b9050828152602081018484840111156121d0576121cf611f43565b5b6121db848285611f77565b509392505050565b5f82601f8301126121f7576121f6611db3565b5b81356122078482602086016121a2565b91505092915050565b5f61222261221d84612147565b611f25565b9050808382526020820190506020840283018581111561224557612244611dbb565b5b835b8181101561228c57803567ffffffffffffffff81111561226a57612269611db3565b5b80860161227789826121e3565b85526020850194505050602081019050612247565b5050509392505050565b5f82601f8301126122aa576122a9611db3565b5b81356122ba848260208601612210565b91505092915050565b5f60a082840312156122d8576122d7611ec3565b5b6122e26040611f25565b90505f6122f1848285016120d2565b5f83015250608082013567ffffffffffffffff81111561231457612313611f3f565b5b61232084828501612296565b60208301525092915050565b5f6040828403121561234157612340611ec3565b5b61234b6040611f25565b90505f82013567ffffffffffffffff81111561236a57612369611f3f565b5b61237684828501611ff3565b5f83015250602082013567ffffffffffffffff81111561239957612398611f3f565b5b6123a5848285016122c3565b60208301525092915050565b5f602082840312156123c6576123c5611998565b5b5f82013567ffffffffffffffff8111156123e3576123e261199c565b5b6123ef8482850161232c565b91505092915050565b5f8115159050919050565b61240c816123f8565b82525050565b5f6020820190506124255f830184612403565b92915050565b5f819050919050565b61243d8161242b565b8114612447575f5ffd5b50565b5f8135905061245881612434565b92915050565b5f6020828403121561247357612472611998565b5b5f6124808482850161244a565b91505092915050565b61249281611d05565b82525050565b5f6080820190506124ab5f830187611c20565b6124b86020830186611c20565b6124c56040830185611c20565b6124d26060830184612489565b95945050505050565b5f819050919050565b6124f56124f0826119d9565b6124db565b82525050565b5f61250682846124e4565b60208201915081905092915050565b5f81905092915050565b5f61252982611ac4565b6125338185612515565b9350612543818560208601611ade565b80840191505092915050565b7f0a000000000000000000000000000000000000000000000000000000000000005f82015250565b5f612583600183612515565b915061258e8261254f565b600182019050919050565b5f6125a4828761251f565b91506125af82612577565b91506125bb828661251f565b91506125c682612577565b91506125d2828561251f565b91506125dd82612577565b91506125e9828461251f565b915081905095945050505050565b7f4e487b71000000000000000000000000000000000000000000000000000000005f52601260045260245ffd5b5f61262e8261242b565b91506126398361242b565b925082612649576126486125f7565b5b828206905092915050565b7f4e487b71000000000000000000000000000000000000000000000000000000005f52603260045260245ffd5b7f4e487b71000000000000000000000000000000000000000000000000000000005f52601160045260245ffd5b5f6126b88261242b565b91506126c38361242b565b92508282039050818111156126db576126da612681565b5b92915050565b5f6126eb8261242b565b91506126f68361242b565b925082820190508082111561270e5761270d612681565b5b92915050565b7f4e487b71000000000000000000000000000000000000000000000000000000005f52602260045260245ffd5b5f600282049050600182168061275857607f821691505b60208210810361276b5761276a612714565b5b50919050565b5f61277b826119a0565b9150612786836119a0565b9250828203905063ffffffff8111156127a2576127a1612681565b5b92915050565b5f82825260208201905092915050565b7f4f6e6c79204f776e6572000000000000000000000000000000000000000000005f82015250565b5f6127ec600a836127a8565b91506127f7826127b8565b602082019050919050565b5f6020820190508181035f830152612819816127e0565b9050919050565b5f61282a826119a0565b9150612835836119a0565b9250828201905063ffffffff81111561285157612850612681565b5b92915050565b5f5ffd5b5f5ffd5b5f5ffd5b5f8235600160400383360303811261287e5761287d612857565b5b80830191505092915050565b5f8135612896816120a8565b80915050919050565b5f815f1b9050919050565b5f73ffffffffffffffffffffffffffffffffffffffff6128c98461289f565b9350801983169250808416831791505092915050565b5f819050919050565b5f6129026128fd6128f884611a85565b6128df565b611a85565b9050919050565b5f612913826128e8565b9050919050565b5f61292482612909565b9050919050565b5f819050919050565b61293d8261291a565b6129506129498261292b565b83546128aa565b8255505050565b5f5f8335600160200384360303811261297357612972612857565b5b80840192508235915067ffffffffffffffff8211156129955761299461285b565b5b6020830192506001820236038313156129b1576129b061285f565b5b509250929050565b5f82905092915050565b5f819050815f5260205f209050919050565b5f6020601f8301049050919050565b5f82821b905092915050565b5f60088302612a1f7fffffffffffffffffffffffffffffffffffffffffffffffffffffffffffffffff826129e4565b612a2986836129e4565b95508019841693508086168417925050509392505050565b5f612a5b612a56612a518461242b565b6128df565b61242b565b9050919050565b5f819050919050565b612a7483612a41565b612a88612a8082612a62565b8484546129f0565b825550505050565b5f5f905090565b612a9f612a90565b612aaa818484612a6b565b505050565b5b81811015612acd57612ac25f82612a97565b600181019050612ab0565b5050565b601f821115612b1257612ae3816129c3565b612aec846129d5565b81016020851015612afb578190505b612b0f612b07856129d5565b830182612aaf565b50505b505050565b5f82821c905092915050565b5f612b325f1984600802612b17565b1980831691505092915050565b5f612b4a8383612b23565b9150826002028217905092915050565b612b6483836129b9565b67ffffffffffffffff811115612b7d57612b7c611ec7565b5b612b878254612741565b612b92828285612ad1565b5f601f831160018114612bbf575f8415612bad578287013590505b612bb78582612b3f565b865550612c1e565b601f198416612bcd866129c3565b5f5b82811015612bf457848901358255600182019150602085019450602081019050612bcf565b86831015612c115784890135612c0d601f891682612b23565b8355505b6001600288020188555050505b50505050505050565b612c32838383612b5a565b505050565b5f81015f830180612c478161288a565b9050612c538184612934565b5050506001810160208301612c688185612957565b612c73818386612c27565b505050505050565b612c858282612c37565b5050565b5f815f1c9050919050565b5f63ffffffff82169050919050565b5f612cb5612cb083612c89565b612c94565b9050919050565b5f8160201c9050919050565b5f612cda612cd583612cbc565b612c94565b9050919050565b5f8160401c9050919050565b5f612cff612cfa83612ce1565b612c94565b9050919050565b5f81549050919050565b5f819050815f5260205f209050919050565b5f73ffffffffffffffffffffffffffffffffffffffff82169050919050565b5f612d53612d4e83612c89565b612d22565b9050919050565b5f8154612d6681612741565b612d708186611ace565b9450600182165f8114612d8a5760018114612da057612dd2565b60ff198316865281151560200286019350612dd2565b612da9856129c3565b5f5b83811015612dca57815481890152600182019150602081019050612dab565b808801955050505b50505092915050565b5f604083015f5f8401549050612df081612d41565b612dfc5f870182611ab5565b50600184018583036020870152612e138382612d5a565b925050819250505092915050565b5f612e2c8383612ddb565b905092915050565b5f600282019050919050565b5f612e4a82612d06565b612e548185611c82565b935083602082028501612e6685612d10565b805f5b85811015612ea057848403895281612e818582612e21565b9450612e8c83612e34565b925060208a01995050600181019050612e69565b50829750879550505050505092915050565b5f60ff82169050919050565b5f612ed0612ecb83612c89565b612eb2565b9050919050565b5f60a083015f5f8401549050612eec81612ca3565b612ef85f870182611c73565b50612f0281612cc8565b612f0f6020870182611c73565b50612f1981612ced565b612f266040870182611c73565b50600184018583036060870152612f3d8382612e40565b92505060028401549050612f5081612ebe565b612f5d6080870182611d11565b50819250505092915050565b5f6020820190508181035f830152612f818184612ed7565b905092915050565b7f4e6f207369676e617475726573000000000000000000000000000000000000005f82015250565b5f612fbd600d836127a8565b9150612fc882612f89565b602082019050919050565b5f6020820190508181035f830152612fea81612fb1565b9050919050565b7f4e756d626572206f66207369676e617475726573206e6f7420657175616c20745f8201527f6f206e756d626572206f66207769746e65737365730000000000000000000000602082015250565b5f61304b6035836127a8565b915061305682612ff1565b604082019050919050565b5f6020820190508181035f8301526130788161303f565b9050919050565b7f5369676e6174757265206e6f7420617070726f707269617465000000000000005f82015250565b5f6130b36019836127a8565b91506130be8261307f565b602082019050919050565b5f6020820190508181035f8301526130e0816130a7565b9050919050565b5f6130f18261242b565b91506130fc8361242b565b925082820261310a8161242b565b9150828204841483151761312157613120612681565b5b5092915050565b5f6131328261242b565b915061313d8361242b565b92508261314d5761314c6125f7565b5b828204905092915050565b7f30780000000000000000000000000000000000000000000000000000000000005f82015250565b5f61318c600283612515565b915061319782613158565b600282019050919050565b5f81519050919050565b5f81905092915050565b5f6131c0826131a2565b6131ca81856131ac565b93506131da818560208601611ade565b80840191505092915050565b5f6131f082613180565b91506131fc82846131b6565b915081905092915050565b5f6132118261242b565b91507fffffffffffffffffffffffffffffffffffffffffffffffffffffffffffffffff820361324357613242612681565b5b600182019050919050565b5f61325882611d05565b915061326383611d05565b9250828201905060ff81111561327c5761327b612681565b5b92915050565b7f4f6666736574202b2034206d7573742062652077697468696e206461746120625f8201527f6f756e6473000000000000000000000000000000000000000000000000000000602082015250565b5f6132dc6025836127a8565b91506132e782613282565b604082019050919050565b5f6020820190508181035f830152613309816132d0565b9050919050565b5f61331b828661251f565b915061332682612577565b9150613332828561251f565b915061333d82612577565b9150613349828461251f565b9150819050949350505050565b7f19457468657265756d205369676e6564204d6573736167653a0a0000000000005f82015250565b5f61338a601a83612515565b915061339582613356565b601a82019050919050565b5f6133aa8261337e565b91506133b6828561251f565b91506133c282846131b6565b91508190509392505050565b5f8160011c9050919050565b5f5f8291508390505b6001851115613423578086048111156133ff576133fe612681565b5b600185161561340e5780820291505b808102905061341c856133ce565b94506133e3565b94509492505050565b5f8261343b57600190506134f6565b81613448575f90506134f6565b816001811461345e576002811461346857613497565b60019150506134f6565b60ff84111561347a57613479612681565b5b8360020a91508482111561349157613490612681565b5b506134f6565b5060208310610133831016604e8410600b84101617156134cc5782820a9050838111156134c7576134c6612681565b5b6134f6565b6134d984848460016133da565b925090508184048111156134f0576134ef612681565b5b81810290505b9392505050565b5f6135078261242b565b91506135128361242b565b925061353f7fffffffffffffffffffffffffffffffffffffffffffffffffffffffffffffffff848461342c565b905092915050565b5f61355182611d05565b915061355c83611d05565b92508261356c5761356b6125f7565b5b828204905092915050565b5f61358182611d05565b915061358c83611d05565b925082820261359a81611d05565b91508082146135ac576135ab612681565b5b5092915050565b5f6135bd82611d05565b91506135c883611d05565b9250828203905060ff8111156135e1576135e0612681565b5b92915050565b7f4e487b71000000000000000000000000000000000000000000000000000000005f52602160045260245ffd5b61361d8161242b565b82525050565b5f6020820190506136365f830184613614565b92915050565b613645816119d9565b82525050565b5f60208201905061365e5f83018461363c565b92915050565b5f6080820190506136775f83018761363c565b6136846020830186612489565b613691604083018561363c565b61369e606083018461363c565b9594505050505056fea2646970667358221220fae00cdf9fad9b70c144972b537f53c93f437ef91490b078db66fd92c3cc13a664736f6c634300081b0033",
			"opcodes": "PUSH1 0x80 PUSH1 0x40 MSTORE CALLVALUE DUP1 ISZERO PUSH1 0xE JUMPI PUSH0 PUSH0 REVERT JUMPDEST POP PUSH3 0x15180 PUSH1 0x1 PUSH0 PUSH2 0x100 EXP DUP2 SLOAD DUP2 PUSH4 0xFFFFFFFF MUL NOT AND SWAP1 DUP4 PUSH4 0xFFFFFFFF AND MUL OR SWAP1 SSTORE POP PUSH0 PUSH1 0x1 PUSH1 0x4 PUSH2 0x100 EXP DUP2 SLOAD DUP2 PUSH4 0xFFFFFFFF MUL NOT AND SWAP1 DUP4 PUSH4 0xFFFFFFFF AND MUL OR SWAP1 SSTORE POP CALLER PUSH1 0x1 PUSH1 0x8 PUSH2 0x100 EXP DUP2 SLOAD DUP2 PUSH20 0xFFFFFFFFFFFFFFFFFFFFFFFFFFFFFFFFFFFFFFFF MUL NOT AND SWAP1 DUP4 PUSH20 0xFFFFFFFFFFFFFFFFFFFFFFFFFFFFFFFFFFFFFFFF AND MUL OR SWAP1 SSTORE POP PUSH2 0x36DD DUP1 PUSH2 0xA1 PUSH0 CODECOPY PUSH0 RETURN INVALID PUSH1 0x80 PUSH1 0x40 MSTORE CALLVALUE DUP1 ISZERO PUSH2 0xF JUMPI PUSH0 PUSH0 REVERT JUMPDEST POP PUSH1 0x4 CALLDATASIZE LT PUSH2 0x86 JUMPI PUSH0 CALLDATALOAD PUSH1 0xE0 SHR DUP1 PUSH4 0x76671808 GT PUSH2 0x59 JUMPI DUP1 PUSH4 0x76671808 EQ PUSH2 0x124 JUMPI DUP1 PUSH4 0x8DA5CB5B EQ PUSH2 0x142 JUMPI DUP1 PUSH4 0xA960E69E EQ PUSH2 0x160 JUMPI DUP1 PUSH4 0xC6B61E4C EQ PUSH2 0x190 JUMPI PUSH2 0x86 JUMP JUMPDEST DUP1 PUSH4 0x10ABBE56 EQ PUSH2 0x8A JUMPI DUP1 PUSH4 0x289989FD EQ PUSH2 0xBA JUMPI DUP1 PUSH4 0x3D3C3E07 EQ PUSH2 0xD8 JUMPI DUP1 PUSH4 0x4729504C EQ PUSH2 0x108 JUMPI JUMPDEST PUSH0 PUSH0 REVERT JUMPDEST PUSH2 0xA4 PUSH1 0x4 DUP1 CALLDATASIZE SUB DUP2 ADD SWAP1 PUSH2 0x9F SWAP2 SWAP1 PUSH2 0x1A0C JUMP JUMPDEST PUSH2 0x1C3 JUMP JUMPDEST PUSH1 0x40 MLOAD PUSH2 0xB1 SWAP2 SWAP1 PUSH2 0x1C00 JUMP JUMPDEST PUSH1 0x40 MLOAD DUP1 SWAP2 SUB SWAP1 RETURN JUMPDEST PUSH2 0xC2 PUSH2 0x3EE JUMP JUMPDEST PUSH1 0x40 MLOAD PUSH2 0xCF SWAP2 SWAP1 PUSH2 0x1C2F JUMP JUMPDEST PUSH1 0x40 MLOAD DUP1 SWAP2 SUB SWAP1 RETURN JUMPDEST PUSH2 0xF2 PUSH1 0x4 DUP1 CALLDATASIZE SUB DUP2 ADD SWAP1 PUSH2 0xED SWAP2 SWAP1 PUSH2 0x1C48 JUMP JUMPDEST PUSH2 0x403 JUMP JUMPDEST PUSH1 0x40 MLOAD PUSH2 0xFF SWAP2 SWAP1 PUSH2 0x1D93 JUMP JUMPDEST PUSH1 0x40 MLOAD DUP1 SWAP2 SUB SWAP1 RETURN JUMPDEST PUSH2 0x122 PUSH1 0x4 DUP1 CALLDATASIZE SUB DUP2 ADD SWAP1 PUSH2 0x11D SWAP2 SWAP1 PUSH2 0x1E3E JUMP JUMPDEST PUSH2 0x831 JUMP JUMPDEST STOP JUMPDEST PUSH2 0x12C PUSH2 0xB5A JUMP JUMPDEST PUSH1 0x40 MLOAD PUSH2 0x139 SWAP2 SWAP1 PUSH2 0x1C2F JUMP JUMPDEST PUSH1 0x40 MLOAD DUP1 SWAP2 SUB SWAP1 RETURN JUMPDEST PUSH2 0x14A PUSH2 0xB70 JUMP JUMPDEST PUSH1 0x40 MLOAD PUSH2 0x157 SWAP2 SWAP1 PUSH2 0x1EAA JUMP JUMPDEST PUSH1 0x40 MLOAD DUP1 SWAP2 SUB SWAP1 RETURN JUMPDEST PUSH2 0x17A PUSH1 0x4 DUP1 CALLDATASIZE SUB DUP2 ADD SWAP1 PUSH2 0x175 SWAP2 SWAP1 PUSH2 0x23B1 JUMP JUMPDEST PUSH2 0xB96 JUMP JUMPDEST PUSH1 0x40 MLOAD PUSH2 0x187 SWAP2 SWAP1 PUSH2 0x2412 JUMP JUMPDEST PUSH1 0x40 MLOAD DUP1 SWAP2 SUB SWAP1 RETURN JUMPDEST PUSH2 0x1AA PUSH1 0x4 DUP1 CALLDATASIZE SUB DUP2 ADD SWAP1 PUSH2 0x1A5 SWAP2 SWAP1 PUSH2 0x245E JUMP JUMPDEST PUSH2 0xDAC JUMP JUMPDEST PUSH1 0x40 MLOAD PUSH2 0x1BA SWAP5 SWAP4 SWAP3 SWAP2 SWAP1 PUSH2 0x2498 JUMP JUMPDEST PUSH1 0x40 MLOAD DUP1 SWAP2 SUB SWAP1 RETURN JUMPDEST PUSH1 0x60 PUSH0 PUSH2 0x1CF DUP6 PUSH2 0x403 JUMP JUMPDEST SWAP1 POP PUSH0 PUSH2 0x1FA DUP6 PUSH1 0x40 MLOAD PUSH1 0x20 ADD PUSH2 0x1E6 SWAP2 SWAP1 PUSH2 0x24FB JUMP JUMPDEST PUSH1 0x40 MLOAD PUSH1 0x20 DUP2 DUP4 SUB SUB DUP2 MSTORE SWAP1 PUSH1 0x40 MSTORE PUSH2 0xE1F JUMP JUMPDEST PUSH2 0x209 DUP8 PUSH4 0xFFFFFFFF AND PUSH2 0x103C JUMP JUMPDEST PUSH2 0x219 DUP5 PUSH1 0x80 ADD MLOAD PUSH1 0xFF AND PUSH2 0x103C JUMP JUMPDEST PUSH2 0x228 DUP8 PUSH4 0xFFFFFFFF AND PUSH2 0x103C JUMP JUMPDEST PUSH1 0x40 MLOAD PUSH1 0x20 ADD PUSH2 0x23B SWAP5 SWAP4 SWAP3 SWAP2 SWAP1 PUSH2 0x2599 JUMP JUMPDEST PUSH1 0x40 MLOAD PUSH1 0x20 DUP2 DUP4 SUB SUB DUP2 MSTORE SWAP1 PUSH1 0x40 MSTORE SWAP1 POP PUSH0 DUP2 DUP1 MLOAD SWAP1 PUSH1 0x20 ADD KECCAK256 PUSH1 0x40 MLOAD PUSH1 0x20 ADD PUSH2 0x265 SWAP2 SWAP1 PUSH2 0x24FB JUMP JUMPDEST PUSH1 0x40 MLOAD PUSH1 0x20 DUP2 DUP4 SUB SUB DUP2 MSTORE SWAP1 PUSH1 0x40 MSTORE SWAP1 POP PUSH0 DUP4 PUSH1 0x60 ADD MLOAD SWAP1 POP PUSH0 DUP5 PUSH1 0x80 ADD MLOAD PUSH1 0xFF AND PUSH8 0xFFFFFFFFFFFFFFFF DUP2 GT ISZERO PUSH2 0x2A0 JUMPI PUSH2 0x29F PUSH2 0x1EC7 JUMP JUMPDEST JUMPDEST PUSH1 0x40 MLOAD SWAP1 DUP1 DUP3 MSTORE DUP1 PUSH1 0x20 MUL PUSH1 0x20 ADD DUP3 ADD PUSH1 0x40 MSTORE DUP1 ISZERO PUSH2 0x2D9 JUMPI DUP2 PUSH1 0x20 ADD JUMPDEST PUSH2 0x2C6 PUSH2 0x1920 JUMP JUMPDEST DUP2 MSTORE PUSH1 0x20 ADD SWAP1 PUSH1 0x1 SWAP1 SUB SWAP1 DUP2 PUSH2 0x2BE JUMPI SWAP1 POP JUMPDEST POP SWAP1 POP PUSH0 DUP3 MLOAD SWAP1 POP PUSH0 PUSH0 SWAP1 POP PUSH0 PUSH0 SWAP1 POP JUMPDEST DUP8 PUSH1 0x80 ADD MLOAD PUSH1 0xFF AND DUP2 PUSH4 0xFFFFFFFF AND LT ISZERO PUSH2 0x3DC JUMPI PUSH0 PUSH2 0x30A DUP8 DUP5 PUSH2 0x11BA JUMP JUMPDEST SWAP1 POP PUSH0 DUP5 DUP3 PUSH2 0x319 SWAP2 SWAP1 PUSH2 0x2624 JUMP JUMPDEST SWAP1 POP DUP7 DUP2 DUP2 MLOAD DUP2 LT PUSH2 0x32E JUMPI PUSH2 0x32D PUSH2 0x2654 JUMP JUMPDEST JUMPDEST PUSH1 0x20 MUL PUSH1 0x20 ADD ADD MLOAD DUP7 DUP5 PUSH4 0xFFFFFFFF AND DUP2 MLOAD DUP2 LT PUSH2 0x34F JUMPI PUSH2 0x34E PUSH2 0x2654 JUMP JUMPDEST JUMPDEST PUSH1 0x20 MUL PUSH1 0x20 ADD ADD DUP2 SWAP1 MSTORE POP DUP10 PUSH1 0x60 ADD MLOAD PUSH1 0x1 DUP7 PUSH2 0x36C SWAP2 SWAP1 PUSH2 0x26AE JUMP JUMPDEST DUP2 MLOAD DUP2 LT PUSH2 0x37D JUMPI PUSH2 0x37C PUSH2 0x2654 JUMP JUMPDEST JUMPDEST PUSH1 0x20 MUL PUSH1 0x20 ADD ADD MLOAD DUP8 DUP3 DUP2 MLOAD DUP2 LT PUSH2 0x398 JUMPI PUSH2 0x397 PUSH2 0x2654 JUMP JUMPDEST JUMPDEST PUSH1 0x20 MUL PUSH1 0x20 ADD ADD DUP2 SWAP1 MSTORE POP DUP8 MLOAD PUSH1 0x4 DUP6 PUSH2 0x3B2 SWAP2 SWAP1 PUSH2 0x26E1 JUMP JUMPDEST PUSH2 0x3BC SWAP2 SWAP1 PUSH2 0x2624 JUMP JUMPDEST SWAP4 POP PUSH1 0x1 DUP6 PUSH2 0x3CB SWAP2 SWAP1 PUSH2 0x26AE JUMP JUMPDEST SWAP5 POP POP POP DUP1 DUP1 PUSH1 0x1 ADD SWAP2 POP POP PUSH2 0x2EA JUMP JUMPDEST POP DUP3 SWAP8 POP POP POP POP POP POP POP POP SWAP4 SWAP3 POP POP POP JUMP JUMPDEST PUSH1 0x1 PUSH0 SWAP1 SLOAD SWAP1 PUSH2 0x100 EXP SWAP1 DIV PUSH4 0xFFFFFFFF AND DUP2 JUMP JUMPDEST PUSH2 0x40B PUSH2 0x194F JUMP JUMPDEST PUSH0 DUP3 PUSH4 0xFFFFFFFF AND SUB PUSH2 0x623 JUMPI PUSH0 PUSH1 0x1 PUSH0 DUP1 SLOAD SWAP1 POP PUSH2 0x42A SWAP2 SWAP1 PUSH2 0x26AE JUMP JUMPDEST DUP2 SLOAD DUP2 LT PUSH2 0x43B JUMPI PUSH2 0x43A PUSH2 0x2654 JUMP JUMPDEST JUMPDEST SWAP1 PUSH0 MSTORE PUSH1 0x20 PUSH0 KECCAK256 SWAP1 PUSH1 0x3 MUL ADD PUSH1 0x40 MLOAD DUP1 PUSH1 0xA0 ADD PUSH1 0x40 MSTORE SWAP1 DUP2 PUSH0 DUP3 ADD PUSH0 SWAP1 SLOAD SWAP1 PUSH2 0x100 EXP SWAP1 DIV PUSH4 0xFFFFFFFF AND PUSH4 0xFFFFFFFF AND PUSH4 0xFFFFFFFF AND DUP2 MSTORE PUSH1 0x20 ADD PUSH0 DUP3 ADD PUSH1 0x4 SWAP1 SLOAD SWAP1 PUSH2 0x100 EXP SWAP1 DIV PUSH4 0xFFFFFFFF AND PUSH4 0xFFFFFFFF AND PUSH4 0xFFFFFFFF AND DUP2 MSTORE PUSH1 0x20 ADD PUSH0 DUP3 ADD PUSH1 0x8 SWAP1 SLOAD SWAP1 PUSH2 0x100 EXP SWAP1 DIV PUSH4 0xFFFFFFFF AND PUSH4 0xFFFFFFFF AND PUSH4 0xFFFFFFFF AND DUP2 MSTORE PUSH1 0x20 ADD PUSH1 0x1 DUP3 ADD DUP1 SLOAD DUP1 PUSH1 0x20 MUL PUSH1 0x20 ADD PUSH1 0x40 MLOAD SWAP1 DUP2 ADD PUSH1 0x40 MSTORE DUP1 SWAP3 SWAP2 SWAP1 DUP2 DUP2 MSTORE PUSH1 0x20 ADD PUSH0 SWAP1 JUMPDEST DUP3 DUP3 LT ISZERO PUSH2 0x5F8 JUMPI DUP4 DUP3 SWAP1 PUSH0 MSTORE PUSH1 0x20 PUSH0 KECCAK256 SWAP1 PUSH1 0x2 MUL ADD PUSH1 0x40 MLOAD DUP1 PUSH1 0x40 ADD PUSH1 0x40 MSTORE SWAP1 DUP2 PUSH0 DUP3 ADD PUSH0 SWAP1 SLOAD SWAP1 PUSH2 0x100 EXP SWAP1 DIV PUSH20 0xFFFFFFFFFFFFFFFFFFFFFFFFFFFFFFFFFFFFFFFF AND PUSH20 0xFFFFFFFFFFFFFFFFFFFFFFFFFFFFFFFFFFFFFFFF AND PUSH20 0xFFFFFFFFFFFFFFFFFFFFFFFFFFFFFFFFFFFFFFFF AND DUP2 MSTORE PUSH1 0x20 ADD PUSH1 0x1 DUP3 ADD DUP1 SLOAD PUSH2 0x569 SWAP1 PUSH2 0x2741 JUMP JUMPDEST DUP1 PUSH1 0x1F ADD PUSH1 0x20 DUP1 SWAP2 DIV MUL PUSH1 0x20 ADD PUSH1 0x40 MLOAD SWAP1 DUP2 ADD PUSH1 0x40 MSTORE DUP1 SWAP3 SWAP2 SWAP1 DUP2 DUP2 MSTORE PUSH1 0x20 ADD DUP3 DUP1 SLOAD PUSH2 0x595 SWAP1 PUSH2 0x2741 JUMP JUMPDEST DUP1 ISZERO PUSH2 0x5E0 JUMPI DUP1 PUSH1 0x1F LT PUSH2 0x5B7 JUMPI PUSH2 0x100 DUP1 DUP4 SLOAD DIV MUL DUP4 MSTORE SWAP2 PUSH1 0x20 ADD SWAP2 PUSH2 0x5E0 JUMP JUMPDEST DUP3 ADD SWAP2 SWAP1 PUSH0 MSTORE PUSH1 0x20 PUSH0 KECCAK256 SWAP1 JUMPDEST DUP2 SLOAD DUP2 MSTORE SWAP1 PUSH1 0x1 ADD SWAP1 PUSH1 0x20 ADD DUP1 DUP4 GT PUSH2 0x5C3 JUMPI DUP3 SWAP1 SUB PUSH1 0x1F AND DUP3 ADD SWAP2 JUMPDEST POP POP POP POP POP DUP2 MSTORE POP POP DUP2 MSTORE PUSH1 0x20 ADD SWAP1 PUSH1 0x1 ADD SWAP1 PUSH2 0x4E4 JUMP JUMPDEST POP POP POP POP DUP2 MSTORE PUSH1 0x20 ADD PUSH1 0x2 DUP3 ADD PUSH0 SWAP1 SLOAD SWAP1 PUSH2 0x100 EXP SWAP1 DIV PUSH1 0xFF AND PUSH1 0xFF AND PUSH1 0xFF AND DUP2 MSTORE POP POP SWAP1 POP PUSH2 0x82C JUMP JUMPDEST PUSH0 PUSH1 0x1 DUP4 PUSH2 0x631 SWAP2 SWAP1 PUSH2 0x2771 JUMP JUMPDEST PUSH4 0xFFFFFFFF AND DUP2 SLOAD DUP2 LT PUSH2 0x648 JUMPI PUSH2 0x647 PUSH2 0x2654 JUMP JUMPDEST JUMPDEST SWAP1 PUSH0 MSTORE PUSH1 0x20 PUSH0 KECCAK256 SWAP1 PUSH1 0x3 MUL ADD PUSH1 0x40 MLOAD DUP1 PUSH1 0xA0 ADD PUSH1 0x40 MSTORE SWAP1 DUP2 PUSH0 DUP3 ADD PUSH0 SWAP1 SLOAD SWAP1 PUSH2 0x100 EXP SWAP1 DIV PUSH4 0xFFFFFFFF AND PUSH4 0xFFFFFFFF AND PUSH4 0xFFFFFFFF AND DUP2 MSTORE PUSH1 0x20 ADD PUSH0 DUP3 ADD PUSH1 0x4 SWAP1 SLOAD SWAP1 PUSH2 0x100 EXP SWAP1 DIV PUSH4 0xFFFFFFFF AND PUSH4 0xFFFFFFFF AND PUSH4 0xFFFFFFFF AND DUP2 MSTORE PUSH1 0x20 ADD PUSH0 DUP3 ADD PUSH1 0x8 SWAP1 SLOAD SWAP1 PUSH2 0x100 EXP SWAP1 DIV PUSH4 0xFFFFFFFF AND PUSH4 0xFFFFFFFF AND PUSH4 0xFFFFFFFF AND DUP2 MSTORE PUSH1 0x20 ADD PUSH1 0x1 DUP3 ADD DUP1 SLOAD DUP1 PUSH1 0x20 MUL PUSH1 0x20 ADD PUSH1 0x40 MLOAD SWAP1 DUP2 ADD PUSH1 0x40 MSTORE DUP1 SWAP3 SWAP2 SWAP1 DUP2 DUP2 MSTORE PUSH1 0x20 ADD PUSH0 SWAP1 JUMPDEST DUP3 DUP3 LT ISZERO PUSH2 0x805 JUMPI DUP4 DUP3 SWAP1 PUSH0 MSTORE PUSH1 0x20 PUSH0 KECCAK256 SWAP1 PUSH1 0x2 MUL ADD PUSH1 0x40 MLOAD DUP1 PUSH1 0x40 ADD PUSH1 0x40 MSTORE SWAP1 DUP2 PUSH0 DUP3 ADD PUSH0 SWAP1 SLOAD SWAP1 PUSH2 0x100 EXP SWAP1 DIV PUSH20 0xFFFFFFFFFFFFFFFFFFFFFFFFFFFFFFFFFFFFFFFF AND PUSH20 0xFFFFFFFFFFFFFFFFFFFFFFFFFFFFFFFFFFFFFFFF AND PUSH20 0xFFFFFFFFFFFFFFFFFFFFFFFFFFFFFFFFFFFFFFFF AND DUP2 MSTORE PUSH1 0x20 ADD PUSH1 0x1 DUP3 ADD DUP1 SLOAD PUSH2 0x776 SWAP1 PUSH2 0x2741 JUMP JUMPDEST DUP1 PUSH1 0x1F ADD PUSH1 0x20 DUP1 SWAP2 DIV MUL PUSH1 0x20 ADD PUSH1 0x40 MLOAD SWAP1 DUP2 ADD PUSH1 0x40 MSTORE DUP1 SWAP3 SWAP2 SWAP1 DUP2 DUP2 MSTORE PUSH1 0x20 ADD DUP3 DUP1 SLOAD PUSH2 0x7A2 SWAP1 PUSH2 0x2741 JUMP JUMPDEST DUP1 ISZERO PUSH2 0x7ED JUMPI DUP1 PUSH1 0x1F LT PUSH2 0x7C4 JUMPI PUSH2 0x100 DUP1 DUP4 SLOAD DIV MUL DUP4 MSTORE SWAP2 PUSH1 0x20 ADD SWAP2 PUSH2 0x7ED JUMP JUMPDEST DUP3 ADD SWAP2 SWAP1 PUSH0 MSTORE PUSH1 0x20 PUSH0 KECCAK256 SWAP1 JUMPDEST DUP2 SLOAD DUP2 MSTORE SWAP1 PUSH1 0x1 ADD SWAP1 PUSH1 0x20 ADD DUP1 DUP4 GT PUSH2 0x7D0 JUMPI DUP3 SWAP1 SUB PUSH1 0x1F AND DUP3 ADD SWAP2 JUMPDEST POP POP POP POP POP DUP2 MSTORE POP POP DUP2 MSTORE PUSH1 0x20 ADD SWAP1 PUSH1 0x1 ADD SWAP1 PUSH2 0x6F1 JUMP JUMPDEST POP POP POP POP DUP2 MSTORE PUSH1 0x20 ADD PUSH1 0x2 DUP3 ADD PUSH0 SWAP1 SLOAD SWAP1 PUSH2 0x100 EXP SWAP1 DIV PUSH1 0xFF AND PUSH1 0xFF AND PUSH1 0xFF AND DUP2 MSTORE POP POP SWAP1 POP JUMPDEST SWAP2 SWAP1 POP JUMP JUMPDEST CALLER PUSH20 0xFFFFFFFFFFFFFFFFFFFFFFFFFFFFFFFFFFFFFFFF AND PUSH1 0x1 PUSH1 0x8 SWAP1 SLOAD SWAP1 PUSH2 0x100 EXP SWAP1 DIV PUSH20 0xFFFFFFFFFFFFFFFFFFFFFFFFFFFFFFFFFFFFFFFF AND PUSH20 0xFFFFFFFFFFFFFFFFFFFFFFFFFFFFFFFFFFFFFFFF AND EQ PUSH2 0x8C1 JUMPI PUSH1 0x40 MLOAD PUSH32 0x8C379A000000000000000000000000000000000000000000000000000000000 DUP2 MSTORE PUSH1 0x4 ADD PUSH2 0x8B8 SWAP1 PUSH2 0x2802 JUMP JUMPDEST PUSH1 0x40 MLOAD DUP1 SWAP2 SUB SWAP1 REVERT JUMPDEST PUSH0 PUSH1 0x1 PUSH0 SWAP1 SLOAD SWAP1 PUSH2 0x100 EXP SWAP1 DIV PUSH4 0xFFFFFFFF AND PUSH4 0xFFFFFFFF AND SUB PUSH2 0x903 JUMPI PUSH3 0x15180 PUSH1 0x1 PUSH0 PUSH2 0x100 EXP DUP2 SLOAD DUP2 PUSH4 0xFFFFFFFF MUL NOT AND SWAP1 DUP4 PUSH4 0xFFFFFFFF AND MUL OR SWAP1 SSTORE POP JUMPDEST PUSH0 PUSH0 DUP1 SLOAD SWAP1 POP GT ISZERO PUSH2 0x960 JUMPI TIMESTAMP PUSH0 PUSH1 0x1 PUSH0 DUP1 SLOAD SWAP1 POP PUSH2 0x922 SWAP2 SWAP1 PUSH2 0x26AE JUMP JUMPDEST DUP2 SLOAD DUP2 LT PUSH2 0x933 JUMPI PUSH2 0x932 PUSH2 0x2654 JUMP JUMPDEST JUMPDEST SWAP1 PUSH0 MSTORE PUSH1 0x20 PUSH0 KECCAK256 SWAP1 PUSH1 0x3 MUL ADD PUSH0 ADD PUSH1 0x8 PUSH2 0x100 EXP DUP2 SLOAD DUP2 PUSH4 0xFFFFFFFF MUL NOT AND SWAP1 DUP4 PUSH4 0xFFFFFFFF AND MUL OR SWAP1 SSTORE POP JUMPDEST PUSH1 0x1 DUP1 PUSH1 0x4 DUP3 DUP3 DUP3 SWAP1 SLOAD SWAP1 PUSH2 0x100 EXP SWAP1 DIV PUSH4 0xFFFFFFFF AND PUSH2 0x981 SWAP2 SWAP1 PUSH2 0x2820 JUMP JUMPDEST SWAP3 POP PUSH2 0x100 EXP DUP2 SLOAD DUP2 PUSH4 0xFFFFFFFF MUL NOT AND SWAP1 DUP4 PUSH4 0xFFFFFFFF AND MUL OR SWAP1 SSTORE POP PUSH0 PUSH0 PUSH1 0x1 DUP2 PUSH1 0x1 DUP2 SLOAD ADD DUP1 DUP3 SSTORE DUP1 SWAP2 POP POP SUB SWAP1 PUSH0 MSTORE PUSH1 0x20 PUSH0 KECCAK256 SWAP1 PUSH1 0x3 MUL ADD SWAP1 POP PUSH1 0x1 PUSH1 0x4 SWAP1 SLOAD SWAP1 PUSH2 0x100 EXP SWAP1 DIV PUSH4 0xFFFFFFFF AND DUP2 PUSH0 ADD PUSH0 PUSH2 0x100 EXP DUP2 SLOAD DUP2 PUSH4 0xFFFFFFFF MUL NOT AND SWAP1 DUP4 PUSH4 0xFFFFFFFF AND MUL OR SWAP1 SSTORE POP TIMESTAMP DUP2 PUSH0 ADD PUSH1 0x4 PUSH2 0x100 EXP DUP2 SLOAD DUP2 PUSH4 0xFFFFFFFF MUL NOT AND SWAP1 DUP4 PUSH4 0xFFFFFFFF AND MUL OR SWAP1 SSTORE POP PUSH1 0x1 PUSH0 SWAP1 SLOAD SWAP1 PUSH2 0x100 EXP SWAP1 DIV PUSH4 0xFFFFFFFF AND PUSH4 0xFFFFFFFF AND TIMESTAMP PUSH2 0xA37 SWAP2 SWAP1 PUSH2 0x26E1 JUMP JUMPDEST DUP2 PUSH0 ADD PUSH1 0x8 PUSH2 0x100 EXP DUP2 SLOAD DUP2 PUSH4 0xFFFFFFFF MUL NOT AND SWAP1 DUP4 PUSH4 0xFFFFFFFF AND MUL OR SWAP1 SSTORE POP DUP2 DUP2 PUSH1 0x2 ADD PUSH0 PUSH2 0x100 EXP DUP2 SLOAD DUP2 PUSH1 0xFF MUL NOT AND SWAP1 DUP4 PUSH1 0xFF AND MUL OR SWAP1 SSTORE POP PUSH0 PUSH0 SWAP1 POP JUMPDEST DUP5 DUP5 SWAP1 POP DUP2 LT ISZERO PUSH2 0xAEE JUMPI DUP2 PUSH1 0x1 ADD DUP6 DUP6 DUP4 DUP2 DUP2 LT PUSH2 0xA9B JUMPI PUSH2 0xA9A PUSH2 0x2654 JUMP JUMPDEST JUMPDEST SWAP1 POP PUSH1 0x20 MUL DUP2 ADD SWAP1 PUSH2 0xAAD SWAP2 SWAP1 PUSH2 0x2863 JUMP JUMPDEST SWAP1 DUP1 PUSH1 0x1 DUP2 SLOAD ADD DUP1 DUP3 SSTORE DUP1 SWAP2 POP POP PUSH1 0x1 SWAP1 SUB SWAP1 PUSH0 MSTORE PUSH1 0x20 PUSH0 KECCAK256 SWAP1 PUSH1 0x2 MUL ADD PUSH0 SWAP1 SWAP2 SWAP1 SWAP2 SWAP1 SWAP2 POP DUP2 DUP2 PUSH2 0xADF SWAP2 SWAP1 PUSH2 0x2C7B JUMP JUMPDEST POP POP DUP1 DUP1 PUSH1 0x1 ADD SWAP2 POP POP PUSH2 0xA79 JUMP JUMPDEST POP PUSH32 0xB2A1462B8D912A9FE495DA7A1188C48BB87BAC4644A0931AA4CE2DD7017CE365 PUSH0 PUSH1 0x1 PUSH0 DUP1 SLOAD SWAP1 POP PUSH2 0xB22 SWAP2 SWAP1 PUSH2 0x26AE JUMP JUMPDEST DUP2 SLOAD DUP2 LT PUSH2 0xB33 JUMPI PUSH2 0xB32 PUSH2 0x2654 JUMP JUMPDEST JUMPDEST SWAP1 PUSH0 MSTORE PUSH1 0x20 PUSH0 KECCAK256 SWAP1 PUSH1 0x3 MUL ADD PUSH1 0x40 MLOAD PUSH2 0xB4C SWAP2 SWAP1 PUSH2 0x2F69 JUMP JUMPDEST PUSH1 0x40 MLOAD DUP1 SWAP2 SUB SWAP1 LOG1 POP POP POP POP JUMP JUMPDEST PUSH1 0x1 PUSH1 0x4 SWAP1 SLOAD SWAP1 PUSH2 0x100 EXP SWAP1 DIV PUSH4 0xFFFFFFFF AND DUP2 JUMP JUMPDEST PUSH1 0x1 PUSH1 0x8 SWAP1 SLOAD SWAP1 PUSH2 0x100 EXP SWAP1 DIV PUSH20 0xFFFFFFFFFFFFFFFFFFFFFFFFFFFFFFFFFFFFFFFF AND DUP2 JUMP JUMPDEST PUSH0 PUSH0 DUP3 PUSH1 0x20 ADD MLOAD PUSH1 0x20 ADD MLOAD MLOAD GT PUSH2 0xBE2 JUMPI PUSH1 0x40 MLOAD PUSH32 0x8C379A000000000000000000000000000000000000000000000000000000000 DUP2 MSTORE PUSH1 0x4 ADD PUSH2 0xBD9 SWAP1 PUSH2 0x2FD3 JUMP JUMPDEST PUSH1 0x40 MLOAD DUP1 SWAP2 SUB SWAP1 REVERT JUMPDEST PUSH0 PUSH1 0x40 MLOAD DUP1 PUSH1 0x40 ADD PUSH1 0x40 MSTORE DUP1 DUP5 PUSH1 0x20 ADD MLOAD PUSH0 ADD MLOAD DUP2 MSTORE PUSH1 0x20 ADD DUP5 PUSH1 0x20 ADD MLOAD PUSH1 0x20 ADD MLOAD DUP2 MSTORE POP SWAP1 POP PUSH0 PUSH2 0xC16 DUP5 PUSH0 ADD MLOAD PUSH2 0x1225 JUMP JUMPDEST SWAP1 POP DUP1 DUP5 PUSH1 0x20 ADD MLOAD PUSH0 ADD MLOAD PUSH0 ADD MLOAD EQ PUSH2 0xC2D JUMPI PUSH0 PUSH0 REVERT JUMPDEST PUSH0 PUSH2 0xC59 DUP6 PUSH1 0x20 ADD MLOAD PUSH0 ADD MLOAD PUSH1 0x60 ADD MLOAD DUP7 PUSH1 0x20 ADD MLOAD PUSH0 ADD MLOAD PUSH0 ADD MLOAD DUP8 PUSH1 0x20 ADD MLOAD PUSH0 ADD MLOAD PUSH1 0x40 ADD MLOAD PUSH2 0x1C3 JUMP JUMPDEST SWAP1 POP PUSH0 PUSH2 0xC65 DUP5 PUSH2 0x1268 JUMP JUMPDEST SWAP1 POP DUP2 MLOAD DUP2 MLOAD EQ PUSH2 0xCAB JUMPI PUSH1 0x40 MLOAD PUSH32 0x8C379A000000000000000000000000000000000000000000000000000000000 DUP2 MSTORE PUSH1 0x4 ADD PUSH2 0xCA2 SWAP1 PUSH2 0x3061 JUMP JUMPDEST PUSH1 0x40 MLOAD DUP1 SWAP2 SUB SWAP1 REVERT JUMPDEST PUSH0 PUSH0 SWAP1 POP JUMPDEST DUP5 PUSH1 0x20 ADD MLOAD MLOAD DUP2 LT ISZERO PUSH2 0xD9E JUMPI PUSH0 PUSH0 SWAP1 POP PUSH0 PUSH0 SWAP1 POP JUMPDEST DUP5 MLOAD DUP2 LT ISZERO PUSH2 0xD4F JUMPI DUP5 DUP2 DUP2 MLOAD DUP2 LT PUSH2 0xCE2 JUMPI PUSH2 0xCE1 PUSH2 0x2654 JUMP JUMPDEST JUMPDEST PUSH1 0x20 MUL PUSH1 0x20 ADD ADD MLOAD PUSH0 ADD MLOAD PUSH20 0xFFFFFFFFFFFFFFFFFFFFFFFFFFFFFFFFFFFFFFFF AND DUP5 DUP5 DUP2 MLOAD DUP2 LT PUSH2 0xD16 JUMPI PUSH2 0xD15 PUSH2 0x2654 JUMP JUMPDEST JUMPDEST PUSH1 0x20 MUL PUSH1 0x20 ADD ADD MLOAD PUSH20 0xFFFFFFFFFFFFFFFFFFFFFFFFFFFFFFFFFFFFFFFF AND SUB PUSH2 0xD42 JUMPI PUSH1 0x1 SWAP2 POP PUSH2 0xD4F JUMP JUMPDEST DUP1 DUP1 PUSH1 0x1 ADD SWAP2 POP POP PUSH2 0xCC6 JUMP JUMPDEST POP DUP1 PUSH2 0xD90 JUMPI PUSH1 0x40 MLOAD PUSH32 0x8C379A000000000000000000000000000000000000000000000000000000000 DUP2 MSTORE PUSH1 0x4 ADD PUSH2 0xD87 SWAP1 PUSH2 0x30C9 JUMP JUMPDEST PUSH1 0x40 MLOAD DUP1 SWAP2 SUB SWAP1 REVERT JUMPDEST POP DUP1 DUP1 PUSH1 0x1 ADD SWAP2 POP POP PUSH2 0xCB0 JUMP JUMPDEST POP PUSH1 0x1 SWAP5 POP POP POP POP POP SWAP2 SWAP1 POP JUMP JUMPDEST PUSH0 DUP2 DUP2 SLOAD DUP2 LT PUSH2 0xDBA JUMPI PUSH0 DUP1 REVERT JUMPDEST SWAP1 PUSH0 MSTORE PUSH1 0x20 PUSH0 KECCAK256 SWAP1 PUSH1 0x3 MUL ADD PUSH0 SWAP2 POP SWAP1 POP DUP1 PUSH0 ADD PUSH0 SWAP1 SLOAD SWAP1 PUSH2 0x100 EXP SWAP1 DIV PUSH4 0xFFFFFFFF AND SWAP1 DUP1 PUSH0 ADD PUSH1 0x4 SWAP1 SLOAD SWAP1 PUSH2 0x100 EXP SWAP1 DIV PUSH4 0xFFFFFFFF AND SWAP1 DUP1 PUSH0 ADD PUSH1 0x8 SWAP1 SLOAD SWAP1 PUSH2 0x100 EXP SWAP1 DIV PUSH4 0xFFFFFFFF AND SWAP1 DUP1 PUSH1 0x2 ADD PUSH0 SWAP1 SLOAD SWAP1 PUSH2 0x100 EXP SWAP1 DIV PUSH1 0xFF AND SWAP1 POP DUP5 JUMP JUMPDEST PUSH1 0x60 PUSH0 PUSH1 0x2 DUP4 MLOAD PUSH2 0xE30 SWAP2 SWAP1 PUSH2 0x30E7 JUMP JUMPDEST PUSH8 0xFFFFFFFFFFFFFFFF DUP2 GT ISZERO PUSH2 0xE49 JUMPI PUSH2 0xE48 PUSH2 0x1EC7 JUMP JUMPDEST JUMPDEST PUSH1 0x40 MLOAD SWAP1 DUP1 DUP3 MSTORE DUP1 PUSH1 0x1F ADD PUSH1 0x1F NOT AND PUSH1 0x20 ADD DUP3 ADD PUSH1 0x40 MSTORE DUP1 ISZERO PUSH2 0xE7B JUMPI DUP2 PUSH1 0x20 ADD PUSH1 0x1 DUP3 MUL DUP1 CALLDATASIZE DUP4 CALLDATACOPY DUP1 DUP3 ADD SWAP2 POP POP SWAP1 POP JUMPDEST POP SWAP1 POP PUSH0 PUSH1 0x40 MLOAD DUP1 PUSH1 0x40 ADD PUSH1 0x40 MSTORE DUP1 PUSH1 0x10 DUP2 MSTORE PUSH1 0x20 ADD PUSH32 0x3031323334353637383961626364656600000000000000000000000000000000 DUP2 MSTORE POP SWAP1 POP PUSH0 PUSH0 SWAP1 POP JUMPDEST DUP5 MLOAD DUP2 LT ISZERO PUSH2 0x1012 JUMPI DUP2 DUP3 MLOAD DUP7 DUP4 DUP2 MLOAD DUP2 LT PUSH2 0xEDB JUMPI PUSH2 0xEDA PUSH2 0x2654 JUMP JUMPDEST JUMPDEST PUSH1 0x20 ADD ADD MLOAD PUSH1 0xF8 SHR PUSH1 0xF8 SHL PUSH1 0xF8 SHR PUSH1 0xFF AND PUSH2 0xEF6 SWAP2 SWAP1 PUSH2 0x3128 JUMP JUMPDEST DUP2 MLOAD DUP2 LT PUSH2 0xF07 JUMPI PUSH2 0xF06 PUSH2 0x2654 JUMP JUMPDEST JUMPDEST PUSH1 0x20 ADD ADD MLOAD PUSH1 0xF8 SHR PUSH1 0xF8 SHL DUP4 PUSH1 0x2 DUP4 PUSH2 0xF20 SWAP2 SWAP1 PUSH2 0x30E7 JUMP JUMPDEST DUP2 MLOAD DUP2 LT PUSH2 0xF31 JUMPI PUSH2 0xF30 PUSH2 0x2654 JUMP JUMPDEST JUMPDEST PUSH1 0x20 ADD ADD SWAP1 PUSH31 0xFFFFFFFFFFFFFFFFFFFFFFFFFFFFFFFFFFFFFFFFFFFFFFFFFFFFFFFFFFFFFF NOT AND SWAP1 DUP2 PUSH0 BYTE SWAP1 MSTORE8 POP DUP2 DUP3 MLOAD DUP7 DUP4 DUP2 MLOAD DUP2 LT PUSH2 0xF75 JUMPI PUSH2 0xF74 PUSH2 0x2654 JUMP JUMPDEST JUMPDEST PUSH1 0x20 ADD ADD MLOAD PUSH1 0xF8 SHR PUSH1 0xF8 SHL PUSH1 0xF8 SHR PUSH1 0xFF AND PUSH2 0xF90 SWAP2 SWAP1 PUSH2 0x2624 JUMP JUMPDEST DUP2 MLOAD DUP2 LT PUSH2 0xFA1 JUMPI PUSH2 0xFA0 PUSH2 0x2654 JUMP JUMPDEST JUMPDEST PUSH1 0x20 ADD ADD MLOAD PUSH1 0xF8 SHR PUSH1 0xF8 SHL DUP4 PUSH1 0x1 PUSH1 0x2 DUP5 PUSH2 0xFBC SWAP2 SWAP1 PUSH2 0x30E7 JUMP JUMPDEST PUSH2 0xFC6 SWAP2 SWAP1 PUSH2 0x26E1 JUMP JUMPDEST DUP2 MLOAD DUP2 LT PUSH2 0xFD7 JUMPI PUSH2 0xFD6 PUSH2 0x2654 JUMP JUMPDEST JUMPDEST PUSH1 0x20 ADD ADD SWAP1 PUSH31 0xFFFFFFFFFFFFFFFFFFFFFFFFFFFFFFFFFFFFFFFFFFFFFFFFFFFFFFFFFFFFFF NOT AND SWAP1 DUP2 PUSH0 BYTE SWAP1 MSTORE8 POP DUP1 DUP1 PUSH1 0x1 ADD SWAP2 POP POP PUSH2 0xEBC JUMP JUMPDEST POP DUP2 PUSH1 0x40 MLOAD PUSH1 0x20 ADD PUSH2 0x1024 SWAP2 SWAP1 PUSH2 0x31E6 JUMP JUMPDEST PUSH1 0x40 MLOAD PUSH1 0x20 DUP2 DUP4 SUB SUB DUP2 MSTORE SWAP1 PUSH1 0x40 MSTORE SWAP3 POP POP POP SWAP2 SWAP1 POP JUMP JUMPDEST PUSH1 0x60 PUSH0 DUP3 SUB PUSH2 0x1082 JUMPI PUSH1 0x40 MLOAD DUP1 PUSH1 0x40 ADD PUSH1 0x40 MSTORE DUP1 PUSH1 0x1 DUP2 MSTORE PUSH1 0x20 ADD PUSH32 0x3000000000000000000000000000000000000000000000000000000000000000 DUP2 MSTORE POP SWAP1 POP PUSH2 0x11B5 JUMP JUMPDEST PUSH0 DUP3 SWAP1 POP PUSH0 JUMPDEST PUSH0 DUP3 EQ PUSH2 0x10B1 JUMPI DUP1 DUP1 PUSH2 0x109A SWAP1 PUSH2 0x3207 JUMP JUMPDEST SWAP2 POP POP PUSH1 0xA DUP3 PUSH2 0x10AA SWAP2 SWAP1 PUSH2 0x3128 JUMP JUMPDEST SWAP2 POP PUSH2 0x1088 JUMP JUMPDEST PUSH0 DUP2 PUSH8 0xFFFFFFFFFFFFFFFF DUP2 GT ISZERO PUSH2 0x10CC JUMPI PUSH2 0x10CB PUSH2 0x1EC7 JUMP JUMPDEST JUMPDEST PUSH1 0x40 MLOAD SWAP1 DUP1 DUP3 MSTORE DUP1 PUSH1 0x1F ADD PUSH1 0x1F NOT AND PUSH1 0x20 ADD DUP3 ADD PUSH1 0x40 MSTORE DUP1 ISZERO PUSH2 0x10FE JUMPI DUP2 PUSH1 0x20 ADD PUSH1 0x1 DUP3 MUL DUP1 CALLDATASIZE DUP4 CALLDATACOPY DUP1 DUP3 ADD SWAP2 POP POP SWAP1 POP JUMPDEST POP SWAP1 POP PUSH0 DUP3 SWAP1 POP JUMPDEST PUSH0 DUP7 EQ PUSH2 0x11AD JUMPI PUSH1 0x1 DUP2 PUSH2 0x111A SWAP2 SWAP1 PUSH2 0x26AE JUMP JUMPDEST SWAP1 POP PUSH0 PUSH1 0xA DUP1 DUP9 PUSH2 0x112B SWAP2 SWAP1 PUSH2 0x3128 JUMP JUMPDEST PUSH2 0x1135 SWAP2 SWAP1 PUSH2 0x30E7 JUMP JUMPDEST DUP8 PUSH2 0x1140 SWAP2 SWAP1 PUSH2 0x26AE JUMP JUMPDEST PUSH1 0x30 PUSH2 0x114C SWAP2 SWAP1 PUSH2 0x324E JUMP JUMPDEST SWAP1 POP PUSH0 DUP2 PUSH1 0xF8 SHL SWAP1 POP DUP1 DUP5 DUP5 DUP2 MLOAD DUP2 LT PUSH2 0x1169 JUMPI PUSH2 0x1168 PUSH2 0x2654 JUMP JUMPDEST JUMPDEST PUSH1 0x20 ADD ADD SWAP1 PUSH31 0xFFFFFFFFFFFFFFFFFFFFFFFFFFFFFFFFFFFFFFFFFFFFFFFFFFFFFFFFFFFFFF NOT AND SWAP1 DUP2 PUSH0 BYTE SWAP1 MSTORE8 POP PUSH1 0xA DUP9 PUSH2 0x11A4 SWAP2 SWAP1 PUSH2 0x3128 JUMP JUMPDEST SWAP8 POP POP POP PUSH2 0x1106 JUMP JUMPDEST DUP2 SWAP5 POP POP POP POP POP JUMPDEST SWAP2 SWAP1 POP JUMP JUMPDEST PUSH0 DUP3 MLOAD PUSH1 0x4 DUP4 PUSH2 0x11CA SWAP2 SWAP1 PUSH2 0x26E1 JUMP JUMPDEST GT ISZERO PUSH2 0x120B JUMPI PUSH1 0x40 MLOAD PUSH32 0x8C379A000000000000000000000000000000000000000000000000000000000 DUP2 MSTORE PUSH1 0x4 ADD PUSH2 0x1202 SWAP1 PUSH2 0x32F2 JUMP JUMPDEST PUSH1 0x40 MLOAD DUP1 SWAP2 SUB SWAP1 REVERT JUMPDEST PUSH0 DUP3 PUSH1 0x4 DUP6 ADD ADD MLOAD SWAP1 POP DUP1 PUSH4 0xFFFFFFFF AND SWAP2 POP POP SWAP3 SWAP2 POP POP JUMP JUMPDEST PUSH0 PUSH0 DUP3 PUSH0 ADD MLOAD DUP4 PUSH1 0x20 ADD MLOAD DUP5 PUSH1 0x40 ADD MLOAD PUSH1 0x40 MLOAD PUSH1 0x20 ADD PUSH2 0x1247 SWAP4 SWAP3 SWAP2 SWAP1 PUSH2 0x3310 JUMP JUMPDEST PUSH1 0x40 MLOAD PUSH1 0x20 DUP2 DUP4 SUB SUB DUP2 MSTORE SWAP1 PUSH1 0x40 MSTORE SWAP1 POP DUP1 DUP1 MLOAD SWAP1 PUSH1 0x20 ADD KECCAK256 SWAP2 POP POP SWAP2 SWAP1 POP JUMP JUMPDEST PUSH1 0x60 PUSH0 PUSH2 0x1277 DUP4 PUSH0 ADD MLOAD PUSH2 0x1369 JUMP JUMPDEST SWAP1 POP PUSH0 DUP4 PUSH1 0x20 ADD MLOAD MLOAD PUSH8 0xFFFFFFFFFFFFFFFF DUP2 GT ISZERO PUSH2 0x1299 JUMPI PUSH2 0x1298 PUSH2 0x1EC7 JUMP JUMPDEST JUMPDEST PUSH1 0x40 MLOAD SWAP1 DUP1 DUP3 MSTORE DUP1 PUSH1 0x20 MUL PUSH1 0x20 ADD DUP3 ADD PUSH1 0x40 MSTORE DUP1 ISZERO PUSH2 0x12C7 JUMPI DUP2 PUSH1 0x20 ADD PUSH1 0x20 DUP3 MUL DUP1 CALLDATASIZE DUP4 CALLDATACOPY DUP1 DUP3 ADD SWAP2 POP POP SWAP1 POP JUMPDEST POP SWAP1 POP PUSH0 PUSH0 SWAP1 POP JUMPDEST DUP5 PUSH1 0x20 ADD MLOAD MLOAD DUP2 LT ISZERO PUSH2 0x135E JUMPI PUSH2 0x1304 DUP4 DUP7 PUSH1 0x20 ADD MLOAD DUP4 DUP2 MLOAD DUP2 LT PUSH2 0x12F7 JUMPI PUSH2 0x12F6 PUSH2 0x2654 JUMP JUMPDEST JUMPDEST PUSH1 0x20 MUL PUSH1 0x20 ADD ADD MLOAD PUSH2 0x13F2 JUMP JUMPDEST DUP3 DUP3 DUP2 MLOAD DUP2 LT PUSH2 0x1317 JUMPI PUSH2 0x1316 PUSH2 0x2654 JUMP JUMPDEST JUMPDEST PUSH1 0x20 MUL PUSH1 0x20 ADD ADD SWAP1 PUSH20 0xFFFFFFFFFFFFFFFFFFFFFFFFFFFFFFFFFFFFFFFF AND SWAP1 DUP2 PUSH20 0xFFFFFFFFFFFFFFFFFFFFFFFFFFFFFFFFFFFFFFFF AND DUP2 MSTORE POP POP DUP1 DUP1 PUSH1 0x1 ADD SWAP2 POP POP PUSH2 0x12CF JUMP JUMPDEST POP DUP1 SWAP3 POP POP POP SWAP2 SWAP1 POP JUMP JUMPDEST PUSH1 0x60 PUSH2 0x1396 DUP3 PUSH0 ADD MLOAD PUSH1 0x40 MLOAD PUSH1 0x20 ADD PUSH2 0x1382 SWAP2 SWAP1 PUSH2 0x24FB JUMP JUMPDEST PUSH1 0x40 MLOAD PUSH1 0x20 DUP2 DUP4 SUB SUB DUP2 MSTORE SWAP1 PUSH1 0x40 MSTORE PUSH2 0xE1F JUMP JUMPDEST PUSH2 0x13A3 DUP4 PUSH1 0x20 ADD MLOAD PUSH2 0x143B JUMP JUMPDEST PUSH2 0x13B6 DUP5 PUSH1 0x40 ADD MLOAD PUSH4 0xFFFFFFFF AND PUSH2 0x103C JUMP JUMPDEST PUSH2 0x13C9 DUP6 PUSH1 0x60 ADD MLOAD PUSH4 0xFFFFFFFF AND PUSH2 0x103C JUMP JUMPDEST PUSH1 0x40 MLOAD PUSH1 0x20 ADD PUSH2 0x13DC SWAP5 SWAP4 SWAP3 SWAP2 SWAP1 PUSH2 0x2599 JUMP JUMPDEST PUSH1 0x40 MLOAD PUSH1 0x20 DUP2 DUP4 SUB SUB DUP2 MSTORE SWAP1 PUSH1 0x40 MSTORE SWAP1 POP SWAP2 SWAP1 POP JUMP JUMPDEST PUSH0 PUSH0 PUSH2 0x13FE DUP5 MLOAD PUSH2 0x103C JUMP JUMPDEST DUP5 PUSH1 0x40 MLOAD PUSH1 0x20 ADD PUSH2 0x1410 SWAP3 SWAP2 SWAP1 PUSH2 0x33A0 JUMP JUMPDEST PUSH1 0x40 MLOAD PUSH1 0x20 DUP2 DUP4 SUB SUB DUP2 MSTORE SWAP1 PUSH1 0x40 MSTORE DUP1 MLOAD SWAP1 PUSH1 0x20 ADD KECCAK256 SWAP1 POP PUSH2 0x1432 DUP2 DUP5 PUSH2 0x1613 JUMP JUMPDEST SWAP2 POP POP SWAP3 SWAP2 POP POP JUMP JUMPDEST PUSH1 0x60 PUSH0 PUSH1 0x28 PUSH8 0xFFFFFFFFFFFFFFFF DUP2 GT ISZERO PUSH2 0x1459 JUMPI PUSH2 0x1458 PUSH2 0x1EC7 JUMP JUMPDEST JUMPDEST PUSH1 0x40 MLOAD SWAP1 DUP1 DUP3 MSTORE DUP1 PUSH1 0x1F ADD PUSH1 0x1F NOT AND PUSH1 0x20 ADD DUP3 ADD PUSH1 0x40 MSTORE DUP1 ISZERO PUSH2 0x148B JUMPI DUP2 PUSH1 0x20 ADD PUSH1 0x1 DUP3 MUL DUP1 CALLDATASIZE DUP4 CALLDATACOPY DUP1 DUP3 ADD SWAP2 POP POP SWAP1 POP JUMPDEST POP SWAP1 POP PUSH0 PUSH0 SWAP1 POP JUMPDEST PUSH1 0x14 DUP2 LT ISZERO PUSH2 0x15EA JUMPI PUSH0 DUP2 PUSH1 0x13 PUSH2 0x14AA SWAP2 SWAP1 PUSH2 0x26AE JUMP JUMPDEST PUSH1 0x8 PUSH2 0x14B6 SWAP2 SWAP1 PUSH2 0x30E7 JUMP JUMPDEST PUSH1 0x2 PUSH2 0x14C2 SWAP2 SWAP1 PUSH2 0x34FD JUMP JUMPDEST DUP6 PUSH20 0xFFFFFFFFFFFFFFFFFFFFFFFFFFFFFFFFFFFFFFFF AND PUSH2 0x14E3 SWAP2 SWAP1 PUSH2 0x3128 JUMP JUMPDEST PUSH1 0xF8 SHL SWAP1 POP PUSH0 PUSH1 0x10 DUP3 PUSH1 0xF8 SHR PUSH2 0x14F9 SWAP2 SWAP1 PUSH2 0x3547 JUMP JUMPDEST PUSH1 0xF8 SHL SWAP1 POP PUSH0 DUP2 PUSH1 0xF8 SHR PUSH1 0x10 PUSH2 0x150F SWAP2 SWAP1 PUSH2 0x3577 JUMP JUMPDEST DUP4 PUSH1 0xF8 SHR PUSH2 0x151D SWAP2 SWAP1 PUSH2 0x35B3 JUMP JUMPDEST PUSH1 0xF8 SHL SWAP1 POP PUSH2 0x152B DUP3 PUSH2 0x163D JUMP JUMPDEST DUP6 DUP6 PUSH1 0x2 PUSH2 0x1539 SWAP2 SWAP1 PUSH2 0x30E7 JUMP JUMPDEST DUP2 MLOAD DUP2 LT PUSH2 0x154A JUMPI PUSH2 0x1549 PUSH2 0x2654 JUMP JUMPDEST JUMPDEST PUSH1 0x20 ADD ADD SWAP1 PUSH31 0xFFFFFFFFFFFFFFFFFFFFFFFFFFFFFFFFFFFFFFFFFFFFFFFFFFFFFFFFFFFFFF NOT AND SWAP1 DUP2 PUSH0 BYTE SWAP1 MSTORE8 POP PUSH2 0x1581 DUP2 PUSH2 0x163D JUMP JUMPDEST DUP6 PUSH1 0x1 DUP7 PUSH1 0x2 PUSH2 0x1591 SWAP2 SWAP1 PUSH2 0x30E7 JUMP JUMPDEST PUSH2 0x159B SWAP2 SWAP1 PUSH2 0x26E1 JUMP JUMPDEST DUP2 MLOAD DUP2 LT PUSH2 0x15AC JUMPI PUSH2 0x15AB PUSH2 0x2654 JUMP JUMPDEST JUMPDEST PUSH1 0x20 ADD ADD SWAP1 PUSH31 0xFFFFFFFFFFFFFFFFFFFFFFFFFFFFFFFFFFFFFFFFFFFFFFFFFFFFFFFFFFFFFF NOT AND SWAP1 DUP2 PUSH0 BYTE SWAP1 MSTORE8 POP POP POP POP DUP1 DUP1 PUSH1 0x1 ADD SWAP2 POP POP PUSH2 0x1493 JUMP JUMPDEST POP DUP1 PUSH1 0x40 MLOAD PUSH1 0x20 ADD PUSH2 0x15FC SWAP2 SWAP1 PUSH2 0x31E6 JUMP JUMPDEST PUSH1 0x40 MLOAD PUSH1 0x20 DUP2 DUP4 SUB SUB DUP2 MSTORE SWAP1 PUSH1 0x40 MSTORE SWAP2 POP POP SWAP2 SWAP1 POP JUMP JUMPDEST PUSH0 PUSH0 PUSH0 PUSH0 PUSH2 0x1621 DUP7 DUP7 PUSH2 0x1682 JUMP JUMPDEST SWAP3 POP SWAP3 POP SWAP3 POP PUSH2 0x1631 DUP3 DUP3 PUSH2 0x16D7 JUMP JUMPDEST DUP3 SWAP4 POP POP POP POP SWAP3 SWAP2 POP POP JUMP JUMPDEST PUSH0 PUSH1 0xA DUP3 PUSH1 0xF8 SHR PUSH1 0xFF AND LT ISZERO PUSH2 0x1667 JUMPI PUSH1 0x30 DUP3 PUSH1 0xF8 SHR PUSH2 0x165D SWAP2 SWAP1 PUSH2 0x324E JUMP JUMPDEST PUSH1 0xF8 SHL SWAP1 POP PUSH2 0x167D JUMP JUMPDEST PUSH1 0x57 DUP3 PUSH1 0xF8 SHR PUSH2 0x1677 SWAP2 SWAP1 PUSH2 0x324E JUMP JUMPDEST PUSH1 0xF8 SHL SWAP1 POP JUMPDEST SWAP2 SWAP1 POP JUMP JUMPDEST PUSH0 PUSH0 PUSH0 PUSH1 0x41 DUP5 MLOAD SUB PUSH2 0x16C2 JUMPI PUSH0 PUSH0 PUSH0 PUSH1 0x20 DUP8 ADD MLOAD SWAP3 POP PUSH1 0x40 DUP8 ADD MLOAD SWAP2 POP PUSH1 0x60 DUP8 ADD MLOAD PUSH0 BYTE SWAP1 POP PUSH2 0x16B4 DUP9 DUP3 DUP6 DUP6 PUSH2 0x1839 JUMP JUMPDEST SWAP6 POP SWAP6 POP SWAP6 POP POP POP POP PUSH2 0x16D0 JUMP JUMPDEST PUSH0 PUSH1 0x2 DUP6 MLOAD PUSH0 SHL SWAP3 POP SWAP3 POP SWAP3 POP JUMPDEST SWAP3 POP SWAP3 POP SWAP3 JUMP JUMPDEST PUSH0 PUSH1 0x3 DUP2 GT ISZERO PUSH2 0x16EA JUMPI PUSH2 0x16E9 PUSH2 0x35E7 JUMP JUMPDEST JUMPDEST DUP3 PUSH1 0x3 DUP2 GT ISZERO PUSH2 0x16FD JUMPI PUSH2 0x16FC PUSH2 0x35E7 JUMP JUMPDEST JUMPDEST SUB ISZERO PUSH2 0x1835 JUMPI PUSH1 0x1 PUSH1 0x3 DUP2 GT ISZERO PUSH2 0x1717 JUMPI PUSH2 0x1716 PUSH2 0x35E7 JUMP JUMPDEST JUMPDEST DUP3 PUSH1 0x3 DUP2 GT ISZERO PUSH2 0x172A JUMPI PUSH2 0x1729 PUSH2 0x35E7 JUMP JUMPDEST JUMPDEST SUB PUSH2 0x1761 JUMPI PUSH1 0x40 MLOAD PUSH32 0xF645EEDF00000000000000000000000000000000000000000000000000000000 DUP2 MSTORE PUSH1 0x4 ADD PUSH1 0x40 MLOAD DUP1 SWAP2 SUB SWAP1 REVERT JUMPDEST PUSH1 0x2 PUSH1 0x3 DUP2 GT ISZERO PUSH2 0x1775 JUMPI PUSH2 0x1774 PUSH2 0x35E7 JUMP JUMPDEST JUMPDEST DUP3 PUSH1 0x3 DUP2 GT ISZERO PUSH2 0x1788 JUMPI PUSH2 0x1787 PUSH2 0x35E7 JUMP JUMPDEST JUMPDEST SUB PUSH2 0x17CC JUMPI DUP1 PUSH0 SHR PUSH1 0x40 MLOAD PUSH32 0xFCE698F700000000000000000000000000000000000000000000000000000000 DUP2 MSTORE PUSH1 0x4 ADD PUSH2 0x17C3 SWAP2 SWAP1 PUSH2 0x3623 JUMP JUMPDEST PUSH1 0x40 MLOAD DUP1 SWAP2 SUB SWAP1 REVERT JUMPDEST PUSH1 0x3 DUP1 DUP2 GT ISZERO PUSH2 0x17DF JUMPI PUSH2 0x17DE PUSH2 0x35E7 JUMP JUMPDEST JUMPDEST DUP3 PUSH1 0x3 DUP2 GT ISZERO PUSH2 0x17F2 JUMPI PUSH2 0x17F1 PUSH2 0x35E7 JUMP JUMPDEST JUMPDEST SUB PUSH2 0x1834 JUMPI DUP1 PUSH1 0x40 MLOAD PUSH32 0xD78BCE0C00000000000000000000000000000000000000000000000000000000 DUP2 MSTORE PUSH1 0x4 ADD PUSH2 0x182B SWAP2 SWAP1 PUSH2 0x364B JUMP JUMPDEST PUSH1 0x40 MLOAD DUP1 SWAP2 SUB SWAP1 REVERT JUMPDEST JUMPDEST POP POP JUMP JUMPDEST PUSH0 PUSH0 PUSH0 PUSH32 0x7FFFFFFFFFFFFFFFFFFFFFFFFFFFFFFF5D576E7357A4501DDFE92F46681B20A0 DUP5 PUSH0 SHR GT ISZERO PUSH2 0x1875 JUMPI PUSH0 PUSH1 0x3 DUP6 SWAP3 POP SWAP3 POP SWAP3 POP PUSH2 0x1916 JUMP JUMPDEST PUSH0 PUSH1 0x1 DUP9 DUP9 DUP9 DUP9 PUSH1 0x40 MLOAD PUSH0 DUP2 MSTORE PUSH1 0x20 ADD PUSH1 0x40 MSTORE PUSH1 0x40 MLOAD PUSH2 0x1898 SWAP5 SWAP4 SWAP3 SWAP2 SWAP1 PUSH2 0x3664 JUMP JUMPDEST PUSH1 0x20 PUSH1 0x40 MLOAD PUSH1 0x20 DUP2 SUB SWAP1 DUP1 DUP5 SUB SWAP1 DUP6 GAS STATICCALL ISZERO DUP1 ISZERO PUSH2 0x18B8 JUMPI RETURNDATASIZE PUSH0 PUSH0 RETURNDATACOPY RETURNDATASIZE PUSH0 REVERT JUMPDEST POP POP POP PUSH1 0x20 PUSH1 0x40 MLOAD SUB MLOAD SWAP1 POP PUSH0 PUSH20 0xFFFFFFFFFFFFFFFFFFFFFFFFFFFFFFFFFFFFFFFF AND DUP2 PUSH20 0xFFFFFFFFFFFFFFFFFFFFFFFFFFFFFFFFFFFFFFFF AND SUB PUSH2 0x1909 JUMPI PUSH0 PUSH1 0x1 PUSH0 PUSH0 SHL SWAP4 POP SWAP4 POP SWAP4 POP POP PUSH2 0x1916 JUMP JUMPDEST DUP1 PUSH0 PUSH0 PUSH0 SHL SWAP4 POP SWAP4 POP SWAP4 POP POP JUMPDEST SWAP5 POP SWAP5 POP SWAP5 SWAP2 POP POP JUMP JUMPDEST PUSH1 0x40 MLOAD DUP1 PUSH1 0x40 ADD PUSH1 0x40 MSTORE DUP1 PUSH0 PUSH20 0xFFFFFFFFFFFFFFFFFFFFFFFFFFFFFFFFFFFFFFFF AND DUP2 MSTORE PUSH1 0x20 ADD PUSH1 0x60 DUP2 MSTORE POP SWAP1 JUMP JUMPDEST PUSH1 0x40 MLOAD DUP1 PUSH1 0xA0 ADD PUSH1 0x40 MSTORE DUP1 PUSH0 PUSH4 0xFFFFFFFF AND DUP2 MSTORE PUSH1 0x20 ADD PUSH0 PUSH4 0xFFFFFFFF AND DUP2 MSTORE PUSH1 0x20 ADD PUSH0 PUSH4 0xFFFFFFFF AND DUP2 MSTORE PUSH1 0x20 ADD PUSH1 0x60 DUP2 MSTORE PUSH1 0x20 ADD PUSH0 PUSH1 0xFF AND DUP2 MSTORE POP SWAP1 JUMP JUMPDEST PUSH0 PUSH1 0x40 MLOAD SWAP1 POP SWAP1 JUMP JUMPDEST PUSH0 PUSH0 REVERT JUMPDEST PUSH0 PUSH0 REVERT JUMPDEST PUSH0 PUSH4 0xFFFFFFFF DUP3 AND SWAP1 POP SWAP2 SWAP1 POP JUMP JUMPDEST PUSH2 0x19B8 DUP2 PUSH2 0x19A0 JUMP JUMPDEST DUP2 EQ PUSH2 0x19C2 JUMPI PUSH0 PUSH0 REVERT JUMPDEST POP JUMP JUMPDEST PUSH0 DUP2 CALLDATALOAD SWAP1 POP PUSH2 0x19D3 DUP2 PUSH2 0x19AF JUMP JUMPDEST SWAP3 SWAP2 POP POP JUMP JUMPDEST PUSH0 DUP2 SWAP1 POP SWAP2 SWAP1 POP JUMP JUMPDEST PUSH2 0x19EB DUP2 PUSH2 0x19D9 JUMP JUMPDEST DUP2 EQ PUSH2 0x19F5 JUMPI PUSH0 PUSH0 REVERT JUMPDEST POP JUMP JUMPDEST PUSH0 DUP2 CALLDATALOAD SWAP1 POP PUSH2 0x1A06 DUP2 PUSH2 0x19E2 JUMP JUMPDEST SWAP3 SWAP2 POP POP JUMP JUMPDEST PUSH0 PUSH0 PUSH0 PUSH1 0x60 DUP5 DUP7 SUB SLT ISZERO PUSH2 0x1A23 JUMPI PUSH2 0x1A22 PUSH2 0x1998 JUMP JUMPDEST JUMPDEST PUSH0 PUSH2 0x1A30 DUP7 DUP3 DUP8 ADD PUSH2 0x19C5 JUMP JUMPDEST SWAP4 POP POP PUSH1 0x20 PUSH2 0x1A41 DUP7 DUP3 DUP8 ADD PUSH2 0x19F8 JUMP JUMPDEST SWAP3 POP POP PUSH1 0x40 PUSH2 0x1A52 DUP7 DUP3 DUP8 ADD PUSH2 0x19C5 JUMP JUMPDEST SWAP2 POP POP SWAP3 POP SWAP3 POP SWAP3 JUMP JUMPDEST PUSH0 DUP2 MLOAD SWAP1 POP SWAP2 SWAP1 POP JUMP JUMPDEST PUSH0 DUP3 DUP3 MSTORE PUSH1 0x20 DUP3 ADD SWAP1 POP SWAP3 SWAP2 POP POP JUMP JUMPDEST PUSH0 DUP2 SWAP1 POP PUSH1 0x20 DUP3 ADD SWAP1 POP SWAP2 SWAP1 POP JUMP JUMPDEST PUSH0 PUSH20 0xFFFFFFFFFFFFFFFFFFFFFFFFFFFFFFFFFFFFFFFF DUP3 AND SWAP1 POP SWAP2 SWAP1 POP JUMP JUMPDEST PUSH0 PUSH2 0x1AAE DUP3 PUSH2 0x1A85 JUMP JUMPDEST SWAP1 POP SWAP2 SWAP1 POP JUMP JUMPDEST PUSH2 0x1ABE DUP2 PUSH2 0x1AA4 JUMP JUMPDEST DUP3 MSTORE POP POP JUMP JUMPDEST PUSH0 DUP2 MLOAD SWAP1 POP SWAP2 SWAP1 POP JUMP JUMPDEST PUSH0 DUP3 DUP3 MSTORE PUSH1 0x20 DUP3 ADD SWAP1 POP SWAP3 SWAP2 POP POP JUMP JUMPDEST DUP3 DUP2 DUP4 MCOPY PUSH0 DUP4 DUP4 ADD MSTORE POP POP POP JUMP JUMPDEST PUSH0 PUSH1 0x1F NOT PUSH1 0x1F DUP4 ADD AND SWAP1 POP SWAP2 SWAP1 POP JUMP JUMPDEST PUSH0 PUSH2 0x1B06 DUP3 PUSH2 0x1AC4 JUMP JUMPDEST PUSH2 0x1B10 DUP2 DUP6 PUSH2 0x1ACE JUMP JUMPDEST SWAP4 POP PUSH2 0x1B20 DUP2 DUP6 PUSH1 0x20 DUP7 ADD PUSH2 0x1ADE JUMP JUMPDEST PUSH2 0x1B29 DUP2 PUSH2 0x1AEC JUMP JUMPDEST DUP5 ADD SWAP2 POP POP SWAP3 SWAP2 POP POP JUMP JUMPDEST PUSH0 PUSH1 0x40 DUP4 ADD PUSH0 DUP4 ADD MLOAD PUSH2 0x1B49 PUSH0 DUP7 ADD DUP3 PUSH2 0x1AB5 JUMP JUMPDEST POP PUSH1 0x20 DUP4 ADD MLOAD DUP5 DUP3 SUB PUSH1 0x20 DUP7 ADD MSTORE PUSH2 0x1B61 DUP3 DUP3 PUSH2 0x1AFC JUMP JUMPDEST SWAP2 POP POP DUP1 SWAP2 POP POP SWAP3 SWAP2 POP POP JUMP JUMPDEST PUSH0 PUSH2 0x1B79 DUP4 DUP4 PUSH2 0x1B34 JUMP JUMPDEST SWAP1 POP SWAP3 SWAP2 POP POP JUMP JUMPDEST PUSH0 PUSH1 0x20 DUP3 ADD SWAP1 POP SWAP2 SWAP1 POP JUMP JUMPDEST PUSH0 PUSH2 0x1B97 DUP3 PUSH2 0x1A5C JUMP JUMPDEST PUSH2 0x1BA1 DUP2 DUP6 PUSH2 0x1A66 JUMP JUMPDEST SWAP4 POP DUP4 PUSH1 0x20 DUP3 MUL DUP6 ADD PUSH2 0x1BB3 DUP6 PUSH2 0x1A76 JUMP JUMPDEST DUP1 PUSH0 JUMPDEST DUP6 DUP2 LT ISZERO PUSH2 0x1BEE JUMPI DUP5 DUP5 SUB DUP10 MSTORE DUP2 MLOAD PUSH2 0x1BCF DUP6 DUP3 PUSH2 0x1B6E JUMP JUMPDEST SWAP5 POP PUSH2 0x1BDA DUP4 PUSH2 0x1B81 JUMP JUMPDEST SWAP3 POP PUSH1 0x20 DUP11 ADD SWAP10 POP POP PUSH1 0x1 DUP2 ADD SWAP1 POP PUSH2 0x1BB6 JUMP JUMPDEST POP DUP3 SWAP8 POP DUP8 SWAP6 POP POP POP POP POP POP SWAP3 SWAP2 POP POP JUMP JUMPDEST PUSH0 PUSH1 0x20 DUP3 ADD SWAP1 POP DUP2 DUP2 SUB PUSH0 DUP4 ADD MSTORE PUSH2 0x1C18 DUP2 DUP5 PUSH2 0x1B8D JUMP JUMPDEST SWAP1 POP SWAP3 SWAP2 POP POP JUMP JUMPDEST PUSH2 0x1C29 DUP2 PUSH2 0x19A0 JUMP JUMPDEST DUP3 MSTORE POP POP JUMP JUMPDEST PUSH0 PUSH1 0x20 DUP3 ADD SWAP1 POP PUSH2 0x1C42 PUSH0 DUP4 ADD DUP5 PUSH2 0x1C20 JUMP JUMPDEST SWAP3 SWAP2 POP POP JUMP JUMPDEST PUSH0 PUSH1 0x20 DUP3 DUP5 SUB SLT ISZERO PUSH2 0x1C5D JUMPI PUSH2 0x1C5C PUSH2 0x1998 JUMP JUMPDEST JUMPDEST PUSH0 PUSH2 0x1C6A DUP5 DUP3 DUP6 ADD PUSH2 0x19C5 JUMP JUMPDEST SWAP2 POP POP SWAP3 SWAP2 POP POP JUMP JUMPDEST PUSH2 0x1C7C DUP2 PUSH2 0x19A0 JUMP JUMPDEST DUP3 MSTORE POP POP JUMP JUMPDEST PUSH0 DUP3 DUP3 MSTORE PUSH1 0x20 DUP3 ADD SWAP1 POP SWAP3 SWAP2 POP POP JUMP JUMPDEST PUSH0 PUSH2 0x1C9C DUP3 PUSH2 0x1A5C JUMP JUMPDEST PUSH2 0x1CA6 DUP2 DUP6 PUSH2 0x1C82 JUMP JUMPDEST SWAP4 POP DUP4 PUSH1 0x20 DUP3 MUL DUP6 ADD PUSH2 0x1CB8 DUP6 PUSH2 0x1A76 JUMP JUMPDEST DUP1 PUSH0 JUMPDEST DUP6 DUP2 LT ISZERO PUSH2 0x1CF3 JUMPI DUP5 DUP5 SUB DUP10 MSTORE DUP2 MLOAD PUSH2 0x1CD4 DUP6 DUP3 PUSH2 0x1B6E JUMP JUMPDEST SWAP5 POP PUSH2 0x1CDF DUP4 PUSH2 0x1B81 JUMP JUMPDEST SWAP3 POP PUSH1 0x20 DUP11 ADD SWAP10 POP POP PUSH1 0x1 DUP2 ADD SWAP1 POP PUSH2 0x1CBB JUMP JUMPDEST POP DUP3 SWAP8 POP DUP8 SWAP6 POP POP POP POP POP POP SWAP3 SWAP2 POP POP JUMP JUMPDEST PUSH0 PUSH1 0xFF DUP3 AND SWAP1 POP SWAP2 SWAP1 POP JUMP JUMPDEST PUSH2 0x1D1A DUP2 PUSH2 0x1D05 JUMP JUMPDEST DUP3 MSTORE POP POP JUMP JUMPDEST PUSH0 PUSH1 0xA0 DUP4 ADD PUSH0 DUP4 ADD MLOAD PUSH2 0x1D35 PUSH0 DUP7 ADD DUP3 PUSH2 0x1C73 JUMP JUMPDEST POP PUSH1 0x20 DUP4 ADD MLOAD PUSH2 0x1D48 PUSH1 0x20 DUP7 ADD DUP3 PUSH2 0x1C73 JUMP JUMPDEST POP PUSH1 0x40 DUP4 ADD MLOAD PUSH2 0x1D5B PUSH1 0x40 DUP7 ADD DUP3 PUSH2 0x1C73 JUMP JUMPDEST POP PUSH1 0x60 DUP4 ADD MLOAD DUP5 DUP3 SUB PUSH1 0x60 DUP7 ADD MSTORE PUSH2 0x1D73 DUP3 DUP3 PUSH2 0x1C92 JUMP JUMPDEST SWAP2 POP POP PUSH1 0x80 DUP4 ADD MLOAD PUSH2 0x1D88 PUSH1 0x80 DUP7 ADD DUP3 PUSH2 0x1D11 JUMP JUMPDEST POP DUP1 SWAP2 POP POP SWAP3 SWAP2 POP POP JUMP JUMPDEST PUSH0 PUSH1 0x20 DUP3 ADD SWAP1 POP DUP2 DUP2 SUB PUSH0 DUP4 ADD MSTORE PUSH2 0x1DAB DUP2 DUP5 PUSH2 0x1D20 JUMP JUMPDEST SWAP1 POP SWAP3 SWAP2 POP POP JUMP JUMPDEST PUSH0 PUSH0 REVERT JUMPDEST PUSH0 PUSH0 REVERT JUMPDEST PUSH0 PUSH0 REVERT JUMPDEST PUSH0 PUSH0 DUP4 PUSH1 0x1F DUP5 ADD SLT PUSH2 0x1DD4 JUMPI PUSH2 0x1DD3 PUSH2 0x1DB3 JUMP JUMPDEST JUMPDEST DUP3 CALLDATALOAD SWAP1 POP PUSH8 0xFFFFFFFFFFFFFFFF DUP2 GT ISZERO PUSH2 0x1DF1 JUMPI PUSH2 0x1DF0 PUSH2 0x1DB7 JUMP JUMPDEST JUMPDEST PUSH1 0x20 DUP4 ADD SWAP2 POP DUP4 PUSH1 0x20 DUP3 MUL DUP4 ADD GT ISZERO PUSH2 0x1E0D JUMPI PUSH2 0x1E0C PUSH2 0x1DBB JUMP JUMPDEST JUMPDEST SWAP3 POP SWAP3 SWAP1 POP JUMP JUMPDEST PUSH2 0x1E1D DUP2 PUSH2 0x1D05 JUMP JUMPDEST DUP2 EQ PUSH2 0x1E27 JUMPI PUSH0 PUSH0 REVERT JUMPDEST POP JUMP JUMPDEST PUSH0 DUP2 CALLDATALOAD SWAP1 POP PUSH2 0x1E38 DUP2 PUSH2 0x1E14 JUMP JUMPDEST SWAP3 SWAP2 POP POP JUMP JUMPDEST PUSH0 PUSH0 PUSH0 PUSH1 0x40 DUP5 DUP7 SUB SLT ISZERO PUSH2 0x1E55 JUMPI PUSH2 0x1E54 PUSH2 0x1998 JUMP JUMPDEST JUMPDEST PUSH0 DUP5 ADD CALLDATALOAD PUSH8 0xFFFFFFFFFFFFFFFF DUP2 GT ISZERO PUSH2 0x1E72 JUMPI PUSH2 0x1E71 PUSH2 0x199C JUMP JUMPDEST JUMPDEST PUSH2 0x1E7E DUP7 DUP3 DUP8 ADD PUSH2 0x1DBF JUMP JUMPDEST SWAP4 POP SWAP4 POP POP PUSH1 0x20 PUSH2 0x1E91 DUP7 DUP3 DUP8 ADD PUSH2 0x1E2A JUMP JUMPDEST SWAP2 POP POP SWAP3 POP SWAP3 POP SWAP3 JUMP JUMPDEST PUSH2 0x1EA4 DUP2 PUSH2 0x1AA4 JUMP JUMPDEST DUP3 MSTORE POP POP JUMP JUMPDEST PUSH0 PUSH1 0x20 DUP3 ADD SWAP1 POP PUSH2 0x1EBD PUSH0 DUP4 ADD DUP5 PUSH2 0x1E9B JUMP JUMPDEST SWAP3 SWAP2 POP POP JUMP JUMPDEST PUSH0 PUSH0 REVERT JUMPDEST PUSH32 0x4E487B7100000000000000000000000000000000000000000000000000000000 PUSH0 MSTORE PUSH1 0x41 PUSH1 0x4 MSTORE PUSH1 0x24 PUSH0 REVERT JUMPDEST PUSH2 0x1EFD DUP3 PUSH2 0x1AEC JUMP JUMPDEST DUP2 ADD DUP2 DUP2 LT PUSH8 0xFFFFFFFFFFFFFFFF DUP3 GT OR ISZERO PUSH2 0x1F1C JUMPI PUSH2 0x1F1B PUSH2 0x1EC7 JUMP JUMPDEST JUMPDEST DUP1 PUSH1 0x40 MSTORE POP POP POP JUMP JUMPDEST PUSH0 PUSH2 0x1F2E PUSH2 0x198F JUMP JUMPDEST SWAP1 POP PUSH2 0x1F3A DUP3 DUP3 PUSH2 0x1EF4 JUMP JUMPDEST SWAP2 SWAP1 POP JUMP JUMPDEST PUSH0 PUSH0 REVERT JUMPDEST PUSH0 PUSH0 REVERT JUMPDEST PUSH0 PUSH8 0xFFFFFFFFFFFFFFFF DUP3 GT ISZERO PUSH2 0x1F61 JUMPI PUSH2 0x1F60 PUSH2 0x1EC7 JUMP JUMPDEST JUMPDEST PUSH2 0x1F6A DUP3 PUSH2 0x1AEC JUMP JUMPDEST SWAP1 POP PUSH1 0x20 DUP2 ADD SWAP1 POP SWAP2 SWAP1 POP JUMP JUMPDEST DUP3 DUP2 DUP4 CALLDATACOPY PUSH0 DUP4 DUP4 ADD MSTORE POP POP POP JUMP JUMPDEST PUSH0 PUSH2 0x1F97 PUSH2 0x1F92 DUP5 PUSH2 0x1F47 JUMP JUMPDEST PUSH2 0x1F25 JUMP JUMPDEST SWAP1 POP DUP3 DUP2 MSTORE PUSH1 0x20 DUP2 ADD DUP5 DUP5 DUP5 ADD GT ISZERO PUSH2 0x1FB3 JUMPI PUSH2 0x1FB2 PUSH2 0x1F43 JUMP JUMPDEST JUMPDEST PUSH2 0x1FBE DUP5 DUP3 DUP6 PUSH2 0x1F77 JUMP JUMPDEST POP SWAP4 SWAP3 POP POP POP JUMP JUMPDEST PUSH0 DUP3 PUSH1 0x1F DUP4 ADD SLT PUSH2 0x1FDA JUMPI PUSH2 0x1FD9 PUSH2 0x1DB3 JUMP JUMPDEST JUMPDEST DUP2 CALLDATALOAD PUSH2 0x1FEA DUP5 DUP3 PUSH1 0x20 DUP7 ADD PUSH2 0x1F85 JUMP JUMPDEST SWAP2 POP POP SWAP3 SWAP2 POP POP JUMP JUMPDEST PUSH0 PUSH1 0x60 DUP3 DUP5 SUB SLT ISZERO PUSH2 0x2008 JUMPI PUSH2 0x2007 PUSH2 0x1EC3 JUMP JUMPDEST JUMPDEST PUSH2 0x2012 PUSH1 0x60 PUSH2 0x1F25 JUMP JUMPDEST SWAP1 POP PUSH0 DUP3 ADD CALLDATALOAD PUSH8 0xFFFFFFFFFFFFFFFF DUP2 GT ISZERO PUSH2 0x2031 JUMPI PUSH2 0x2030 PUSH2 0x1F3F JUMP JUMPDEST JUMPDEST PUSH2 0x203D DUP5 DUP3 DUP6 ADD PUSH2 0x1FC6 JUMP JUMPDEST PUSH0 DUP4 ADD MSTORE POP PUSH1 0x20 DUP3 ADD CALLDATALOAD PUSH8 0xFFFFFFFFFFFFFFFF DUP2 GT ISZERO PUSH2 0x2060 JUMPI PUSH2 0x205F PUSH2 0x1F3F JUMP JUMPDEST JUMPDEST PUSH2 0x206C DUP5 DUP3 DUP6 ADD PUSH2 0x1FC6 JUMP JUMPDEST PUSH1 0x20 DUP4 ADD MSTORE POP PUSH1 0x40 DUP3 ADD CALLDATALOAD PUSH8 0xFFFFFFFFFFFFFFFF DUP2 GT ISZERO PUSH2 0x2090 JUMPI PUSH2 0x208F PUSH2 0x1F3F JUMP JUMPDEST JUMPDEST PUSH2 0x209C DUP5 DUP3 DUP6 ADD PUSH2 0x1FC6 JUMP JUMPDEST PUSH1 0x40 DUP4 ADD MSTORE POP SWAP3 SWAP2 POP POP JUMP JUMPDEST PUSH2 0x20B1 DUP2 PUSH2 0x1AA4 JUMP JUMPDEST DUP2 EQ PUSH2 0x20BB JUMPI PUSH0 PUSH0 REVERT JUMPDEST POP JUMP JUMPDEST PUSH0 DUP2 CALLDATALOAD SWAP1 POP PUSH2 0x20CC DUP2 PUSH2 0x20A8 JUMP JUMPDEST SWAP3 SWAP2 POP POP JUMP JUMPDEST PUSH0 PUSH1 0x80 DUP3 DUP5 SUB SLT ISZERO PUSH2 0x20E7 JUMPI PUSH2 0x20E6 PUSH2 0x1EC3 JUMP JUMPDEST JUMPDEST PUSH2 0x20F1 PUSH1 0x80 PUSH2 0x1F25 JUMP JUMPDEST SWAP1 POP PUSH0 PUSH2 0x2100 DUP5 DUP3 DUP6 ADD PUSH2 0x19F8 JUMP JUMPDEST PUSH0 DUP4 ADD MSTORE POP PUSH1 0x20 PUSH2 0x2113 DUP5 DUP3 DUP6 ADD PUSH2 0x20BE JUMP JUMPDEST PUSH1 0x20 DUP4 ADD MSTORE POP PUSH1 0x40 PUSH2 0x2127 DUP5 DUP3 DUP6 ADD PUSH2 0x19C5 JUMP JUMPDEST PUSH1 0x40 DUP4 ADD MSTORE POP PUSH1 0x60 PUSH2 0x213B DUP5 DUP3 DUP6 ADD PUSH2 0x19C5 JUMP JUMPDEST PUSH1 0x60 DUP4 ADD MSTORE POP SWAP3 SWAP2 POP POP JUMP JUMPDEST PUSH0 PUSH8 0xFFFFFFFFFFFFFFFF DUP3 GT ISZERO PUSH2 0x2161 JUMPI PUSH2 0x2160 PUSH2 0x1EC7 JUMP JUMPDEST JUMPDEST PUSH1 0x20 DUP3 MUL SWAP1 POP PUSH1 0x20 DUP2 ADD SWAP1 POP SWAP2 SWAP1 POP JUMP JUMPDEST PUSH0 PUSH8 0xFFFFFFFFFFFFFFFF DUP3 GT ISZERO PUSH2 0x218C JUMPI PUSH2 0x218B PUSH2 0x1EC7 JUMP JUMPDEST JUMPDEST PUSH2 0x2195 DUP3 PUSH2 0x1AEC JUMP JUMPDEST SWAP1 POP PUSH1 0x20 DUP2 ADD SWAP1 POP SWAP2 SWAP1 POP JUMP JUMPDEST PUSH0 PUSH2 0x21B4 PUSH2 0x21AF DUP5 PUSH2 0x2172 JUMP JUMPDEST PUSH2 0x1F25 JUMP JUMPDEST SWAP1 POP DUP3 DUP2 MSTORE PUSH1 0x20 DUP2 ADD DUP5 DUP5 DUP5 ADD GT ISZERO PUSH2 0x21D0 JUMPI PUSH2 0x21CF PUSH2 0x1F43 JUMP JUMPDEST JUMPDEST PUSH2 0x21DB DUP5 DUP3 DUP6 PUSH2 0x1F77 JUMP JUMPDEST POP SWAP4 SWAP3 POP POP POP JUMP JUMPDEST PUSH0 DUP3 PUSH1 0x1F DUP4 ADD SLT PUSH2 0x21F7 JUMPI PUSH2 0x21F6 PUSH2 0x1DB3 JUMP JUMPDEST JUMPDEST DUP2 CALLDATALOAD PUSH2 0x2207 DUP5 DUP3 PUSH1 0x20 DUP7 ADD PUSH2 0x21A2 JUMP JUMPDEST SWAP2 POP POP SWAP3 SWAP2 POP POP JUMP JUMPDEST PUSH0 PUSH2 0x2222 PUSH2 0x221D DUP5 PUSH2 0x2147 JUMP JUMPDEST PUSH2 0x1F25 JUMP JUMPDEST SWAP1 POP DUP1 DUP4 DUP3 MSTORE PUSH1 0x20 DUP3 ADD SWAP1 POP PUSH1 0x20 DUP5 MUL DUP4 ADD DUP6 DUP2 GT ISZERO PUSH2 0x2245 JUMPI PUSH2 0x2244 PUSH2 0x1DBB JUMP JUMPDEST JUMPDEST DUP4 JUMPDEST DUP2 DUP2 LT ISZERO PUSH2 0x228C JUMPI DUP1 CALLDATALOAD PUSH8 0xFFFFFFFFFFFFFFFF DUP2 GT ISZERO PUSH2 0x226A JUMPI PUSH2 0x2269 PUSH2 0x1DB3 JUMP JUMPDEST JUMPDEST DUP1 DUP7 ADD PUSH2 0x2277 DUP10 DUP3 PUSH2 0x21E3 JUMP JUMPDEST DUP6 MSTORE PUSH1 0x20 DUP6 ADD SWAP5 POP POP POP PUSH1 0x20 DUP2 ADD SWAP1 POP PUSH2 0x2247 JUMP JUMPDEST POP POP POP SWAP4 SWAP3 POP POP POP JUMP JUMPDEST PUSH0 DUP3 PUSH1 0x1F DUP4 ADD SLT PUSH2 0x22AA JUMPI PUSH2 0x22A9 PUSH2 0x1DB3 JUMP JUMPDEST JUMPDEST DUP2 CALLDATALOAD PUSH2 0x22BA DUP5 DUP3 PUSH1 0x20 DUP7 ADD PUSH2 0x2210 JUMP JUMPDEST SWAP2 POP POP SWAP3 SWAP2 POP POP JUMP JUMPDEST PUSH0 PUSH1 0xA0 DUP3 DUP5 SUB SLT ISZERO PUSH2 0x22D8 JUMPI PUSH2 0x22D7 PUSH2 0x1EC3 JUMP JUMPDEST JUMPDEST PUSH2 0x22E2 PUSH1 0x40 PUSH2 0x1F25 JUMP JUMPDEST SWAP1 POP PUSH0 PUSH2 0x22F1 DUP5 DUP3 DUP6 ADD PUSH2 0x20D2 JUMP JUMPDEST PUSH0 DUP4 ADD MSTORE POP PUSH1 0x80 DUP3 ADD CALLDATALOAD PUSH8 0xFFFFFFFFFFFFFFFF DUP2 GT ISZERO PUSH2 0x2314 JUMPI PUSH2 0x2313 PUSH2 0x1F3F JUMP JUMPDEST JUMPDEST PUSH2 0x2320 DUP5 DUP3 DUP6 ADD PUSH2 0x2296 JUMP JUMPDEST PUSH1 0x20 DUP4 ADD MSTORE POP SWAP3 SWAP2 POP POP JUMP JUMPDEST PUSH0 PUSH1 0x40 DUP3 DUP5 SUB SLT ISZERO PUSH2 0x2341 JUMPI PUSH2 0x2340 PUSH2 0x1EC3 JUMP JUMPDEST JUMPDEST PUSH2 0x234B PUSH1 0x40 PUSH2 0x1F25 JUMP JUMPDEST SWAP1 POP PUSH0 DUP3 ADD CALLDATALOAD PUSH8 0xFFFFFFFFFFFFFFFF DUP2 GT ISZERO PUSH2 0x236A JUMPI PUSH2 0x2369 PUSH2 0x1F3F JUMP JUMPDEST JUMPDEST PUSH2 0x2376 DUP5 DUP3 DUP6 ADD PUSH2 0x1FF3 JUMP JUMPDEST PUSH0 DUP4 ADD MSTORE POP PUSH1 0x20 DUP3 ADD CALLDATALOAD PUSH8 0xFFFFFFFFFFFFFFFF DUP2 GT ISZERO PUSH2 0x2399 JUMPI PUSH2 0x2398 PUSH2 0x1F3F JUMP JUMPDEST JUMPDEST PUSH2 0x23A5 DUP5 DUP3 DUP6 ADD PUSH2 0x22C3 JUMP JUMPDEST PUSH1 0x20 DUP4 ADD MSTORE POP SWAP3 SWAP2 POP POP JUMP JUMPDEST PUSH0 PUSH1 0x20 DUP3 DUP5 SUB SLT ISZERO PUSH2 0x23C6 JUMPI PUSH2 0x23C5 PUSH2 0x1998 JUMP JUMPDEST JUMPDEST PUSH0 DUP3 ADD CALLDATALOAD PUSH8 0xFFFFFFFFFFFFFFFF DUP2 GT ISZERO PUSH2 0x23E3 JUMPI PUSH2 0x23E2 PUSH2 0x199C JUMP JUMPDEST JUMPDEST PUSH2 0x23EF DUP5 DUP3 DUP6 ADD PUSH2 0x232C JUMP JUMPDEST SWAP2 POP POP SWAP3 SWAP2 POP POP JUMP JUMPDEST PUSH0 DUP2 ISZERO ISZERO SWAP1 POP SWAP2 SWAP1 POP JUMP JUMPDEST PUSH2 0x240C DUP2 PUSH2 0x23F8 JUMP JUMPDEST DUP3 MSTORE POP POP JUMP JUMPDEST PUSH0 PUSH1 0x20 DUP3 ADD SWAP1 POP PUSH2 0x2425 PUSH0 DUP4 ADD DUP5 PUSH2 0x2403 JUMP JUMPDEST SWAP3 SWAP2 POP POP JUMP JUMPDEST PUSH0 DUP2 SWAP1 POP SWAP2 SWAP1 POP JUMP JUMPDEST PUSH2 0x243D DUP2 PUSH2 0x242B JUMP JUMPDEST DUP2 EQ PUSH2 0x2447 JUMPI PUSH0 PUSH0 REVERT JUMPDEST POP JUMP JUMPDEST PUSH0 DUP2 CALLDATALOAD SWAP1 POP PUSH2 0x2458 DUP2 PUSH2 0x2434 JUMP JUMPDEST SWAP3 SWAP2 POP POP JUMP JUMPDEST PUSH0 PUSH1 0x20 DUP3 DUP5 SUB SLT ISZERO PUSH2 0x2473 JUMPI PUSH2 0x2472 PUSH2 0x1998 JUMP JUMPDEST JUMPDEST PUSH0 PUSH2 0x2480 DUP5 DUP3 DUP6 ADD PUSH2 0x244A JUMP JUMPDEST SWAP2 POP POP SWAP3 SWAP2 POP POP JUMP JUMPDEST PUSH2 0x2492 DUP2 PUSH2 0x1D05 JUMP JUMPDEST DUP3 MSTORE POP POP JUMP JUMPDEST PUSH0 PUSH1 0x80 DUP3 ADD SWAP1 POP PUSH2 0x24AB PUSH0 DUP4 ADD DUP8 PUSH2 0x1C20 JUMP JUMPDEST PUSH2 0x24B8 PUSH1 0x20 DUP4 ADD DUP7 PUSH2 0x1C20 JUMP JUMPDEST PUSH2 0x24C5 PUSH1 0x40 DUP4 ADD DUP6 PUSH2 0x1C20 JUMP JUMPDEST PUSH2 0x24D2 PUSH1 0x60 DUP4 ADD DUP5 PUSH2 0x2489 JUMP JUMPDEST SWAP6 SWAP5 POP POP POP POP POP JUMP JUMPDEST PUSH0 DUP2 SWAP1 POP SWAP2 SWAP1 POP JUMP JUMPDEST PUSH2 0x24F5 PUSH2 0x24F0 DUP3 PUSH2 0x19D9 JUMP JUMPDEST PUSH2 0x24DB JUMP JUMPDEST DUP3 MSTORE POP POP JUMP JUMPDEST PUSH0 PUSH2 0x2506 DUP3 DUP5 PUSH2 0x24E4 JUMP JUMPDEST PUSH1 0x20 DUP3 ADD SWAP2 POP DUP2 SWAP1 POP SWAP3 SWAP2 POP POP JUMP JUMPDEST PUSH0 DUP2 SWAP1 POP SWAP3 SWAP2 POP POP JUMP JUMPDEST PUSH0 PUSH2 0x2529 DUP3 PUSH2 0x1AC4 JUMP JUMPDEST PUSH2 0x2533 DUP2 DUP6 PUSH2 0x2515 JUMP JUMPDEST SWAP4 POP PUSH2 0x2543 DUP2 DUP6 PUSH1 0x20 DUP7 ADD PUSH2 0x1ADE JUMP JUMPDEST DUP1 DUP5 ADD SWAP2 POP POP SWAP3 SWAP2 POP POP JUMP JUMPDEST PUSH32 0xA00000000000000000000000000000000000000000000000000000000000000 PUSH0 DUP3 ADD MSTORE POP JUMP JUMPDEST PUSH0 PUSH2 0x2583 PUSH1 0x1 DUP4 PUSH2 0x2515 JUMP JUMPDEST SWAP2 POP PUSH2 0x258E DUP3 PUSH2 0x254F JUMP JUMPDEST PUSH1 0x1 DUP3 ADD SWAP1 POP SWAP2 SWAP1 POP JUMP JUMPDEST PUSH0 PUSH2 0x25A4 DUP3 DUP8 PUSH2 0x251F JUMP JUMPDEST SWAP2 POP PUSH2 0x25AF DUP3 PUSH2 0x2577 JUMP JUMPDEST SWAP2 POP PUSH2 0x25BB DUP3 DUP7 PUSH2 0x251F JUMP JUMPDEST SWAP2 POP PUSH2 0x25C6 DUP3 PUSH2 0x2577 JUMP JUMPDEST SWAP2 POP PUSH2 0x25D2 DUP3 DUP6 PUSH2 0x251F JUMP JUMPDEST SWAP2 POP PUSH2 0x25DD DUP3 PUSH2 0x2577 JUMP JUMPDEST SWAP2 POP PUSH2 0x25E9 DUP3 DUP5 PUSH2 0x251F JUMP JUMPDEST SWAP2 POP DUP2 SWAP1 POP SWAP6 SWAP5 POP POP POP POP POP JUMP JUMPDEST PUSH32 0x4E487B7100000000000000000000000000000000000000000000000000000000 PUSH0 MSTORE PUSH1 0x12 PUSH1 0x4 MSTORE PUSH1 0x24 PUSH0 REVERT JUMPDEST PUSH0 PUSH2 0x262E DUP3 PUSH2 0x242B JUMP JUMPDEST SWAP2 POP PUSH2 0x2639 DUP4 PUSH2 0x242B JUMP JUMPDEST SWAP3 POP DUP3 PUSH2 0x2649 JUMPI PUSH2 0x2648 PUSH2 0x25F7 JUMP JUMPDEST JUMPDEST DUP3 DUP3 MOD SWAP1 POP SWAP3 SWAP2 POP POP JUMP JUMPDEST PUSH32 0x4E487B7100000000000000000000000000000000000000000000000000000000 PUSH0 MSTORE PUSH1 0x32 PUSH1 0x4 MSTORE PUSH1 0x24 PUSH0 REVERT JUMPDEST PUSH32 0x4E487B7100000000000000000000000000000000000000000000000000000000 PUSH0 MSTORE PUSH1 0x11 PUSH1 0x4 MSTORE PUSH1 0x24 PUSH0 REVERT JUMPDEST PUSH0 PUSH2 0x26B8 DUP3 PUSH2 0x242B JUMP JUMPDEST SWAP2 POP PUSH2 0x26C3 DUP4 PUSH2 0x242B JUMP JUMPDEST SWAP3 POP DUP3 DUP3 SUB SWAP1 POP DUP2 DUP2 GT ISZERO PUSH2 0x26DB JUMPI PUSH2 0x26DA PUSH2 0x2681 JUMP JUMPDEST JUMPDEST SWAP3 SWAP2 POP POP JUMP JUMPDEST PUSH0 PUSH2 0x26EB DUP3 PUSH2 0x242B JUMP JUMPDEST SWAP2 POP PUSH2 0x26F6 DUP4 PUSH2 0x242B JUMP JUMPDEST SWAP3 POP DUP3 DUP3 ADD SWAP1 POP DUP1 DUP3 GT ISZERO PUSH2 0x270E JUMPI PUSH2 0x270D PUSH2 0x2681 JUMP JUMPDEST JUMPDEST SWAP3 SWAP2 POP POP JUMP JUMPDEST PUSH32 0x4E487B7100000000000000000000000000000000000000000000000000000000 PUSH0 MSTORE PUSH1 0x22 PUSH1 0x4 MSTORE PUSH1 0x24 PUSH0 REVERT JUMPDEST PUSH0 PUSH1 0x2 DUP3 DIV SWAP1 POP PUSH1 0x1 DUP3 AND DUP1 PUSH2 0x2758 JUMPI PUSH1 0x7F DUP3 AND SWAP2 POP JUMPDEST PUSH1 0x20 DUP3 LT DUP2 SUB PUSH2 0x276B JUMPI PUSH2 0x276A PUSH2 0x2714 JUMP JUMPDEST JUMPDEST POP SWAP2 SWAP1 POP JUMP JUMPDEST PUSH0 PUSH2 0x277B DUP3 PUSH2 0x19A0 JUMP JUMPDEST SWAP2 POP PUSH2 0x2786 DUP4 PUSH2 0x19A0 JUMP JUMPDEST SWAP3 POP DUP3 DUP3 SUB SWAP1 POP PUSH4 0xFFFFFFFF DUP2 GT ISZERO PUSH2 0x27A2 JUMPI PUSH2 0x27A1 PUSH2 0x2681 JUMP JUMPDEST JUMPDEST SWAP3 SWAP2 POP POP JUMP JUMPDEST PUSH0 DUP3 DUP3 MSTORE PUSH1 0x20 DUP3 ADD SWAP1 POP SWAP3 SWAP2 POP POP JUMP JUMPDEST PUSH32 0x4F6E6C79204F776E657200000000000000000000000000000000000000000000 PUSH0 DUP3 ADD MSTORE POP JUMP JUMPDEST PUSH0 PUSH2 0x27EC PUSH1 0xA DUP4 PUSH2 0x27A8 JUMP JUMPDEST SWAP2 POP PUSH2 0x27F7 DUP3 PUSH2 0x27B8 JUMP JUMPDEST PUSH1 0x20 DUP3 ADD SWAP1 POP SWAP2 SWAP1 POP JUMP JUMPDEST PUSH0 PUSH1 0x20 DUP3 ADD SWAP1 POP DUP2 DUP2 SUB PUSH0 DUP4 ADD MSTORE PUSH2 0x2819 DUP2 PUSH2 0x27E0 JUMP JUMPDEST SWAP1 POP SWAP2 SWAP1 POP JUMP JUMPDEST PUSH0 PUSH2 0x282A DUP3 PUSH2 0x19A0 JUMP JUMPDEST SWAP2 POP PUSH2 0x2835 DUP4 PUSH2 0x19A0 JUMP JUMPDEST SWAP3 POP DUP3 DUP3 ADD SWAP1 POP PUSH4 0xFFFFFFFF DUP2 GT ISZERO PUSH2 0x2851 JUMPI PUSH2 0x2850 PUSH2 0x2681 JUMP JUMPDEST JUMPDEST SWAP3 SWAP2 POP POP JUMP JUMPDEST PUSH0 PUSH0 REVERT JUMPDEST PUSH0 PUSH0 REVERT JUMPDEST PUSH0 PUSH0 REVERT JUMPDEST PUSH0 DUP3 CALLDATALOAD PUSH1 0x1 PUSH1 0x40 SUB DUP4 CALLDATASIZE SUB SUB DUP2 SLT PUSH2 0x287E JUMPI PUSH2 0x287D PUSH2 0x2857 JUMP JUMPDEST JUMPDEST DUP1 DUP4 ADD SWAP2 POP POP SWAP3 SWAP2 POP POP JUMP JUMPDEST PUSH0 DUP2 CALLDATALOAD PUSH2 0x2896 DUP2 PUSH2 0x20A8 JUMP JUMPDEST DUP1 SWAP2 POP POP SWAP2 SWAP1 POP JUMP JUMPDEST PUSH0 DUP2 PUSH0 SHL SWAP1 POP SWAP2 SWAP1 POP JUMP JUMPDEST PUSH0 PUSH20 0xFFFFFFFFFFFFFFFFFFFFFFFFFFFFFFFFFFFFFFFF PUSH2 0x28C9 DUP5 PUSH2 0x289F JUMP JUMPDEST SWAP4 POP DUP1 NOT DUP4 AND SWAP3 POP DUP1 DUP5 AND DUP4 OR SWAP2 POP POP SWAP3 SWAP2 POP POP JUMP JUMPDEST PUSH0 DUP2 SWAP1 POP SWAP2 SWAP1 POP JUMP JUMPDEST PUSH0 PUSH2 0x2902 PUSH2 0x28FD PUSH2 0x28F8 DUP5 PUSH2 0x1A85 JUMP JUMPDEST PUSH2 0x28DF JUMP JUMPDEST PUSH2 0x1A85 JUMP JUMPDEST SWAP1 POP SWAP2 SWAP1 POP JUMP JUMPDEST PUSH0 PUSH2 0x2913 DUP3 PUSH2 0x28E8 JUMP JUMPDEST SWAP1 POP SWAP2 SWAP1 POP JUMP JUMPDEST PUSH0 PUSH2 0x2924 DUP3 PUSH2 0x2909 JUMP JUMPDEST SWAP1 POP SWAP2 SWAP1 POP JUMP JUMPDEST PUSH0 DUP2 SWAP1 POP SWAP2 SWAP1 POP JUMP JUMPDEST PUSH2 0x293D DUP3 PUSH2 0x291A JUMP JUMPDEST PUSH2 0x2950 PUSH2 0x2949 DUP3 PUSH2 0x292B JUMP JUMPDEST DUP4 SLOAD PUSH2 0x28AA JUMP JUMPDEST DUP3 SSTORE POP POP POP JUMP JUMPDEST PUSH0 PUSH0 DUP4 CALLDATALOAD PUSH1 0x1 PUSH1 0x20 SUB DUP5 CALLDATASIZE SUB SUB DUP2 SLT PUSH2 0x2973 JUMPI PUSH2 0x2972 PUSH2 0x2857 JUMP JUMPDEST JUMPDEST DUP1 DUP5 ADD SWAP3 POP DUP3 CALLDATALOAD SWAP2 POP PUSH8 0xFFFFFFFFFFFFFFFF DUP3 GT ISZERO PUSH2 0x2995 JUMPI PUSH2 0x2994 PUSH2 0x285B JUMP JUMPDEST JUMPDEST PUSH1 0x20 DUP4 ADD SWAP3 POP PUSH1 0x1 DUP3 MUL CALLDATASIZE SUB DUP4 SGT ISZERO PUSH2 0x29B1 JUMPI PUSH2 0x29B0 PUSH2 0x285F JUMP JUMPDEST JUMPDEST POP SWAP3 POP SWAP3 SWAP1 POP JUMP JUMPDEST PUSH0 DUP3 SWAP1 POP SWAP3 SWAP2 POP POP JUMP JUMPDEST PUSH0 DUP2 SWAP1 POP DUP2 PUSH0 MSTORE PUSH1 0x20 PUSH0 KECCAK256 SWAP1 POP SWAP2 SWAP1 POP JUMP JUMPDEST PUSH0 PUSH1 0x20 PUSH1 0x1F DUP4 ADD DIV SWAP1 POP SWAP2 SWAP1 POP JUMP JUMPDEST PUSH0 DUP3 DUP3 SHL SWAP1 POP SWAP3 SWAP2 POP POP JUMP JUMPDEST PUSH0 PUSH1 0x8 DUP4 MUL PUSH2 0x2A1F PUSH32 0xFFFFFFFFFFFFFFFFFFFFFFFFFFFFFFFFFFFFFFFFFFFFFFFFFFFFFFFFFFFFFFFF DUP3 PUSH2 0x29E4 JUMP JUMPDEST PUSH2 0x2A29 DUP7 DUP4 PUSH2 0x29E4 JUMP JUMPDEST SWAP6 POP DUP1 NOT DUP5 AND SWAP4 POP DUP1 DUP7 AND DUP5 OR SWAP3 POP POP POP SWAP4 SWAP3 POP POP POP JUMP JUMPDEST PUSH0 PUSH2 0x2A5B PUSH2 0x2A56 PUSH2 0x2A51 DUP5 PUSH2 0x242B JUMP JUMPDEST PUSH2 0x28DF JUMP JUMPDEST PUSH2 0x242B JUMP JUMPDEST SWAP1 POP SWAP2 SWAP1 POP JUMP JUMPDEST PUSH0 DUP2 SWAP1 POP SWAP2 SWAP1 POP JUMP JUMPDEST PUSH2 0x2A74 DUP4 PUSH2 0x2A41 JUMP JUMPDEST PUSH2 0x2A88 PUSH2 0x2A80 DUP3 PUSH2 0x2A62 JUMP JUMPDEST DUP5 DUP5 SLOAD PUSH2 0x29F0 JUMP JUMPDEST DUP3 SSTORE POP POP POP POP JUMP JUMPDEST PUSH0 PUSH0 SWAP1 POP SWAP1 JUMP JUMPDEST PUSH2 0x2A9F PUSH2 0x2A90 JUMP JUMPDEST PUSH2 0x2AAA DUP2 DUP5 DUP5 PUSH2 0x2A6B JUMP JUMPDEST POP POP POP JUMP JUMPDEST JUMPDEST DUP2 DUP2 LT ISZERO PUSH2 0x2ACD JUMPI PUSH2 0x2AC2 PUSH0 DUP3 PUSH2 0x2A97 JUMP JUMPDEST PUSH1 0x1 DUP2 ADD SWAP1 POP PUSH2 0x2AB0 JUMP JUMPDEST POP POP JUMP JUMPDEST PUSH1 0x1F DUP3 GT ISZERO PUSH2 0x2B12 JUMPI PUSH2 0x2AE3 DUP2 PUSH2 0x29C3 JUMP JUMPDEST PUSH2 0x2AEC DUP5 PUSH2 0x29D5 JUMP JUMPDEST DUP2 ADD PUSH1 0x20 DUP6 LT ISZERO PUSH2 0x2AFB JUMPI DUP2 SWAP1 POP JUMPDEST PUSH2 0x2B0F PUSH2 0x2B07 DUP6 PUSH2 0x29D5 JUMP JUMPDEST DUP4 ADD DUP3 PUSH2 0x2AAF JUMP JUMPDEST POP POP JUMPDEST POP POP POP JUMP JUMPDEST PUSH0 DUP3 DUP3 SHR SWAP1 POP SWAP3 SWAP2 POP POP JUMP JUMPDEST PUSH0 PUSH2 0x2B32 PUSH0 NOT DUP5 PUSH1 0x8 MUL PUSH2 0x2B17 JUMP JUMPDEST NOT DUP1 DUP4 AND SWAP2 POP POP SWAP3 SWAP2 POP POP JUMP JUMPDEST PUSH0 PUSH2 0x2B4A DUP4 DUP4 PUSH2 0x2B23 JUMP JUMPDEST SWAP2 POP DUP3 PUSH1 0x2 MUL DUP3 OR SWAP1 POP SWAP3 SWAP2 POP POP JUMP JUMPDEST PUSH2 0x2B64 DUP4 DUP4 PUSH2 0x29B9 JUMP JUMPDEST PUSH8 0xFFFFFFFFFFFFFFFF DUP2 GT ISZERO PUSH2 0x2B7D JUMPI PUSH2 0x2B7C PUSH2 0x1EC7 JUMP JUMPDEST JUMPDEST PUSH2 0x2B87 DUP3 SLOAD PUSH2 0x2741 JUMP JUMPDEST PUSH2 0x2B92 DUP3 DUP3 DUP6 PUSH2 0x2AD1 JUMP JUMPDEST PUSH0 PUSH1 0x1F DUP4 GT PUSH1 0x1 DUP2 EQ PUSH2 0x2BBF JUMPI PUSH0 DUP5 ISZERO PUSH2 0x2BAD JUMPI DUP3 DUP8 ADD CALLDATALOAD SWAP1 POP JUMPDEST PUSH2 0x2BB7 DUP6 DUP3 PUSH2 0x2B3F JUMP JUMPDEST DUP7 SSTORE POP PUSH2 0x2C1E JUMP JUMPDEST PUSH1 0x1F NOT DUP5 AND PUSH2 0x2BCD DUP7 PUSH2 0x29C3 JUMP JUMPDEST PUSH0 JUMPDEST DUP3 DUP2 LT ISZERO PUSH2 0x2BF4 JUMPI DUP5 DUP10 ADD CALLDATALOAD DUP3 SSTORE PUSH1 0x1 DUP3 ADD SWAP2 POP PUSH1 0x20 DUP6 ADD SWAP5 POP PUSH1 0x20 DUP2 ADD SWAP1 POP PUSH2 0x2BCF JUMP JUMPDEST DUP7 DUP4 LT ISZERO PUSH2 0x2C11 JUMPI DUP5 DUP10 ADD CALLDATALOAD PUSH2 0x2C0D PUSH1 0x1F DUP10 AND DUP3 PUSH2 0x2B23 JUMP JUMPDEST DUP4 SSTORE POP JUMPDEST PUSH1 0x1 PUSH1 0x2 DUP9 MUL ADD DUP9 SSTORE POP POP POP JUMPDEST POP POP POP POP POP POP POP JUMP JUMPDEST PUSH2 0x2C32 DUP4 DUP4 DUP4 PUSH2 0x2B5A JUMP JUMPDEST POP POP POP JUMP JUMPDEST PUSH0 DUP2 ADD PUSH0 DUP4 ADD DUP1 PUSH2 0x2C47 DUP2 PUSH2 0x288A JUMP JUMPDEST SWAP1 POP PUSH2 0x2C53 DUP2 DUP5 PUSH2 0x2934 JUMP JUMPDEST POP POP POP PUSH1 0x1 DUP2 ADD PUSH1 0x20 DUP4 ADD PUSH2 0x2C68 DUP2 DUP6 PUSH2 0x2957 JUMP JUMPDEST PUSH2 0x2C73 DUP2 DUP4 DUP7 PUSH2 0x2C27 JUMP JUMPDEST POP POP POP POP POP POP JUMP JUMPDEST PUSH2 0x2C85 DUP3 DUP3 PUSH2 0x2C37 JUMP JUMPDEST POP POP JUMP JUMPDEST PUSH0 DUP2 PUSH0 SHR SWAP1 POP SWAP2 SWAP1 POP JUMP JUMPDEST PUSH0 PUSH4 0xFFFFFFFF DUP3 AND SWAP1 POP SWAP2 SWAP1 POP JUMP JUMPDEST PUSH0 PUSH2 0x2CB5 PUSH2 0x2CB0 DUP4 PUSH2 0x2C89 JUMP JUMPDEST PUSH2 0x2C94 JUMP JUMPDEST SWAP1 POP SWAP2 SWAP1 POP JUMP JUMPDEST PUSH0 DUP2 PUSH1 0x20 SHR SWAP1 POP SWAP2 SWAP1 POP JUMP JUMPDEST PUSH0 PUSH2 0x2CDA PUSH2 0x2CD5 DUP4 PUSH2 0x2CBC JUMP JUMPDEST PUSH2 0x2C94 JUMP JUMPDEST SWAP1 POP SWAP2 SWAP1 POP JUMP JUMPDEST PUSH0 DUP2 PUSH1 0x40 SHR SWAP1 POP SWAP2 SWAP1 POP JUMP JUMPDEST PUSH0 PUSH2 0x2CFF PUSH2 0x2CFA DUP4 PUSH2 0x2CE1 JUMP JUMPDEST PUSH2 0x2C94 JUMP JUMPDEST SWAP1 POP SWAP2 SWAP1 POP JUMP JUMPDEST PUSH0 DUP2 SLOAD SWAP1 POP SWAP2 SWAP1 POP JUMP JUMPDEST PUSH0 DUP2 SWAP1 POP DUP2 PUSH0 MSTORE PUSH1 0x20 PUSH0 KECCAK256 SWAP1 POP SWAP2 SWAP1 POP JUMP JUMPDEST PUSH0 PUSH20 0xFFFFFFFFFFFFFFFFFFFFFFFFFFFFFFFFFFFFFFFF DUP3 AND SWAP1 POP SWAP2 SWAP1 POP JUMP JUMPDEST PUSH0 PUSH2 0x2D53 PUSH2 0x2D4E DUP4 PUSH2 0x2C89 JUMP JUMPDEST PUSH2 0x2D22 JUMP JUMPDEST SWAP1 POP SWAP2 SWAP1 POP JUMP JUMPDEST PUSH0 DUP2 SLOAD PUSH2 0x2D66 DUP2 PUSH2 0x2741 JUMP JUMPDEST PUSH2 0x2D70 DUP2 DUP7 PUSH2 0x1ACE JUMP JUMPDEST SWAP5 POP PUSH1 0x1 DUP3 AND PUSH0 DUP2 EQ PUSH2 0x2D8A JUMPI PUSH1 0x1 DUP2 EQ PUSH2 0x2DA0 JUMPI PUSH2 0x2DD2 JUMP JUMPDEST PUSH1 0xFF NOT DUP4 AND DUP7 MSTORE DUP2 ISZERO ISZERO PUSH1 0x20 MUL DUP7 ADD SWAP4 POP PUSH2 0x2DD2 JUMP JUMPDEST PUSH2 0x2DA9 DUP6 PUSH2 0x29C3 JUMP JUMPDEST PUSH0 JUMPDEST DUP4 DUP2 LT ISZERO PUSH2 0x2DCA JUMPI DUP2 SLOAD DUP2 DUP10 ADD MSTORE PUSH1 0x1 DUP3 ADD SWAP2 POP PUSH1 0x20 DUP2 ADD SWAP1 POP PUSH2 0x2DAB JUMP JUMPDEST DUP1 DUP9 ADD SWAP6 POP POP POP JUMPDEST POP POP POP SWAP3 SWAP2 POP POP JUMP JUMPDEST PUSH0 PUSH1 0x40 DUP4 ADD PUSH0 PUSH0 DUP5 ADD SLOAD SWAP1 POP PUSH2 0x2DF0 DUP2 PUSH2 0x2D41 JUMP JUMPDEST PUSH2 0x2DFC PUSH0 DUP8 ADD DUP3 PUSH2 0x1AB5 JUMP JUMPDEST POP PUSH1 0x1 DUP5 ADD DUP6 DUP4 SUB PUSH1 0x20 DUP8 ADD MSTORE PUSH2 0x2E13 DUP4 DUP3 PUSH2 0x2D5A JUMP JUMPDEST SWAP3 POP POP DUP2 SWAP3 POP POP POP SWAP3 SWAP2 POP POP JUMP JUMPDEST PUSH0 PUSH2 0x2E2C DUP4 DUP4 PUSH2 0x2DDB JUMP JUMPDEST SWAP1 POP SWAP3 SWAP2 POP POP JUMP JUMPDEST PUSH0 PUSH1 0x2 DUP3 ADD SWAP1 POP SWAP2 SWAP1 POP JUMP JUMPDEST PUSH0 PUSH2 0x2E4A DUP3 PUSH2 0x2D06 JUMP JUMPDEST PUSH2 0x2E54 DUP2 DUP6 PUSH2 0x1C82 JUMP JUMPDEST SWAP4 POP DUP4 PUSH1 0x20 DUP3 MUL DUP6 ADD PUSH2 0x2E66 DUP6 PUSH2 0x2D10 JUMP JUMPDEST DUP1 PUSH0 JUMPDEST DUP6 DUP2 LT ISZERO PUSH2 0x2EA0 JUMPI DUP5 DUP5 SUB DUP10 MSTORE DUP2 PUSH2 0x2E81 DUP6 DUP3 PUSH2 0x2E21 JUMP JUMPDEST SWAP5 POP PUSH2 0x2E8C DUP4 PUSH2 0x2E34 JUMP JUMPDEST SWAP3 POP PUSH1 0x20 DUP11 ADD SWAP10 POP POP PUSH1 0x1 DUP2 ADD SWAP1 POP PUSH2 0x2E69 JUMP JUMPDEST POP DUP3 SWAP8 POP DUP8 SWAP6 POP POP POP POP POP POP SWAP3 SWAP2 POP POP JUMP JUMPDEST PUSH0 PUSH1 0xFF DUP3 AND SWAP1 POP SWAP2 SWAP1 POP JUMP JUMPDEST PUSH0 PUSH2 0x2ED0 PUSH2 0x2ECB DUP4 PUSH2 0x2C89 JUMP JUMPDEST PUSH2 0x2EB2 JUMP JUMPDEST SWAP1 POP SWAP2 SWAP1 POP JUMP JUMPDEST PUSH0 PUSH1 0xA0 DUP4 ADD PUSH0 PUSH0 DUP5 ADD SLOAD SWAP1 POP PUSH2 0x2EEC DUP2 PUSH2 0x2CA3 JUMP JUMPDEST PUSH2 0x2EF8 PUSH0 DUP8 ADD DUP3 PUSH2 0x1C73 JUMP JUMPDEST POP PUSH2 0x2F02 DUP2 PUSH2 0x2CC8 JUMP JUMPDEST PUSH2 0x2F0F PUSH1 0x20 DUP8 ADD DUP3 PUSH2 0x1C73 JUMP JUMPDEST POP PUSH2 0x2F19 DUP2 PUSH2 0x2CED JUMP JUMPDEST PUSH2 0x2F26 PUSH1 0x40 DUP8 ADD DUP3 PUSH2 0x1C73 JUMP JUMPDEST POP PUSH1 0x1 DUP5 ADD DUP6 DUP4 SUB PUSH1 0x60 DUP8 ADD MSTORE PUSH2 0x2F3D DUP4 DUP3 PUSH2 0x2E40 JUMP JUMPDEST SWAP3 POP POP PUSH1 0x2 DUP5 ADD SLOAD SWAP1 POP PUSH2 0x2F50 DUP2 PUSH2 0x2EBE JUMP JUMPDEST PUSH2 0x2F5D PUSH1 0x80 DUP8 ADD DUP3 PUSH2 0x1D11 JUMP JUMPDEST POP DUP2 SWAP3 POP POP POP SWAP3 SWAP2 POP POP JUMP JUMPDEST PUSH0 PUSH1 0x20 DUP3 ADD SWAP1 POP DUP2 DUP2 SUB PUSH0 DUP4 ADD MSTORE PUSH2 0x2F81 DUP2 DUP5 PUSH2 0x2ED7 JUMP JUMPDEST SWAP1 POP SWAP3 SWAP2 POP POP JUMP JUMPDEST PUSH32 0x4E6F207369676E61747572657300000000000000000000000000000000000000 PUSH0 DUP3 ADD MSTORE POP JUMP JUMPDEST PUSH0 PUSH2 0x2FBD PUSH1 0xD DUP4 PUSH2 0x27A8 JUMP JUMPDEST SWAP2 POP PUSH2 0x2FC8 DUP3 PUSH2 0x2F89 JUMP JUMPDEST PUSH1 0x20 DUP3 ADD SWAP1 POP SWAP2 SWAP1 POP JUMP JUMPDEST PUSH0 PUSH1 0x20 DUP3 ADD SWAP1 POP DUP2 DUP2 SUB PUSH0 DUP4 ADD MSTORE PUSH2 0x2FEA DUP2 PUSH2 0x2FB1 JUMP JUMPDEST SWAP1 POP SWAP2 SWAP1 POP JUMP JUMPDEST PUSH32 0x4E756D626572206F66207369676E617475726573206E6F7420657175616C2074 PUSH0 DUP3 ADD MSTORE PUSH32 0x6F206E756D626572206F66207769746E65737365730000000000000000000000 PUSH1 0x20 DUP3 ADD MSTORE POP JUMP JUMPDEST PUSH0 PUSH2 0x304B PUSH1 0x35 DUP4 PUSH2 0x27A8 JUMP JUMPDEST SWAP2 POP PUSH2 0x3056 DUP3 PUSH2 0x2FF1 JUMP JUMPDEST PUSH1 0x40 DUP3 ADD SWAP1 POP SWAP2 SWAP1 POP JUMP JUMPDEST PUSH0 PUSH1 0x20 DUP3 ADD SWAP1 POP DUP2 DUP2 SUB PUSH0 DUP4 ADD MSTORE PUSH2 0x3078 DUP2 PUSH2 0x303F JUMP JUMPDEST SWAP1 POP SWAP2 SWAP1 POP JUMP JUMPDEST PUSH32 0x5369676E6174757265206E6F7420617070726F70726961746500000000000000 PUSH0 DUP3 ADD MSTORE POP JUMP JUMPDEST PUSH0 PUSH2 0x30B3 PUSH1 0x19 DUP4 PUSH2 0x27A8 JUMP JUMPDEST SWAP2 POP PUSH2 0x30BE DUP3 PUSH2 0x307F JUMP JUMPDEST PUSH1 0x20 DUP3 ADD SWAP1 POP SWAP2 SWAP1 POP JUMP JUMPDEST PUSH0 PUSH1 0x20 DUP3 ADD SWAP1 POP DUP2 DUP2 SUB PUSH0 DUP4 ADD MSTORE PUSH2 0x30E0 DUP2 PUSH2 0x30A7 JUMP JUMPDEST SWAP1 POP SWAP2 SWAP1 POP JUMP JUMPDEST PUSH0 PUSH2 0x30F1 DUP3 PUSH2 0x242B JUMP JUMPDEST SWAP2 POP PUSH2 0x30FC DUP4 PUSH2 0x242B JUMP JUMPDEST SWAP3 POP DUP3 DUP3 MUL PUSH2 0x310A DUP2 PUSH2 0x242B JUMP JUMPDEST SWAP2 POP DUP3 DUP3 DIV DUP5 EQ DUP4 ISZERO OR PUSH2 0x3121 JUMPI PUSH2 0x3120 PUSH2 0x2681 JUMP JUMPDEST JUMPDEST POP SWAP3 SWAP2 POP POP JUMP JUMPDEST PUSH0 PUSH2 0x3132 DUP3 PUSH2 0x242B JUMP JUMPDEST SWAP2 POP PUSH2 0x313D DUP4 PUSH2 0x242B JUMP JUMPDEST SWAP3 POP DUP3 PUSH2 0x314D JUMPI PUSH2 0x314C PUSH2 0x25F7 JUMP JUMPDEST JUMPDEST DUP3 DUP3 DIV SWAP1 POP SWAP3 SWAP2 POP POP JUMP JUMPDEST PUSH32 0x3078000000000000000000000000000000000000000000000000000000000000 PUSH0 DUP3 ADD MSTORE POP JUMP JUMPDEST PUSH0 PUSH2 0x318C PUSH1 0x2 DUP4 PUSH2 0x2515 JUMP JUMPDEST SWAP2 POP PUSH2 0x3197 DUP3 PUSH2 0x3158 JUMP JUMPDEST PUSH1 0x2 DUP3 ADD SWAP1 POP SWAP2 SWAP1 POP JUMP JUMPDEST PUSH0 DUP2 MLOAD SWAP1 POP SWAP2 SWAP1 POP JUMP JUMPDEST PUSH0 DUP2 SWAP1 POP SWAP3 SWAP2 POP POP JUMP JUMPDEST PUSH0 PUSH2 0x31C0 DUP3 PUSH2 0x31A2 JUMP JUMPDEST PUSH2 0x31CA DUP2 DUP6 PUSH2 0x31AC JUMP JUMPDEST SWAP4 POP PUSH2 0x31DA DUP2 DUP6 PUSH1 0x20 DUP7 ADD PUSH2 0x1ADE JUMP JUMPDEST DUP1 DUP5 ADD SWAP2 POP POP SWAP3 SWAP2 POP POP JUMP JUMPDEST PUSH0 PUSH2 0x31F0 DUP3 PUSH2 0x3180 JUMP JUMPDEST SWAP2 POP PUSH2 0x31FC DUP3 DUP5 PUSH2 0x31B6 JUMP JUMPDEST SWAP2 POP DUP2 SWAP1 POP SWAP3 SWAP2 POP POP JUMP JUMPDEST PUSH0 PUSH2 0x3211 DUP3 PUSH2 0x242B JUMP JUMPDEST SWAP2 POP PUSH32 0xFFFFFFFFFFFFFFFFFFFFFFFFFFFFFFFFFFFFFFFFFFFFFFFFFFFFFFFFFFFFFFFF DUP3 SUB PUSH2 0x3243 JUMPI PUSH2 0x3242 PUSH2 0x2681 JUMP JUMPDEST JUMPDEST PUSH1 0x1 DUP3 ADD SWAP1 POP SWAP2 SWAP1 POP JUMP JUMPDEST PUSH0 PUSH2 0x3258 DUP3 PUSH2 0x1D05 JUMP JUMPDEST SWAP2 POP PUSH2 0x3263 DUP4 PUSH2 0x1D05 JUMP JUMPDEST SWAP3 POP DUP3 DUP3 ADD SWAP1 POP PUSH1 0xFF DUP2 GT ISZERO PUSH2 0x327C JUMPI PUSH2 0x327B PUSH2 0x2681 JUMP JUMPDEST JUMPDEST SWAP3 SWAP2 POP POP JUMP JUMPDEST PUSH32 0x4F6666736574202B2034206D7573742062652077697468696E20646174612062 PUSH0 DUP3 ADD MSTORE PUSH32 0x6F756E6473000000000000000000000000000000000000000000000000000000 PUSH1 0x20 DUP3 ADD MSTORE POP JUMP JUMPDEST PUSH0 PUSH2 0x32DC PUSH1 0x25 DUP4 PUSH2 0x27A8 JUMP JUMPDEST SWAP2 POP PUSH2 0x32E7 DUP3 PUSH2 0x3282 JUMP JUMPDEST PUSH1 0x40 DUP3 ADD SWAP1 POP SWAP2 SWAP1 POP JUMP JUMPDEST PUSH0 PUSH1 0x20 DUP3 ADD SWAP1 POP DUP2 DUP2 SUB PUSH0 DUP4 ADD MSTORE PUSH2 0x3309 DUP2 PUSH2 0x32D0 JUMP JUMPDEST SWAP1 POP SWAP2 SWAP1 POP JUMP JUMPDEST PUSH0 PUSH2 0x331B DUP3 DUP7 PUSH2 0x251F JUMP JUMPDEST SWAP2 POP PUSH2 0x3326 DUP3 PUSH2 0x2577 JUMP JUMPDEST SWAP2 POP PUSH2 0x3332 DUP3 DUP6 PUSH2 0x251F JUMP JUMPDEST SWAP2 POP PUSH2 0x333D DUP3 PUSH2 0x2577 JUMP JUMPDEST SWAP2 POP PUSH2 0x3349 DUP3 DUP5 PUSH2 0x251F JUMP JUMPDEST SWAP2 POP DUP2 SWAP1 POP SWAP5 SWAP4 POP POP POP POP JUMP JUMPDEST PUSH32 0x19457468657265756D205369676E6564204D6573736167653A0A000000000000 PUSH0 DUP3 ADD MSTORE POP JUMP JUMPDEST PUSH0 PUSH2 0x338A PUSH1 0x1A DUP4 PUSH2 0x2515 JUMP JUMPDEST SWAP2 POP PUSH2 0x3395 DUP3 PUSH2 0x3356 JUMP JUMPDEST PUSH1 0x1A DUP3 ADD SWAP1 POP SWAP2 SWAP1 POP JUMP JUMPDEST PUSH0 PUSH2 0x33AA DUP3 PUSH2 0x337E JUMP JUMPDEST SWAP2 POP PUSH2 0x33B6 DUP3 DUP6 PUSH2 0x251F JUMP JUMPDEST SWAP2 POP PUSH2 0x33C2 DUP3 DUP5 PUSH2 0x31B6 JUMP JUMPDEST SWAP2 POP DUP2 SWAP1 POP SWAP4 SWAP3 POP POP POP JUMP JUMPDEST PUSH0 DUP2 PUSH1 0x1 SHR SWAP1 POP SWAP2 SWAP1 POP JUMP JUMPDEST PUSH0 PUSH0 DUP3 SWAP2 POP DUP4 SWAP1 POP JUMPDEST PUSH1 0x1 DUP6 GT ISZERO PUSH2 0x3423 JUMPI DUP1 DUP7 DIV DUP2 GT ISZERO PUSH2 0x33FF JUMPI PUSH2 0x33FE PUSH2 0x2681 JUMP JUMPDEST JUMPDEST PUSH1 0x1 DUP6 AND ISZERO PUSH2 0x340E JUMPI DUP1 DUP3 MUL SWAP2 POP JUMPDEST DUP1 DUP2 MUL SWAP1 POP PUSH2 0x341C DUP6 PUSH2 0x33CE JUMP JUMPDEST SWAP5 POP PUSH2 0x33E3 JUMP JUMPDEST SWAP5 POP SWAP5 SWAP3 POP POP POP JUMP JUMPDEST PUSH0 DUP3 PUSH2 0x343B JUMPI PUSH1 0x1 SWAP1 POP PUSH2 0x34F6 JUMP JUMPDEST DUP2 PUSH2 0x3448 JUMPI PUSH0 SWAP1 POP PUSH2 0x34F6 JUMP JUMPDEST DUP2 PUSH1 0x1 DUP2 EQ PUSH2 0x345E JUMPI PUSH1 0x2 DUP2 EQ PUSH2 0x3468 JUMPI PUSH2 0x3497 JUMP JUMPDEST PUSH1 0x1 SWAP2 POP POP PUSH2 0x34F6 JUMP JUMPDEST PUSH1 0xFF DUP5 GT ISZERO PUSH2 0x347A JUMPI PUSH2 0x3479 PUSH2 0x2681 JUMP JUMPDEST JUMPDEST DUP4 PUSH1 0x2 EXP SWAP2 POP DUP5 DUP3 GT ISZERO PUSH2 0x3491 JUMPI PUSH2 0x3490 PUSH2 0x2681 JUMP JUMPDEST JUMPDEST POP PUSH2 0x34F6 JUMP JUMPDEST POP PUSH1 0x20 DUP4 LT PUSH2 0x133 DUP4 LT AND PUSH1 0x4E DUP5 LT PUSH1 0xB DUP5 LT AND OR ISZERO PUSH2 0x34CC JUMPI DUP3 DUP3 EXP SWAP1 POP DUP4 DUP2 GT ISZERO PUSH2 0x34C7 JUMPI PUSH2 0x34C6 PUSH2 0x2681 JUMP JUMPDEST JUMPDEST PUSH2 0x34F6 JUMP JUMPDEST PUSH2 0x34D9 DUP5 DUP5 DUP5 PUSH1 0x1 PUSH2 0x33DA JUMP JUMPDEST SWAP3 POP SWAP1 POP DUP2 DUP5 DIV DUP2 GT ISZERO PUSH2 0x34F0 JUMPI PUSH2 0x34EF PUSH2 0x2681 JUMP JUMPDEST JUMPDEST DUP2 DUP2 MUL SWAP1 POP JUMPDEST SWAP4 SWAP3 POP POP POP JUMP JUMPDEST PUSH0 PUSH2 0x3507 DUP3 PUSH2 0x242B JUMP JUMPDEST SWAP2 POP PUSH2 0x3512 DUP4 PUSH2 0x242B JUMP JUMPDEST SWAP3 POP PUSH2 0x353F PUSH32 0xFFFFFFFFFFFFFFFFFFFFFFFFFFFFFFFFFFFFFFFFFFFFFFFFFFFFFFFFFFFFFFFF DUP5 DUP5 PUSH2 0x342C JUMP JUMPDEST SWAP1 POP SWAP3 SWAP2 POP POP JUMP JUMPDEST PUSH0 PUSH2 0x3551 DUP3 PUSH2 0x1D05 JUMP JUMPDEST SWAP2 POP PUSH2 0x355C DUP4 PUSH2 0x1D05 JUMP JUMPDEST SWAP3 POP DUP3 PUSH2 0x356C JUMPI PUSH2 0x356B PUSH2 0x25F7 JUMP JUMPDEST JUMPDEST DUP3 DUP3 DIV SWAP1 POP SWAP3 SWAP2 POP POP JUMP JUMPDEST PUSH0 PUSH2 0x3581 DUP3 PUSH2 0x1D05 JUMP JUMPDEST SWAP2 POP PUSH2 0x358C DUP4 PUSH2 0x1D05 JUMP JUMPDEST SWAP3 POP DUP3 DUP3 MUL PUSH2 0x359A DUP2 PUSH2 0x1D05 JUMP JUMPDEST SWAP2 POP DUP1 DUP3 EQ PUSH2 0x35AC JUMPI PUSH2 0x35AB PUSH2 0x2681 JUMP JUMPDEST JUMPDEST POP SWAP3 SWAP2 POP POP JUMP JUMPDEST PUSH0 PUSH2 0x35BD DUP3 PUSH2 0x1D05 JUMP JUMPDEST SWAP2 POP PUSH2 0x35C8 DUP4 PUSH2 0x1D05 JUMP JUMPDEST SWAP3 POP DUP3 DUP3 SUB SWAP1 POP PUSH1 0xFF DUP2 GT ISZERO PUSH2 0x35E1 JUMPI PUSH2 0x35E0 PUSH2 0x2681 JUMP JUMPDEST JUMPDEST SWAP3 SWAP2 POP POP JUMP JUMPDEST PUSH32 0x4E487B7100000000000000000000000000000000000000000000000000000000 PUSH0 MSTORE PUSH1 0x21 PUSH1 0x4 MSTORE PUSH1 0x24 PUSH0 REVERT JUMPDEST PUSH2 0x361D DUP2 PUSH2 0x242B JUMP JUMPDEST DUP3 MSTORE POP POP JUMP JUMPDEST PUSH0 PUSH1 0x20 DUP3 ADD SWAP1 POP PUSH2 0x3636 PUSH0 DUP4 ADD DUP5 PUSH2 0x3614 JUMP JUMPDEST SWAP3 SWAP2 POP POP JUMP JUMPDEST PUSH2 0x3645 DUP2 PUSH2 0x19D9 JUMP JUMPDEST DUP3 MSTORE POP POP JUMP JUMPDEST PUSH0 PUSH1 0x20 DUP3 ADD SWAP1 POP PUSH2 0x365E PUSH0 DUP4 ADD DUP5 PUSH2 0x363C JUMP JUMPDEST SWAP3 SWAP2 POP POP JUMP JUMPDEST PUSH0 PUSH1 0x80 DUP3 ADD SWAP1 POP PUSH2 0x3677 PUSH0 DUP4 ADD DUP8 PUSH2 0x363C JUMP JUMPDEST PUSH2 0x3684 PUSH1 0x20 DUP4 ADD DUP7 PUSH2 0x2489 JUMP JUMPDEST PUSH2 0x3691 PUSH1 0x40 DUP4 ADD DUP6 PUSH2 0x363C JUMP JUMPDEST PUSH2 0x369E PUSH1 0x60 DUP4 ADD DUP5 PUSH2 0x363C JUMP JUMPDEST SWAP6 SWAP5 POP POP POP POP POP JUMP INVALID LOG2 PUSH5 0x6970667358 0x22 SLT KECCAK256 STATICCALL 0xE0 0xC 0xDF SWAP16 0xAD SWAP12 PUSH17 0xC144972B537F53C93F437EF91490B078DB PUSH7 0xFD92C3CC13A664 PUSH20 0x6F6C634300081B00330000000000000000000000 "
		},
		"gasEstimates": {
			"creation": {
				"codeDepositCost": "2809000",
				"executionCost": "75957",
				"totalCost": "2884957"
			},
			"external": {
				"addNewEpoch((address,string)[],uint8)": "infinite",
				"currentEpoch()": "2517",
				"epochDurationS()": "2489",
				"epochs(uint256)": "infinite",
				"fetchEpoch(uint32)": "infinite",
				"fetchWitnessesForClaim(uint32,bytes32,uint32)": "infinite",
				"owner()": "2581",
				"verifyProof(((string,string,string),((bytes32,address,uint32,uint32),bytes[])))": "infinite"
			},
			"internal": {
				"uintDifference(uint256,uint256)": "infinite"
			}
		},
		"methodIdentifiers": {
			"addNewEpoch((address,string)[],uint8)": "4729504c",
			"currentEpoch()": "76671808",
			"epochDurationS()": "289989fd",
			"epochs(uint256)": "c6b61e4c",
			"fetchEpoch(uint32)": "3d3c3e07",
			"fetchWitnessesForClaim(uint32,bytes32,uint32)": "10abbe56",
			"owner()": "8da5cb5b",
			"verifyProof(((string,string,string),((bytes32,address,uint32,uint32),bytes[])))": "a960e69e"
		}
	},
	"abi": [
		{
			"inputs": [],
			"stateMutability": "nonpayable",
			"type": "constructor"
		},
		{
			"inputs": [],
			"name": "ECDSAInvalidSignature",
			"type": "error"
		},
		{
			"inputs": [
				{
					"internalType": "uint256",
					"name": "length",
					"type": "uint256"
				}
			],
			"name": "ECDSAInvalidSignatureLength",
			"type": "error"
		},
		{
			"inputs": [
				{
					"internalType": "bytes32",
					"name": "s",
					"type": "bytes32"
				}
			],
			"name": "ECDSAInvalidSignatureS",
			"type": "error"
		},
		{
			"anonymous": false,
			"inputs": [
				{
					"components": [
						{
							"internalType": "uint32",
							"name": "id",
							"type": "uint32"
						},
						{
							"internalType": "uint32",
							"name": "timestampStart",
							"type": "uint32"
						},
						{
							"internalType": "uint32",
							"name": "timestampEnd",
							"type": "uint32"
						},
						{
							"components": [
								{
									"internalType": "address",
									"name": "addr",
									"type": "address"
								},
								{
									"internalType": "string",
									"name": "host",
									"type": "string"
								}
							],
							"internalType": "struct Reclaim.Witness[]",
							"name": "witnesses",
							"type": "tuple[]"
						},
						{
							"internalType": "uint8",
							"name": "minimumWitnessesForClaimCreation",
							"type": "uint8"
						}
					],
					"indexed": false,
					"internalType": "struct Reclaim.Epoch",
					"name": "epoch",
					"type": "tuple"
				}
			],
			"name": "EpochAdded",
			"type": "event"
		},
		{
			"inputs": [
				{
					"components": [
						{
							"internalType": "address",
							"name": "addr",
							"type": "address"
						},
						{
							"internalType": "string",
							"name": "host",
							"type": "string"
						}
					],
					"internalType": "struct Reclaim.Witness[]",
					"name": "witnesses",
					"type": "tuple[]"
				},
				{
					"internalType": "uint8",
					"name": "requisiteWitnessesForClaimCreate",
					"type": "uint8"
				}
			],
			"name": "addNewEpoch",
			"outputs": [],
			"stateMutability": "nonpayable",
			"type": "function"
		},
		{
			"inputs": [],
			"name": "currentEpoch",
			"outputs": [
				{
					"internalType": "uint32",
					"name": "",
					"type": "uint32"
				}
			],
			"stateMutability": "view",
			"type": "function"
		},
		{
			"inputs": [],
			"name": "epochDurationS",
			"outputs": [
				{
					"internalType": "uint32",
					"name": "",
					"type": "uint32"
				}
			],
			"stateMutability": "view",
			"type": "function"
		},
		{
			"inputs": [
				{
					"internalType": "uint256",
					"name": "",
					"type": "uint256"
				}
			],
			"name": "epochs",
			"outputs": [
				{
					"internalType": "uint32",
					"name": "id",
					"type": "uint32"
				},
				{
					"internalType": "uint32",
					"name": "timestampStart",
					"type": "uint32"
				},
				{
					"internalType": "uint32",
					"name": "timestampEnd",
					"type": "uint32"
				},
				{
					"internalType": "uint8",
					"name": "minimumWitnessesForClaimCreation",
					"type": "uint8"
				}
			],
			"stateMutability": "view",
			"type": "function"
		},
		{
			"inputs": [
				{
					"internalType": "uint32",
					"name": "epoch",
					"type": "uint32"
				}
			],
			"name": "fetchEpoch",
			"outputs": [
				{
					"components": [
						{
							"internalType": "uint32",
							"name": "id",
							"type": "uint32"
						},
						{
							"internalType": "uint32",
							"name": "timestampStart",
							"type": "uint32"
						},
						{
							"internalType": "uint32",
							"name": "timestampEnd",
							"type": "uint32"
						},
						{
							"components": [
								{
									"internalType": "address",
									"name": "addr",
									"type": "address"
								},
								{
									"internalType": "string",
									"name": "host",
									"type": "string"
								}
							],
							"internalType": "struct Reclaim.Witness[]",
							"name": "witnesses",
							"type": "tuple[]"
						},
						{
							"internalType": "uint8",
							"name": "minimumWitnessesForClaimCreation",
							"type": "uint8"
						}
					],
					"internalType": "struct Reclaim.Epoch",
					"name": "",
					"type": "tuple"
				}
			],
			"stateMutability": "view",
			"type": "function"
		},
		{
			"inputs": [
				{
					"internalType": "uint32",
					"name": "epoch",
					"type": "uint32"
				},
				{
					"internalType": "bytes32",
					"name": "identifier",
					"type": "bytes32"
				},
				{
					"internalType": "uint32",
					"name": "timestampS",
					"type": "uint32"
				}
			],
			"name": "fetchWitnessesForClaim",
			"outputs": [
				{
					"components": [
						{
							"internalType": "address",
							"name": "addr",
							"type": "address"
						},
						{
							"internalType": "string",
							"name": "host",
							"type": "string"
						}
					],
					"internalType": "struct Reclaim.Witness[]",
					"name": "",
					"type": "tuple[]"
				}
			],
			"stateMutability": "view",
			"type": "function"
		},
		{
			"inputs": [],
			"name": "owner",
			"outputs": [
				{
					"internalType": "address",
					"name": "",
					"type": "address"
				}
			],
			"stateMutability": "view",
			"type": "function"
		},
		{
			"inputs": [
				{
					"components": [
						{
							"components": [
								{
									"internalType": "string",
									"name": "provider",
									"type": "string"
								},
								{
									"internalType": "string",
									"name": "parameters",
									"type": "string"
								},
								{
									"internalType": "string",
									"name": "context",
									"type": "string"
								}
							],
							"internalType": "struct Claims.ClaimInfo",
							"name": "claimInfo",
							"type": "tuple"
						},
						{
							"components": [
								{
									"components": [
										{
											"internalType": "bytes32",
											"name": "identifier",
											"type": "bytes32"
										},
										{
											"internalType": "address",
											"name": "owner",
											"type": "address"
										},
										{
											"internalType": "uint32",
											"name": "timestampS",
											"type": "uint32"
										},
										{
											"internalType": "uint32",
											"name": "epoch",
											"type": "uint32"
										}
									],
									"internalType": "struct Claims.CompleteClaimData",
									"name": "claim",
									"type": "tuple"
								},
								{
									"internalType": "bytes[]",
									"name": "signatures",
									"type": "bytes[]"
								}
							],
							"internalType": "struct Claims.SignedClaim",
							"name": "signedClaim",
							"type": "tuple"
						}
					],
					"internalType": "struct Reclaim.Proof",
					"name": "proof",
					"type": "tuple"
				}
			],
			"name": "verifyProof",
			"outputs": [
				{
					"internalType": "bool",
					"name": "",
					"type": "bool"
				}
			],
			"stateMutability": "view",
			"type": "function"
		}
	]
}