{
	"data": {
		"bytecode": {
			"linkReferences": {},
			"object": "60a06040523073ffffffffffffffffffffffffffffffffffffffff1660809073ffffffffffffffffffffffffffffffffffffffff168152503480156041575f5ffd5b506080516157f56100685f395f81816123ba0152818161240f01526125c901526157f55ff3fe608060405260043610610134575f3560e01c806376671808116100aa578063ad3cb1cc1161006e578063ad3cb1cc1461041a578063c4d66de814610444578063c6b61e4c1461046c578063e367fc6a146104ab578063f2fde38b146104d3578063f7da2ac9146104fb57610134565b8063766718081461033a57806379ffdb1d146103645780638925affe1461038c5780638da5cb5b146103c8578063a960e69e146103f257610134565b80634f1ef286116100fc5780634f1ef2861461023e57806352d1902d1461025a5780635438243c146102845780635ee4a99e146102ac578063715018a6146102e8578063739c6891146102fe57610134565b806310abbe5614610138578063289989fd146101745780633755667e1461019e5780633d3c3e07146101da5780634729504c14610216575b5f5ffd5b348015610143575f5ffd5b5061015e6004803603810190610159919061343c565b610525565b60405161016b9190613630565b60405180910390f35b34801561017f575f5ffd5b5061018861074c565b604051610195919061365f565b60405180910390f35b3480156101a9575f5ffd5b506101c460048036038101906101bf91906137a4565b610762565b6040516101d19190613862565b60405180910390f35b3480156101e5575f5ffd5b5061020060048036038101906101fb9190613882565b610be1565b60405161020d91906139cd565b60405180910390f35b348015610221575f5ffd5b5061023c60048036038101906102379190613a74565b61100f565b005b61025860048036038101906102539190613b99565b6112b3565b005b348015610265575f5ffd5b5061026e6112d2565b60405161027b9190613c02565b60405180910390f35b34801561028f575f5ffd5b506102aa60048036038101906102a59190613c4e565b611303565b005b3480156102b7575f5ffd5b506102d260048036038101906102cd9190613f77565b6113c9565b6040516102df9190613862565b60405180910390f35b3480156102f3575f5ffd5b506102fc6113d9565b005b348015610309575f5ffd5b50610324600480360381019061031f91906137a4565b6113ec565b6040516103319190613fd8565b60405180910390f35b348015610345575f5ffd5b5061034e611421565b60405161035b919061365f565b60405180910390f35b34801561036f575f5ffd5b5061038a60048036038101906103859190613ff1565b611437565b005b348015610397575f5ffd5b506103b260048036038101906103ad919061406c565b61163c565b6040516103bf9190613fd8565b60405180910390f35b3480156103d3575f5ffd5b506103dc611746565b6040516103e99190614135565b60405180910390f35b3480156103fd575f5ffd5b5061041860048036038101906104139190613f77565b61177b565b005b348015610425575f5ffd5b5061042e611a6d565b60405161043b9190613862565b60405180910390f35b34801561044f575f5ffd5b5061046a6004803603810190610465919061414e565b611aa6565b005b348015610477575f5ffd5b50610492600480360381019061048d9190613c4e565b611cac565b6040516104a29493929190614188565b60405180910390f35b3480156104b6575f5ffd5b506104d160048036038101906104cc91906141cb565b611d1f565b005b3480156104de575f5ffd5b506104f960048036038101906104f4919061414e565b611e82565b005b348015610506575f5ffd5b5061050f611f06565b60405161051c9190614135565b60405180910390f35b60605f61053185610be1565b90505f61055c856040516020016105489190614245565b604051602081830303815290604052611f2b565b61056b8763ffffffff16612148565b61057b846080015160ff16612148565b61058a8763ffffffff16612148565b60405160200161059d94939291906142e3565b60405160208183030381529060405290505f81805190602001206040516020016105c79190614245565b60405160208183030381529060405290505f836060015190505f846080015160ff1667ffffffffffffffff81111561060257610601613680565b5b60405190808252806020026020018201604052801561063b57816020015b610628613350565b8152602001906001900390816106205790505b5090505f825190505f5f90505f5f90505b876080015160ff168163ffffffff16101561073a575f61066c87846122c6565b90505f848261067b919061436e565b90508681815181106106905761068f61439e565b5b6020026020010151868463ffffffff16815181106106b1576106b061439e565b5b6020026020010181905250866001866106ca91906143f8565b815181106106db576106da61439e565b5b60200260200101518782815181106106f6576106f561439e565b5b60200260200101819052508751600485610710919061442b565b61071a919061436e565b935060018561072991906143f8565b94505050808060010191505061064c565b50829750505050505050509392505050565b600160149054906101000a900463ffffffff1681565b60605f8390505f8390508051825110156107b1576040517f08c379a00000000000000000000000000000000000000000000000000000000081526004016107a8906144a8565b60405180910390fd5b5f5f90505f5f90505f5f90505b835185516107cc91906143f8565b81116108c9575f600190505f5f90505b8551811080156107e95750815b15610895578581815181106108015761080061439e565b5b602001015160f81c60f81b7effffffffffffffffffffffffffffffffffffffffffffffffffffffffffffff191687828561083b919061442b565b8151811061084c5761084b61439e565b5b602001015160f81c60f81b7effffffffffffffffffffffffffffffffffffffffffffffffffffffffffffff191614610882575f91505b808061088d906144c6565b9150506107dc565b5080156108b5578451826108a9919061442b565b935060019250506108c9565b5080806108c1906144c6565b9150506107be565b50806108e95760405180602001604052805f815250945050505050610bdb565b5f8290505b8451811080156109d457507f220000000000000000000000000000000000000000000000000000000000000085828151811061092d5761092c61439e565b5b602001015160f81c60f81b7effffffffffffffffffffffffffffffffffffffffffffffffffffffffffffff19161480156109d257507f5c000000000000000000000000000000000000000000000000000000000000008560018361099191906143f8565b815181106109a2576109a161439e565b5b602001015160f81c60f81b7effffffffffffffffffffffffffffffffffffffffffffffffffffffffffffff191614155b155b156109ec5780806109e4906144c6565b9150506108ee565b8281111580610ad157507f2200000000000000000000000000000000000000000000000000000000000000858281518110610a2a57610a2961439e565b5b602001015160f81c60f81b7effffffffffffffffffffffffffffffffffffffffffffffffffffffffffffff1916148015610acf57507f5c0000000000000000000000000000000000000000000000000000000000000085600183610a8e91906143f8565b81518110610a9f57610a9e61439e565b5b602001015160f81c60f81b7effffffffffffffffffffffffffffffffffffffffffffffffffffffffffffff191614155b155b15610af15760405180602001604052805f81525095505050505050610bdb565b5f8382610afe91906143f8565b67ffffffffffffffff811115610b1757610b16613680565b5b6040519080825280601f01601f191660200182016040528015610b495781602001600182028036833780820191505090505b5090505f8490505b82811015610bd057868181518110610b6c57610b6b61439e565b5b602001015160f81c60f81b828683610b8491906143f8565b81518110610b9557610b9461439e565b5b60200101907effffffffffffffffffffffffffffffffffffffffffffffffffffffffffffff191690815f1a9053508080600101915050610b51565b508096505050505050505b92915050565b610be961337f565b5f8263ffffffff1603610e01575f60015f80549050610c0891906143f8565b81548110610c1957610c1861439e565b5b905f5260205f2090600302016040518060a00160405290815f82015f9054906101000a900463ffffffff1663ffffffff1663ffffffff1681526020015f820160049054906101000a900463ffffffff1663ffffffff1663ffffffff1681526020015f820160089054906101000a900463ffffffff1663ffffffff1663ffffffff16815260200160018201805480602002602001604051908101604052809291908181526020015f905b82821015610dd6578382905f5260205f2090600202016040518060400160405290815f82015f9054906101000a900473ffffffffffffffffffffffffffffffffffffffff1673ffffffffffffffffffffffffffffffffffffffff1673ffffffffffffffffffffffffffffffffffffffff168152602001600182018054610d479061453a565b80601f0160208091040260200160405190810160405280929190818152602001828054610d739061453a565b8015610dbe5780601f10610d9557610100808354040283529160200191610dbe565b820191905f5260205f20905b815481529060010190602001808311610da157829003601f168201915b50505050508152505081526020019060010190610cc2565b505050508152602001600282015f9054906101000a900460ff1660ff1660ff1681525050905061100a565b5f600183610e0f919061456a565b63ffffffff1681548110610e2657610e2561439e565b5b905f5260205f2090600302016040518060a00160405290815f82015f9054906101000a900463ffffffff1663ffffffff1663ffffffff1681526020015f820160049054906101000a900463ffffffff1663ffffffff1663ffffffff1681526020015f820160089054906101000a900463ffffffff1663ffffffff1663ffffffff16815260200160018201805480602002602001604051908101604052809291908181526020015f905b82821015610fe3578382905f5260205f2090600202016040518060400160405290815f82015f9054906101000a900473ffffffffffffffffffffffffffffffffffffffff1673ffffffffffffffffffffffffffffffffffffffff1673ffffffffffffffffffffffffffffffffffffffff168152602001600182018054610f549061453a565b80601f0160208091040260200160405190810160405280929190818152602001828054610f809061453a565b8015610fcb5780601f10610fa257610100808354040283529160200191610fcb565b820191905f5260205f20905b815481529060010190602001808311610fae57829003601f168201915b50505050508152505081526020019060010190610ecf565b505050508152602001600282015f9054906101000a900460ff1660ff1660ff168152505090505b919050565b611017612331565b5f600160149054906101000a900463ffffffff1663ffffffff160361105b5762015180600160146101000a81548163ffffffff021916908363ffffffff1602179055505b5f5f8054905011156110b857425f60015f8054905061107a91906143f8565b8154811061108b5761108a61439e565b5b905f5260205f2090600302015f0160086101000a81548163ffffffff021916908363ffffffff1602179055505b60018060188282829054906101000a900463ffffffff166110d991906145a1565b92506101000a81548163ffffffff021916908363ffffffff1602179055505f5f60018160018154018082558091505003905f5260205f2090600302019050600160189054906101000a900463ffffffff16815f015f6101000a81548163ffffffff021916908363ffffffff16021790555042815f0160046101000a81548163ffffffff021916908363ffffffff160217905550600160149054906101000a900463ffffffff1663ffffffff1642611190919061442b565b815f0160086101000a81548163ffffffff021916908363ffffffff16021790555081816002015f6101000a81548160ff021916908360ff1602179055505f5f90505b8484905081101561124757816001018585838181106111f4576111f361439e565b5b905060200281019061120691906145e4565b908060018154018082558091505060019003905f5260205f2090600202015f90919091909150818161123891906149fc565b505080806001019150506111d2565b507fb2a1462b8d912a9fe495da7a1188c48bb87bac4644a0931aa4ce2dd7017ce3655f60015f8054905061127b91906143f8565b8154811061128c5761128b61439e565b5b905f5260205f2090600302016040516112a59190614cea565b60405180910390a150505050565b6112bb6123b8565b6112c48261249e565b6112ce82826124a9565b5050565b5f6112db6125c7565b7f360894a13ba1a3210667c828492db98dca3e2076cc3735a920a3ca505d382bbc5f1b905090565b5f3382604051602001611317929190614d6f565b6040516020818303038152906040528051906020012090508160065f8381526020019081526020015f205403611382576040517f08c379a000000000000000000000000000000000000000000000000000000000815260040161137990614de4565b60405180910390fd5b8160065f8381526020019081526020015f2081905550807fe1ba945d9cf27531473738a81cb433321b8fccb7aa326b0dd4f820c23a6d277f60405160405180910390a25050565b6060815f01515f01519050919050565b6113e1612331565b6113ea5f61264e565b565b5f5f6113f8848461271f565b905060055f8281526020019081526020015f205f9054906101000a900460ff1691505092915050565b600160189054906101000a900463ffffffff1681565b60045f9054906101000a900460ff1615611486576040517f08c379a000000000000000000000000000000000000000000000000000000000815260040161147d90614e4c565b60405180910390fd5b600160045f6101000a81548160ff0219169083151502179055505f6114b0835f01515f0151612792565b90505f6114ca845f01515f0151855f01516020015161271f565b90506001151560055f8381526020019081526020015f205f9054906101000a900460ff16151503611527576040517ffd2131a100000000000000000000000000000000000000000000000000000000815260040160405180910390fd5b6115308461177b565b6001151560025f8481526020019081526020015f205f9054906101000a900460ff1615151461156b5761156a845f01515f01516014611d1f565b5b60015f9054906101000a900473ffffffffffffffffffffffffffffffffffffffff1673ffffffffffffffffffffffffffffffffffffffff16631783efc383856040518363ffffffff1660e01b81526004016115c7929190614e79565b5f604051808303815f87803b1580156115de575f5ffd5b505af11580156115f0573d5f5f3e3d5ffd5b50505050600160055f8381526020019081526020015f205f6101000a81548160ff02191690831515021790555050505f60045f6101000a81548160ff0219169083151502179055505050565b5f8360065f8581526020019081526020015f205414611690576040517f08c379a000000000000000000000000000000000000000000000000000000000815260040161168790614eea565b60405180910390fd5b5f61169a89612792565b905060015f9054906101000a900473ffffffffffffffffffffffffffffffffffffffff1673ffffffffffffffffffffffffffffffffffffffff16633bc778e3828a8a8a8a896040518763ffffffff1660e01b815260040161170096959493929190614f22565b5f604051808303815f87803b158015611717575f5ffd5b505af1925050508015611728575060015b611735575f91505061173b565b60019150505b979650505050505050565b5f5f6117506127e6565b9050805f015f9054906101000a900473ffffffffffffffffffffffffffffffffffffffff1691505090565b5f81602001516020015151116117c6576040517f08c379a00000000000000000000000000000000000000000000000000000000081526004016117bd90614fcc565b60405180910390fd5b5f604051806040016040528083602001515f0151815260200183602001516020015181525090505f6117fa835f015161280d565b90508083602001515f01515f015114611811575f5ffd5b5f61183d84602001515f01516060015185602001515f01515f015186602001515f015160400151610525565b90505f61184984612850565b9050815181511461188f576040517f08c379a00000000000000000000000000000000000000000000000000000000081526004016118869061505a565b60405180910390fd5b5f5f90505b8151811015611971575f5f90505b82518110156119635780820315611956578281815181106118c6576118c561439e565b5b602002602001015173ffffffffffffffffffffffffffffffffffffffff168383815181106118f7576118f661439e565b5b602002602001015173ffffffffffffffffffffffffffffffffffffffff1603611955576040517f08c379a000000000000000000000000000000000000000000000000000000000815260040161194c906150c2565b60405180910390fd5b5b80806001019150506118a2565b508080600101915050611894565b505f5f90505b846020015151811015611a65575f5f90505f5f90505b8451811015611a16578481815181106119a9576119a861439e565b5b60200260200101515f015173ffffffffffffffffffffffffffffffffffffffff168484815181106119dd576119dc61439e565b5b602002602001015173ffffffffffffffffffffffffffffffffffffffff1603611a095760019150611a16565b808060010191505061198d565b5080611a57576040517f08c379a0000000000000000000000000000000000000000000000000000000008152600401611a4e9061512a565b60405180910390fd5b508080600101915050611977565b505050505050565b6040518060400160405280600581526020017f352e302e3000000000000000000000000000000000000000000000000000000081525081565b5f611aaf612951565b90505f815f0160089054906101000a900460ff161590505f825f015f9054906101000a900467ffffffffffffffff1690505f5f8267ffffffffffffffff16148015611af75750825b90505f60018367ffffffffffffffff16148015611b2a57505f3073ffffffffffffffffffffffffffffffffffffffff163b145b905081158015611b38575080155b15611b6f576040517ff92ee8a900000000000000000000000000000000000000000000000000000000815260040160405180910390fd5b6001855f015f6101000a81548167ffffffffffffffff021916908367ffffffffffffffff1602179055508315611bbc576001855f0160086101000a81548160ff0219169083151502179055505b611bc533612978565b62015180600160146101000a81548163ffffffff021916908363ffffffff1602179055505f600160186101000a81548163ffffffff021916908363ffffffff1602179055508560015f6101000a81548173ffffffffffffffffffffffffffffffffffffffff021916908373ffffffffffffffffffffffffffffffffffffffff1602179055508315611ca4575f855f0160086101000a81548160ff0219169083151502179055507fc7f505b2f371ae2175ee4913f4499e1f2633a7b5936321eed1cdaeb6115181d26001604051611c9b9190615194565b60405180910390a15b505050505050565b5f8181548110611cba575f80fd5b905f5260205f2090600302015f91509050805f015f9054906101000a900463ffffffff1690805f0160049054906101000a900463ffffffff1690805f0160089054906101000a900463ffffffff1690806002015f9054906101000a900460ff16905084565b5f611d2983612792565b90506001151560025f8381526020019081526020015f205f9054906101000a900460ff16151503611d86576040517f8cdd92e900000000000000000000000000000000000000000000000000000000815260040160405180910390fd5b60015f9054906101000a900473ffffffffffffffffffffffffffffffffffffffff1673ffffffffffffffffffffffffffffffffffffffff16639c1121418284306040518463ffffffff1660e01b8152600401611de4939291906151ad565b5f604051808303815f87803b158015611dfb575f5ffd5b505af1158015611e0d573d5f5f3e3d5ffd5b50505050600160025f8381526020019081526020015f205f6101000a81548160ff02191690831515021790555082604051611e4891906151e2565b6040518091039020817fa27df82d27a5b2a66bcd0c6210f8024283ed1197a6d8e30372f8df2e487c376e60405160405180910390a3505050565b611e8a612331565b5f73ffffffffffffffffffffffffffffffffffffffff168173ffffffffffffffffffffffffffffffffffffffff1603611efa575f6040517f1e4fbdf7000000000000000000000000000000000000000000000000000000008152600401611ef19190614135565b60405180910390fd5b611f038161264e565b50565b60015f9054906101000a900473ffffffffffffffffffffffffffffffffffffffff1681565b60605f60028351611f3c91906151f8565b67ffffffffffffffff811115611f5557611f54613680565b5b6040519080825280601f01601f191660200182016040528015611f875781602001600182028036833780820191505090505b5090505f6040518060400160405280601081526020017f303132333435363738396162636465660000000000000000000000000000000081525090505f5f90505b845181101561211e57818251868381518110611fe757611fe661439e565b5b602001015160f81c60f81b60f81c60ff166120029190615239565b815181106120135761201261439e565b5b602001015160f81c60f81b8360028361202c91906151f8565b8151811061203d5761203c61439e565b5b60200101907effffffffffffffffffffffffffffffffffffffffffffffffffffffffffffff191690815f1a9053508182518683815181106120815761208061439e565b5b602001015160f81c60f81b60f81c60ff1661209c919061436e565b815181106120ad576120ac61439e565b5b602001015160f81c60f81b8360016002846120c891906151f8565b6120d2919061442b565b815181106120e3576120e261439e565b5b60200101907effffffffffffffffffffffffffffffffffffffffffffffffffffffffffffff191690815f1a9053508080600101915050611fc8565b508160405160200161213091906152f7565b60405160208183030381529060405292505050919050565b60605f820361218e576040518060400160405280600181526020017f300000000000000000000000000000000000000000000000000000000000000081525090506122c1565b5f8290505f5b5f82146121bd5780806121a6906144c6565b915050600a826121b69190615239565b9150612194565b5f8167ffffffffffffffff8111156121d8576121d7613680565b5b6040519080825280601f01601f19166020018201604052801561220a5781602001600182028036833780820191505090505b5090505f8290505b5f86146122b95760018161222691906143f8565b90505f600a80886122379190615239565b61224191906151f8565b8761224c91906143f8565b60306122589190615318565b90505f8160f81b9050808484815181106122755761227461439e565b5b60200101907effffffffffffffffffffffffffffffffffffffffffffffffffffffffffffff191690815f1a905350600a886122b09190615239565b97505050612212565b819450505050505b919050565b5f82516004836122d6919061442b565b1115612317576040517f08c379a000000000000000000000000000000000000000000000000000000000815260040161230e906153bc565b60405180910390fd5b5f8260048501015190508063ffffffff1691505092915050565b61233961298c565b73ffffffffffffffffffffffffffffffffffffffff16612357611746565b73ffffffffffffffffffffffffffffffffffffffff16146123b65761237a61298c565b6040517f118cdaa70000000000000000000000000000000000000000000000000000000081526004016123ad9190614135565b60405180910390fd5b565b7f000000000000000000000000000000000000000000000000000000000000000073ffffffffffffffffffffffffffffffffffffffff163073ffffffffffffffffffffffffffffffffffffffff16148061246557507f000000000000000000000000000000000000000000000000000000000000000073ffffffffffffffffffffffffffffffffffffffff1661244c612993565b73ffffffffffffffffffffffffffffffffffffffff1614155b1561249c576040517fe07c8dba00000000000000000000000000000000000000000000000000000000815260040160405180910390fd5b565b6124a6612331565b50565b8173ffffffffffffffffffffffffffffffffffffffff166352d1902d6040518163ffffffff1660e01b8152600401602060405180830381865afa92505050801561251157506040513d601f19601f8201168201806040525081019061250e91906153ee565b60015b61255257816040517f4c9c8ce30000000000000000000000000000000000000000000000000000000081526004016125499190614135565b60405180910390fd5b7f360894a13ba1a3210667c828492db98dca3e2076cc3735a920a3ca505d382bbc5f1b81146125b857806040517faa1d49a40000000000000000000000000000000000000000000000000000000081526004016125af9190613c02565b60405180910390fd5b6125c283836129e6565b505050565b7f000000000000000000000000000000000000000000000000000000000000000073ffffffffffffffffffffffffffffffffffffffff163073ffffffffffffffffffffffffffffffffffffffff161461264c576040517fe07c8dba00000000000000000000000000000000000000000000000000000000815260040160405180910390fd5b565b5f6126576127e6565b90505f815f015f9054906101000a900473ffffffffffffffffffffffffffffffffffffffff16905082825f015f6101000a81548173ffffffffffffffffffffffffffffffffffffffff021916908373ffffffffffffffffffffffffffffffffffffffff1602179055508273ffffffffffffffffffffffffffffffffffffffff168173ffffffffffffffffffffffffffffffffffffffff167f8be0079c531659141344cd1fd0a4f28419497f9722a3daafe3b4186f6b6457e060405160405180910390a3505050565b5f5f6040518060400160405280600181526020017f3a0000000000000000000000000000000000000000000000000000000000000081525090505f84828560405160200161276f93929190615419565b604051602081830303815290604052805190602001209050809250505092915050565b5f5f8290505f81805190602001206040516020016127b09190614245565b60405160208183030381529060405290505f6127d982600484516127d491906143f8565b6122c6565b9050809350505050919050565b5f7f9016d09d72d40fdae2fd8ceac6b6234c7706214fd39c1cd1e609a0528c199300905090565b5f5f825f01518360200151846040015160405160200161282f93929190615449565b60405160208183030381529060405290508080519060200120915050919050565b60605f61285f835f0151612a58565b90505f83602001515167ffffffffffffffff81111561288157612880613680565b5b6040519080825280602002602001820160405280156128af5781602001602082028036833780820191505090505b5090505f5f90505b846020015151811015612946576128ec83866020015183815181106128df576128de61439e565b5b6020026020010151612ae1565b8282815181106128ff576128fe61439e565b5b602002602001019073ffffffffffffffffffffffffffffffffffffffff16908173ffffffffffffffffffffffffffffffffffffffff168152505080806001019150506128b7565b508092505050919050565b5f7ff0c57e16840df040f15088dc2f81fe391c3923bec73e23a9662efc9c229c6a00905090565b612980612b2a565b61298981612b6a565b50565b5f33905090565b5f6129bf7f360894a13ba1a3210667c828492db98dca3e2076cc3735a920a3ca505d382bbc5f1b612bee565b5f015f9054906101000a900473ffffffffffffffffffffffffffffffffffffffff16905090565b6129ef82612bf7565b8173ffffffffffffffffffffffffffffffffffffffff167fbc7cd75a20ee27fd9adebab32041f755214dbc6bffa90cc0225b39da2e5c2d3b60405160405180910390a25f81511115612a4b57612a458282612cc0565b50612a54565b612a53612d40565b5b5050565b6060612a85825f0151604051602001612a719190614245565b604051602081830303815290604052611f2b565b612a928360200151612d7c565b612aa5846040015163ffffffff16612148565b612ab8856060015163ffffffff16612148565b604051602001612acb94939291906142e3565b6040516020818303038152906040529050919050565b5f5f612aed8451612148565b84604051602001612aff9291906154d9565b604051602081830303815290604052805190602001209050612b218184612f54565b91505092915050565b612b32612f7e565b612b68576040517fd7e6bcf800000000000000000000000000000000000000000000000000000000815260040160405180910390fd5b565b612b72612b2a565b5f73ffffffffffffffffffffffffffffffffffffffff168173ffffffffffffffffffffffffffffffffffffffff1603612be2575f6040517f1e4fbdf7000000000000000000000000000000000000000000000000000000008152600401612bd99190614135565b60405180910390fd5b612beb8161264e565b50565b5f819050919050565b5f8173ffffffffffffffffffffffffffffffffffffffff163b03612c5257806040517f4c9c8ce3000000000000000000000000000000000000000000000000000000008152600401612c499190614135565b60405180910390fd5b80612c7e7f360894a13ba1a3210667c828492db98dca3e2076cc3735a920a3ca505d382bbc5f1b612bee565b5f015f6101000a81548173ffffffffffffffffffffffffffffffffffffffff021916908373ffffffffffffffffffffffffffffffffffffffff16021790555050565b60605f5f8473ffffffffffffffffffffffffffffffffffffffff1684604051612ce99190615507565b5f60405180830381855af49150503d805f8114612d21576040519150601f19603f3d011682016040523d82523d5f602084013e612d26565b606091505b5091509150612d36858383612f9c565b9250505092915050565b5f341115612d7a576040517fb398979f00000000000000000000000000000000000000000000000000000000815260040160405180910390fd5b565b60605f602867ffffffffffffffff811115612d9a57612d99613680565b5b6040519080825280601f01601f191660200182016040528015612dcc5781602001600182028036833780820191505090505b5090505f5f90505b6014811015612f2b575f816013612deb91906143f8565b6008612df791906151f8565b6002612e03919061564c565b8573ffffffffffffffffffffffffffffffffffffffff16612e249190615239565b60f81b90505f60108260f81c612e3a9190615696565b60f81b90505f8160f81c6010612e5091906156c6565b8360f81c612e5e9190615702565b60f81b9050612e6c82613029565b85856002612e7a91906151f8565b81518110612e8b57612e8a61439e565b5b60200101907effffffffffffffffffffffffffffffffffffffffffffffffffffffffffffff191690815f1a905350612ec281613029565b856001866002612ed291906151f8565b612edc919061442b565b81518110612eed57612eec61439e565b5b60200101907effffffffffffffffffffffffffffffffffffffffffffffffffffffffffffff191690815f1a9053505050508080600101915050612dd4565b5080604051602001612f3d91906152f7565b604051602081830303815290604052915050919050565b5f5f5f5f612f62868661306e565b925092509250612f7282826130c3565b82935050505092915050565b5f612f87612951565b5f0160089054906101000a900460ff16905090565b606082612fb157612fac82613225565b613021565b5f8251148015612fd757505f8473ffffffffffffffffffffffffffffffffffffffff163b145b1561301957836040517f9996b3150000000000000000000000000000000000000000000000000000000081526004016130109190614135565b60405180910390fd5b819050613022565b5b9392505050565b5f600a8260f81c60ff1610156130535760308260f81c6130499190615318565b60f81b9050613069565b60578260f81c6130639190615318565b60f81b90505b919050565b5f5f5f60418451036130ae575f5f5f602087015192506040870151915060608701515f1a90506130a088828585613269565b9550955095505050506130bc565b5f600285515f1b9250925092505b9250925092565b5f60038111156130d6576130d5615736565b5b8260038111156130e9576130e8615736565b5b0315613221576001600381111561310357613102615736565b5b82600381111561311657613115615736565b5b0361314d576040517ff645eedf00000000000000000000000000000000000000000000000000000000815260040160405180910390fd5b6002600381111561316157613160615736565b5b82600381111561317457613173615736565b5b036131b857805f1c6040517ffce698f70000000000000000000000000000000000000000000000000000000081526004016131af9190615763565b60405180910390fd5b6003808111156131cb576131ca615736565b5b8260038111156131de576131dd615736565b5b0361322057806040517fd78bce0c0000000000000000000000000000000000000000000000000000000081526004016132179190613c02565b60405180910390fd5b5b5050565b5f815111156132375780518082602001fd5b6040517f1425ea4200000000000000000000000000000000000000000000000000000000815260040160405180910390fd5b5f5f5f7f7fffffffffffffffffffffffffffffff5d576e7357a4501ddfe92f46681b20a0845f1c11156132a5575f600385925092509250613346565b5f6001888888886040515f81526020016040526040516132c8949392919061577c565b6020604051602081039080840390855afa1580156132e8573d5f5f3e3d5ffd5b5050506020604051035190505f73ffffffffffffffffffffffffffffffffffffffff168173ffffffffffffffffffffffffffffffffffffffff1603613339575f60015f5f1b93509350935050613346565b805f5f5f1b935093509350505b9450945094915050565b60405180604001604052805f73ffffffffffffffffffffffffffffffffffffffff168152602001606081525090565b6040518060a001604052805f63ffffffff1681526020015f63ffffffff1681526020015f63ffffffff168152602001606081526020015f60ff1681525090565b5f604051905090565b5f5ffd5b5f5ffd5b5f63ffffffff82169050919050565b6133e8816133d0565b81146133f2575f5ffd5b50565b5f81359050613403816133df565b92915050565b5f819050919050565b61341b81613409565b8114613425575f5ffd5b50565b5f8135905061343681613412565b92915050565b5f5f5f60608486031215613453576134526133c8565b5b5f613460868287016133f5565b935050602061347186828701613428565b9250506040613482868287016133f5565b9150509250925092565b5f81519050919050565b5f82825260208201905092915050565b5f819050602082019050919050565b5f73ffffffffffffffffffffffffffffffffffffffff82169050919050565b5f6134de826134b5565b9050919050565b6134ee816134d4565b82525050565b5f81519050919050565b5f82825260208201905092915050565b8281835e5f83830152505050565b5f601f19601f8301169050919050565b5f613536826134f4565b61354081856134fe565b935061355081856020860161350e565b6135598161351c565b840191505092915050565b5f604083015f8301516135795f8601826134e5565b5060208301518482036020860152613591828261352c565b9150508091505092915050565b5f6135a98383613564565b905092915050565b5f602082019050919050565b5f6135c78261348c565b6135d18185613496565b9350836020820285016135e3856134a6565b805f5b8581101561361e57848403895281516135ff858261359e565b945061360a836135b1565b925060208a019950506001810190506135e6565b50829750879550505050505092915050565b5f6020820190508181035f83015261364881846135bd565b905092915050565b613659816133d0565b82525050565b5f6020820190506136725f830184613650565b92915050565b5f5ffd5b5f5ffd5b7f4e487b71000000000000000000000000000000000000000000000000000000005f52604160045260245ffd5b6136b68261351c565b810181811067ffffffffffffffff821117156136d5576136d4613680565b5b80604052505050565b5f6136e76133bf565b90506136f382826136ad565b919050565b5f67ffffffffffffffff82111561371257613711613680565b5b61371b8261351c565b9050602081019050919050565b828183375f83830152505050565b5f613748613743846136f8565b6136de565b9050828152602081018484840111156137645761376361367c565b5b61376f848285613728565b509392505050565b5f82601f83011261378b5761378a613678565b5b813561379b848260208601613736565b91505092915050565b5f5f604083850312156137ba576137b96133c8565b5b5f83013567ffffffffffffffff8111156137d7576137d66133cc565b5b6137e385828601613777565b925050602083013567ffffffffffffffff811115613804576138036133cc565b5b61381085828601613777565b9150509250929050565b5f82825260208201905092915050565b5f613834826134f4565b61383e818561381a565b935061384e81856020860161350e565b6138578161351c565b840191505092915050565b5f6020820190508181035f83015261387a818461382a565b905092915050565b5f60208284031215613897576138966133c8565b5b5f6138a4848285016133f5565b91505092915050565b6138b6816133d0565b82525050565b5f82825260208201905092915050565b5f6138d68261348c565b6138e081856138bc565b9350836020820285016138f2856134a6565b805f5b8581101561392d578484038952815161390e858261359e565b9450613919836135b1565b925060208a019950506001810190506138f5565b50829750879550505050505092915050565b5f60ff82169050919050565b6139548161393f565b82525050565b5f60a083015f83015161396f5f8601826138ad565b50602083015161398260208601826138ad565b50604083015161399560408601826138ad565b50606083015184820360608601526139ad82826138cc565b91505060808301516139c2608086018261394b565b508091505092915050565b5f6020820190508181035f8301526139e5818461395a565b905092915050565b5f5ffd5b5f5ffd5b5f5f83601f840112613a0a57613a09613678565b5b8235905067ffffffffffffffff811115613a2757613a266139ed565b5b602083019150836020820283011115613a4357613a426139f1565b5b9250929050565b613a538161393f565b8114613a5d575f5ffd5b50565b5f81359050613a6e81613a4a565b92915050565b5f5f5f60408486031215613a8b57613a8a6133c8565b5b5f84013567ffffffffffffffff811115613aa857613aa76133cc565b5b613ab4868287016139f5565b93509350506020613ac786828701613a60565b9150509250925092565b613ada816134d4565b8114613ae4575f5ffd5b50565b5f81359050613af581613ad1565b92915050565b5f67ffffffffffffffff821115613b1557613b14613680565b5b613b1e8261351c565b9050602081019050919050565b5f613b3d613b3884613afb565b6136de565b905082815260208101848484011115613b5957613b5861367c565b5b613b64848285613728565b509392505050565b5f82601f830112613b8057613b7f613678565b5b8135613b90848260208601613b2b565b91505092915050565b5f5f60408385031215613baf57613bae6133c8565b5b5f613bbc85828601613ae7565b925050602083013567ffffffffffffffff811115613bdd57613bdc6133cc565b5b613be985828601613b6c565b9150509250929050565b613bfc81613409565b82525050565b5f602082019050613c155f830184613bf3565b92915050565b5f819050919050565b613c2d81613c1b565b8114613c37575f5ffd5b50565b5f81359050613c4881613c24565b92915050565b5f60208284031215613c6357613c626133c8565b5b5f613c7084828501613c3a565b91505092915050565b5f5ffd5b5f5ffd5b5f60608284031215613c9657613c95613c79565b5b613ca060606136de565b90505f82013567ffffffffffffffff811115613cbf57613cbe613c7d565b5b613ccb84828501613777565b5f83015250602082013567ffffffffffffffff811115613cee57613ced613c7d565b5b613cfa84828501613777565b602083015250604082013567ffffffffffffffff811115613d1e57613d1d613c7d565b5b613d2a84828501613777565b60408301525092915050565b5f60808284031215613d4b57613d4a613c79565b5b613d5560806136de565b90505f613d6484828501613428565b5f830152506020613d7784828501613ae7565b6020830152506040613d8b848285016133f5565b6040830152506060613d9f848285016133f5565b60608301525092915050565b5f67ffffffffffffffff821115613dc557613dc4613680565b5b602082029050602081019050919050565b5f613de8613de384613dab565b6136de565b90508083825260208201905060208402830185811115613e0b57613e0a6139f1565b5b835b81811015613e5257803567ffffffffffffffff811115613e3057613e2f613678565b5b808601613e3d8982613b6c565b85526020850194505050602081019050613e0d565b5050509392505050565b5f82601f830112613e7057613e6f613678565b5b8135613e80848260208601613dd6565b91505092915050565b5f60a08284031215613e9e57613e9d613c79565b5b613ea860406136de565b90505f613eb784828501613d36565b5f83015250608082013567ffffffffffffffff811115613eda57613ed9613c7d565b5b613ee684828501613e5c565b60208301525092915050565b5f60408284031215613f0757613f06613c79565b5b613f1160406136de565b90505f82013567ffffffffffffffff811115613f3057613f2f613c7d565b5b613f3c84828501613c81565b5f83015250602082013567ffffffffffffffff811115613f5f57613f5e613c7d565b5b613f6b84828501613e89565b60208301525092915050565b5f60208284031215613f8c57613f8b6133c8565b5b5f82013567ffffffffffffffff811115613fa957613fa86133cc565b5b613fb584828501613ef2565b91505092915050565b5f8115159050919050565b613fd281613fbe565b82525050565b5f602082019050613feb5f830184613fc9565b92915050565b5f5f60408385031215614007576140066133c8565b5b5f83013567ffffffffffffffff811115614024576140236133cc565b5b61403085828601613ef2565b925050602061404185828601613c3a565b9150509250929050565b5f81905082602060080282011115614066576140656139f1565b5b92915050565b5f5f5f5f5f5f5f6101c0888a031215614088576140876133c8565b5b5f88013567ffffffffffffffff8111156140a5576140a46133cc565b5b6140b18a828b01613777565b97505060206140c28a828b01613c3a565b96505060406140d38a828b01613c3a565b95505060606140e48a828b01613c3a565b94505060806140f58a828b01613c3a565b93505060a06141068a828b01613428565b92505060c06141178a828b0161404b565b91505092959891949750929550565b61412f816134d4565b82525050565b5f6020820190506141485f830184614126565b92915050565b5f60208284031215614163576141626133c8565b5b5f61417084828501613ae7565b91505092915050565b6141828161393f565b82525050565b5f60808201905061419b5f830187613650565b6141a86020830186613650565b6141b56040830185613650565b6141c26060830184614179565b95945050505050565b5f5f604083850312156141e1576141e06133c8565b5b5f83013567ffffffffffffffff8111156141fe576141fd6133cc565b5b61420a85828601613777565b925050602061421b85828601613c3a565b9150509250929050565b5f819050919050565b61423f61423a82613409565b614225565b82525050565b5f614250828461422e565b60208201915081905092915050565b5f81905092915050565b5f614273826134f4565b61427d818561425f565b935061428d81856020860161350e565b80840191505092915050565b7f0a000000000000000000000000000000000000000000000000000000000000005f82015250565b5f6142cd60018361425f565b91506142d882614299565b600182019050919050565b5f6142ee8287614269565b91506142f9826142c1565b91506143058286614269565b9150614310826142c1565b915061431c8285614269565b9150614327826142c1565b91506143338284614269565b915081905095945050505050565b7f4e487b71000000000000000000000000000000000000000000000000000000005f52601260045260245ffd5b5f61437882613c1b565b915061438383613c1b565b92508261439357614392614341565b5b828206905092915050565b7f4e487b71000000000000000000000000000000000000000000000000000000005f52603260045260245ffd5b7f4e487b71000000000000000000000000000000000000000000000000000000005f52601160045260245ffd5b5f61440282613c1b565b915061440d83613c1b565b9250828203905081811115614425576144246143cb565b5b92915050565b5f61443582613c1b565b915061444083613c1b565b9250828201905080821115614458576144576143cb565b5b92915050565b7f746172676574206973206c6f6e676572207468616e20646174610000000000005f82015250565b5f614492601a8361381a565b915061449d8261445e565b602082019050919050565b5f6020820190508181035f8301526144bf81614486565b9050919050565b5f6144d082613c1b565b91507fffffffffffffffffffffffffffffffffffffffffffffffffffffffffffffffff8203614502576145016143cb565b5b600182019050919050565b7f4e487b71000000000000000000000000000000000000000000000000000000005f52602260045260245ffd5b5f600282049050600182168061455157607f821691505b6020821081036145645761456361450d565b5b50919050565b5f614574826133d0565b915061457f836133d0565b9250828203905063ffffffff81111561459b5761459a6143cb565b5b92915050565b5f6145ab826133d0565b91506145b6836133d0565b9250828201905063ffffffff8111156145d2576145d16143cb565b5b92915050565b5f5ffd5b5f5ffd5b5f5ffd5b5f823560016040038336030381126145ff576145fe6145d8565b5b80830191505092915050565b5f813561461781613ad1565b80915050919050565b5f815f1b9050919050565b5f73ffffffffffffffffffffffffffffffffffffffff61464a84614620565b9350801983169250808416831791505092915050565b5f819050919050565b5f61468361467e614679846134b5565b614660565b6134b5565b9050919050565b5f61469482614669565b9050919050565b5f6146a58261468a565b9050919050565b5f819050919050565b6146be8261469b565b6146d16146ca826146ac565b835461462b565b8255505050565b5f5f833560016020038436030381126146f4576146f36145d8565b5b80840192508235915067ffffffffffffffff821115614716576147156145dc565b5b602083019250600182023603831315614732576147316145e0565b5b509250929050565b5f82905092915050565b5f819050815f5260205f209050919050565b5f6020601f8301049050919050565b5f82821b905092915050565b5f600883026147a07fffffffffffffffffffffffffffffffffffffffffffffffffffffffffffffffff82614765565b6147aa8683614765565b95508019841693508086168417925050509392505050565b5f6147dc6147d76147d284613c1b565b614660565b613c1b565b9050919050565b5f819050919050565b6147f5836147c2565b614809614801826147e3565b848454614771565b825550505050565b5f5f905090565b614820614811565b61482b8184846147ec565b505050565b5b8181101561484e576148435f82614818565b600181019050614831565b5050565b601f8211156148935761486481614744565b61486d84614756565b8101602085101561487c578190505b61489061488885614756565b830182614830565b50505b505050565b5f82821c905092915050565b5f6148b35f1984600802614898565b1980831691505092915050565b5f6148cb83836148a4565b9150826002028217905092915050565b6148e5838361473a565b67ffffffffffffffff8111156148fe576148fd613680565b5b614908825461453a565b614913828285614852565b5f601f831160018114614940575f841561492e578287013590505b61493885826148c0565b86555061499f565b601f19841661494e86614744565b5f5b8281101561497557848901358255600182019150602085019450602081019050614950565b86831015614992578489013561498e601f8916826148a4565b8355505b6001600288020188555050505b50505050505050565b6149b38383836148db565b505050565b5f81015f8301806149c88161460b565b90506149d481846146b5565b50505060018101602083016149e981856146d8565b6149f48183866149a8565b505050505050565b614a0682826149b8565b5050565b5f815f1c9050919050565b5f63ffffffff82169050919050565b5f614a36614a3183614a0a565b614a15565b9050919050565b5f8160201c9050919050565b5f614a5b614a5683614a3d565b614a15565b9050919050565b5f8160401c9050919050565b5f614a80614a7b83614a62565b614a15565b9050919050565b5f81549050919050565b5f819050815f5260205f209050919050565b5f73ffffffffffffffffffffffffffffffffffffffff82169050919050565b5f614ad4614acf83614a0a565b614aa3565b9050919050565b5f8154614ae78161453a565b614af181866134fe565b9450600182165f8114614b0b5760018114614b2157614b53565b60ff198316865281151560200286019350614b53565b614b2a85614744565b5f5b83811015614b4b57815481890152600182019150602081019050614b2c565b808801955050505b50505092915050565b5f604083015f5f8401549050614b7181614ac2565b614b7d5f8701826134e5565b50600184018583036020870152614b948382614adb565b925050819250505092915050565b5f614bad8383614b5c565b905092915050565b5f600282019050919050565b5f614bcb82614a87565b614bd581856138bc565b935083602082028501614be785614a91565b805f5b85811015614c2157848403895281614c028582614ba2565b9450614c0d83614bb5565b925060208a01995050600181019050614bea565b50829750879550505050505092915050565b5f60ff82169050919050565b5f614c51614c4c83614a0a565b614c33565b9050919050565b5f60a083015f5f8401549050614c6d81614a24565b614c795f8701826138ad565b50614c8381614a49565b614c9060208701826138ad565b50614c9a81614a6e565b614ca760408701826138ad565b50600184018583036060870152614cbe8382614bc1565b92505060028401549050614cd181614c3f565b614cde608087018261394b565b50819250505092915050565b5f6020820190508181035f830152614d028184614c58565b905092915050565b5f8160601b9050919050565b5f614d2082614d0a565b9050919050565b5f614d3182614d16565b9050919050565b614d49614d44826134d4565b614d27565b82525050565b5f819050919050565b614d69614d6482613c1b565b614d4f565b82525050565b5f614d7a8285614d38565b601482019150614d8a8284614d58565b6020820191508190509392505050565b7f4461707020416c726561647920457869737473000000000000000000000000005f82015250565b5f614dce60138361381a565b9150614dd982614d9a565b602082019050919050565b5f6020820190508181035f830152614dfb81614dc2565b9050919050565b7f4e6f2072652d656e7472616e63790000000000000000000000000000000000005f82015250565b5f614e36600e8361381a565b9150614e4182614e02565b602082019050919050565b5f6020820190508181035f830152614e6381614e2a565b9050919050565b614e7381613c1b565b82525050565b5f604082019050614e8c5f830185614e6a565b614e996020830184614e6a565b9392505050565b7f44617070204e6f742043726561746564000000000000000000000000000000005f82015250565b5f614ed460108361381a565b9150614edf82614ea0565b602082019050919050565b5f6020820190508181035f830152614f0181614ec8565b9050919050565b82818337505050565b614f1e6101008383614f08565b5050565b5f6101a082019050614f365f830189614e6a565b614f436020830188614e6a565b614f506040830187614e6a565b614f5d6060830186614e6a565b614f6a6080830185614e6a565b614f7760a0830184614f11565b979650505050505050565b7f4e6f207369676e617475726573000000000000000000000000000000000000005f82015250565b5f614fb6600d8361381a565b9150614fc182614f82565b602082019050919050565b5f6020820190508181035f830152614fe381614faa565b9050919050565b7f4e756d626572206f66207369676e617475726573206e6f7420657175616c20745f8201527f6f206e756d626572206f66207769746e65737365730000000000000000000000602082015250565b5f61504460358361381a565b915061504f82614fea565b604082019050919050565b5f6020820190508181035f83015261507181615038565b9050919050565b7f4475706c696361746564205369676e61747572657320466f756e6400000000005f82015250565b5f6150ac601b8361381a565b91506150b782615078565b602082019050919050565b5f6020820190508181035f8301526150d9816150a0565b9050919050565b7f5369676e6174757265206e6f7420617070726f707269617465000000000000005f82015250565b5f61511460198361381a565b915061511f826150e0565b602082019050919050565b5f6020820190508181035f83015261514181615108565b9050919050565b5f819050919050565b5f67ffffffffffffffff82169050919050565b5f61517e61517961517484615148565b614660565b615151565b9050919050565b61518e81615164565b82525050565b5f6020820190506151a75f830184615185565b92915050565b5f6060820190506151c05f830186614e6a565b6151cd6020830185614e6a565b6151da6040830184614126565b949350505050565b5f6151ed8284614269565b915081905092915050565b5f61520282613c1b565b915061520d83613c1b565b925082820261521b81613c1b565b91508282048414831517615232576152316143cb565b5b5092915050565b5f61524382613c1b565b915061524e83613c1b565b92508261525e5761525d614341565b5b828204905092915050565b7f30780000000000000000000000000000000000000000000000000000000000005f82015250565b5f61529d60028361425f565b91506152a882615269565b600282019050919050565b5f81519050919050565b5f81905092915050565b5f6152d1826152b3565b6152db81856152bd565b93506152eb81856020860161350e565b80840191505092915050565b5f61530182615291565b915061530d82846152c7565b915081905092915050565b5f6153228261393f565b915061532d8361393f565b9250828201905060ff811115615346576153456143cb565b5b92915050565b7f4f6666736574202b2034206d7573742062652077697468696e206461746120625f8201527f6f756e6473000000000000000000000000000000000000000000000000000000602082015250565b5f6153a660258361381a565b91506153b18261534c565b604082019050919050565b5f6020820190508181035f8301526153d38161539a565b9050919050565b5f815190506153e881613412565b92915050565b5f60208284031215615403576154026133c8565b5b5f615410848285016153da565b91505092915050565b5f6154248286614269565b91506154308285614269565b915061543c8284614269565b9150819050949350505050565b5f6154548286614269565b915061545f826142c1565b915061546b8285614269565b9150615476826142c1565b91506154828284614269565b9150819050949350505050565b7f19457468657265756d205369676e6564204d6573736167653a0a0000000000005f82015250565b5f6154c3601a8361425f565b91506154ce8261548f565b601a82019050919050565b5f6154e3826154b7565b91506154ef8285614269565b91506154fb82846152c7565b91508190509392505050565b5f61551282846152c7565b915081905092915050565b5f8160011c9050919050565b5f5f8291508390505b60018511156155725780860481111561554e5761554d6143cb565b5b600185161561555d5780820291505b808102905061556b8561551d565b9450615532565b94509492505050565b5f8261558a5760019050615645565b81615597575f9050615645565b81600181146155ad57600281146155b7576155e6565b6001915050615645565b60ff8411156155c9576155c86143cb565b5b8360020a9150848211156155e0576155df6143cb565b5b50615645565b5060208310610133831016604e8410600b841016171561561b5782820a905083811115615616576156156143cb565b5b615645565b6156288484846001615529565b9250905081840481111561563f5761563e6143cb565b5b81810290505b9392505050565b5f61565682613c1b565b915061566183613c1b565b925061568e7fffffffffffffffffffffffffffffffffffffffffffffffffffffffffffffffff848461557b565b905092915050565b5f6156a08261393f565b91506156ab8361393f565b9250826156bb576156ba614341565b5b828204905092915050565b5f6156d08261393f565b91506156db8361393f565b92508282026156e98161393f565b91508082146156fb576156fa6143cb565b5b5092915050565b5f61570c8261393f565b91506157178361393f565b9250828203905060ff8111156157305761572f6143cb565b5b92915050565b7f4e487b71000000000000000000000000000000000000000000000000000000005f52602160045260245ffd5b5f6020820190506157765f830184614e6a565b92915050565b5f60808201905061578f5f830187613bf3565b61579c6020830186614179565b6157a96040830185613bf3565b6157b66060830184613bf3565b9594505050505056fea264697066735822122004322d4b64f18fec9bfab966b5d825ce7c7ccff2d839f540da5c7f147d05ae2e64736f6c634300081b0033",
			"opcodes": "PUSH1 0xA0 PUSH1 0x40 MSTORE ADDRESS PUSH20 0xFFFFFFFFFFFFFFFFFFFFFFFFFFFFFFFFFFFFFFFF AND PUSH1 0x80 SWAP1 PUSH20 0xFFFFFFFFFFFFFFFFFFFFFFFFFFFFFFFFFFFFFFFF AND DUP2 MSTORE POP CALLVALUE DUP1 ISZERO PUSH1 0x41 JUMPI PUSH0 PUSH0 REVERT JUMPDEST POP PUSH1 0x80 MLOAD PUSH2 0x57F5 PUSH2 0x68 PUSH0 CODECOPY PUSH0 DUP2 DUP2 PUSH2 0x23BA ADD MSTORE DUP2 DUP2 PUSH2 0x240F ADD MSTORE PUSH2 0x25C9 ADD MSTORE PUSH2 0x57F5 PUSH0 RETURN INVALID PUSH1 0x80 PUSH1 0x40 MSTORE PUSH1 0x4 CALLDATASIZE LT PUSH2 0x134 JUMPI PUSH0 CALLDATALOAD PUSH1 0xE0 SHR DUP1 PUSH4 0x76671808 GT PUSH2 0xAA JUMPI DUP1 PUSH4 0xAD3CB1CC GT PUSH2 0x6E JUMPI DUP1 PUSH4 0xAD3CB1CC EQ PUSH2 0x41A JUMPI DUP1 PUSH4 0xC4D66DE8 EQ PUSH2 0x444 JUMPI DUP1 PUSH4 0xC6B61E4C EQ PUSH2 0x46C JUMPI DUP1 PUSH4 0xE367FC6A EQ PUSH2 0x4AB JUMPI DUP1 PUSH4 0xF2FDE38B EQ PUSH2 0x4D3 JUMPI DUP1 PUSH4 0xF7DA2AC9 EQ PUSH2 0x4FB JUMPI PUSH2 0x134 JUMP JUMPDEST DUP1 PUSH4 0x76671808 EQ PUSH2 0x33A JUMPI DUP1 PUSH4 0x79FFDB1D EQ PUSH2 0x364 JUMPI DUP1 PUSH4 0x8925AFFE EQ PUSH2 0x38C JUMPI DUP1 PUSH4 0x8DA5CB5B EQ PUSH2 0x3C8 JUMPI DUP1 PUSH4 0xA960E69E EQ PUSH2 0x3F2 JUMPI PUSH2 0x134 JUMP JUMPDEST DUP1 PUSH4 0x4F1EF286 GT PUSH2 0xFC JUMPI DUP1 PUSH4 0x4F1EF286 EQ PUSH2 0x23E JUMPI DUP1 PUSH4 0x52D1902D EQ PUSH2 0x25A JUMPI DUP1 PUSH4 0x5438243C EQ PUSH2 0x284 JUMPI DUP1 PUSH4 0x5EE4A99E EQ PUSH2 0x2AC JUMPI DUP1 PUSH4 0x715018A6 EQ PUSH2 0x2E8 JUMPI DUP1 PUSH4 0x739C6891 EQ PUSH2 0x2FE JUMPI PUSH2 0x134 JUMP JUMPDEST DUP1 PUSH4 0x10ABBE56 EQ PUSH2 0x138 JUMPI DUP1 PUSH4 0x289989FD EQ PUSH2 0x174 JUMPI DUP1 PUSH4 0x3755667E EQ PUSH2 0x19E JUMPI DUP1 PUSH4 0x3D3C3E07 EQ PUSH2 0x1DA JUMPI DUP1 PUSH4 0x4729504C EQ PUSH2 0x216 JUMPI JUMPDEST PUSH0 PUSH0 REVERT JUMPDEST CALLVALUE DUP1 ISZERO PUSH2 0x143 JUMPI PUSH0 PUSH0 REVERT JUMPDEST POP PUSH2 0x15E PUSH1 0x4 DUP1 CALLDATASIZE SUB DUP2 ADD SWAP1 PUSH2 0x159 SWAP2 SWAP1 PUSH2 0x343C JUMP JUMPDEST PUSH2 0x525 JUMP JUMPDEST PUSH1 0x40 MLOAD PUSH2 0x16B SWAP2 SWAP1 PUSH2 0x3630 JUMP JUMPDEST PUSH1 0x40 MLOAD DUP1 SWAP2 SUB SWAP1 RETURN JUMPDEST CALLVALUE DUP1 ISZERO PUSH2 0x17F JUMPI PUSH0 PUSH0 REVERT JUMPDEST POP PUSH2 0x188 PUSH2 0x74C JUMP JUMPDEST PUSH1 0x40 MLOAD PUSH2 0x195 SWAP2 SWAP1 PUSH2 0x365F JUMP JUMPDEST PUSH1 0x40 MLOAD DUP1 SWAP2 SUB SWAP1 RETURN JUMPDEST CALLVALUE DUP1 ISZERO PUSH2 0x1A9 JUMPI PUSH0 PUSH0 REVERT JUMPDEST POP PUSH2 0x1C4 PUSH1 0x4 DUP1 CALLDATASIZE SUB DUP2 ADD SWAP1 PUSH2 0x1BF SWAP2 SWAP1 PUSH2 0x37A4 JUMP JUMPDEST PUSH2 0x762 JUMP JUMPDEST PUSH1 0x40 MLOAD PUSH2 0x1D1 SWAP2 SWAP1 PUSH2 0x3862 JUMP JUMPDEST PUSH1 0x40 MLOAD DUP1 SWAP2 SUB SWAP1 RETURN JUMPDEST CALLVALUE DUP1 ISZERO PUSH2 0x1E5 JUMPI PUSH0 PUSH0 REVERT JUMPDEST POP PUSH2 0x200 PUSH1 0x4 DUP1 CALLDATASIZE SUB DUP2 ADD SWAP1 PUSH2 0x1FB SWAP2 SWAP1 PUSH2 0x3882 JUMP JUMPDEST PUSH2 0xBE1 JUMP JUMPDEST PUSH1 0x40 MLOAD PUSH2 0x20D SWAP2 SWAP1 PUSH2 0x39CD JUMP JUMPDEST PUSH1 0x40 MLOAD DUP1 SWAP2 SUB SWAP1 RETURN JUMPDEST CALLVALUE DUP1 ISZERO PUSH2 0x221 JUMPI PUSH0 PUSH0 REVERT JUMPDEST POP PUSH2 0x23C PUSH1 0x4 DUP1 CALLDATASIZE SUB DUP2 ADD SWAP1 PUSH2 0x237 SWAP2 SWAP1 PUSH2 0x3A74 JUMP JUMPDEST PUSH2 0x100F JUMP JUMPDEST STOP JUMPDEST PUSH2 0x258 PUSH1 0x4 DUP1 CALLDATASIZE SUB DUP2 ADD SWAP1 PUSH2 0x253 SWAP2 SWAP1 PUSH2 0x3B99 JUMP JUMPDEST PUSH2 0x12B3 JUMP JUMPDEST STOP JUMPDEST CALLVALUE DUP1 ISZERO PUSH2 0x265 JUMPI PUSH0 PUSH0 REVERT JUMPDEST POP PUSH2 0x26E PUSH2 0x12D2 JUMP JUMPDEST PUSH1 0x40 MLOAD PUSH2 0x27B SWAP2 SWAP1 PUSH2 0x3C02 JUMP JUMPDEST PUSH1 0x40 MLOAD DUP1 SWAP2 SUB SWAP1 RETURN JUMPDEST CALLVALUE DUP1 ISZERO PUSH2 0x28F JUMPI PUSH0 PUSH0 REVERT JUMPDEST POP PUSH2 0x2AA PUSH1 0x4 DUP1 CALLDATASIZE SUB DUP2 ADD SWAP1 PUSH2 0x2A5 SWAP2 SWAP1 PUSH2 0x3C4E JUMP JUMPDEST PUSH2 0x1303 JUMP JUMPDEST STOP JUMPDEST CALLVALUE DUP1 ISZERO PUSH2 0x2B7 JUMPI PUSH0 PUSH0 REVERT JUMPDEST POP PUSH2 0x2D2 PUSH1 0x4 DUP1 CALLDATASIZE SUB DUP2 ADD SWAP1 PUSH2 0x2CD SWAP2 SWAP1 PUSH2 0x3F77 JUMP JUMPDEST PUSH2 0x13C9 JUMP JUMPDEST PUSH1 0x40 MLOAD PUSH2 0x2DF SWAP2 SWAP1 PUSH2 0x3862 JUMP JUMPDEST PUSH1 0x40 MLOAD DUP1 SWAP2 SUB SWAP1 RETURN JUMPDEST CALLVALUE DUP1 ISZERO PUSH2 0x2F3 JUMPI PUSH0 PUSH0 REVERT JUMPDEST POP PUSH2 0x2FC PUSH2 0x13D9 JUMP JUMPDEST STOP JUMPDEST CALLVALUE DUP1 ISZERO PUSH2 0x309 JUMPI PUSH0 PUSH0 REVERT JUMPDEST POP PUSH2 0x324 PUSH1 0x4 DUP1 CALLDATASIZE SUB DUP2 ADD SWAP1 PUSH2 0x31F SWAP2 SWAP1 PUSH2 0x37A4 JUMP JUMPDEST PUSH2 0x13EC JUMP JUMPDEST PUSH1 0x40 MLOAD PUSH2 0x331 SWAP2 SWAP1 PUSH2 0x3FD8 JUMP JUMPDEST PUSH1 0x40 MLOAD DUP1 SWAP2 SUB SWAP1 RETURN JUMPDEST CALLVALUE DUP1 ISZERO PUSH2 0x345 JUMPI PUSH0 PUSH0 REVERT JUMPDEST POP PUSH2 0x34E PUSH2 0x1421 JUMP JUMPDEST PUSH1 0x40 MLOAD PUSH2 0x35B SWAP2 SWAP1 PUSH2 0x365F JUMP JUMPDEST PUSH1 0x40 MLOAD DUP1 SWAP2 SUB SWAP1 RETURN JUMPDEST CALLVALUE DUP1 ISZERO PUSH2 0x36F JUMPI PUSH0 PUSH0 REVERT JUMPDEST POP PUSH2 0x38A PUSH1 0x4 DUP1 CALLDATASIZE SUB DUP2 ADD SWAP1 PUSH2 0x385 SWAP2 SWAP1 PUSH2 0x3FF1 JUMP JUMPDEST PUSH2 0x1437 JUMP JUMPDEST STOP JUMPDEST CALLVALUE DUP1 ISZERO PUSH2 0x397 JUMPI PUSH0 PUSH0 REVERT JUMPDEST POP PUSH2 0x3B2 PUSH1 0x4 DUP1 CALLDATASIZE SUB DUP2 ADD SWAP1 PUSH2 0x3AD SWAP2 SWAP1 PUSH2 0x406C JUMP JUMPDEST PUSH2 0x163C JUMP JUMPDEST PUSH1 0x40 MLOAD PUSH2 0x3BF SWAP2 SWAP1 PUSH2 0x3FD8 JUMP JUMPDEST PUSH1 0x40 MLOAD DUP1 SWAP2 SUB SWAP1 RETURN JUMPDEST CALLVALUE DUP1 ISZERO PUSH2 0x3D3 JUMPI PUSH0 PUSH0 REVERT JUMPDEST POP PUSH2 0x3DC PUSH2 0x1746 JUMP JUMPDEST PUSH1 0x40 MLOAD PUSH2 0x3E9 SWAP2 SWAP1 PUSH2 0x4135 JUMP JUMPDEST PUSH1 0x40 MLOAD DUP1 SWAP2 SUB SWAP1 RETURN JUMPDEST CALLVALUE DUP1 ISZERO PUSH2 0x3FD JUMPI PUSH0 PUSH0 REVERT JUMPDEST POP PUSH2 0x418 PUSH1 0x4 DUP1 CALLDATASIZE SUB DUP2 ADD SWAP1 PUSH2 0x413 SWAP2 SWAP1 PUSH2 0x3F77 JUMP JUMPDEST PUSH2 0x177B JUMP JUMPDEST STOP JUMPDEST CALLVALUE DUP1 ISZERO PUSH2 0x425 JUMPI PUSH0 PUSH0 REVERT JUMPDEST POP PUSH2 0x42E PUSH2 0x1A6D JUMP JUMPDEST PUSH1 0x40 MLOAD PUSH2 0x43B SWAP2 SWAP1 PUSH2 0x3862 JUMP JUMPDEST PUSH1 0x40 MLOAD DUP1 SWAP2 SUB SWAP1 RETURN JUMPDEST CALLVALUE DUP1 ISZERO PUSH2 0x44F JUMPI PUSH0 PUSH0 REVERT JUMPDEST POP PUSH2 0x46A PUSH1 0x4 DUP1 CALLDATASIZE SUB DUP2 ADD SWAP1 PUSH2 0x465 SWAP2 SWAP1 PUSH2 0x414E JUMP JUMPDEST PUSH2 0x1AA6 JUMP JUMPDEST STOP JUMPDEST CALLVALUE DUP1 ISZERO PUSH2 0x477 JUMPI PUSH0 PUSH0 REVERT JUMPDEST POP PUSH2 0x492 PUSH1 0x4 DUP1 CALLDATASIZE SUB DUP2 ADD SWAP1 PUSH2 0x48D SWAP2 SWAP1 PUSH2 0x3C4E JUMP JUMPDEST PUSH2 0x1CAC JUMP JUMPDEST PUSH1 0x40 MLOAD PUSH2 0x4A2 SWAP5 SWAP4 SWAP3 SWAP2 SWAP1 PUSH2 0x4188 JUMP JUMPDEST PUSH1 0x40 MLOAD DUP1 SWAP2 SUB SWAP1 RETURN JUMPDEST CALLVALUE DUP1 ISZERO PUSH2 0x4B6 JUMPI PUSH0 PUSH0 REVERT JUMPDEST POP PUSH2 0x4D1 PUSH1 0x4 DUP1 CALLDATASIZE SUB DUP2 ADD SWAP1 PUSH2 0x4CC SWAP2 SWAP1 PUSH2 0x41CB JUMP JUMPDEST PUSH2 0x1D1F JUMP JUMPDEST STOP JUMPDEST CALLVALUE DUP1 ISZERO PUSH2 0x4DE JUMPI PUSH0 PUSH0 REVERT JUMPDEST POP PUSH2 0x4F9 PUSH1 0x4 DUP1 CALLDATASIZE SUB DUP2 ADD SWAP1 PUSH2 0x4F4 SWAP2 SWAP1 PUSH2 0x414E JUMP JUMPDEST PUSH2 0x1E82 JUMP JUMPDEST STOP JUMPDEST CALLVALUE DUP1 ISZERO PUSH2 0x506 JUMPI PUSH0 PUSH0 REVERT JUMPDEST POP PUSH2 0x50F PUSH2 0x1F06 JUMP JUMPDEST PUSH1 0x40 MLOAD PUSH2 0x51C SWAP2 SWAP1 PUSH2 0x4135 JUMP JUMPDEST PUSH1 0x40 MLOAD DUP1 SWAP2 SUB SWAP1 RETURN JUMPDEST PUSH1 0x60 PUSH0 PUSH2 0x531 DUP6 PUSH2 0xBE1 JUMP JUMPDEST SWAP1 POP PUSH0 PUSH2 0x55C DUP6 PUSH1 0x40 MLOAD PUSH1 0x20 ADD PUSH2 0x548 SWAP2 SWAP1 PUSH2 0x4245 JUMP JUMPDEST PUSH1 0x40 MLOAD PUSH1 0x20 DUP2 DUP4 SUB SUB DUP2 MSTORE SWAP1 PUSH1 0x40 MSTORE PUSH2 0x1F2B JUMP JUMPDEST PUSH2 0x56B DUP8 PUSH4 0xFFFFFFFF AND PUSH2 0x2148 JUMP JUMPDEST PUSH2 0x57B DUP5 PUSH1 0x80 ADD MLOAD PUSH1 0xFF AND PUSH2 0x2148 JUMP JUMPDEST PUSH2 0x58A DUP8 PUSH4 0xFFFFFFFF AND PUSH2 0x2148 JUMP JUMPDEST PUSH1 0x40 MLOAD PUSH1 0x20 ADD PUSH2 0x59D SWAP5 SWAP4 SWAP3 SWAP2 SWAP1 PUSH2 0x42E3 JUMP JUMPDEST PUSH1 0x40 MLOAD PUSH1 0x20 DUP2 DUP4 SUB SUB DUP2 MSTORE SWAP1 PUSH1 0x40 MSTORE SWAP1 POP PUSH0 DUP2 DUP1 MLOAD SWAP1 PUSH1 0x20 ADD KECCAK256 PUSH1 0x40 MLOAD PUSH1 0x20 ADD PUSH2 0x5C7 SWAP2 SWAP1 PUSH2 0x4245 JUMP JUMPDEST PUSH1 0x40 MLOAD PUSH1 0x20 DUP2 DUP4 SUB SUB DUP2 MSTORE SWAP1 PUSH1 0x40 MSTORE SWAP1 POP PUSH0 DUP4 PUSH1 0x60 ADD MLOAD SWAP1 POP PUSH0 DUP5 PUSH1 0x80 ADD MLOAD PUSH1 0xFF AND PUSH8 0xFFFFFFFFFFFFFFFF DUP2 GT ISZERO PUSH2 0x602 JUMPI PUSH2 0x601 PUSH2 0x3680 JUMP JUMPDEST JUMPDEST PUSH1 0x40 MLOAD SWAP1 DUP1 DUP3 MSTORE DUP1 PUSH1 0x20 MUL PUSH1 0x20 ADD DUP3 ADD PUSH1 0x40 MSTORE DUP1 ISZERO PUSH2 0x63B JUMPI DUP2 PUSH1 0x20 ADD JUMPDEST PUSH2 0x628 PUSH2 0x3350 JUMP JUMPDEST DUP2 MSTORE PUSH1 0x20 ADD SWAP1 PUSH1 0x1 SWAP1 SUB SWAP1 DUP2 PUSH2 0x620 JUMPI SWAP1 POP JUMPDEST POP SWAP1 POP PUSH0 DUP3 MLOAD SWAP1 POP PUSH0 PUSH0 SWAP1 POP PUSH0 PUSH0 SWAP1 POP JUMPDEST DUP8 PUSH1 0x80 ADD MLOAD PUSH1 0xFF AND DUP2 PUSH4 0xFFFFFFFF AND LT ISZERO PUSH2 0x73A JUMPI PUSH0 PUSH2 0x66C DUP8 DUP5 PUSH2 0x22C6 JUMP JUMPDEST SWAP1 POP PUSH0 DUP5 DUP3 PUSH2 0x67B SWAP2 SWAP1 PUSH2 0x436E JUMP JUMPDEST SWAP1 POP DUP7 DUP2 DUP2 MLOAD DUP2 LT PUSH2 0x690 JUMPI PUSH2 0x68F PUSH2 0x439E JUMP JUMPDEST JUMPDEST PUSH1 0x20 MUL PUSH1 0x20 ADD ADD MLOAD DUP7 DUP5 PUSH4 0xFFFFFFFF AND DUP2 MLOAD DUP2 LT PUSH2 0x6B1 JUMPI PUSH2 0x6B0 PUSH2 0x439E JUMP JUMPDEST JUMPDEST PUSH1 0x20 MUL PUSH1 0x20 ADD ADD DUP2 SWAP1 MSTORE POP DUP7 PUSH1 0x1 DUP7 PUSH2 0x6CA SWAP2 SWAP1 PUSH2 0x43F8 JUMP JUMPDEST DUP2 MLOAD DUP2 LT PUSH2 0x6DB JUMPI PUSH2 0x6DA PUSH2 0x439E JUMP JUMPDEST JUMPDEST PUSH1 0x20 MUL PUSH1 0x20 ADD ADD MLOAD DUP8 DUP3 DUP2 MLOAD DUP2 LT PUSH2 0x6F6 JUMPI PUSH2 0x6F5 PUSH2 0x439E JUMP JUMPDEST JUMPDEST PUSH1 0x20 MUL PUSH1 0x20 ADD ADD DUP2 SWAP1 MSTORE POP DUP8 MLOAD PUSH1 0x4 DUP6 PUSH2 0x710 SWAP2 SWAP1 PUSH2 0x442B JUMP JUMPDEST PUSH2 0x71A SWAP2 SWAP1 PUSH2 0x436E JUMP JUMPDEST SWAP4 POP PUSH1 0x1 DUP6 PUSH2 0x729 SWAP2 SWAP1 PUSH2 0x43F8 JUMP JUMPDEST SWAP5 POP POP POP DUP1 DUP1 PUSH1 0x1 ADD SWAP2 POP POP PUSH2 0x64C JUMP JUMPDEST POP DUP3 SWAP8 POP POP POP POP POP POP POP POP SWAP4 SWAP3 POP POP POP JUMP JUMPDEST PUSH1 0x1 PUSH1 0x14 SWAP1 SLOAD SWAP1 PUSH2 0x100 EXP SWAP1 DIV PUSH4 0xFFFFFFFF AND DUP2 JUMP JUMPDEST PUSH1 0x60 PUSH0 DUP4 SWAP1 POP PUSH0 DUP4 SWAP1 POP DUP1 MLOAD DUP3 MLOAD LT ISZERO PUSH2 0x7B1 JUMPI PUSH1 0x40 MLOAD PUSH32 0x8C379A000000000000000000000000000000000000000000000000000000000 DUP2 MSTORE PUSH1 0x4 ADD PUSH2 0x7A8 SWAP1 PUSH2 0x44A8 JUMP JUMPDEST PUSH1 0x40 MLOAD DUP1 SWAP2 SUB SWAP1 REVERT JUMPDEST PUSH0 PUSH0 SWAP1 POP PUSH0 PUSH0 SWAP1 POP PUSH0 PUSH0 SWAP1 POP JUMPDEST DUP4 MLOAD DUP6 MLOAD PUSH2 0x7CC SWAP2 SWAP1 PUSH2 0x43F8 JUMP JUMPDEST DUP2 GT PUSH2 0x8C9 JUMPI PUSH0 PUSH1 0x1 SWAP1 POP PUSH0 PUSH0 SWAP1 POP JUMPDEST DUP6 MLOAD DUP2 LT DUP1 ISZERO PUSH2 0x7E9 JUMPI POP DUP2 JUMPDEST ISZERO PUSH2 0x895 JUMPI DUP6 DUP2 DUP2 MLOAD DUP2 LT PUSH2 0x801 JUMPI PUSH2 0x800 PUSH2 0x439E JUMP JUMPDEST JUMPDEST PUSH1 0x20 ADD ADD MLOAD PUSH1 0xF8 SHR PUSH1 0xF8 SHL PUSH31 0xFFFFFFFFFFFFFFFFFFFFFFFFFFFFFFFFFFFFFFFFFFFFFFFFFFFFFFFFFFFFFF NOT AND DUP8 DUP3 DUP6 PUSH2 0x83B SWAP2 SWAP1 PUSH2 0x442B JUMP JUMPDEST DUP2 MLOAD DUP2 LT PUSH2 0x84C JUMPI PUSH2 0x84B PUSH2 0x439E JUMP JUMPDEST JUMPDEST PUSH1 0x20 ADD ADD MLOAD PUSH1 0xF8 SHR PUSH1 0xF8 SHL PUSH31 0xFFFFFFFFFFFFFFFFFFFFFFFFFFFFFFFFFFFFFFFFFFFFFFFFFFFFFFFFFFFFFF NOT AND EQ PUSH2 0x882 JUMPI PUSH0 SWAP2 POP JUMPDEST DUP1 DUP1 PUSH2 0x88D SWAP1 PUSH2 0x44C6 JUMP JUMPDEST SWAP2 POP POP PUSH2 0x7DC JUMP JUMPDEST POP DUP1 ISZERO PUSH2 0x8B5 JUMPI DUP5 MLOAD DUP3 PUSH2 0x8A9 SWAP2 SWAP1 PUSH2 0x442B JUMP JUMPDEST SWAP4 POP PUSH1 0x1 SWAP3 POP POP PUSH2 0x8C9 JUMP JUMPDEST POP DUP1 DUP1 PUSH2 0x8C1 SWAP1 PUSH2 0x44C6 JUMP JUMPDEST SWAP2 POP POP PUSH2 0x7BE JUMP JUMPDEST POP DUP1 PUSH2 0x8E9 JUMPI PUSH1 0x40 MLOAD DUP1 PUSH1 0x20 ADD PUSH1 0x40 MSTORE DUP1 PUSH0 DUP2 MSTORE POP SWAP5 POP POP POP POP POP PUSH2 0xBDB JUMP JUMPDEST PUSH0 DUP3 SWAP1 POP JUMPDEST DUP5 MLOAD DUP2 LT DUP1 ISZERO PUSH2 0x9D4 JUMPI POP PUSH32 0x2200000000000000000000000000000000000000000000000000000000000000 DUP6 DUP3 DUP2 MLOAD DUP2 LT PUSH2 0x92D JUMPI PUSH2 0x92C PUSH2 0x439E JUMP JUMPDEST JUMPDEST PUSH1 0x20 ADD ADD MLOAD PUSH1 0xF8 SHR PUSH1 0xF8 SHL PUSH31 0xFFFFFFFFFFFFFFFFFFFFFFFFFFFFFFFFFFFFFFFFFFFFFFFFFFFFFFFFFFFFFF NOT AND EQ DUP1 ISZERO PUSH2 0x9D2 JUMPI POP PUSH32 0x5C00000000000000000000000000000000000000000000000000000000000000 DUP6 PUSH1 0x1 DUP4 PUSH2 0x991 SWAP2 SWAP1 PUSH2 0x43F8 JUMP JUMPDEST DUP2 MLOAD DUP2 LT PUSH2 0x9A2 JUMPI PUSH2 0x9A1 PUSH2 0x439E JUMP JUMPDEST JUMPDEST PUSH1 0x20 ADD ADD MLOAD PUSH1 0xF8 SHR PUSH1 0xF8 SHL PUSH31 0xFFFFFFFFFFFFFFFFFFFFFFFFFFFFFFFFFFFFFFFFFFFFFFFFFFFFFFFFFFFFFF NOT AND EQ ISZERO JUMPDEST ISZERO JUMPDEST ISZERO PUSH2 0x9EC JUMPI DUP1 DUP1 PUSH2 0x9E4 SWAP1 PUSH2 0x44C6 JUMP JUMPDEST SWAP2 POP POP PUSH2 0x8EE JUMP JUMPDEST DUP3 DUP2 GT ISZERO DUP1 PUSH2 0xAD1 JUMPI POP PUSH32 0x2200000000000000000000000000000000000000000000000000000000000000 DUP6 DUP3 DUP2 MLOAD DUP2 LT PUSH2 0xA2A JUMPI PUSH2 0xA29 PUSH2 0x439E JUMP JUMPDEST JUMPDEST PUSH1 0x20 ADD ADD MLOAD PUSH1 0xF8 SHR PUSH1 0xF8 SHL PUSH31 0xFFFFFFFFFFFFFFFFFFFFFFFFFFFFFFFFFFFFFFFFFFFFFFFFFFFFFFFFFFFFFF NOT AND EQ DUP1 ISZERO PUSH2 0xACF JUMPI POP PUSH32 0x5C00000000000000000000000000000000000000000000000000000000000000 DUP6 PUSH1 0x1 DUP4 PUSH2 0xA8E SWAP2 SWAP1 PUSH2 0x43F8 JUMP JUMPDEST DUP2 MLOAD DUP2 LT PUSH2 0xA9F JUMPI PUSH2 0xA9E PUSH2 0x439E JUMP JUMPDEST JUMPDEST PUSH1 0x20 ADD ADD MLOAD PUSH1 0xF8 SHR PUSH1 0xF8 SHL PUSH31 0xFFFFFFFFFFFFFFFFFFFFFFFFFFFFFFFFFFFFFFFFFFFFFFFFFFFFFFFFFFFFFF NOT AND EQ ISZERO JUMPDEST ISZERO JUMPDEST ISZERO PUSH2 0xAF1 JUMPI PUSH1 0x40 MLOAD DUP1 PUSH1 0x20 ADD PUSH1 0x40 MSTORE DUP1 PUSH0 DUP2 MSTORE POP SWAP6 POP POP POP POP POP POP PUSH2 0xBDB JUMP JUMPDEST PUSH0 DUP4 DUP3 PUSH2 0xAFE SWAP2 SWAP1 PUSH2 0x43F8 JUMP JUMPDEST PUSH8 0xFFFFFFFFFFFFFFFF DUP2 GT ISZERO PUSH2 0xB17 JUMPI PUSH2 0xB16 PUSH2 0x3680 JUMP JUMPDEST JUMPDEST PUSH1 0x40 MLOAD SWAP1 DUP1 DUP3 MSTORE DUP1 PUSH1 0x1F ADD PUSH1 0x1F NOT AND PUSH1 0x20 ADD DUP3 ADD PUSH1 0x40 MSTORE DUP1 ISZERO PUSH2 0xB49 JUMPI DUP2 PUSH1 0x20 ADD PUSH1 0x1 DUP3 MUL DUP1 CALLDATASIZE DUP4 CALLDATACOPY DUP1 DUP3 ADD SWAP2 POP POP SWAP1 POP JUMPDEST POP SWAP1 POP PUSH0 DUP5 SWAP1 POP JUMPDEST DUP3 DUP2 LT ISZERO PUSH2 0xBD0 JUMPI DUP7 DUP2 DUP2 MLOAD DUP2 LT PUSH2 0xB6C JUMPI PUSH2 0xB6B PUSH2 0x439E JUMP JUMPDEST JUMPDEST PUSH1 0x20 ADD ADD MLOAD PUSH1 0xF8 SHR PUSH1 0xF8 SHL DUP3 DUP7 DUP4 PUSH2 0xB84 SWAP2 SWAP1 PUSH2 0x43F8 JUMP JUMPDEST DUP2 MLOAD DUP2 LT PUSH2 0xB95 JUMPI PUSH2 0xB94 PUSH2 0x439E JUMP JUMPDEST JUMPDEST PUSH1 0x20 ADD ADD SWAP1 PUSH31 0xFFFFFFFFFFFFFFFFFFFFFFFFFFFFFFFFFFFFFFFFFFFFFFFFFFFFFFFFFFFFFF NOT AND SWAP1 DUP2 PUSH0 BYTE SWAP1 MSTORE8 POP DUP1 DUP1 PUSH1 0x1 ADD SWAP2 POP POP PUSH2 0xB51 JUMP JUMPDEST POP DUP1 SWAP7 POP POP POP POP POP POP POP JUMPDEST SWAP3 SWAP2 POP POP JUMP JUMPDEST PUSH2 0xBE9 PUSH2 0x337F JUMP JUMPDEST PUSH0 DUP3 PUSH4 0xFFFFFFFF AND SUB PUSH2 0xE01 JUMPI PUSH0 PUSH1 0x1 PUSH0 DUP1 SLOAD SWAP1 POP PUSH2 0xC08 SWAP2 SWAP1 PUSH2 0x43F8 JUMP JUMPDEST DUP2 SLOAD DUP2 LT PUSH2 0xC19 JUMPI PUSH2 0xC18 PUSH2 0x439E JUMP JUMPDEST JUMPDEST SWAP1 PUSH0 MSTORE PUSH1 0x20 PUSH0 KECCAK256 SWAP1 PUSH1 0x3 MUL ADD PUSH1 0x40 MLOAD DUP1 PUSH1 0xA0 ADD PUSH1 0x40 MSTORE SWAP1 DUP2 PUSH0 DUP3 ADD PUSH0 SWAP1 SLOAD SWAP1 PUSH2 0x100 EXP SWAP1 DIV PUSH4 0xFFFFFFFF AND PUSH4 0xFFFFFFFF AND PUSH4 0xFFFFFFFF AND DUP2 MSTORE PUSH1 0x20 ADD PUSH0 DUP3 ADD PUSH1 0x4 SWAP1 SLOAD SWAP1 PUSH2 0x100 EXP SWAP1 DIV PUSH4 0xFFFFFFFF AND PUSH4 0xFFFFFFFF AND PUSH4 0xFFFFFFFF AND DUP2 MSTORE PUSH1 0x20 ADD PUSH0 DUP3 ADD PUSH1 0x8 SWAP1 SLOAD SWAP1 PUSH2 0x100 EXP SWAP1 DIV PUSH4 0xFFFFFFFF AND PUSH4 0xFFFFFFFF AND PUSH4 0xFFFFFFFF AND DUP2 MSTORE PUSH1 0x20 ADD PUSH1 0x1 DUP3 ADD DUP1 SLOAD DUP1 PUSH1 0x20 MUL PUSH1 0x20 ADD PUSH1 0x40 MLOAD SWAP1 DUP2 ADD PUSH1 0x40 MSTORE DUP1 SWAP3 SWAP2 SWAP1 DUP2 DUP2 MSTORE PUSH1 0x20 ADD PUSH0 SWAP1 JUMPDEST DUP3 DUP3 LT ISZERO PUSH2 0xDD6 JUMPI DUP4 DUP3 SWAP1 PUSH0 MSTORE PUSH1 0x20 PUSH0 KECCAK256 SWAP1 PUSH1 0x2 MUL ADD PUSH1 0x40 MLOAD DUP1 PUSH1 0x40 ADD PUSH1 0x40 MSTORE SWAP1 DUP2 PUSH0 DUP3 ADD PUSH0 SWAP1 SLOAD SWAP1 PUSH2 0x100 EXP SWAP1 DIV PUSH20 0xFFFFFFFFFFFFFFFFFFFFFFFFFFFFFFFFFFFFFFFF AND PUSH20 0xFFFFFFFFFFFFFFFFFFFFFFFFFFFFFFFFFFFFFFFF AND PUSH20 0xFFFFFFFFFFFFFFFFFFFFFFFFFFFFFFFFFFFFFFFF AND DUP2 MSTORE PUSH1 0x20 ADD PUSH1 0x1 DUP3 ADD DUP1 SLOAD PUSH2 0xD47 SWAP1 PUSH2 0x453A JUMP JUMPDEST DUP1 PUSH1 0x1F ADD PUSH1 0x20 DUP1 SWAP2 DIV MUL PUSH1 0x20 ADD PUSH1 0x40 MLOAD SWAP1 DUP2 ADD PUSH1 0x40 MSTORE DUP1 SWAP3 SWAP2 SWAP1 DUP2 DUP2 MSTORE PUSH1 0x20 ADD DUP3 DUP1 SLOAD PUSH2 0xD73 SWAP1 PUSH2 0x453A JUMP JUMPDEST DUP1 ISZERO PUSH2 0xDBE JUMPI DUP1 PUSH1 0x1F LT PUSH2 0xD95 JUMPI PUSH2 0x100 DUP1 DUP4 SLOAD DIV MUL DUP4 MSTORE SWAP2 PUSH1 0x20 ADD SWAP2 PUSH2 0xDBE JUMP JUMPDEST DUP3 ADD SWAP2 SWAP1 PUSH0 MSTORE PUSH1 0x20 PUSH0 KECCAK256 SWAP1 JUMPDEST DUP2 SLOAD DUP2 MSTORE SWAP1 PUSH1 0x1 ADD SWAP1 PUSH1 0x20 ADD DUP1 DUP4 GT PUSH2 0xDA1 JUMPI DUP3 SWAP1 SUB PUSH1 0x1F AND DUP3 ADD SWAP2 JUMPDEST POP POP POP POP POP DUP2 MSTORE POP POP DUP2 MSTORE PUSH1 0x20 ADD SWAP1 PUSH1 0x1 ADD SWAP1 PUSH2 0xCC2 JUMP JUMPDEST POP POP POP POP DUP2 MSTORE PUSH1 0x20 ADD PUSH1 0x2 DUP3 ADD PUSH0 SWAP1 SLOAD SWAP1 PUSH2 0x100 EXP SWAP1 DIV PUSH1 0xFF AND PUSH1 0xFF AND PUSH1 0xFF AND DUP2 MSTORE POP POP SWAP1 POP PUSH2 0x100A JUMP JUMPDEST PUSH0 PUSH1 0x1 DUP4 PUSH2 0xE0F SWAP2 SWAP1 PUSH2 0x456A JUMP JUMPDEST PUSH4 0xFFFFFFFF AND DUP2 SLOAD DUP2 LT PUSH2 0xE26 JUMPI PUSH2 0xE25 PUSH2 0x439E JUMP JUMPDEST JUMPDEST SWAP1 PUSH0 MSTORE PUSH1 0x20 PUSH0 KECCAK256 SWAP1 PUSH1 0x3 MUL ADD PUSH1 0x40 MLOAD DUP1 PUSH1 0xA0 ADD PUSH1 0x40 MSTORE SWAP1 DUP2 PUSH0 DUP3 ADD PUSH0 SWAP1 SLOAD SWAP1 PUSH2 0x100 EXP SWAP1 DIV PUSH4 0xFFFFFFFF AND PUSH4 0xFFFFFFFF AND PUSH4 0xFFFFFFFF AND DUP2 MSTORE PUSH1 0x20 ADD PUSH0 DUP3 ADD PUSH1 0x4 SWAP1 SLOAD SWAP1 PUSH2 0x100 EXP SWAP1 DIV PUSH4 0xFFFFFFFF AND PUSH4 0xFFFFFFFF AND PUSH4 0xFFFFFFFF AND DUP2 MSTORE PUSH1 0x20 ADD PUSH0 DUP3 ADD PUSH1 0x8 SWAP1 SLOAD SWAP1 PUSH2 0x100 EXP SWAP1 DIV PUSH4 0xFFFFFFFF AND PUSH4 0xFFFFFFFF AND PUSH4 0xFFFFFFFF AND DUP2 MSTORE PUSH1 0x20 ADD PUSH1 0x1 DUP3 ADD DUP1 SLOAD DUP1 PUSH1 0x20 MUL PUSH1 0x20 ADD PUSH1 0x40 MLOAD SWAP1 DUP2 ADD PUSH1 0x40 MSTORE DUP1 SWAP3 SWAP2 SWAP1 DUP2 DUP2 MSTORE PUSH1 0x20 ADD PUSH0 SWAP1 JUMPDEST DUP3 DUP3 LT ISZERO PUSH2 0xFE3 JUMPI DUP4 DUP3 SWAP1 PUSH0 MSTORE PUSH1 0x20 PUSH0 KECCAK256 SWAP1 PUSH1 0x2 MUL ADD PUSH1 0x40 MLOAD DUP1 PUSH1 0x40 ADD PUSH1 0x40 MSTORE SWAP1 DUP2 PUSH0 DUP3 ADD PUSH0 SWAP1 SLOAD SWAP1 PUSH2 0x100 EXP SWAP1 DIV PUSH20 0xFFFFFFFFFFFFFFFFFFFFFFFFFFFFFFFFFFFFFFFF AND PUSH20 0xFFFFFFFFFFFFFFFFFFFFFFFFFFFFFFFFFFFFFFFF AND PUSH20 0xFFFFFFFFFFFFFFFFFFFFFFFFFFFFFFFFFFFFFFFF AND DUP2 MSTORE PUSH1 0x20 ADD PUSH1 0x1 DUP3 ADD DUP1 SLOAD PUSH2 0xF54 SWAP1 PUSH2 0x453A JUMP JUMPDEST DUP1 PUSH1 0x1F ADD PUSH1 0x20 DUP1 SWAP2 DIV MUL PUSH1 0x20 ADD PUSH1 0x40 MLOAD SWAP1 DUP2 ADD PUSH1 0x40 MSTORE DUP1 SWAP3 SWAP2 SWAP1 DUP2 DUP2 MSTORE PUSH1 0x20 ADD DUP3 DUP1 SLOAD PUSH2 0xF80 SWAP1 PUSH2 0x453A JUMP JUMPDEST DUP1 ISZERO PUSH2 0xFCB JUMPI DUP1 PUSH1 0x1F LT PUSH2 0xFA2 JUMPI PUSH2 0x100 DUP1 DUP4 SLOAD DIV MUL DUP4 MSTORE SWAP2 PUSH1 0x20 ADD SWAP2 PUSH2 0xFCB JUMP JUMPDEST DUP3 ADD SWAP2 SWAP1 PUSH0 MSTORE PUSH1 0x20 PUSH0 KECCAK256 SWAP1 JUMPDEST DUP2 SLOAD DUP2 MSTORE SWAP1 PUSH1 0x1 ADD SWAP1 PUSH1 0x20 ADD DUP1 DUP4 GT PUSH2 0xFAE JUMPI DUP3 SWAP1 SUB PUSH1 0x1F AND DUP3 ADD SWAP2 JUMPDEST POP POP POP POP POP DUP2 MSTORE POP POP DUP2 MSTORE PUSH1 0x20 ADD SWAP1 PUSH1 0x1 ADD SWAP1 PUSH2 0xECF JUMP JUMPDEST POP POP POP POP DUP2 MSTORE PUSH1 0x20 ADD PUSH1 0x2 DUP3 ADD PUSH0 SWAP1 SLOAD SWAP1 PUSH2 0x100 EXP SWAP1 DIV PUSH1 0xFF AND PUSH1 0xFF AND PUSH1 0xFF AND DUP2 MSTORE POP POP SWAP1 POP JUMPDEST SWAP2 SWAP1 POP JUMP JUMPDEST PUSH2 0x1017 PUSH2 0x2331 JUMP JUMPDEST PUSH0 PUSH1 0x1 PUSH1 0x14 SWAP1 SLOAD SWAP1 PUSH2 0x100 EXP SWAP1 DIV PUSH4 0xFFFFFFFF AND PUSH4 0xFFFFFFFF AND SUB PUSH2 0x105B JUMPI PUSH3 0x15180 PUSH1 0x1 PUSH1 0x14 PUSH2 0x100 EXP DUP2 SLOAD DUP2 PUSH4 0xFFFFFFFF MUL NOT AND SWAP1 DUP4 PUSH4 0xFFFFFFFF AND MUL OR SWAP1 SSTORE POP JUMPDEST PUSH0 PUSH0 DUP1 SLOAD SWAP1 POP GT ISZERO PUSH2 0x10B8 JUMPI TIMESTAMP PUSH0 PUSH1 0x1 PUSH0 DUP1 SLOAD SWAP1 POP PUSH2 0x107A SWAP2 SWAP1 PUSH2 0x43F8 JUMP JUMPDEST DUP2 SLOAD DUP2 LT PUSH2 0x108B JUMPI PUSH2 0x108A PUSH2 0x439E JUMP JUMPDEST JUMPDEST SWAP1 PUSH0 MSTORE PUSH1 0x20 PUSH0 KECCAK256 SWAP1 PUSH1 0x3 MUL ADD PUSH0 ADD PUSH1 0x8 PUSH2 0x100 EXP DUP2 SLOAD DUP2 PUSH4 0xFFFFFFFF MUL NOT AND SWAP1 DUP4 PUSH4 0xFFFFFFFF AND MUL OR SWAP1 SSTORE POP JUMPDEST PUSH1 0x1 DUP1 PUSH1 0x18 DUP3 DUP3 DUP3 SWAP1 SLOAD SWAP1 PUSH2 0x100 EXP SWAP1 DIV PUSH4 0xFFFFFFFF AND PUSH2 0x10D9 SWAP2 SWAP1 PUSH2 0x45A1 JUMP JUMPDEST SWAP3 POP PUSH2 0x100 EXP DUP2 SLOAD DUP2 PUSH4 0xFFFFFFFF MUL NOT AND SWAP1 DUP4 PUSH4 0xFFFFFFFF AND MUL OR SWAP1 SSTORE POP PUSH0 PUSH0 PUSH1 0x1 DUP2 PUSH1 0x1 DUP2 SLOAD ADD DUP1 DUP3 SSTORE DUP1 SWAP2 POP POP SUB SWAP1 PUSH0 MSTORE PUSH1 0x20 PUSH0 KECCAK256 SWAP1 PUSH1 0x3 MUL ADD SWAP1 POP PUSH1 0x1 PUSH1 0x18 SWAP1 SLOAD SWAP1 PUSH2 0x100 EXP SWAP1 DIV PUSH4 0xFFFFFFFF AND DUP2 PUSH0 ADD PUSH0 PUSH2 0x100 EXP DUP2 SLOAD DUP2 PUSH4 0xFFFFFFFF MUL NOT AND SWAP1 DUP4 PUSH4 0xFFFFFFFF AND MUL OR SWAP1 SSTORE POP TIMESTAMP DUP2 PUSH0 ADD PUSH1 0x4 PUSH2 0x100 EXP DUP2 SLOAD DUP2 PUSH4 0xFFFFFFFF MUL NOT AND SWAP1 DUP4 PUSH4 0xFFFFFFFF AND MUL OR SWAP1 SSTORE POP PUSH1 0x1 PUSH1 0x14 SWAP1 SLOAD SWAP1 PUSH2 0x100 EXP SWAP1 DIV PUSH4 0xFFFFFFFF AND PUSH4 0xFFFFFFFF AND TIMESTAMP PUSH2 0x1190 SWAP2 SWAP1 PUSH2 0x442B JUMP JUMPDEST DUP2 PUSH0 ADD PUSH1 0x8 PUSH2 0x100 EXP DUP2 SLOAD DUP2 PUSH4 0xFFFFFFFF MUL NOT AND SWAP1 DUP4 PUSH4 0xFFFFFFFF AND MUL OR SWAP1 SSTORE POP DUP2 DUP2 PUSH1 0x2 ADD PUSH0 PUSH2 0x100 EXP DUP2 SLOAD DUP2 PUSH1 0xFF MUL NOT AND SWAP1 DUP4 PUSH1 0xFF AND MUL OR SWAP1 SSTORE POP PUSH0 PUSH0 SWAP1 POP JUMPDEST DUP5 DUP5 SWAP1 POP DUP2 LT ISZERO PUSH2 0x1247 JUMPI DUP2 PUSH1 0x1 ADD DUP6 DUP6 DUP4 DUP2 DUP2 LT PUSH2 0x11F4 JUMPI PUSH2 0x11F3 PUSH2 0x439E JUMP JUMPDEST JUMPDEST SWAP1 POP PUSH1 0x20 MUL DUP2 ADD SWAP1 PUSH2 0x1206 SWAP2 SWAP1 PUSH2 0x45E4 JUMP JUMPDEST SWAP1 DUP1 PUSH1 0x1 DUP2 SLOAD ADD DUP1 DUP3 SSTORE DUP1 SWAP2 POP POP PUSH1 0x1 SWAP1 SUB SWAP1 PUSH0 MSTORE PUSH1 0x20 PUSH0 KECCAK256 SWAP1 PUSH1 0x2 MUL ADD PUSH0 SWAP1 SWAP2 SWAP1 SWAP2 SWAP1 SWAP2 POP DUP2 DUP2 PUSH2 0x1238 SWAP2 SWAP1 PUSH2 0x49FC JUMP JUMPDEST POP POP DUP1 DUP1 PUSH1 0x1 ADD SWAP2 POP POP PUSH2 0x11D2 JUMP JUMPDEST POP PUSH32 0xB2A1462B8D912A9FE495DA7A1188C48BB87BAC4644A0931AA4CE2DD7017CE365 PUSH0 PUSH1 0x1 PUSH0 DUP1 SLOAD SWAP1 POP PUSH2 0x127B SWAP2 SWAP1 PUSH2 0x43F8 JUMP JUMPDEST DUP2 SLOAD DUP2 LT PUSH2 0x128C JUMPI PUSH2 0x128B PUSH2 0x439E JUMP JUMPDEST JUMPDEST SWAP1 PUSH0 MSTORE PUSH1 0x20 PUSH0 KECCAK256 SWAP1 PUSH1 0x3 MUL ADD PUSH1 0x40 MLOAD PUSH2 0x12A5 SWAP2 SWAP1 PUSH2 0x4CEA JUMP JUMPDEST PUSH1 0x40 MLOAD DUP1 SWAP2 SUB SWAP1 LOG1 POP POP POP POP JUMP JUMPDEST PUSH2 0x12BB PUSH2 0x23B8 JUMP JUMPDEST PUSH2 0x12C4 DUP3 PUSH2 0x249E JUMP JUMPDEST PUSH2 0x12CE DUP3 DUP3 PUSH2 0x24A9 JUMP JUMPDEST POP POP JUMP JUMPDEST PUSH0 PUSH2 0x12DB PUSH2 0x25C7 JUMP JUMPDEST PUSH32 0x360894A13BA1A3210667C828492DB98DCA3E2076CC3735A920A3CA505D382BBC PUSH0 SHL SWAP1 POP SWAP1 JUMP JUMPDEST PUSH0 CALLER DUP3 PUSH1 0x40 MLOAD PUSH1 0x20 ADD PUSH2 0x1317 SWAP3 SWAP2 SWAP1 PUSH2 0x4D6F JUMP JUMPDEST PUSH1 0x40 MLOAD PUSH1 0x20 DUP2 DUP4 SUB SUB DUP2 MSTORE SWAP1 PUSH1 0x40 MSTORE DUP1 MLOAD SWAP1 PUSH1 0x20 ADD KECCAK256 SWAP1 POP DUP2 PUSH1 0x6 PUSH0 DUP4 DUP2 MSTORE PUSH1 0x20 ADD SWAP1 DUP2 MSTORE PUSH1 0x20 ADD PUSH0 KECCAK256 SLOAD SUB PUSH2 0x1382 JUMPI PUSH1 0x40 MLOAD PUSH32 0x8C379A000000000000000000000000000000000000000000000000000000000 DUP2 MSTORE PUSH1 0x4 ADD PUSH2 0x1379 SWAP1 PUSH2 0x4DE4 JUMP JUMPDEST PUSH1 0x40 MLOAD DUP1 SWAP2 SUB SWAP1 REVERT JUMPDEST DUP2 PUSH1 0x6 PUSH0 DUP4 DUP2 MSTORE PUSH1 0x20 ADD SWAP1 DUP2 MSTORE PUSH1 0x20 ADD PUSH0 KECCAK256 DUP2 SWAP1 SSTORE POP DUP1 PUSH32 0xE1BA945D9CF27531473738A81CB433321B8FCCB7AA326B0DD4F820C23A6D277F PUSH1 0x40 MLOAD PUSH1 0x40 MLOAD DUP1 SWAP2 SUB SWAP1 LOG2 POP POP JUMP JUMPDEST PUSH1 0x60 DUP2 PUSH0 ADD MLOAD PUSH0 ADD MLOAD SWAP1 POP SWAP2 SWAP1 POP JUMP JUMPDEST PUSH2 0x13E1 PUSH2 0x2331 JUMP JUMPDEST PUSH2 0x13EA PUSH0 PUSH2 0x264E JUMP JUMPDEST JUMP JUMPDEST PUSH0 PUSH0 PUSH2 0x13F8 DUP5 DUP5 PUSH2 0x271F JUMP JUMPDEST SWAP1 POP PUSH1 0x5 PUSH0 DUP3 DUP2 MSTORE PUSH1 0x20 ADD SWAP1 DUP2 MSTORE PUSH1 0x20 ADD PUSH0 KECCAK256 PUSH0 SWAP1 SLOAD SWAP1 PUSH2 0x100 EXP SWAP1 DIV PUSH1 0xFF AND SWAP2 POP POP SWAP3 SWAP2 POP POP JUMP JUMPDEST PUSH1 0x1 PUSH1 0x18 SWAP1 SLOAD SWAP1 PUSH2 0x100 EXP SWAP1 DIV PUSH4 0xFFFFFFFF AND DUP2 JUMP JUMPDEST PUSH1 0x4 PUSH0 SWAP1 SLOAD SWAP1 PUSH2 0x100 EXP SWAP1 DIV PUSH1 0xFF AND ISZERO PUSH2 0x1486 JUMPI PUSH1 0x40 MLOAD PUSH32 0x8C379A000000000000000000000000000000000000000000000000000000000 DUP2 MSTORE PUSH1 0x4 ADD PUSH2 0x147D SWAP1 PUSH2 0x4E4C JUMP JUMPDEST PUSH1 0x40 MLOAD DUP1 SWAP2 SUB SWAP1 REVERT JUMPDEST PUSH1 0x1 PUSH1 0x4 PUSH0 PUSH2 0x100 EXP DUP2 SLOAD DUP2 PUSH1 0xFF MUL NOT AND SWAP1 DUP4 ISZERO ISZERO MUL OR SWAP1 SSTORE POP PUSH0 PUSH2 0x14B0 DUP4 PUSH0 ADD MLOAD PUSH0 ADD MLOAD PUSH2 0x2792 JUMP JUMPDEST SWAP1 POP PUSH0 PUSH2 0x14CA DUP5 PUSH0 ADD MLOAD PUSH0 ADD MLOAD DUP6 PUSH0 ADD MLOAD PUSH1 0x20 ADD MLOAD PUSH2 0x271F JUMP JUMPDEST SWAP1 POP PUSH1 0x1 ISZERO ISZERO PUSH1 0x5 PUSH0 DUP4 DUP2 MSTORE PUSH1 0x20 ADD SWAP1 DUP2 MSTORE PUSH1 0x20 ADD PUSH0 KECCAK256 PUSH0 SWAP1 SLOAD SWAP1 PUSH2 0x100 EXP SWAP1 DIV PUSH1 0xFF AND ISZERO ISZERO SUB PUSH2 0x1527 JUMPI PUSH1 0x40 MLOAD PUSH32 0xFD2131A100000000000000000000000000000000000000000000000000000000 DUP2 MSTORE PUSH1 0x4 ADD PUSH1 0x40 MLOAD DUP1 SWAP2 SUB SWAP1 REVERT JUMPDEST PUSH2 0x1530 DUP5 PUSH2 0x177B JUMP JUMPDEST PUSH1 0x1 ISZERO ISZERO PUSH1 0x2 PUSH0 DUP5 DUP2 MSTORE PUSH1 0x20 ADD SWAP1 DUP2 MSTORE PUSH1 0x20 ADD PUSH0 KECCAK256 PUSH0 SWAP1 SLOAD SWAP1 PUSH2 0x100 EXP SWAP1 DIV PUSH1 0xFF AND ISZERO ISZERO EQ PUSH2 0x156B JUMPI PUSH2 0x156A DUP5 PUSH0 ADD MLOAD PUSH0 ADD MLOAD PUSH1 0x14 PUSH2 0x1D1F JUMP JUMPDEST JUMPDEST PUSH1 0x1 PUSH0 SWAP1 SLOAD SWAP1 PUSH2 0x100 EXP SWAP1 DIV PUSH20 0xFFFFFFFFFFFFFFFFFFFFFFFFFFFFFFFFFFFFFFFF AND PUSH20 0xFFFFFFFFFFFFFFFFFFFFFFFFFFFFFFFFFFFFFFFF AND PUSH4 0x1783EFC3 DUP4 DUP6 PUSH1 0x40 MLOAD DUP4 PUSH4 0xFFFFFFFF AND PUSH1 0xE0 SHL DUP2 MSTORE PUSH1 0x4 ADD PUSH2 0x15C7 SWAP3 SWAP2 SWAP1 PUSH2 0x4E79 JUMP JUMPDEST PUSH0 PUSH1 0x40 MLOAD DUP1 DUP4 SUB DUP2 PUSH0 DUP8 DUP1 EXTCODESIZE ISZERO DUP1 ISZERO PUSH2 0x15DE JUMPI PUSH0 PUSH0 REVERT JUMPDEST POP GAS CALL ISZERO DUP1 ISZERO PUSH2 0x15F0 JUMPI RETURNDATASIZE PUSH0 PUSH0 RETURNDATACOPY RETURNDATASIZE PUSH0 REVERT JUMPDEST POP POP POP POP PUSH1 0x1 PUSH1 0x5 PUSH0 DUP4 DUP2 MSTORE PUSH1 0x20 ADD SWAP1 DUP2 MSTORE PUSH1 0x20 ADD PUSH0 KECCAK256 PUSH0 PUSH2 0x100 EXP DUP2 SLOAD DUP2 PUSH1 0xFF MUL NOT AND SWAP1 DUP4 ISZERO ISZERO MUL OR SWAP1 SSTORE POP POP POP PUSH0 PUSH1 0x4 PUSH0 PUSH2 0x100 EXP DUP2 SLOAD DUP2 PUSH1 0xFF MUL NOT AND SWAP1 DUP4 ISZERO ISZERO MUL OR SWAP1 SSTORE POP POP POP JUMP JUMPDEST PUSH0 DUP4 PUSH1 0x6 PUSH0 DUP6 DUP2 MSTORE PUSH1 0x20 ADD SWAP1 DUP2 MSTORE PUSH1 0x20 ADD PUSH0 KECCAK256 SLOAD EQ PUSH2 0x1690 JUMPI PUSH1 0x40 MLOAD PUSH32 0x8C379A000000000000000000000000000000000000000000000000000000000 DUP2 MSTORE PUSH1 0x4 ADD PUSH2 0x1687 SWAP1 PUSH2 0x4EEA JUMP JUMPDEST PUSH1 0x40 MLOAD DUP1 SWAP2 SUB SWAP1 REVERT JUMPDEST PUSH0 PUSH2 0x169A DUP10 PUSH2 0x2792 JUMP JUMPDEST SWAP1 POP PUSH1 0x1 PUSH0 SWAP1 SLOAD SWAP1 PUSH2 0x100 EXP SWAP1 DIV PUSH20 0xFFFFFFFFFFFFFFFFFFFFFFFFFFFFFFFFFFFFFFFF AND PUSH20 0xFFFFFFFFFFFFFFFFFFFFFFFFFFFFFFFFFFFFFFFF AND PUSH4 0x3BC778E3 DUP3 DUP11 DUP11 DUP11 DUP11 DUP10 PUSH1 0x40 MLOAD DUP8 PUSH4 0xFFFFFFFF AND PUSH1 0xE0 SHL DUP2 MSTORE PUSH1 0x4 ADD PUSH2 0x1700 SWAP7 SWAP6 SWAP5 SWAP4 SWAP3 SWAP2 SWAP1 PUSH2 0x4F22 JUMP JUMPDEST PUSH0 PUSH1 0x40 MLOAD DUP1 DUP4 SUB DUP2 PUSH0 DUP8 DUP1 EXTCODESIZE ISZERO DUP1 ISZERO PUSH2 0x1717 JUMPI PUSH0 PUSH0 REVERT JUMPDEST POP GAS CALL SWAP3 POP POP POP DUP1 ISZERO PUSH2 0x1728 JUMPI POP PUSH1 0x1 JUMPDEST PUSH2 0x1735 JUMPI PUSH0 SWAP2 POP POP PUSH2 0x173B JUMP JUMPDEST PUSH1 0x1 SWAP2 POP POP JUMPDEST SWAP8 SWAP7 POP POP POP POP POP POP POP JUMP JUMPDEST PUSH0 PUSH0 PUSH2 0x1750 PUSH2 0x27E6 JUMP JUMPDEST SWAP1 POP DUP1 PUSH0 ADD PUSH0 SWAP1 SLOAD SWAP1 PUSH2 0x100 EXP SWAP1 DIV PUSH20 0xFFFFFFFFFFFFFFFFFFFFFFFFFFFFFFFFFFFFFFFF AND SWAP2 POP POP SWAP1 JUMP JUMPDEST PUSH0 DUP2 PUSH1 0x20 ADD MLOAD PUSH1 0x20 ADD MLOAD MLOAD GT PUSH2 0x17C6 JUMPI PUSH1 0x40 MLOAD PUSH32 0x8C379A000000000000000000000000000000000000000000000000000000000 DUP2 MSTORE PUSH1 0x4 ADD PUSH2 0x17BD SWAP1 PUSH2 0x4FCC JUMP JUMPDEST PUSH1 0x40 MLOAD DUP1 SWAP2 SUB SWAP1 REVERT JUMPDEST PUSH0 PUSH1 0x40 MLOAD DUP1 PUSH1 0x40 ADD PUSH1 0x40 MSTORE DUP1 DUP4 PUSH1 0x20 ADD MLOAD PUSH0 ADD MLOAD DUP2 MSTORE PUSH1 0x20 ADD DUP4 PUSH1 0x20 ADD MLOAD PUSH1 0x20 ADD MLOAD DUP2 MSTORE POP SWAP1 POP PUSH0 PUSH2 0x17FA DUP4 PUSH0 ADD MLOAD PUSH2 0x280D JUMP JUMPDEST SWAP1 POP DUP1 DUP4 PUSH1 0x20 ADD MLOAD PUSH0 ADD MLOAD PUSH0 ADD MLOAD EQ PUSH2 0x1811 JUMPI PUSH0 PUSH0 REVERT JUMPDEST PUSH0 PUSH2 0x183D DUP5 PUSH1 0x20 ADD MLOAD PUSH0 ADD MLOAD PUSH1 0x60 ADD MLOAD DUP6 PUSH1 0x20 ADD MLOAD PUSH0 ADD MLOAD PUSH0 ADD MLOAD DUP7 PUSH1 0x20 ADD MLOAD PUSH0 ADD MLOAD PUSH1 0x40 ADD MLOAD PUSH2 0x525 JUMP JUMPDEST SWAP1 POP PUSH0 PUSH2 0x1849 DUP5 PUSH2 0x2850 JUMP JUMPDEST SWAP1 POP DUP2 MLOAD DUP2 MLOAD EQ PUSH2 0x188F JUMPI PUSH1 0x40 MLOAD PUSH32 0x8C379A000000000000000000000000000000000000000000000000000000000 DUP2 MSTORE PUSH1 0x4 ADD PUSH2 0x1886 SWAP1 PUSH2 0x505A JUMP JUMPDEST PUSH1 0x40 MLOAD DUP1 SWAP2 SUB SWAP1 REVERT JUMPDEST PUSH0 PUSH0 SWAP1 POP JUMPDEST DUP2 MLOAD DUP2 LT ISZERO PUSH2 0x1971 JUMPI PUSH0 PUSH0 SWAP1 POP JUMPDEST DUP3 MLOAD DUP2 LT ISZERO PUSH2 0x1963 JUMPI DUP1 DUP3 SUB ISZERO PUSH2 0x1956 JUMPI DUP3 DUP2 DUP2 MLOAD DUP2 LT PUSH2 0x18C6 JUMPI PUSH2 0x18C5 PUSH2 0x439E JUMP JUMPDEST JUMPDEST PUSH1 0x20 MUL PUSH1 0x20 ADD ADD MLOAD PUSH20 0xFFFFFFFFFFFFFFFFFFFFFFFFFFFFFFFFFFFFFFFF AND DUP4 DUP4 DUP2 MLOAD DUP2 LT PUSH2 0x18F7 JUMPI PUSH2 0x18F6 PUSH2 0x439E JUMP JUMPDEST JUMPDEST PUSH1 0x20 MUL PUSH1 0x20 ADD ADD MLOAD PUSH20 0xFFFFFFFFFFFFFFFFFFFFFFFFFFFFFFFFFFFFFFFF AND SUB PUSH2 0x1955 JUMPI PUSH1 0x40 MLOAD PUSH32 0x8C379A000000000000000000000000000000000000000000000000000000000 DUP2 MSTORE PUSH1 0x4 ADD PUSH2 0x194C SWAP1 PUSH2 0x50C2 JUMP JUMPDEST PUSH1 0x40 MLOAD DUP1 SWAP2 SUB SWAP1 REVERT JUMPDEST JUMPDEST DUP1 DUP1 PUSH1 0x1 ADD SWAP2 POP POP PUSH2 0x18A2 JUMP JUMPDEST POP DUP1 DUP1 PUSH1 0x1 ADD SWAP2 POP POP PUSH2 0x1894 JUMP JUMPDEST POP PUSH0 PUSH0 SWAP1 POP JUMPDEST DUP5 PUSH1 0x20 ADD MLOAD MLOAD DUP2 LT ISZERO PUSH2 0x1A65 JUMPI PUSH0 PUSH0 SWAP1 POP PUSH0 PUSH0 SWAP1 POP JUMPDEST DUP5 MLOAD DUP2 LT ISZERO PUSH2 0x1A16 JUMPI DUP5 DUP2 DUP2 MLOAD DUP2 LT PUSH2 0x19A9 JUMPI PUSH2 0x19A8 PUSH2 0x439E JUMP JUMPDEST JUMPDEST PUSH1 0x20 MUL PUSH1 0x20 ADD ADD MLOAD PUSH0 ADD MLOAD PUSH20 0xFFFFFFFFFFFFFFFFFFFFFFFFFFFFFFFFFFFFFFFF AND DUP5 DUP5 DUP2 MLOAD DUP2 LT PUSH2 0x19DD JUMPI PUSH2 0x19DC PUSH2 0x439E JUMP JUMPDEST JUMPDEST PUSH1 0x20 MUL PUSH1 0x20 ADD ADD MLOAD PUSH20 0xFFFFFFFFFFFFFFFFFFFFFFFFFFFFFFFFFFFFFFFF AND SUB PUSH2 0x1A09 JUMPI PUSH1 0x1 SWAP2 POP PUSH2 0x1A16 JUMP JUMPDEST DUP1 DUP1 PUSH1 0x1 ADD SWAP2 POP POP PUSH2 0x198D JUMP JUMPDEST POP DUP1 PUSH2 0x1A57 JUMPI PUSH1 0x40 MLOAD PUSH32 0x8C379A000000000000000000000000000000000000000000000000000000000 DUP2 MSTORE PUSH1 0x4 ADD PUSH2 0x1A4E SWAP1 PUSH2 0x512A JUMP JUMPDEST PUSH1 0x40 MLOAD DUP1 SWAP2 SUB SWAP1 REVERT JUMPDEST POP DUP1 DUP1 PUSH1 0x1 ADD SWAP2 POP POP PUSH2 0x1977 JUMP JUMPDEST POP POP POP POP POP POP JUMP JUMPDEST PUSH1 0x40 MLOAD DUP1 PUSH1 0x40 ADD PUSH1 0x40 MSTORE DUP1 PUSH1 0x5 DUP2 MSTORE PUSH1 0x20 ADD PUSH32 0x352E302E30000000000000000000000000000000000000000000000000000000 DUP2 MSTORE POP DUP2 JUMP JUMPDEST PUSH0 PUSH2 0x1AAF PUSH2 0x2951 JUMP JUMPDEST SWAP1 POP PUSH0 DUP2 PUSH0 ADD PUSH1 0x8 SWAP1 SLOAD SWAP1 PUSH2 0x100 EXP SWAP1 DIV PUSH1 0xFF AND ISZERO SWAP1 POP PUSH0 DUP3 PUSH0 ADD PUSH0 SWAP1 SLOAD SWAP1 PUSH2 0x100 EXP SWAP1 DIV PUSH8 0xFFFFFFFFFFFFFFFF AND SWAP1 POP PUSH0 PUSH0 DUP3 PUSH8 0xFFFFFFFFFFFFFFFF AND EQ DUP1 ISZERO PUSH2 0x1AF7 JUMPI POP DUP3 JUMPDEST SWAP1 POP PUSH0 PUSH1 0x1 DUP4 PUSH8 0xFFFFFFFFFFFFFFFF AND EQ DUP1 ISZERO PUSH2 0x1B2A JUMPI POP PUSH0 ADDRESS PUSH20 0xFFFFFFFFFFFFFFFFFFFFFFFFFFFFFFFFFFFFFFFF AND EXTCODESIZE EQ JUMPDEST SWAP1 POP DUP2 ISZERO DUP1 ISZERO PUSH2 0x1B38 JUMPI POP DUP1 ISZERO JUMPDEST ISZERO PUSH2 0x1B6F JUMPI PUSH1 0x40 MLOAD PUSH32 0xF92EE8A900000000000000000000000000000000000000000000000000000000 DUP2 MSTORE PUSH1 0x4 ADD PUSH1 0x40 MLOAD DUP1 SWAP2 SUB SWAP1 REVERT JUMPDEST PUSH1 0x1 DUP6 PUSH0 ADD PUSH0 PUSH2 0x100 EXP DUP2 SLOAD DUP2 PUSH8 0xFFFFFFFFFFFFFFFF MUL NOT AND SWAP1 DUP4 PUSH8 0xFFFFFFFFFFFFFFFF AND MUL OR SWAP1 SSTORE POP DUP4 ISZERO PUSH2 0x1BBC JUMPI PUSH1 0x1 DUP6 PUSH0 ADD PUSH1 0x8 PUSH2 0x100 EXP DUP2 SLOAD DUP2 PUSH1 0xFF MUL NOT AND SWAP1 DUP4 ISZERO ISZERO MUL OR SWAP1 SSTORE POP JUMPDEST PUSH2 0x1BC5 CALLER PUSH2 0x2978 JUMP JUMPDEST PUSH3 0x15180 PUSH1 0x1 PUSH1 0x14 PUSH2 0x100 EXP DUP2 SLOAD DUP2 PUSH4 0xFFFFFFFF MUL NOT AND SWAP1 DUP4 PUSH4 0xFFFFFFFF AND MUL OR SWAP1 SSTORE POP PUSH0 PUSH1 0x1 PUSH1 0x18 PUSH2 0x100 EXP DUP2 SLOAD DUP2 PUSH4 0xFFFFFFFF MUL NOT AND SWAP1 DUP4 PUSH4 0xFFFFFFFF AND MUL OR SWAP1 SSTORE POP DUP6 PUSH1 0x1 PUSH0 PUSH2 0x100 EXP DUP2 SLOAD DUP2 PUSH20 0xFFFFFFFFFFFFFFFFFFFFFFFFFFFFFFFFFFFFFFFF MUL NOT AND SWAP1 DUP4 PUSH20 0xFFFFFFFFFFFFFFFFFFFFFFFFFFFFFFFFFFFFFFFF AND MUL OR SWAP1 SSTORE POP DUP4 ISZERO PUSH2 0x1CA4 JUMPI PUSH0 DUP6 PUSH0 ADD PUSH1 0x8 PUSH2 0x100 EXP DUP2 SLOAD DUP2 PUSH1 0xFF MUL NOT AND SWAP1 DUP4 ISZERO ISZERO MUL OR SWAP1 SSTORE POP PUSH32 0xC7F505B2F371AE2175EE4913F4499E1F2633A7B5936321EED1CDAEB6115181D2 PUSH1 0x1 PUSH1 0x40 MLOAD PUSH2 0x1C9B SWAP2 SWAP1 PUSH2 0x5194 JUMP JUMPDEST PUSH1 0x40 MLOAD DUP1 SWAP2 SUB SWAP1 LOG1 JUMPDEST POP POP POP POP POP POP JUMP JUMPDEST PUSH0 DUP2 DUP2 SLOAD DUP2 LT PUSH2 0x1CBA JUMPI PUSH0 DUP1 REVERT JUMPDEST SWAP1 PUSH0 MSTORE PUSH1 0x20 PUSH0 KECCAK256 SWAP1 PUSH1 0x3 MUL ADD PUSH0 SWAP2 POP SWAP1 POP DUP1 PUSH0 ADD PUSH0 SWAP1 SLOAD SWAP1 PUSH2 0x100 EXP SWAP1 DIV PUSH4 0xFFFFFFFF AND SWAP1 DUP1 PUSH0 ADD PUSH1 0x4 SWAP1 SLOAD SWAP1 PUSH2 0x100 EXP SWAP1 DIV PUSH4 0xFFFFFFFF AND SWAP1 DUP1 PUSH0 ADD PUSH1 0x8 SWAP1 SLOAD SWAP1 PUSH2 0x100 EXP SWAP1 DIV PUSH4 0xFFFFFFFF AND SWAP1 DUP1 PUSH1 0x2 ADD PUSH0 SWAP1 SLOAD SWAP1 PUSH2 0x100 EXP SWAP1 DIV PUSH1 0xFF AND SWAP1 POP DUP5 JUMP JUMPDEST PUSH0 PUSH2 0x1D29 DUP4 PUSH2 0x2792 JUMP JUMPDEST SWAP1 POP PUSH1 0x1 ISZERO ISZERO PUSH1 0x2 PUSH0 DUP4 DUP2 MSTORE PUSH1 0x20 ADD SWAP1 DUP2 MSTORE PUSH1 0x20 ADD PUSH0 KECCAK256 PUSH0 SWAP1 SLOAD SWAP1 PUSH2 0x100 EXP SWAP1 DIV PUSH1 0xFF AND ISZERO ISZERO SUB PUSH2 0x1D86 JUMPI PUSH1 0x40 MLOAD PUSH32 0x8CDD92E900000000000000000000000000000000000000000000000000000000 DUP2 MSTORE PUSH1 0x4 ADD PUSH1 0x40 MLOAD DUP1 SWAP2 SUB SWAP1 REVERT JUMPDEST PUSH1 0x1 PUSH0 SWAP1 SLOAD SWAP1 PUSH2 0x100 EXP SWAP1 DIV PUSH20 0xFFFFFFFFFFFFFFFFFFFFFFFFFFFFFFFFFFFFFFFF AND PUSH20 0xFFFFFFFFFFFFFFFFFFFFFFFFFFFFFFFFFFFFFFFF AND PUSH4 0x9C112141 DUP3 DUP5 ADDRESS PUSH1 0x40 MLOAD DUP5 PUSH4 0xFFFFFFFF AND PUSH1 0xE0 SHL DUP2 MSTORE PUSH1 0x4 ADD PUSH2 0x1DE4 SWAP4 SWAP3 SWAP2 SWAP1 PUSH2 0x51AD JUMP JUMPDEST PUSH0 PUSH1 0x40 MLOAD DUP1 DUP4 SUB DUP2 PUSH0 DUP8 DUP1 EXTCODESIZE ISZERO DUP1 ISZERO PUSH2 0x1DFB JUMPI PUSH0 PUSH0 REVERT JUMPDEST POP GAS CALL ISZERO DUP1 ISZERO PUSH2 0x1E0D JUMPI RETURNDATASIZE PUSH0 PUSH0 RETURNDATACOPY RETURNDATASIZE PUSH0 REVERT JUMPDEST POP POP POP POP PUSH1 0x1 PUSH1 0x2 PUSH0 DUP4 DUP2 MSTORE PUSH1 0x20 ADD SWAP1 DUP2 MSTORE PUSH1 0x20 ADD PUSH0 KECCAK256 PUSH0 PUSH2 0x100 EXP DUP2 SLOAD DUP2 PUSH1 0xFF MUL NOT AND SWAP1 DUP4 ISZERO ISZERO MUL OR SWAP1 SSTORE POP DUP3 PUSH1 0x40 MLOAD PUSH2 0x1E48 SWAP2 SWAP1 PUSH2 0x51E2 JUMP JUMPDEST PUSH1 0x40 MLOAD DUP1 SWAP2 SUB SWAP1 KECCAK256 DUP2 PUSH32 0xA27DF82D27A5B2A66BCD0C6210F8024283ED1197A6D8E30372F8DF2E487C376E PUSH1 0x40 MLOAD PUSH1 0x40 MLOAD DUP1 SWAP2 SUB SWAP1 LOG3 POP POP POP JUMP JUMPDEST PUSH2 0x1E8A PUSH2 0x2331 JUMP JUMPDEST PUSH0 PUSH20 0xFFFFFFFFFFFFFFFFFFFFFFFFFFFFFFFFFFFFFFFF AND DUP2 PUSH20 0xFFFFFFFFFFFFFFFFFFFFFFFFFFFFFFFFFFFFFFFF AND SUB PUSH2 0x1EFA JUMPI PUSH0 PUSH1 0x40 MLOAD PUSH32 0x1E4FBDF700000000000000000000000000000000000000000000000000000000 DUP2 MSTORE PUSH1 0x4 ADD PUSH2 0x1EF1 SWAP2 SWAP1 PUSH2 0x4135 JUMP JUMPDEST PUSH1 0x40 MLOAD DUP1 SWAP2 SUB SWAP1 REVERT JUMPDEST PUSH2 0x1F03 DUP2 PUSH2 0x264E JUMP JUMPDEST POP JUMP JUMPDEST PUSH1 0x1 PUSH0 SWAP1 SLOAD SWAP1 PUSH2 0x100 EXP SWAP1 DIV PUSH20 0xFFFFFFFFFFFFFFFFFFFFFFFFFFFFFFFFFFFFFFFF AND DUP2 JUMP JUMPDEST PUSH1 0x60 PUSH0 PUSH1 0x2 DUP4 MLOAD PUSH2 0x1F3C SWAP2 SWAP1 PUSH2 0x51F8 JUMP JUMPDEST PUSH8 0xFFFFFFFFFFFFFFFF DUP2 GT ISZERO PUSH2 0x1F55 JUMPI PUSH2 0x1F54 PUSH2 0x3680 JUMP JUMPDEST JUMPDEST PUSH1 0x40 MLOAD SWAP1 DUP1 DUP3 MSTORE DUP1 PUSH1 0x1F ADD PUSH1 0x1F NOT AND PUSH1 0x20 ADD DUP3 ADD PUSH1 0x40 MSTORE DUP1 ISZERO PUSH2 0x1F87 JUMPI DUP2 PUSH1 0x20 ADD PUSH1 0x1 DUP3 MUL DUP1 CALLDATASIZE DUP4 CALLDATACOPY DUP1 DUP3 ADD SWAP2 POP POP SWAP1 POP JUMPDEST POP SWAP1 POP PUSH0 PUSH1 0x40 MLOAD DUP1 PUSH1 0x40 ADD PUSH1 0x40 MSTORE DUP1 PUSH1 0x10 DUP2 MSTORE PUSH1 0x20 ADD PUSH32 0x3031323334353637383961626364656600000000000000000000000000000000 DUP2 MSTORE POP SWAP1 POP PUSH0 PUSH0 SWAP1 POP JUMPDEST DUP5 MLOAD DUP2 LT ISZERO PUSH2 0x211E JUMPI DUP2 DUP3 MLOAD DUP7 DUP4 DUP2 MLOAD DUP2 LT PUSH2 0x1FE7 JUMPI PUSH2 0x1FE6 PUSH2 0x439E JUMP JUMPDEST JUMPDEST PUSH1 0x20 ADD ADD MLOAD PUSH1 0xF8 SHR PUSH1 0xF8 SHL PUSH1 0xF8 SHR PUSH1 0xFF AND PUSH2 0x2002 SWAP2 SWAP1 PUSH2 0x5239 JUMP JUMPDEST DUP2 MLOAD DUP2 LT PUSH2 0x2013 JUMPI PUSH2 0x2012 PUSH2 0x439E JUMP JUMPDEST JUMPDEST PUSH1 0x20 ADD ADD MLOAD PUSH1 0xF8 SHR PUSH1 0xF8 SHL DUP4 PUSH1 0x2 DUP4 PUSH2 0x202C SWAP2 SWAP1 PUSH2 0x51F8 JUMP JUMPDEST DUP2 MLOAD DUP2 LT PUSH2 0x203D JUMPI PUSH2 0x203C PUSH2 0x439E JUMP JUMPDEST JUMPDEST PUSH1 0x20 ADD ADD SWAP1 PUSH31 0xFFFFFFFFFFFFFFFFFFFFFFFFFFFFFFFFFFFFFFFFFFFFFFFFFFFFFFFFFFFFFF NOT AND SWAP1 DUP2 PUSH0 BYTE SWAP1 MSTORE8 POP DUP2 DUP3 MLOAD DUP7 DUP4 DUP2 MLOAD DUP2 LT PUSH2 0x2081 JUMPI PUSH2 0x2080 PUSH2 0x439E JUMP JUMPDEST JUMPDEST PUSH1 0x20 ADD ADD MLOAD PUSH1 0xF8 SHR PUSH1 0xF8 SHL PUSH1 0xF8 SHR PUSH1 0xFF AND PUSH2 0x209C SWAP2 SWAP1 PUSH2 0x436E JUMP JUMPDEST DUP2 MLOAD DUP2 LT PUSH2 0x20AD JUMPI PUSH2 0x20AC PUSH2 0x439E JUMP JUMPDEST JUMPDEST PUSH1 0x20 ADD ADD MLOAD PUSH1 0xF8 SHR PUSH1 0xF8 SHL DUP4 PUSH1 0x1 PUSH1 0x2 DUP5 PUSH2 0x20C8 SWAP2 SWAP1 PUSH2 0x51F8 JUMP JUMPDEST PUSH2 0x20D2 SWAP2 SWAP1 PUSH2 0x442B JUMP JUMPDEST DUP2 MLOAD DUP2 LT PUSH2 0x20E3 JUMPI PUSH2 0x20E2 PUSH2 0x439E JUMP JUMPDEST JUMPDEST PUSH1 0x20 ADD ADD SWAP1 PUSH31 0xFFFFFFFFFFFFFFFFFFFFFFFFFFFFFFFFFFFFFFFFFFFFFFFFFFFFFFFFFFFFFF NOT AND SWAP1 DUP2 PUSH0 BYTE SWAP1 MSTORE8 POP DUP1 DUP1 PUSH1 0x1 ADD SWAP2 POP POP PUSH2 0x1FC8 JUMP JUMPDEST POP DUP2 PUSH1 0x40 MLOAD PUSH1 0x20 ADD PUSH2 0x2130 SWAP2 SWAP1 PUSH2 0x52F7 JUMP JUMPDEST PUSH1 0x40 MLOAD PUSH1 0x20 DUP2 DUP4 SUB SUB DUP2 MSTORE SWAP1 PUSH1 0x40 MSTORE SWAP3 POP POP POP SWAP2 SWAP1 POP JUMP JUMPDEST PUSH1 0x60 PUSH0 DUP3 SUB PUSH2 0x218E JUMPI PUSH1 0x40 MLOAD DUP1 PUSH1 0x40 ADD PUSH1 0x40 MSTORE DUP1 PUSH1 0x1 DUP2 MSTORE PUSH1 0x20 ADD PUSH32 0x3000000000000000000000000000000000000000000000000000000000000000 DUP2 MSTORE POP SWAP1 POP PUSH2 0x22C1 JUMP JUMPDEST PUSH0 DUP3 SWAP1 POP PUSH0 JUMPDEST PUSH0 DUP3 EQ PUSH2 0x21BD JUMPI DUP1 DUP1 PUSH2 0x21A6 SWAP1 PUSH2 0x44C6 JUMP JUMPDEST SWAP2 POP POP PUSH1 0xA DUP3 PUSH2 0x21B6 SWAP2 SWAP1 PUSH2 0x5239 JUMP JUMPDEST SWAP2 POP PUSH2 0x2194 JUMP JUMPDEST PUSH0 DUP2 PUSH8 0xFFFFFFFFFFFFFFFF DUP2 GT ISZERO PUSH2 0x21D8 JUMPI PUSH2 0x21D7 PUSH2 0x3680 JUMP JUMPDEST JUMPDEST PUSH1 0x40 MLOAD SWAP1 DUP1 DUP3 MSTORE DUP1 PUSH1 0x1F ADD PUSH1 0x1F NOT AND PUSH1 0x20 ADD DUP3 ADD PUSH1 0x40 MSTORE DUP1 ISZERO PUSH2 0x220A JUMPI DUP2 PUSH1 0x20 ADD PUSH1 0x1 DUP3 MUL DUP1 CALLDATASIZE DUP4 CALLDATACOPY DUP1 DUP3 ADD SWAP2 POP POP SWAP1 POP JUMPDEST POP SWAP1 POP PUSH0 DUP3 SWAP1 POP JUMPDEST PUSH0 DUP7 EQ PUSH2 0x22B9 JUMPI PUSH1 0x1 DUP2 PUSH2 0x2226 SWAP2 SWAP1 PUSH2 0x43F8 JUMP JUMPDEST SWAP1 POP PUSH0 PUSH1 0xA DUP1 DUP9 PUSH2 0x2237 SWAP2 SWAP1 PUSH2 0x5239 JUMP JUMPDEST PUSH2 0x2241 SWAP2 SWAP1 PUSH2 0x51F8 JUMP JUMPDEST DUP8 PUSH2 0x224C SWAP2 SWAP1 PUSH2 0x43F8 JUMP JUMPDEST PUSH1 0x30 PUSH2 0x2258 SWAP2 SWAP1 PUSH2 0x5318 JUMP JUMPDEST SWAP1 POP PUSH0 DUP2 PUSH1 0xF8 SHL SWAP1 POP DUP1 DUP5 DUP5 DUP2 MLOAD DUP2 LT PUSH2 0x2275 JUMPI PUSH2 0x2274 PUSH2 0x439E JUMP JUMPDEST JUMPDEST PUSH1 0x20 ADD ADD SWAP1 PUSH31 0xFFFFFFFFFFFFFFFFFFFFFFFFFFFFFFFFFFFFFFFFFFFFFFFFFFFFFFFFFFFFFF NOT AND SWAP1 DUP2 PUSH0 BYTE SWAP1 MSTORE8 POP PUSH1 0xA DUP9 PUSH2 0x22B0 SWAP2 SWAP1 PUSH2 0x5239 JUMP JUMPDEST SWAP8 POP POP POP PUSH2 0x2212 JUMP JUMPDEST DUP2 SWAP5 POP POP POP POP POP JUMPDEST SWAP2 SWAP1 POP JUMP JUMPDEST PUSH0 DUP3 MLOAD PUSH1 0x4 DUP4 PUSH2 0x22D6 SWAP2 SWAP1 PUSH2 0x442B JUMP JUMPDEST GT ISZERO PUSH2 0x2317 JUMPI PUSH1 0x40 MLOAD PUSH32 0x8C379A000000000000000000000000000000000000000000000000000000000 DUP2 MSTORE PUSH1 0x4 ADD PUSH2 0x230E SWAP1 PUSH2 0x53BC JUMP JUMPDEST PUSH1 0x40 MLOAD DUP1 SWAP2 SUB SWAP1 REVERT JUMPDEST PUSH0 DUP3 PUSH1 0x4 DUP6 ADD ADD MLOAD SWAP1 POP DUP1 PUSH4 0xFFFFFFFF AND SWAP2 POP POP SWAP3 SWAP2 POP POP JUMP JUMPDEST PUSH2 0x2339 PUSH2 0x298C JUMP JUMPDEST PUSH20 0xFFFFFFFFFFFFFFFFFFFFFFFFFFFFFFFFFFFFFFFF AND PUSH2 0x2357 PUSH2 0x1746 JUMP JUMPDEST PUSH20 0xFFFFFFFFFFFFFFFFFFFFFFFFFFFFFFFFFFFFFFFF AND EQ PUSH2 0x23B6 JUMPI PUSH2 0x237A PUSH2 0x298C JUMP JUMPDEST PUSH1 0x40 MLOAD PUSH32 0x118CDAA700000000000000000000000000000000000000000000000000000000 DUP2 MSTORE PUSH1 0x4 ADD PUSH2 0x23AD SWAP2 SWAP1 PUSH2 0x4135 JUMP JUMPDEST PUSH1 0x40 MLOAD DUP1 SWAP2 SUB SWAP1 REVERT JUMPDEST JUMP JUMPDEST PUSH32 0x0 PUSH20 0xFFFFFFFFFFFFFFFFFFFFFFFFFFFFFFFFFFFFFFFF AND ADDRESS PUSH20 0xFFFFFFFFFFFFFFFFFFFFFFFFFFFFFFFFFFFFFFFF AND EQ DUP1 PUSH2 0x2465 JUMPI POP PUSH32 0x0 PUSH20 0xFFFFFFFFFFFFFFFFFFFFFFFFFFFFFFFFFFFFFFFF AND PUSH2 0x244C PUSH2 0x2993 JUMP JUMPDEST PUSH20 0xFFFFFFFFFFFFFFFFFFFFFFFFFFFFFFFFFFFFFFFF AND EQ ISZERO JUMPDEST ISZERO PUSH2 0x249C JUMPI PUSH1 0x40 MLOAD PUSH32 0xE07C8DBA00000000000000000000000000000000000000000000000000000000 DUP2 MSTORE PUSH1 0x4 ADD PUSH1 0x40 MLOAD DUP1 SWAP2 SUB SWAP1 REVERT JUMPDEST JUMP JUMPDEST PUSH2 0x24A6 PUSH2 0x2331 JUMP JUMPDEST POP JUMP JUMPDEST DUP2 PUSH20 0xFFFFFFFFFFFFFFFFFFFFFFFFFFFFFFFFFFFFFFFF AND PUSH4 0x52D1902D PUSH1 0x40 MLOAD DUP2 PUSH4 0xFFFFFFFF AND PUSH1 0xE0 SHL DUP2 MSTORE PUSH1 0x4 ADD PUSH1 0x20 PUSH1 0x40 MLOAD DUP1 DUP4 SUB DUP2 DUP7 GAS STATICCALL SWAP3 POP POP POP DUP1 ISZERO PUSH2 0x2511 JUMPI POP PUSH1 0x40 MLOAD RETURNDATASIZE PUSH1 0x1F NOT PUSH1 0x1F DUP3 ADD AND DUP3 ADD DUP1 PUSH1 0x40 MSTORE POP DUP2 ADD SWAP1 PUSH2 0x250E SWAP2 SWAP1 PUSH2 0x53EE JUMP JUMPDEST PUSH1 0x1 JUMPDEST PUSH2 0x2552 JUMPI DUP2 PUSH1 0x40 MLOAD PUSH32 0x4C9C8CE300000000000000000000000000000000000000000000000000000000 DUP2 MSTORE PUSH1 0x4 ADD PUSH2 0x2549 SWAP2 SWAP1 PUSH2 0x4135 JUMP JUMPDEST PUSH1 0x40 MLOAD DUP1 SWAP2 SUB SWAP1 REVERT JUMPDEST PUSH32 0x360894A13BA1A3210667C828492DB98DCA3E2076CC3735A920A3CA505D382BBC PUSH0 SHL DUP2 EQ PUSH2 0x25B8 JUMPI DUP1 PUSH1 0x40 MLOAD PUSH32 0xAA1D49A400000000000000000000000000000000000000000000000000000000 DUP2 MSTORE PUSH1 0x4 ADD PUSH2 0x25AF SWAP2 SWAP1 PUSH2 0x3C02 JUMP JUMPDEST PUSH1 0x40 MLOAD DUP1 SWAP2 SUB SWAP1 REVERT JUMPDEST PUSH2 0x25C2 DUP4 DUP4 PUSH2 0x29E6 JUMP JUMPDEST POP POP POP JUMP JUMPDEST PUSH32 0x0 PUSH20 0xFFFFFFFFFFFFFFFFFFFFFFFFFFFFFFFFFFFFFFFF AND ADDRESS PUSH20 0xFFFFFFFFFFFFFFFFFFFFFFFFFFFFFFFFFFFFFFFF AND EQ PUSH2 0x264C JUMPI PUSH1 0x40 MLOAD PUSH32 0xE07C8DBA00000000000000000000000000000000000000000000000000000000 DUP2 MSTORE PUSH1 0x4 ADD PUSH1 0x40 MLOAD DUP1 SWAP2 SUB SWAP1 REVERT JUMPDEST JUMP JUMPDEST PUSH0 PUSH2 0x2657 PUSH2 0x27E6 JUMP JUMPDEST SWAP1 POP PUSH0 DUP2 PUSH0 ADD PUSH0 SWAP1 SLOAD SWAP1 PUSH2 0x100 EXP SWAP1 DIV PUSH20 0xFFFFFFFFFFFFFFFFFFFFFFFFFFFFFFFFFFFFFFFF AND SWAP1 POP DUP3 DUP3 PUSH0 ADD PUSH0 PUSH2 0x100 EXP DUP2 SLOAD DUP2 PUSH20 0xFFFFFFFFFFFFFFFFFFFFFFFFFFFFFFFFFFFFFFFF MUL NOT AND SWAP1 DUP4 PUSH20 0xFFFFFFFFFFFFFFFFFFFFFFFFFFFFFFFFFFFFFFFF AND MUL OR SWAP1 SSTORE POP DUP3 PUSH20 0xFFFFFFFFFFFFFFFFFFFFFFFFFFFFFFFFFFFFFFFF AND DUP2 PUSH20 0xFFFFFFFFFFFFFFFFFFFFFFFFFFFFFFFFFFFFFFFF AND PUSH32 0x8BE0079C531659141344CD1FD0A4F28419497F9722A3DAAFE3B4186F6B6457E0 PUSH1 0x40 MLOAD PUSH1 0x40 MLOAD DUP1 SWAP2 SUB SWAP1 LOG3 POP POP POP JUMP JUMPDEST PUSH0 PUSH0 PUSH1 0x40 MLOAD DUP1 PUSH1 0x40 ADD PUSH1 0x40 MSTORE DUP1 PUSH1 0x1 DUP2 MSTORE PUSH1 0x20 ADD PUSH32 0x3A00000000000000000000000000000000000000000000000000000000000000 DUP2 MSTORE POP SWAP1 POP PUSH0 DUP5 DUP3 DUP6 PUSH1 0x40 MLOAD PUSH1 0x20 ADD PUSH2 0x276F SWAP4 SWAP3 SWAP2 SWAP1 PUSH2 0x5419 JUMP JUMPDEST PUSH1 0x40 MLOAD PUSH1 0x20 DUP2 DUP4 SUB SUB DUP2 MSTORE SWAP1 PUSH1 0x40 MSTORE DUP1 MLOAD SWAP1 PUSH1 0x20 ADD KECCAK256 SWAP1 POP DUP1 SWAP3 POP POP POP SWAP3 SWAP2 POP POP JUMP JUMPDEST PUSH0 PUSH0 DUP3 SWAP1 POP PUSH0 DUP2 DUP1 MLOAD SWAP1 PUSH1 0x20 ADD KECCAK256 PUSH1 0x40 MLOAD PUSH1 0x20 ADD PUSH2 0x27B0 SWAP2 SWAP1 PUSH2 0x4245 JUMP JUMPDEST PUSH1 0x40 MLOAD PUSH1 0x20 DUP2 DUP4 SUB SUB DUP2 MSTORE SWAP1 PUSH1 0x40 MSTORE SWAP1 POP PUSH0 PUSH2 0x27D9 DUP3 PUSH1 0x4 DUP5 MLOAD PUSH2 0x27D4 SWAP2 SWAP1 PUSH2 0x43F8 JUMP JUMPDEST PUSH2 0x22C6 JUMP JUMPDEST SWAP1 POP DUP1 SWAP4 POP POP POP POP SWAP2 SWAP1 POP JUMP JUMPDEST PUSH0 PUSH32 0x9016D09D72D40FDAE2FD8CEAC6B6234C7706214FD39C1CD1E609A0528C199300 SWAP1 POP SWAP1 JUMP JUMPDEST PUSH0 PUSH0 DUP3 PUSH0 ADD MLOAD DUP4 PUSH1 0x20 ADD MLOAD DUP5 PUSH1 0x40 ADD MLOAD PUSH1 0x40 MLOAD PUSH1 0x20 ADD PUSH2 0x282F SWAP4 SWAP3 SWAP2 SWAP1 PUSH2 0x5449 JUMP JUMPDEST PUSH1 0x40 MLOAD PUSH1 0x20 DUP2 DUP4 SUB SUB DUP2 MSTORE SWAP1 PUSH1 0x40 MSTORE SWAP1 POP DUP1 DUP1 MLOAD SWAP1 PUSH1 0x20 ADD KECCAK256 SWAP2 POP POP SWAP2 SWAP1 POP JUMP JUMPDEST PUSH1 0x60 PUSH0 PUSH2 0x285F DUP4 PUSH0 ADD MLOAD PUSH2 0x2A58 JUMP JUMPDEST SWAP1 POP PUSH0 DUP4 PUSH1 0x20 ADD MLOAD MLOAD PUSH8 0xFFFFFFFFFFFFFFFF DUP2 GT ISZERO PUSH2 0x2881 JUMPI PUSH2 0x2880 PUSH2 0x3680 JUMP JUMPDEST JUMPDEST PUSH1 0x40 MLOAD SWAP1 DUP1 DUP3 MSTORE DUP1 PUSH1 0x20 MUL PUSH1 0x20 ADD DUP3 ADD PUSH1 0x40 MSTORE DUP1 ISZERO PUSH2 0x28AF JUMPI DUP2 PUSH1 0x20 ADD PUSH1 0x20 DUP3 MUL DUP1 CALLDATASIZE DUP4 CALLDATACOPY DUP1 DUP3 ADD SWAP2 POP POP SWAP1 POP JUMPDEST POP SWAP1 POP PUSH0 PUSH0 SWAP1 POP JUMPDEST DUP5 PUSH1 0x20 ADD MLOAD MLOAD DUP2 LT ISZERO PUSH2 0x2946 JUMPI PUSH2 0x28EC DUP4 DUP7 PUSH1 0x20 ADD MLOAD DUP4 DUP2 MLOAD DUP2 LT PUSH2 0x28DF JUMPI PUSH2 0x28DE PUSH2 0x439E JUMP JUMPDEST JUMPDEST PUSH1 0x20 MUL PUSH1 0x20 ADD ADD MLOAD PUSH2 0x2AE1 JUMP JUMPDEST DUP3 DUP3 DUP2 MLOAD DUP2 LT PUSH2 0x28FF JUMPI PUSH2 0x28FE PUSH2 0x439E JUMP JUMPDEST JUMPDEST PUSH1 0x20 MUL PUSH1 0x20 ADD ADD SWAP1 PUSH20 0xFFFFFFFFFFFFFFFFFFFFFFFFFFFFFFFFFFFFFFFF AND SWAP1 DUP2 PUSH20 0xFFFFFFFFFFFFFFFFFFFFFFFFFFFFFFFFFFFFFFFF AND DUP2 MSTORE POP POP DUP1 DUP1 PUSH1 0x1 ADD SWAP2 POP POP PUSH2 0x28B7 JUMP JUMPDEST POP DUP1 SWAP3 POP POP POP SWAP2 SWAP1 POP JUMP JUMPDEST PUSH0 PUSH32 0xF0C57E16840DF040F15088DC2F81FE391C3923BEC73E23A9662EFC9C229C6A00 SWAP1 POP SWAP1 JUMP JUMPDEST PUSH2 0x2980 PUSH2 0x2B2A JUMP JUMPDEST PUSH2 0x2989 DUP2 PUSH2 0x2B6A JUMP JUMPDEST POP JUMP JUMPDEST PUSH0 CALLER SWAP1 POP SWAP1 JUMP JUMPDEST PUSH0 PUSH2 0x29BF PUSH32 0x360894A13BA1A3210667C828492DB98DCA3E2076CC3735A920A3CA505D382BBC PUSH0 SHL PUSH2 0x2BEE JUMP JUMPDEST PUSH0 ADD PUSH0 SWAP1 SLOAD SWAP1 PUSH2 0x100 EXP SWAP1 DIV PUSH20 0xFFFFFFFFFFFFFFFFFFFFFFFFFFFFFFFFFFFFFFFF AND SWAP1 POP SWAP1 JUMP JUMPDEST PUSH2 0x29EF DUP3 PUSH2 0x2BF7 JUMP JUMPDEST DUP2 PUSH20 0xFFFFFFFFFFFFFFFFFFFFFFFFFFFFFFFFFFFFFFFF AND PUSH32 0xBC7CD75A20EE27FD9ADEBAB32041F755214DBC6BFFA90CC0225B39DA2E5C2D3B PUSH1 0x40 MLOAD PUSH1 0x40 MLOAD DUP1 SWAP2 SUB SWAP1 LOG2 PUSH0 DUP2 MLOAD GT ISZERO PUSH2 0x2A4B JUMPI PUSH2 0x2A45 DUP3 DUP3 PUSH2 0x2CC0 JUMP JUMPDEST POP PUSH2 0x2A54 JUMP JUMPDEST PUSH2 0x2A53 PUSH2 0x2D40 JUMP JUMPDEST JUMPDEST POP POP JUMP JUMPDEST PUSH1 0x60 PUSH2 0x2A85 DUP3 PUSH0 ADD MLOAD PUSH1 0x40 MLOAD PUSH1 0x20 ADD PUSH2 0x2A71 SWAP2 SWAP1 PUSH2 0x4245 JUMP JUMPDEST PUSH1 0x40 MLOAD PUSH1 0x20 DUP2 DUP4 SUB SUB DUP2 MSTORE SWAP1 PUSH1 0x40 MSTORE PUSH2 0x1F2B JUMP JUMPDEST PUSH2 0x2A92 DUP4 PUSH1 0x20 ADD MLOAD PUSH2 0x2D7C JUMP JUMPDEST PUSH2 0x2AA5 DUP5 PUSH1 0x40 ADD MLOAD PUSH4 0xFFFFFFFF AND PUSH2 0x2148 JUMP JUMPDEST PUSH2 0x2AB8 DUP6 PUSH1 0x60 ADD MLOAD PUSH4 0xFFFFFFFF AND PUSH2 0x2148 JUMP JUMPDEST PUSH1 0x40 MLOAD PUSH1 0x20 ADD PUSH2 0x2ACB SWAP5 SWAP4 SWAP3 SWAP2 SWAP1 PUSH2 0x42E3 JUMP JUMPDEST PUSH1 0x40 MLOAD PUSH1 0x20 DUP2 DUP4 SUB SUB DUP2 MSTORE SWAP1 PUSH1 0x40 MSTORE SWAP1 POP SWAP2 SWAP1 POP JUMP JUMPDEST PUSH0 PUSH0 PUSH2 0x2AED DUP5 MLOAD PUSH2 0x2148 JUMP JUMPDEST DUP5 PUSH1 0x40 MLOAD PUSH1 0x20 ADD PUSH2 0x2AFF SWAP3 SWAP2 SWAP1 PUSH2 0x54D9 JUMP JUMPDEST PUSH1 0x40 MLOAD PUSH1 0x20 DUP2 DUP4 SUB SUB DUP2 MSTORE SWAP1 PUSH1 0x40 MSTORE DUP1 MLOAD SWAP1 PUSH1 0x20 ADD KECCAK256 SWAP1 POP PUSH2 0x2B21 DUP2 DUP5 PUSH2 0x2F54 JUMP JUMPDEST SWAP2 POP POP SWAP3 SWAP2 POP POP JUMP JUMPDEST PUSH2 0x2B32 PUSH2 0x2F7E JUMP JUMPDEST PUSH2 0x2B68 JUMPI PUSH1 0x40 MLOAD PUSH32 0xD7E6BCF800000000000000000000000000000000000000000000000000000000 DUP2 MSTORE PUSH1 0x4 ADD PUSH1 0x40 MLOAD DUP1 SWAP2 SUB SWAP1 REVERT JUMPDEST JUMP JUMPDEST PUSH2 0x2B72 PUSH2 0x2B2A JUMP JUMPDEST PUSH0 PUSH20 0xFFFFFFFFFFFFFFFFFFFFFFFFFFFFFFFFFFFFFFFF AND DUP2 PUSH20 0xFFFFFFFFFFFFFFFFFFFFFFFFFFFFFFFFFFFFFFFF AND SUB PUSH2 0x2BE2 JUMPI PUSH0 PUSH1 0x40 MLOAD PUSH32 0x1E4FBDF700000000000000000000000000000000000000000000000000000000 DUP2 MSTORE PUSH1 0x4 ADD PUSH2 0x2BD9 SWAP2 SWAP1 PUSH2 0x4135 JUMP JUMPDEST PUSH1 0x40 MLOAD DUP1 SWAP2 SUB SWAP1 REVERT JUMPDEST PUSH2 0x2BEB DUP2 PUSH2 0x264E JUMP JUMPDEST POP JUMP JUMPDEST PUSH0 DUP2 SWAP1 POP SWAP2 SWAP1 POP JUMP JUMPDEST PUSH0 DUP2 PUSH20 0xFFFFFFFFFFFFFFFFFFFFFFFFFFFFFFFFFFFFFFFF AND EXTCODESIZE SUB PUSH2 0x2C52 JUMPI DUP1 PUSH1 0x40 MLOAD PUSH32 0x4C9C8CE300000000000000000000000000000000000000000000000000000000 DUP2 MSTORE PUSH1 0x4 ADD PUSH2 0x2C49 SWAP2 SWAP1 PUSH2 0x4135 JUMP JUMPDEST PUSH1 0x40 MLOAD DUP1 SWAP2 SUB SWAP1 REVERT JUMPDEST DUP1 PUSH2 0x2C7E PUSH32 0x360894A13BA1A3210667C828492DB98DCA3E2076CC3735A920A3CA505D382BBC PUSH0 SHL PUSH2 0x2BEE JUMP JUMPDEST PUSH0 ADD PUSH0 PUSH2 0x100 EXP DUP2 SLOAD DUP2 PUSH20 0xFFFFFFFFFFFFFFFFFFFFFFFFFFFFFFFFFFFFFFFF MUL NOT AND SWAP1 DUP4 PUSH20 0xFFFFFFFFFFFFFFFFFFFFFFFFFFFFFFFFFFFFFFFF AND MUL OR SWAP1 SSTORE POP POP JUMP JUMPDEST PUSH1 0x60 PUSH0 PUSH0 DUP5 PUSH20 0xFFFFFFFFFFFFFFFFFFFFFFFFFFFFFFFFFFFFFFFF AND DUP5 PUSH1 0x40 MLOAD PUSH2 0x2CE9 SWAP2 SWAP1 PUSH2 0x5507 JUMP JUMPDEST PUSH0 PUSH1 0x40 MLOAD DUP1 DUP4 SUB DUP2 DUP6 GAS DELEGATECALL SWAP2 POP POP RETURNDATASIZE DUP1 PUSH0 DUP2 EQ PUSH2 0x2D21 JUMPI PUSH1 0x40 MLOAD SWAP2 POP PUSH1 0x1F NOT PUSH1 0x3F RETURNDATASIZE ADD AND DUP3 ADD PUSH1 0x40 MSTORE RETURNDATASIZE DUP3 MSTORE RETURNDATASIZE PUSH0 PUSH1 0x20 DUP5 ADD RETURNDATACOPY PUSH2 0x2D26 JUMP JUMPDEST PUSH1 0x60 SWAP2 POP JUMPDEST POP SWAP2 POP SWAP2 POP PUSH2 0x2D36 DUP6 DUP4 DUP4 PUSH2 0x2F9C JUMP JUMPDEST SWAP3 POP POP POP SWAP3 SWAP2 POP POP JUMP JUMPDEST PUSH0 CALLVALUE GT ISZERO PUSH2 0x2D7A JUMPI PUSH1 0x40 MLOAD PUSH32 0xB398979F00000000000000000000000000000000000000000000000000000000 DUP2 MSTORE PUSH1 0x4 ADD PUSH1 0x40 MLOAD DUP1 SWAP2 SUB SWAP1 REVERT JUMPDEST JUMP JUMPDEST PUSH1 0x60 PUSH0 PUSH1 0x28 PUSH8 0xFFFFFFFFFFFFFFFF DUP2 GT ISZERO PUSH2 0x2D9A JUMPI PUSH2 0x2D99 PUSH2 0x3680 JUMP JUMPDEST JUMPDEST PUSH1 0x40 MLOAD SWAP1 DUP1 DUP3 MSTORE DUP1 PUSH1 0x1F ADD PUSH1 0x1F NOT AND PUSH1 0x20 ADD DUP3 ADD PUSH1 0x40 MSTORE DUP1 ISZERO PUSH2 0x2DCC JUMPI DUP2 PUSH1 0x20 ADD PUSH1 0x1 DUP3 MUL DUP1 CALLDATASIZE DUP4 CALLDATACOPY DUP1 DUP3 ADD SWAP2 POP POP SWAP1 POP JUMPDEST POP SWAP1 POP PUSH0 PUSH0 SWAP1 POP JUMPDEST PUSH1 0x14 DUP2 LT ISZERO PUSH2 0x2F2B JUMPI PUSH0 DUP2 PUSH1 0x13 PUSH2 0x2DEB SWAP2 SWAP1 PUSH2 0x43F8 JUMP JUMPDEST PUSH1 0x8 PUSH2 0x2DF7 SWAP2 SWAP1 PUSH2 0x51F8 JUMP JUMPDEST PUSH1 0x2 PUSH2 0x2E03 SWAP2 SWAP1 PUSH2 0x564C JUMP JUMPDEST DUP6 PUSH20 0xFFFFFFFFFFFFFFFFFFFFFFFFFFFFFFFFFFFFFFFF AND PUSH2 0x2E24 SWAP2 SWAP1 PUSH2 0x5239 JUMP JUMPDEST PUSH1 0xF8 SHL SWAP1 POP PUSH0 PUSH1 0x10 DUP3 PUSH1 0xF8 SHR PUSH2 0x2E3A SWAP2 SWAP1 PUSH2 0x5696 JUMP JUMPDEST PUSH1 0xF8 SHL SWAP1 POP PUSH0 DUP2 PUSH1 0xF8 SHR PUSH1 0x10 PUSH2 0x2E50 SWAP2 SWAP1 PUSH2 0x56C6 JUMP JUMPDEST DUP4 PUSH1 0xF8 SHR PUSH2 0x2E5E SWAP2 SWAP1 PUSH2 0x5702 JUMP JUMPDEST PUSH1 0xF8 SHL SWAP1 POP PUSH2 0x2E6C DUP3 PUSH2 0x3029 JUMP JUMPDEST DUP6 DUP6 PUSH1 0x2 PUSH2 0x2E7A SWAP2 SWAP1 PUSH2 0x51F8 JUMP JUMPDEST DUP2 MLOAD DUP2 LT PUSH2 0x2E8B JUMPI PUSH2 0x2E8A PUSH2 0x439E JUMP JUMPDEST JUMPDEST PUSH1 0x20 ADD ADD SWAP1 PUSH31 0xFFFFFFFFFFFFFFFFFFFFFFFFFFFFFFFFFFFFFFFFFFFFFFFFFFFFFFFFFFFFFF NOT AND SWAP1 DUP2 PUSH0 BYTE SWAP1 MSTORE8 POP PUSH2 0x2EC2 DUP2 PUSH2 0x3029 JUMP JUMPDEST DUP6 PUSH1 0x1 DUP7 PUSH1 0x2 PUSH2 0x2ED2 SWAP2 SWAP1 PUSH2 0x51F8 JUMP JUMPDEST PUSH2 0x2EDC SWAP2 SWAP1 PUSH2 0x442B JUMP JUMPDEST DUP2 MLOAD DUP2 LT PUSH2 0x2EED JUMPI PUSH2 0x2EEC PUSH2 0x439E JUMP JUMPDEST JUMPDEST PUSH1 0x20 ADD ADD SWAP1 PUSH31 0xFFFFFFFFFFFFFFFFFFFFFFFFFFFFFFFFFFFFFFFFFFFFFFFFFFFFFFFFFFFFFF NOT AND SWAP1 DUP2 PUSH0 BYTE SWAP1 MSTORE8 POP POP POP POP DUP1 DUP1 PUSH1 0x1 ADD SWAP2 POP POP PUSH2 0x2DD4 JUMP JUMPDEST POP DUP1 PUSH1 0x40 MLOAD PUSH1 0x20 ADD PUSH2 0x2F3D SWAP2 SWAP1 PUSH2 0x52F7 JUMP JUMPDEST PUSH1 0x40 MLOAD PUSH1 0x20 DUP2 DUP4 SUB SUB DUP2 MSTORE SWAP1 PUSH1 0x40 MSTORE SWAP2 POP POP SWAP2 SWAP1 POP JUMP JUMPDEST PUSH0 PUSH0 PUSH0 PUSH0 PUSH2 0x2F62 DUP7 DUP7 PUSH2 0x306E JUMP JUMPDEST SWAP3 POP SWAP3 POP SWAP3 POP PUSH2 0x2F72 DUP3 DUP3 PUSH2 0x30C3 JUMP JUMPDEST DUP3 SWAP4 POP POP POP POP SWAP3 SWAP2 POP POP JUMP JUMPDEST PUSH0 PUSH2 0x2F87 PUSH2 0x2951 JUMP JUMPDEST PUSH0 ADD PUSH1 0x8 SWAP1 SLOAD SWAP1 PUSH2 0x100 EXP SWAP1 DIV PUSH1 0xFF AND SWAP1 POP SWAP1 JUMP JUMPDEST PUSH1 0x60 DUP3 PUSH2 0x2FB1 JUMPI PUSH2 0x2FAC DUP3 PUSH2 0x3225 JUMP JUMPDEST PUSH2 0x3021 JUMP JUMPDEST PUSH0 DUP3 MLOAD EQ DUP1 ISZERO PUSH2 0x2FD7 JUMPI POP PUSH0 DUP5 PUSH20 0xFFFFFFFFFFFFFFFFFFFFFFFFFFFFFFFFFFFFFFFF AND EXTCODESIZE EQ JUMPDEST ISZERO PUSH2 0x3019 JUMPI DUP4 PUSH1 0x40 MLOAD PUSH32 0x9996B31500000000000000000000000000000000000000000000000000000000 DUP2 MSTORE PUSH1 0x4 ADD PUSH2 0x3010 SWAP2 SWAP1 PUSH2 0x4135 JUMP JUMPDEST PUSH1 0x40 MLOAD DUP1 SWAP2 SUB SWAP1 REVERT JUMPDEST DUP2 SWAP1 POP PUSH2 0x3022 JUMP JUMPDEST JUMPDEST SWAP4 SWAP3 POP POP POP JUMP JUMPDEST PUSH0 PUSH1 0xA DUP3 PUSH1 0xF8 SHR PUSH1 0xFF AND LT ISZERO PUSH2 0x3053 JUMPI PUSH1 0x30 DUP3 PUSH1 0xF8 SHR PUSH2 0x3049 SWAP2 SWAP1 PUSH2 0x5318 JUMP JUMPDEST PUSH1 0xF8 SHL SWAP1 POP PUSH2 0x3069 JUMP JUMPDEST PUSH1 0x57 DUP3 PUSH1 0xF8 SHR PUSH2 0x3063 SWAP2 SWAP1 PUSH2 0x5318 JUMP JUMPDEST PUSH1 0xF8 SHL SWAP1 POP JUMPDEST SWAP2 SWAP1 POP JUMP JUMPDEST PUSH0 PUSH0 PUSH0 PUSH1 0x41 DUP5 MLOAD SUB PUSH2 0x30AE JUMPI PUSH0 PUSH0 PUSH0 PUSH1 0x20 DUP8 ADD MLOAD SWAP3 POP PUSH1 0x40 DUP8 ADD MLOAD SWAP2 POP PUSH1 0x60 DUP8 ADD MLOAD PUSH0 BYTE SWAP1 POP PUSH2 0x30A0 DUP9 DUP3 DUP6 DUP6 PUSH2 0x3269 JUMP JUMPDEST SWAP6 POP SWAP6 POP SWAP6 POP POP POP POP PUSH2 0x30BC JUMP JUMPDEST PUSH0 PUSH1 0x2 DUP6 MLOAD PUSH0 SHL SWAP3 POP SWAP3 POP SWAP3 POP JUMPDEST SWAP3 POP SWAP3 POP SWAP3 JUMP JUMPDEST PUSH0 PUSH1 0x3 DUP2 GT ISZERO PUSH2 0x30D6 JUMPI PUSH2 0x30D5 PUSH2 0x5736 JUMP JUMPDEST JUMPDEST DUP3 PUSH1 0x3 DUP2 GT ISZERO PUSH2 0x30E9 JUMPI PUSH2 0x30E8 PUSH2 0x5736 JUMP JUMPDEST JUMPDEST SUB ISZERO PUSH2 0x3221 JUMPI PUSH1 0x1 PUSH1 0x3 DUP2 GT ISZERO PUSH2 0x3103 JUMPI PUSH2 0x3102 PUSH2 0x5736 JUMP JUMPDEST JUMPDEST DUP3 PUSH1 0x3 DUP2 GT ISZERO PUSH2 0x3116 JUMPI PUSH2 0x3115 PUSH2 0x5736 JUMP JUMPDEST JUMPDEST SUB PUSH2 0x314D JUMPI PUSH1 0x40 MLOAD PUSH32 0xF645EEDF00000000000000000000000000000000000000000000000000000000 DUP2 MSTORE PUSH1 0x4 ADD PUSH1 0x40 MLOAD DUP1 SWAP2 SUB SWAP1 REVERT JUMPDEST PUSH1 0x2 PUSH1 0x3 DUP2 GT ISZERO PUSH2 0x3161 JUMPI PUSH2 0x3160 PUSH2 0x5736 JUMP JUMPDEST JUMPDEST DUP3 PUSH1 0x3 DUP2 GT ISZERO PUSH2 0x3174 JUMPI PUSH2 0x3173 PUSH2 0x5736 JUMP JUMPDEST JUMPDEST SUB PUSH2 0x31B8 JUMPI DUP1 PUSH0 SHR PUSH1 0x40 MLOAD PUSH32 0xFCE698F700000000000000000000000000000000000000000000000000000000 DUP2 MSTORE PUSH1 0x4 ADD PUSH2 0x31AF SWAP2 SWAP1 PUSH2 0x5763 JUMP JUMPDEST PUSH1 0x40 MLOAD DUP1 SWAP2 SUB SWAP1 REVERT JUMPDEST PUSH1 0x3 DUP1 DUP2 GT ISZERO PUSH2 0x31CB JUMPI PUSH2 0x31CA PUSH2 0x5736 JUMP JUMPDEST JUMPDEST DUP3 PUSH1 0x3 DUP2 GT ISZERO PUSH2 0x31DE JUMPI PUSH2 0x31DD PUSH2 0x5736 JUMP JUMPDEST JUMPDEST SUB PUSH2 0x3220 JUMPI DUP1 PUSH1 0x40 MLOAD PUSH32 0xD78BCE0C00000000000000000000000000000000000000000000000000000000 DUP2 MSTORE PUSH1 0x4 ADD PUSH2 0x3217 SWAP2 SWAP1 PUSH2 0x3C02 JUMP JUMPDEST PUSH1 0x40 MLOAD DUP1 SWAP2 SUB SWAP1 REVERT JUMPDEST JUMPDEST POP POP JUMP JUMPDEST PUSH0 DUP2 MLOAD GT ISZERO PUSH2 0x3237 JUMPI DUP1 MLOAD DUP1 DUP3 PUSH1 0x20 ADD REVERT JUMPDEST PUSH1 0x40 MLOAD PUSH32 0x1425EA4200000000000000000000000000000000000000000000000000000000 DUP2 MSTORE PUSH1 0x4 ADD PUSH1 0x40 MLOAD DUP1 SWAP2 SUB SWAP1 REVERT JUMPDEST PUSH0 PUSH0 PUSH0 PUSH32 0x7FFFFFFFFFFFFFFFFFFFFFFFFFFFFFFF5D576E7357A4501DDFE92F46681B20A0 DUP5 PUSH0 SHR GT ISZERO PUSH2 0x32A5 JUMPI PUSH0 PUSH1 0x3 DUP6 SWAP3 POP SWAP3 POP SWAP3 POP PUSH2 0x3346 JUMP JUMPDEST PUSH0 PUSH1 0x1 DUP9 DUP9 DUP9 DUP9 PUSH1 0x40 MLOAD PUSH0 DUP2 MSTORE PUSH1 0x20 ADD PUSH1 0x40 MSTORE PUSH1 0x40 MLOAD PUSH2 0x32C8 SWAP5 SWAP4 SWAP3 SWAP2 SWAP1 PUSH2 0x577C JUMP JUMPDEST PUSH1 0x20 PUSH1 0x40 MLOAD PUSH1 0x20 DUP2 SUB SWAP1 DUP1 DUP5 SUB SWAP1 DUP6 GAS STATICCALL ISZERO DUP1 ISZERO PUSH2 0x32E8 JUMPI RETURNDATASIZE PUSH0 PUSH0 RETURNDATACOPY RETURNDATASIZE PUSH0 REVERT JUMPDEST POP POP POP PUSH1 0x20 PUSH1 0x40 MLOAD SUB MLOAD SWAP1 POP PUSH0 PUSH20 0xFFFFFFFFFFFFFFFFFFFFFFFFFFFFFFFFFFFFFFFF AND DUP2 PUSH20 0xFFFFFFFFFFFFFFFFFFFFFFFFFFFFFFFFFFFFFFFF AND SUB PUSH2 0x3339 JUMPI PUSH0 PUSH1 0x1 PUSH0 PUSH0 SHL SWAP4 POP SWAP4 POP SWAP4 POP POP PUSH2 0x3346 JUMP JUMPDEST DUP1 PUSH0 PUSH0 PUSH0 SHL SWAP4 POP SWAP4 POP SWAP4 POP POP JUMPDEST SWAP5 POP SWAP5 POP SWAP5 SWAP2 POP POP JUMP JUMPDEST PUSH1 0x40 MLOAD DUP1 PUSH1 0x40 ADD PUSH1 0x40 MSTORE DUP1 PUSH0 PUSH20 0xFFFFFFFFFFFFFFFFFFFFFFFFFFFFFFFFFFFFFFFF AND DUP2 MSTORE PUSH1 0x20 ADD PUSH1 0x60 DUP2 MSTORE POP SWAP1 JUMP JUMPDEST PUSH1 0x40 MLOAD DUP1 PUSH1 0xA0 ADD PUSH1 0x40 MSTORE DUP1 PUSH0 PUSH4 0xFFFFFFFF AND DUP2 MSTORE PUSH1 0x20 ADD PUSH0 PUSH4 0xFFFFFFFF AND DUP2 MSTORE PUSH1 0x20 ADD PUSH0 PUSH4 0xFFFFFFFF AND DUP2 MSTORE PUSH1 0x20 ADD PUSH1 0x60 DUP2 MSTORE PUSH1 0x20 ADD PUSH0 PUSH1 0xFF AND DUP2 MSTORE POP SWAP1 JUMP JUMPDEST PUSH0 PUSH1 0x40 MLOAD SWAP1 POP SWAP1 JUMP JUMPDEST PUSH0 PUSH0 REVERT JUMPDEST PUSH0 PUSH0 REVERT JUMPDEST PUSH0 PUSH4 0xFFFFFFFF DUP3 AND SWAP1 POP SWAP2 SWAP1 POP JUMP JUMPDEST PUSH2 0x33E8 DUP2 PUSH2 0x33D0 JUMP JUMPDEST DUP2 EQ PUSH2 0x33F2 JUMPI PUSH0 PUSH0 REVERT JUMPDEST POP JUMP JUMPDEST PUSH0 DUP2 CALLDATALOAD SWAP1 POP PUSH2 0x3403 DUP2 PUSH2 0x33DF JUMP JUMPDEST SWAP3 SWAP2 POP POP JUMP JUMPDEST PUSH0 DUP2 SWAP1 POP SWAP2 SWAP1 POP JUMP JUMPDEST PUSH2 0x341B DUP2 PUSH2 0x3409 JUMP JUMPDEST DUP2 EQ PUSH2 0x3425 JUMPI PUSH0 PUSH0 REVERT JUMPDEST POP JUMP JUMPDEST PUSH0 DUP2 CALLDATALOAD SWAP1 POP PUSH2 0x3436 DUP2 PUSH2 0x3412 JUMP JUMPDEST SWAP3 SWAP2 POP POP JUMP JUMPDEST PUSH0 PUSH0 PUSH0 PUSH1 0x60 DUP5 DUP7 SUB SLT ISZERO PUSH2 0x3453 JUMPI PUSH2 0x3452 PUSH2 0x33C8 JUMP JUMPDEST JUMPDEST PUSH0 PUSH2 0x3460 DUP7 DUP3 DUP8 ADD PUSH2 0x33F5 JUMP JUMPDEST SWAP4 POP POP PUSH1 0x20 PUSH2 0x3471 DUP7 DUP3 DUP8 ADD PUSH2 0x3428 JUMP JUMPDEST SWAP3 POP POP PUSH1 0x40 PUSH2 0x3482 DUP7 DUP3 DUP8 ADD PUSH2 0x33F5 JUMP JUMPDEST SWAP2 POP POP SWAP3 POP SWAP3 POP SWAP3 JUMP JUMPDEST PUSH0 DUP2 MLOAD SWAP1 POP SWAP2 SWAP1 POP JUMP JUMPDEST PUSH0 DUP3 DUP3 MSTORE PUSH1 0x20 DUP3 ADD SWAP1 POP SWAP3 SWAP2 POP POP JUMP JUMPDEST PUSH0 DUP2 SWAP1 POP PUSH1 0x20 DUP3 ADD SWAP1 POP SWAP2 SWAP1 POP JUMP JUMPDEST PUSH0 PUSH20 0xFFFFFFFFFFFFFFFFFFFFFFFFFFFFFFFFFFFFFFFF DUP3 AND SWAP1 POP SWAP2 SWAP1 POP JUMP JUMPDEST PUSH0 PUSH2 0x34DE DUP3 PUSH2 0x34B5 JUMP JUMPDEST SWAP1 POP SWAP2 SWAP1 POP JUMP JUMPDEST PUSH2 0x34EE DUP2 PUSH2 0x34D4 JUMP JUMPDEST DUP3 MSTORE POP POP JUMP JUMPDEST PUSH0 DUP2 MLOAD SWAP1 POP SWAP2 SWAP1 POP JUMP JUMPDEST PUSH0 DUP3 DUP3 MSTORE PUSH1 0x20 DUP3 ADD SWAP1 POP SWAP3 SWAP2 POP POP JUMP JUMPDEST DUP3 DUP2 DUP4 MCOPY PUSH0 DUP4 DUP4 ADD MSTORE POP POP POP JUMP JUMPDEST PUSH0 PUSH1 0x1F NOT PUSH1 0x1F DUP4 ADD AND SWAP1 POP SWAP2 SWAP1 POP JUMP JUMPDEST PUSH0 PUSH2 0x3536 DUP3 PUSH2 0x34F4 JUMP JUMPDEST PUSH2 0x3540 DUP2 DUP6 PUSH2 0x34FE JUMP JUMPDEST SWAP4 POP PUSH2 0x3550 DUP2 DUP6 PUSH1 0x20 DUP7 ADD PUSH2 0x350E JUMP JUMPDEST PUSH2 0x3559 DUP2 PUSH2 0x351C JUMP JUMPDEST DUP5 ADD SWAP2 POP POP SWAP3 SWAP2 POP POP JUMP JUMPDEST PUSH0 PUSH1 0x40 DUP4 ADD PUSH0 DUP4 ADD MLOAD PUSH2 0x3579 PUSH0 DUP7 ADD DUP3 PUSH2 0x34E5 JUMP JUMPDEST POP PUSH1 0x20 DUP4 ADD MLOAD DUP5 DUP3 SUB PUSH1 0x20 DUP7 ADD MSTORE PUSH2 0x3591 DUP3 DUP3 PUSH2 0x352C JUMP JUMPDEST SWAP2 POP POP DUP1 SWAP2 POP POP SWAP3 SWAP2 POP POP JUMP JUMPDEST PUSH0 PUSH2 0x35A9 DUP4 DUP4 PUSH2 0x3564 JUMP JUMPDEST SWAP1 POP SWAP3 SWAP2 POP POP JUMP JUMPDEST PUSH0 PUSH1 0x20 DUP3 ADD SWAP1 POP SWAP2 SWAP1 POP JUMP JUMPDEST PUSH0 PUSH2 0x35C7 DUP3 PUSH2 0x348C JUMP JUMPDEST PUSH2 0x35D1 DUP2 DUP6 PUSH2 0x3496 JUMP JUMPDEST SWAP4 POP DUP4 PUSH1 0x20 DUP3 MUL DUP6 ADD PUSH2 0x35E3 DUP6 PUSH2 0x34A6 JUMP JUMPDEST DUP1 PUSH0 JUMPDEST DUP6 DUP2 LT ISZERO PUSH2 0x361E JUMPI DUP5 DUP5 SUB DUP10 MSTORE DUP2 MLOAD PUSH2 0x35FF DUP6 DUP3 PUSH2 0x359E JUMP JUMPDEST SWAP5 POP PUSH2 0x360A DUP4 PUSH2 0x35B1 JUMP JUMPDEST SWAP3 POP PUSH1 0x20 DUP11 ADD SWAP10 POP POP PUSH1 0x1 DUP2 ADD SWAP1 POP PUSH2 0x35E6 JUMP JUMPDEST POP DUP3 SWAP8 POP DUP8 SWAP6 POP POP POP POP POP POP SWAP3 SWAP2 POP POP JUMP JUMPDEST PUSH0 PUSH1 0x20 DUP3 ADD SWAP1 POP DUP2 DUP2 SUB PUSH0 DUP4 ADD MSTORE PUSH2 0x3648 DUP2 DUP5 PUSH2 0x35BD JUMP JUMPDEST SWAP1 POP SWAP3 SWAP2 POP POP JUMP JUMPDEST PUSH2 0x3659 DUP2 PUSH2 0x33D0 JUMP JUMPDEST DUP3 MSTORE POP POP JUMP JUMPDEST PUSH0 PUSH1 0x20 DUP3 ADD SWAP1 POP PUSH2 0x3672 PUSH0 DUP4 ADD DUP5 PUSH2 0x3650 JUMP JUMPDEST SWAP3 SWAP2 POP POP JUMP JUMPDEST PUSH0 PUSH0 REVERT JUMPDEST PUSH0 PUSH0 REVERT JUMPDEST PUSH32 0x4E487B7100000000000000000000000000000000000000000000000000000000 PUSH0 MSTORE PUSH1 0x41 PUSH1 0x4 MSTORE PUSH1 0x24 PUSH0 REVERT JUMPDEST PUSH2 0x36B6 DUP3 PUSH2 0x351C JUMP JUMPDEST DUP2 ADD DUP2 DUP2 LT PUSH8 0xFFFFFFFFFFFFFFFF DUP3 GT OR ISZERO PUSH2 0x36D5 JUMPI PUSH2 0x36D4 PUSH2 0x3680 JUMP JUMPDEST JUMPDEST DUP1 PUSH1 0x40 MSTORE POP POP POP JUMP JUMPDEST PUSH0 PUSH2 0x36E7 PUSH2 0x33BF JUMP JUMPDEST SWAP1 POP PUSH2 0x36F3 DUP3 DUP3 PUSH2 0x36AD JUMP JUMPDEST SWAP2 SWAP1 POP JUMP JUMPDEST PUSH0 PUSH8 0xFFFFFFFFFFFFFFFF DUP3 GT ISZERO PUSH2 0x3712 JUMPI PUSH2 0x3711 PUSH2 0x3680 JUMP JUMPDEST JUMPDEST PUSH2 0x371B DUP3 PUSH2 0x351C JUMP JUMPDEST SWAP1 POP PUSH1 0x20 DUP2 ADD SWAP1 POP SWAP2 SWAP1 POP JUMP JUMPDEST DUP3 DUP2 DUP4 CALLDATACOPY PUSH0 DUP4 DUP4 ADD MSTORE POP POP POP JUMP JUMPDEST PUSH0 PUSH2 0x3748 PUSH2 0x3743 DUP5 PUSH2 0x36F8 JUMP JUMPDEST PUSH2 0x36DE JUMP JUMPDEST SWAP1 POP DUP3 DUP2 MSTORE PUSH1 0x20 DUP2 ADD DUP5 DUP5 DUP5 ADD GT ISZERO PUSH2 0x3764 JUMPI PUSH2 0x3763 PUSH2 0x367C JUMP JUMPDEST JUMPDEST PUSH2 0x376F DUP5 DUP3 DUP6 PUSH2 0x3728 JUMP JUMPDEST POP SWAP4 SWAP3 POP POP POP JUMP JUMPDEST PUSH0 DUP3 PUSH1 0x1F DUP4 ADD SLT PUSH2 0x378B JUMPI PUSH2 0x378A PUSH2 0x3678 JUMP JUMPDEST JUMPDEST DUP2 CALLDATALOAD PUSH2 0x379B DUP5 DUP3 PUSH1 0x20 DUP7 ADD PUSH2 0x3736 JUMP JUMPDEST SWAP2 POP POP SWAP3 SWAP2 POP POP JUMP JUMPDEST PUSH0 PUSH0 PUSH1 0x40 DUP4 DUP6 SUB SLT ISZERO PUSH2 0x37BA JUMPI PUSH2 0x37B9 PUSH2 0x33C8 JUMP JUMPDEST JUMPDEST PUSH0 DUP4 ADD CALLDATALOAD PUSH8 0xFFFFFFFFFFFFFFFF DUP2 GT ISZERO PUSH2 0x37D7 JUMPI PUSH2 0x37D6 PUSH2 0x33CC JUMP JUMPDEST JUMPDEST PUSH2 0x37E3 DUP6 DUP3 DUP7 ADD PUSH2 0x3777 JUMP JUMPDEST SWAP3 POP POP PUSH1 0x20 DUP4 ADD CALLDATALOAD PUSH8 0xFFFFFFFFFFFFFFFF DUP2 GT ISZERO PUSH2 0x3804 JUMPI PUSH2 0x3803 PUSH2 0x33CC JUMP JUMPDEST JUMPDEST PUSH2 0x3810 DUP6 DUP3 DUP7 ADD PUSH2 0x3777 JUMP JUMPDEST SWAP2 POP POP SWAP3 POP SWAP3 SWAP1 POP JUMP JUMPDEST PUSH0 DUP3 DUP3 MSTORE PUSH1 0x20 DUP3 ADD SWAP1 POP SWAP3 SWAP2 POP POP JUMP JUMPDEST PUSH0 PUSH2 0x3834 DUP3 PUSH2 0x34F4 JUMP JUMPDEST PUSH2 0x383E DUP2 DUP6 PUSH2 0x381A JUMP JUMPDEST SWAP4 POP PUSH2 0x384E DUP2 DUP6 PUSH1 0x20 DUP7 ADD PUSH2 0x350E JUMP JUMPDEST PUSH2 0x3857 DUP2 PUSH2 0x351C JUMP JUMPDEST DUP5 ADD SWAP2 POP POP SWAP3 SWAP2 POP POP JUMP JUMPDEST PUSH0 PUSH1 0x20 DUP3 ADD SWAP1 POP DUP2 DUP2 SUB PUSH0 DUP4 ADD MSTORE PUSH2 0x387A DUP2 DUP5 PUSH2 0x382A JUMP JUMPDEST SWAP1 POP SWAP3 SWAP2 POP POP JUMP JUMPDEST PUSH0 PUSH1 0x20 DUP3 DUP5 SUB SLT ISZERO PUSH2 0x3897 JUMPI PUSH2 0x3896 PUSH2 0x33C8 JUMP JUMPDEST JUMPDEST PUSH0 PUSH2 0x38A4 DUP5 DUP3 DUP6 ADD PUSH2 0x33F5 JUMP JUMPDEST SWAP2 POP POP SWAP3 SWAP2 POP POP JUMP JUMPDEST PUSH2 0x38B6 DUP2 PUSH2 0x33D0 JUMP JUMPDEST DUP3 MSTORE POP POP JUMP JUMPDEST PUSH0 DUP3 DUP3 MSTORE PUSH1 0x20 DUP3 ADD SWAP1 POP SWAP3 SWAP2 POP POP JUMP JUMPDEST PUSH0 PUSH2 0x38D6 DUP3 PUSH2 0x348C JUMP JUMPDEST PUSH2 0x38E0 DUP2 DUP6 PUSH2 0x38BC JUMP JUMPDEST SWAP4 POP DUP4 PUSH1 0x20 DUP3 MUL DUP6 ADD PUSH2 0x38F2 DUP6 PUSH2 0x34A6 JUMP JUMPDEST DUP1 PUSH0 JUMPDEST DUP6 DUP2 LT ISZERO PUSH2 0x392D JUMPI DUP5 DUP5 SUB DUP10 MSTORE DUP2 MLOAD PUSH2 0x390E DUP6 DUP3 PUSH2 0x359E JUMP JUMPDEST SWAP5 POP PUSH2 0x3919 DUP4 PUSH2 0x35B1 JUMP JUMPDEST SWAP3 POP PUSH1 0x20 DUP11 ADD SWAP10 POP POP PUSH1 0x1 DUP2 ADD SWAP1 POP PUSH2 0x38F5 JUMP JUMPDEST POP DUP3 SWAP8 POP DUP8 SWAP6 POP POP POP POP POP POP SWAP3 SWAP2 POP POP JUMP JUMPDEST PUSH0 PUSH1 0xFF DUP3 AND SWAP1 POP SWAP2 SWAP1 POP JUMP JUMPDEST PUSH2 0x3954 DUP2 PUSH2 0x393F JUMP JUMPDEST DUP3 MSTORE POP POP JUMP JUMPDEST PUSH0 PUSH1 0xA0 DUP4 ADD PUSH0 DUP4 ADD MLOAD PUSH2 0x396F PUSH0 DUP7 ADD DUP3 PUSH2 0x38AD JUMP JUMPDEST POP PUSH1 0x20 DUP4 ADD MLOAD PUSH2 0x3982 PUSH1 0x20 DUP7 ADD DUP3 PUSH2 0x38AD JUMP JUMPDEST POP PUSH1 0x40 DUP4 ADD MLOAD PUSH2 0x3995 PUSH1 0x40 DUP7 ADD DUP3 PUSH2 0x38AD JUMP JUMPDEST POP PUSH1 0x60 DUP4 ADD MLOAD DUP5 DUP3 SUB PUSH1 0x60 DUP7 ADD MSTORE PUSH2 0x39AD DUP3 DUP3 PUSH2 0x38CC JUMP JUMPDEST SWAP2 POP POP PUSH1 0x80 DUP4 ADD MLOAD PUSH2 0x39C2 PUSH1 0x80 DUP7 ADD DUP3 PUSH2 0x394B JUMP JUMPDEST POP DUP1 SWAP2 POP POP SWAP3 SWAP2 POP POP JUMP JUMPDEST PUSH0 PUSH1 0x20 DUP3 ADD SWAP1 POP DUP2 DUP2 SUB PUSH0 DUP4 ADD MSTORE PUSH2 0x39E5 DUP2 DUP5 PUSH2 0x395A JUMP JUMPDEST SWAP1 POP SWAP3 SWAP2 POP POP JUMP JUMPDEST PUSH0 PUSH0 REVERT JUMPDEST PUSH0 PUSH0 REVERT JUMPDEST PUSH0 PUSH0 DUP4 PUSH1 0x1F DUP5 ADD SLT PUSH2 0x3A0A JUMPI PUSH2 0x3A09 PUSH2 0x3678 JUMP JUMPDEST JUMPDEST DUP3 CALLDATALOAD SWAP1 POP PUSH8 0xFFFFFFFFFFFFFFFF DUP2 GT ISZERO PUSH2 0x3A27 JUMPI PUSH2 0x3A26 PUSH2 0x39ED JUMP JUMPDEST JUMPDEST PUSH1 0x20 DUP4 ADD SWAP2 POP DUP4 PUSH1 0x20 DUP3 MUL DUP4 ADD GT ISZERO PUSH2 0x3A43 JUMPI PUSH2 0x3A42 PUSH2 0x39F1 JUMP JUMPDEST JUMPDEST SWAP3 POP SWAP3 SWAP1 POP JUMP JUMPDEST PUSH2 0x3A53 DUP2 PUSH2 0x393F JUMP JUMPDEST DUP2 EQ PUSH2 0x3A5D JUMPI PUSH0 PUSH0 REVERT JUMPDEST POP JUMP JUMPDEST PUSH0 DUP2 CALLDATALOAD SWAP1 POP PUSH2 0x3A6E DUP2 PUSH2 0x3A4A JUMP JUMPDEST SWAP3 SWAP2 POP POP JUMP JUMPDEST PUSH0 PUSH0 PUSH0 PUSH1 0x40 DUP5 DUP7 SUB SLT ISZERO PUSH2 0x3A8B JUMPI PUSH2 0x3A8A PUSH2 0x33C8 JUMP JUMPDEST JUMPDEST PUSH0 DUP5 ADD CALLDATALOAD PUSH8 0xFFFFFFFFFFFFFFFF DUP2 GT ISZERO PUSH2 0x3AA8 JUMPI PUSH2 0x3AA7 PUSH2 0x33CC JUMP JUMPDEST JUMPDEST PUSH2 0x3AB4 DUP7 DUP3 DUP8 ADD PUSH2 0x39F5 JUMP JUMPDEST SWAP4 POP SWAP4 POP POP PUSH1 0x20 PUSH2 0x3AC7 DUP7 DUP3 DUP8 ADD PUSH2 0x3A60 JUMP JUMPDEST SWAP2 POP POP SWAP3 POP SWAP3 POP SWAP3 JUMP JUMPDEST PUSH2 0x3ADA DUP2 PUSH2 0x34D4 JUMP JUMPDEST DUP2 EQ PUSH2 0x3AE4 JUMPI PUSH0 PUSH0 REVERT JUMPDEST POP JUMP JUMPDEST PUSH0 DUP2 CALLDATALOAD SWAP1 POP PUSH2 0x3AF5 DUP2 PUSH2 0x3AD1 JUMP JUMPDEST SWAP3 SWAP2 POP POP JUMP JUMPDEST PUSH0 PUSH8 0xFFFFFFFFFFFFFFFF DUP3 GT ISZERO PUSH2 0x3B15 JUMPI PUSH2 0x3B14 PUSH2 0x3680 JUMP JUMPDEST JUMPDEST PUSH2 0x3B1E DUP3 PUSH2 0x351C JUMP JUMPDEST SWAP1 POP PUSH1 0x20 DUP2 ADD SWAP1 POP SWAP2 SWAP1 POP JUMP JUMPDEST PUSH0 PUSH2 0x3B3D PUSH2 0x3B38 DUP5 PUSH2 0x3AFB JUMP JUMPDEST PUSH2 0x36DE JUMP JUMPDEST SWAP1 POP DUP3 DUP2 MSTORE PUSH1 0x20 DUP2 ADD DUP5 DUP5 DUP5 ADD GT ISZERO PUSH2 0x3B59 JUMPI PUSH2 0x3B58 PUSH2 0x367C JUMP JUMPDEST JUMPDEST PUSH2 0x3B64 DUP5 DUP3 DUP6 PUSH2 0x3728 JUMP JUMPDEST POP SWAP4 SWAP3 POP POP POP JUMP JUMPDEST PUSH0 DUP3 PUSH1 0x1F DUP4 ADD SLT PUSH2 0x3B80 JUMPI PUSH2 0x3B7F PUSH2 0x3678 JUMP JUMPDEST JUMPDEST DUP2 CALLDATALOAD PUSH2 0x3B90 DUP5 DUP3 PUSH1 0x20 DUP7 ADD PUSH2 0x3B2B JUMP JUMPDEST SWAP2 POP POP SWAP3 SWAP2 POP POP JUMP JUMPDEST PUSH0 PUSH0 PUSH1 0x40 DUP4 DUP6 SUB SLT ISZERO PUSH2 0x3BAF JUMPI PUSH2 0x3BAE PUSH2 0x33C8 JUMP JUMPDEST JUMPDEST PUSH0 PUSH2 0x3BBC DUP6 DUP3 DUP7 ADD PUSH2 0x3AE7 JUMP JUMPDEST SWAP3 POP POP PUSH1 0x20 DUP4 ADD CALLDATALOAD PUSH8 0xFFFFFFFFFFFFFFFF DUP2 GT ISZERO PUSH2 0x3BDD JUMPI PUSH2 0x3BDC PUSH2 0x33CC JUMP JUMPDEST JUMPDEST PUSH2 0x3BE9 DUP6 DUP3 DUP7 ADD PUSH2 0x3B6C JUMP JUMPDEST SWAP2 POP POP SWAP3 POP SWAP3 SWAP1 POP JUMP JUMPDEST PUSH2 0x3BFC DUP2 PUSH2 0x3409 JUMP JUMPDEST DUP3 MSTORE POP POP JUMP JUMPDEST PUSH0 PUSH1 0x20 DUP3 ADD SWAP1 POP PUSH2 0x3C15 PUSH0 DUP4 ADD DUP5 PUSH2 0x3BF3 JUMP JUMPDEST SWAP3 SWAP2 POP POP JUMP JUMPDEST PUSH0 DUP2 SWAP1 POP SWAP2 SWAP1 POP JUMP JUMPDEST PUSH2 0x3C2D DUP2 PUSH2 0x3C1B JUMP JUMPDEST DUP2 EQ PUSH2 0x3C37 JUMPI PUSH0 PUSH0 REVERT JUMPDEST POP JUMP JUMPDEST PUSH0 DUP2 CALLDATALOAD SWAP1 POP PUSH2 0x3C48 DUP2 PUSH2 0x3C24 JUMP JUMPDEST SWAP3 SWAP2 POP POP JUMP JUMPDEST PUSH0 PUSH1 0x20 DUP3 DUP5 SUB SLT ISZERO PUSH2 0x3C63 JUMPI PUSH2 0x3C62 PUSH2 0x33C8 JUMP JUMPDEST JUMPDEST PUSH0 PUSH2 0x3C70 DUP5 DUP3 DUP6 ADD PUSH2 0x3C3A JUMP JUMPDEST SWAP2 POP POP SWAP3 SWAP2 POP POP JUMP JUMPDEST PUSH0 PUSH0 REVERT JUMPDEST PUSH0 PUSH0 REVERT JUMPDEST PUSH0 PUSH1 0x60 DUP3 DUP5 SUB SLT ISZERO PUSH2 0x3C96 JUMPI PUSH2 0x3C95 PUSH2 0x3C79 JUMP JUMPDEST JUMPDEST PUSH2 0x3CA0 PUSH1 0x60 PUSH2 0x36DE JUMP JUMPDEST SWAP1 POP PUSH0 DUP3 ADD CALLDATALOAD PUSH8 0xFFFFFFFFFFFFFFFF DUP2 GT ISZERO PUSH2 0x3CBF JUMPI PUSH2 0x3CBE PUSH2 0x3C7D JUMP JUMPDEST JUMPDEST PUSH2 0x3CCB DUP5 DUP3 DUP6 ADD PUSH2 0x3777 JUMP JUMPDEST PUSH0 DUP4 ADD MSTORE POP PUSH1 0x20 DUP3 ADD CALLDATALOAD PUSH8 0xFFFFFFFFFFFFFFFF DUP2 GT ISZERO PUSH2 0x3CEE JUMPI PUSH2 0x3CED PUSH2 0x3C7D JUMP JUMPDEST JUMPDEST PUSH2 0x3CFA DUP5 DUP3 DUP6 ADD PUSH2 0x3777 JUMP JUMPDEST PUSH1 0x20 DUP4 ADD MSTORE POP PUSH1 0x40 DUP3 ADD CALLDATALOAD PUSH8 0xFFFFFFFFFFFFFFFF DUP2 GT ISZERO PUSH2 0x3D1E JUMPI PUSH2 0x3D1D PUSH2 0x3C7D JUMP JUMPDEST JUMPDEST PUSH2 0x3D2A DUP5 DUP3 DUP6 ADD PUSH2 0x3777 JUMP JUMPDEST PUSH1 0x40 DUP4 ADD MSTORE POP SWAP3 SWAP2 POP POP JUMP JUMPDEST PUSH0 PUSH1 0x80 DUP3 DUP5 SUB SLT ISZERO PUSH2 0x3D4B JUMPI PUSH2 0x3D4A PUSH2 0x3C79 JUMP JUMPDEST JUMPDEST PUSH2 0x3D55 PUSH1 0x80 PUSH2 0x36DE JUMP JUMPDEST SWAP1 POP PUSH0 PUSH2 0x3D64 DUP5 DUP3 DUP6 ADD PUSH2 0x3428 JUMP JUMPDEST PUSH0 DUP4 ADD MSTORE POP PUSH1 0x20 PUSH2 0x3D77 DUP5 DUP3 DUP6 ADD PUSH2 0x3AE7 JUMP JUMPDEST PUSH1 0x20 DUP4 ADD MSTORE POP PUSH1 0x40 PUSH2 0x3D8B DUP5 DUP3 DUP6 ADD PUSH2 0x33F5 JUMP JUMPDEST PUSH1 0x40 DUP4 ADD MSTORE POP PUSH1 0x60 PUSH2 0x3D9F DUP5 DUP3 DUP6 ADD PUSH2 0x33F5 JUMP JUMPDEST PUSH1 0x60 DUP4 ADD MSTORE POP SWAP3 SWAP2 POP POP JUMP JUMPDEST PUSH0 PUSH8 0xFFFFFFFFFFFFFFFF DUP3 GT ISZERO PUSH2 0x3DC5 JUMPI PUSH2 0x3DC4 PUSH2 0x3680 JUMP JUMPDEST JUMPDEST PUSH1 0x20 DUP3 MUL SWAP1 POP PUSH1 0x20 DUP2 ADD SWAP1 POP SWAP2 SWAP1 POP JUMP JUMPDEST PUSH0 PUSH2 0x3DE8 PUSH2 0x3DE3 DUP5 PUSH2 0x3DAB JUMP JUMPDEST PUSH2 0x36DE JUMP JUMPDEST SWAP1 POP DUP1 DUP4 DUP3 MSTORE PUSH1 0x20 DUP3 ADD SWAP1 POP PUSH1 0x20 DUP5 MUL DUP4 ADD DUP6 DUP2 GT ISZERO PUSH2 0x3E0B JUMPI PUSH2 0x3E0A PUSH2 0x39F1 JUMP JUMPDEST JUMPDEST DUP4 JUMPDEST DUP2 DUP2 LT ISZERO PUSH2 0x3E52 JUMPI DUP1 CALLDATALOAD PUSH8 0xFFFFFFFFFFFFFFFF DUP2 GT ISZERO PUSH2 0x3E30 JUMPI PUSH2 0x3E2F PUSH2 0x3678 JUMP JUMPDEST JUMPDEST DUP1 DUP7 ADD PUSH2 0x3E3D DUP10 DUP3 PUSH2 0x3B6C JUMP JUMPDEST DUP6 MSTORE PUSH1 0x20 DUP6 ADD SWAP5 POP POP POP PUSH1 0x20 DUP2 ADD SWAP1 POP PUSH2 0x3E0D JUMP JUMPDEST POP POP POP SWAP4 SWAP3 POP POP POP JUMP JUMPDEST PUSH0 DUP3 PUSH1 0x1F DUP4 ADD SLT PUSH2 0x3E70 JUMPI PUSH2 0x3E6F PUSH2 0x3678 JUMP JUMPDEST JUMPDEST DUP2 CALLDATALOAD PUSH2 0x3E80 DUP5 DUP3 PUSH1 0x20 DUP7 ADD PUSH2 0x3DD6 JUMP JUMPDEST SWAP2 POP POP SWAP3 SWAP2 POP POP JUMP JUMPDEST PUSH0 PUSH1 0xA0 DUP3 DUP5 SUB SLT ISZERO PUSH2 0x3E9E JUMPI PUSH2 0x3E9D PUSH2 0x3C79 JUMP JUMPDEST JUMPDEST PUSH2 0x3EA8 PUSH1 0x40 PUSH2 0x36DE JUMP JUMPDEST SWAP1 POP PUSH0 PUSH2 0x3EB7 DUP5 DUP3 DUP6 ADD PUSH2 0x3D36 JUMP JUMPDEST PUSH0 DUP4 ADD MSTORE POP PUSH1 0x80 DUP3 ADD CALLDATALOAD PUSH8 0xFFFFFFFFFFFFFFFF DUP2 GT ISZERO PUSH2 0x3EDA JUMPI PUSH2 0x3ED9 PUSH2 0x3C7D JUMP JUMPDEST JUMPDEST PUSH2 0x3EE6 DUP5 DUP3 DUP6 ADD PUSH2 0x3E5C JUMP JUMPDEST PUSH1 0x20 DUP4 ADD MSTORE POP SWAP3 SWAP2 POP POP JUMP JUMPDEST PUSH0 PUSH1 0x40 DUP3 DUP5 SUB SLT ISZERO PUSH2 0x3F07 JUMPI PUSH2 0x3F06 PUSH2 0x3C79 JUMP JUMPDEST JUMPDEST PUSH2 0x3F11 PUSH1 0x40 PUSH2 0x36DE JUMP JUMPDEST SWAP1 POP PUSH0 DUP3 ADD CALLDATALOAD PUSH8 0xFFFFFFFFFFFFFFFF DUP2 GT ISZERO PUSH2 0x3F30 JUMPI PUSH2 0x3F2F PUSH2 0x3C7D JUMP JUMPDEST JUMPDEST PUSH2 0x3F3C DUP5 DUP3 DUP6 ADD PUSH2 0x3C81 JUMP JUMPDEST PUSH0 DUP4 ADD MSTORE POP PUSH1 0x20 DUP3 ADD CALLDATALOAD PUSH8 0xFFFFFFFFFFFFFFFF DUP2 GT ISZERO PUSH2 0x3F5F JUMPI PUSH2 0x3F5E PUSH2 0x3C7D JUMP JUMPDEST JUMPDEST PUSH2 0x3F6B DUP5 DUP3 DUP6 ADD PUSH2 0x3E89 JUMP JUMPDEST PUSH1 0x20 DUP4 ADD MSTORE POP SWAP3 SWAP2 POP POP JUMP JUMPDEST PUSH0 PUSH1 0x20 DUP3 DUP5 SUB SLT ISZERO PUSH2 0x3F8C JUMPI PUSH2 0x3F8B PUSH2 0x33C8 JUMP JUMPDEST JUMPDEST PUSH0 DUP3 ADD CALLDATALOAD PUSH8 0xFFFFFFFFFFFFFFFF DUP2 GT ISZERO PUSH2 0x3FA9 JUMPI PUSH2 0x3FA8 PUSH2 0x33CC JUMP JUMPDEST JUMPDEST PUSH2 0x3FB5 DUP5 DUP3 DUP6 ADD PUSH2 0x3EF2 JUMP JUMPDEST SWAP2 POP POP SWAP3 SWAP2 POP POP JUMP JUMPDEST PUSH0 DUP2 ISZERO ISZERO SWAP1 POP SWAP2 SWAP1 POP JUMP JUMPDEST PUSH2 0x3FD2 DUP2 PUSH2 0x3FBE JUMP JUMPDEST DUP3 MSTORE POP POP JUMP JUMPDEST PUSH0 PUSH1 0x20 DUP3 ADD SWAP1 POP PUSH2 0x3FEB PUSH0 DUP4 ADD DUP5 PUSH2 0x3FC9 JUMP JUMPDEST SWAP3 SWAP2 POP POP JUMP JUMPDEST PUSH0 PUSH0 PUSH1 0x40 DUP4 DUP6 SUB SLT ISZERO PUSH2 0x4007 JUMPI PUSH2 0x4006 PUSH2 0x33C8 JUMP JUMPDEST JUMPDEST PUSH0 DUP4 ADD CALLDATALOAD PUSH8 0xFFFFFFFFFFFFFFFF DUP2 GT ISZERO PUSH2 0x4024 JUMPI PUSH2 0x4023 PUSH2 0x33CC JUMP JUMPDEST JUMPDEST PUSH2 0x4030 DUP6 DUP3 DUP7 ADD PUSH2 0x3EF2 JUMP JUMPDEST SWAP3 POP POP PUSH1 0x20 PUSH2 0x4041 DUP6 DUP3 DUP7 ADD PUSH2 0x3C3A JUMP JUMPDEST SWAP2 POP POP SWAP3 POP SWAP3 SWAP1 POP JUMP JUMPDEST PUSH0 DUP2 SWAP1 POP DUP3 PUSH1 0x20 PUSH1 0x8 MUL DUP3 ADD GT ISZERO PUSH2 0x4066 JUMPI PUSH2 0x4065 PUSH2 0x39F1 JUMP JUMPDEST JUMPDEST SWAP3 SWAP2 POP POP JUMP JUMPDEST PUSH0 PUSH0 PUSH0 PUSH0 PUSH0 PUSH0 PUSH0 PUSH2 0x1C0 DUP9 DUP11 SUB SLT ISZERO PUSH2 0x4088 JUMPI PUSH2 0x4087 PUSH2 0x33C8 JUMP JUMPDEST JUMPDEST PUSH0 DUP9 ADD CALLDATALOAD PUSH8 0xFFFFFFFFFFFFFFFF DUP2 GT ISZERO PUSH2 0x40A5 JUMPI PUSH2 0x40A4 PUSH2 0x33CC JUMP JUMPDEST JUMPDEST PUSH2 0x40B1 DUP11 DUP3 DUP12 ADD PUSH2 0x3777 JUMP JUMPDEST SWAP8 POP POP PUSH1 0x20 PUSH2 0x40C2 DUP11 DUP3 DUP12 ADD PUSH2 0x3C3A JUMP JUMPDEST SWAP7 POP POP PUSH1 0x40 PUSH2 0x40D3 DUP11 DUP3 DUP12 ADD PUSH2 0x3C3A JUMP JUMPDEST SWAP6 POP POP PUSH1 0x60 PUSH2 0x40E4 DUP11 DUP3 DUP12 ADD PUSH2 0x3C3A JUMP JUMPDEST SWAP5 POP POP PUSH1 0x80 PUSH2 0x40F5 DUP11 DUP3 DUP12 ADD PUSH2 0x3C3A JUMP JUMPDEST SWAP4 POP POP PUSH1 0xA0 PUSH2 0x4106 DUP11 DUP3 DUP12 ADD PUSH2 0x3428 JUMP JUMPDEST SWAP3 POP POP PUSH1 0xC0 PUSH2 0x4117 DUP11 DUP3 DUP12 ADD PUSH2 0x404B JUMP JUMPDEST SWAP2 POP POP SWAP3 SWAP6 SWAP9 SWAP2 SWAP5 SWAP8 POP SWAP3 SWAP6 POP JUMP JUMPDEST PUSH2 0x412F DUP2 PUSH2 0x34D4 JUMP JUMPDEST DUP3 MSTORE POP POP JUMP JUMPDEST PUSH0 PUSH1 0x20 DUP3 ADD SWAP1 POP PUSH2 0x4148 PUSH0 DUP4 ADD DUP5 PUSH2 0x4126 JUMP JUMPDEST SWAP3 SWAP2 POP POP JUMP JUMPDEST PUSH0 PUSH1 0x20 DUP3 DUP5 SUB SLT ISZERO PUSH2 0x4163 JUMPI PUSH2 0x4162 PUSH2 0x33C8 JUMP JUMPDEST JUMPDEST PUSH0 PUSH2 0x4170 DUP5 DUP3 DUP6 ADD PUSH2 0x3AE7 JUMP JUMPDEST SWAP2 POP POP SWAP3 SWAP2 POP POP JUMP JUMPDEST PUSH2 0x4182 DUP2 PUSH2 0x393F JUMP JUMPDEST DUP3 MSTORE POP POP JUMP JUMPDEST PUSH0 PUSH1 0x80 DUP3 ADD SWAP1 POP PUSH2 0x419B PUSH0 DUP4 ADD DUP8 PUSH2 0x3650 JUMP JUMPDEST PUSH2 0x41A8 PUSH1 0x20 DUP4 ADD DUP7 PUSH2 0x3650 JUMP JUMPDEST PUSH2 0x41B5 PUSH1 0x40 DUP4 ADD DUP6 PUSH2 0x3650 JUMP JUMPDEST PUSH2 0x41C2 PUSH1 0x60 DUP4 ADD DUP5 PUSH2 0x4179 JUMP JUMPDEST SWAP6 SWAP5 POP POP POP POP POP JUMP JUMPDEST PUSH0 PUSH0 PUSH1 0x40 DUP4 DUP6 SUB SLT ISZERO PUSH2 0x41E1 JUMPI PUSH2 0x41E0 PUSH2 0x33C8 JUMP JUMPDEST JUMPDEST PUSH0 DUP4 ADD CALLDATALOAD PUSH8 0xFFFFFFFFFFFFFFFF DUP2 GT ISZERO PUSH2 0x41FE JUMPI PUSH2 0x41FD PUSH2 0x33CC JUMP JUMPDEST JUMPDEST PUSH2 0x420A DUP6 DUP3 DUP7 ADD PUSH2 0x3777 JUMP JUMPDEST SWAP3 POP POP PUSH1 0x20 PUSH2 0x421B DUP6 DUP3 DUP7 ADD PUSH2 0x3C3A JUMP JUMPDEST SWAP2 POP POP SWAP3 POP SWAP3 SWAP1 POP JUMP JUMPDEST PUSH0 DUP2 SWAP1 POP SWAP2 SWAP1 POP JUMP JUMPDEST PUSH2 0x423F PUSH2 0x423A DUP3 PUSH2 0x3409 JUMP JUMPDEST PUSH2 0x4225 JUMP JUMPDEST DUP3 MSTORE POP POP JUMP JUMPDEST PUSH0 PUSH2 0x4250 DUP3 DUP5 PUSH2 0x422E JUMP JUMPDEST PUSH1 0x20 DUP3 ADD SWAP2 POP DUP2 SWAP1 POP SWAP3 SWAP2 POP POP JUMP JUMPDEST PUSH0 DUP2 SWAP1 POP SWAP3 SWAP2 POP POP JUMP JUMPDEST PUSH0 PUSH2 0x4273 DUP3 PUSH2 0x34F4 JUMP JUMPDEST PUSH2 0x427D DUP2 DUP6 PUSH2 0x425F JUMP JUMPDEST SWAP4 POP PUSH2 0x428D DUP2 DUP6 PUSH1 0x20 DUP7 ADD PUSH2 0x350E JUMP JUMPDEST DUP1 DUP5 ADD SWAP2 POP POP SWAP3 SWAP2 POP POP JUMP JUMPDEST PUSH32 0xA00000000000000000000000000000000000000000000000000000000000000 PUSH0 DUP3 ADD MSTORE POP JUMP JUMPDEST PUSH0 PUSH2 0x42CD PUSH1 0x1 DUP4 PUSH2 0x425F JUMP JUMPDEST SWAP2 POP PUSH2 0x42D8 DUP3 PUSH2 0x4299 JUMP JUMPDEST PUSH1 0x1 DUP3 ADD SWAP1 POP SWAP2 SWAP1 POP JUMP JUMPDEST PUSH0 PUSH2 0x42EE DUP3 DUP8 PUSH2 0x4269 JUMP JUMPDEST SWAP2 POP PUSH2 0x42F9 DUP3 PUSH2 0x42C1 JUMP JUMPDEST SWAP2 POP PUSH2 0x4305 DUP3 DUP7 PUSH2 0x4269 JUMP JUMPDEST SWAP2 POP PUSH2 0x4310 DUP3 PUSH2 0x42C1 JUMP JUMPDEST SWAP2 POP PUSH2 0x431C DUP3 DUP6 PUSH2 0x4269 JUMP JUMPDEST SWAP2 POP PUSH2 0x4327 DUP3 PUSH2 0x42C1 JUMP JUMPDEST SWAP2 POP PUSH2 0x4333 DUP3 DUP5 PUSH2 0x4269 JUMP JUMPDEST SWAP2 POP DUP2 SWAP1 POP SWAP6 SWAP5 POP POP POP POP POP JUMP JUMPDEST PUSH32 0x4E487B7100000000000000000000000000000000000000000000000000000000 PUSH0 MSTORE PUSH1 0x12 PUSH1 0x4 MSTORE PUSH1 0x24 PUSH0 REVERT JUMPDEST PUSH0 PUSH2 0x4378 DUP3 PUSH2 0x3C1B JUMP JUMPDEST SWAP2 POP PUSH2 0x4383 DUP4 PUSH2 0x3C1B JUMP JUMPDEST SWAP3 POP DUP3 PUSH2 0x4393 JUMPI PUSH2 0x4392 PUSH2 0x4341 JUMP JUMPDEST JUMPDEST DUP3 DUP3 MOD SWAP1 POP SWAP3 SWAP2 POP POP JUMP JUMPDEST PUSH32 0x4E487B7100000000000000000000000000000000000000000000000000000000 PUSH0 MSTORE PUSH1 0x32 PUSH1 0x4 MSTORE PUSH1 0x24 PUSH0 REVERT JUMPDEST PUSH32 0x4E487B7100000000000000000000000000000000000000000000000000000000 PUSH0 MSTORE PUSH1 0x11 PUSH1 0x4 MSTORE PUSH1 0x24 PUSH0 REVERT JUMPDEST PUSH0 PUSH2 0x4402 DUP3 PUSH2 0x3C1B JUMP JUMPDEST SWAP2 POP PUSH2 0x440D DUP4 PUSH2 0x3C1B JUMP JUMPDEST SWAP3 POP DUP3 DUP3 SUB SWAP1 POP DUP2 DUP2 GT ISZERO PUSH2 0x4425 JUMPI PUSH2 0x4424 PUSH2 0x43CB JUMP JUMPDEST JUMPDEST SWAP3 SWAP2 POP POP JUMP JUMPDEST PUSH0 PUSH2 0x4435 DUP3 PUSH2 0x3C1B JUMP JUMPDEST SWAP2 POP PUSH2 0x4440 DUP4 PUSH2 0x3C1B JUMP JUMPDEST SWAP3 POP DUP3 DUP3 ADD SWAP1 POP DUP1 DUP3 GT ISZERO PUSH2 0x4458 JUMPI PUSH2 0x4457 PUSH2 0x43CB JUMP JUMPDEST JUMPDEST SWAP3 SWAP2 POP POP JUMP JUMPDEST PUSH32 0x746172676574206973206C6F6E676572207468616E2064617461000000000000 PUSH0 DUP3 ADD MSTORE POP JUMP JUMPDEST PUSH0 PUSH2 0x4492 PUSH1 0x1A DUP4 PUSH2 0x381A JUMP JUMPDEST SWAP2 POP PUSH2 0x449D DUP3 PUSH2 0x445E JUMP JUMPDEST PUSH1 0x20 DUP3 ADD SWAP1 POP SWAP2 SWAP1 POP JUMP JUMPDEST PUSH0 PUSH1 0x20 DUP3 ADD SWAP1 POP DUP2 DUP2 SUB PUSH0 DUP4 ADD MSTORE PUSH2 0x44BF DUP2 PUSH2 0x4486 JUMP JUMPDEST SWAP1 POP SWAP2 SWAP1 POP JUMP JUMPDEST PUSH0 PUSH2 0x44D0 DUP3 PUSH2 0x3C1B JUMP JUMPDEST SWAP2 POP PUSH32 0xFFFFFFFFFFFFFFFFFFFFFFFFFFFFFFFFFFFFFFFFFFFFFFFFFFFFFFFFFFFFFFFF DUP3 SUB PUSH2 0x4502 JUMPI PUSH2 0x4501 PUSH2 0x43CB JUMP JUMPDEST JUMPDEST PUSH1 0x1 DUP3 ADD SWAP1 POP SWAP2 SWAP1 POP JUMP JUMPDEST PUSH32 0x4E487B7100000000000000000000000000000000000000000000000000000000 PUSH0 MSTORE PUSH1 0x22 PUSH1 0x4 MSTORE PUSH1 0x24 PUSH0 REVERT JUMPDEST PUSH0 PUSH1 0x2 DUP3 DIV SWAP1 POP PUSH1 0x1 DUP3 AND DUP1 PUSH2 0x4551 JUMPI PUSH1 0x7F DUP3 AND SWAP2 POP JUMPDEST PUSH1 0x20 DUP3 LT DUP2 SUB PUSH2 0x4564 JUMPI PUSH2 0x4563 PUSH2 0x450D JUMP JUMPDEST JUMPDEST POP SWAP2 SWAP1 POP JUMP JUMPDEST PUSH0 PUSH2 0x4574 DUP3 PUSH2 0x33D0 JUMP JUMPDEST SWAP2 POP PUSH2 0x457F DUP4 PUSH2 0x33D0 JUMP JUMPDEST SWAP3 POP DUP3 DUP3 SUB SWAP1 POP PUSH4 0xFFFFFFFF DUP2 GT ISZERO PUSH2 0x459B JUMPI PUSH2 0x459A PUSH2 0x43CB JUMP JUMPDEST JUMPDEST SWAP3 SWAP2 POP POP JUMP JUMPDEST PUSH0 PUSH2 0x45AB DUP3 PUSH2 0x33D0 JUMP JUMPDEST SWAP2 POP PUSH2 0x45B6 DUP4 PUSH2 0x33D0 JUMP JUMPDEST SWAP3 POP DUP3 DUP3 ADD SWAP1 POP PUSH4 0xFFFFFFFF DUP2 GT ISZERO PUSH2 0x45D2 JUMPI PUSH2 0x45D1 PUSH2 0x43CB JUMP JUMPDEST JUMPDEST SWAP3 SWAP2 POP POP JUMP JUMPDEST PUSH0 PUSH0 REVERT JUMPDEST PUSH0 PUSH0 REVERT JUMPDEST PUSH0 PUSH0 REVERT JUMPDEST PUSH0 DUP3 CALLDATALOAD PUSH1 0x1 PUSH1 0x40 SUB DUP4 CALLDATASIZE SUB SUB DUP2 SLT PUSH2 0x45FF JUMPI PUSH2 0x45FE PUSH2 0x45D8 JUMP JUMPDEST JUMPDEST DUP1 DUP4 ADD SWAP2 POP POP SWAP3 SWAP2 POP POP JUMP JUMPDEST PUSH0 DUP2 CALLDATALOAD PUSH2 0x4617 DUP2 PUSH2 0x3AD1 JUMP JUMPDEST DUP1 SWAP2 POP POP SWAP2 SWAP1 POP JUMP JUMPDEST PUSH0 DUP2 PUSH0 SHL SWAP1 POP SWAP2 SWAP1 POP JUMP JUMPDEST PUSH0 PUSH20 0xFFFFFFFFFFFFFFFFFFFFFFFFFFFFFFFFFFFFFFFF PUSH2 0x464A DUP5 PUSH2 0x4620 JUMP JUMPDEST SWAP4 POP DUP1 NOT DUP4 AND SWAP3 POP DUP1 DUP5 AND DUP4 OR SWAP2 POP POP SWAP3 SWAP2 POP POP JUMP JUMPDEST PUSH0 DUP2 SWAP1 POP SWAP2 SWAP1 POP JUMP JUMPDEST PUSH0 PUSH2 0x4683 PUSH2 0x467E PUSH2 0x4679 DUP5 PUSH2 0x34B5 JUMP JUMPDEST PUSH2 0x4660 JUMP JUMPDEST PUSH2 0x34B5 JUMP JUMPDEST SWAP1 POP SWAP2 SWAP1 POP JUMP JUMPDEST PUSH0 PUSH2 0x4694 DUP3 PUSH2 0x4669 JUMP JUMPDEST SWAP1 POP SWAP2 SWAP1 POP JUMP JUMPDEST PUSH0 PUSH2 0x46A5 DUP3 PUSH2 0x468A JUMP JUMPDEST SWAP1 POP SWAP2 SWAP1 POP JUMP JUMPDEST PUSH0 DUP2 SWAP1 POP SWAP2 SWAP1 POP JUMP JUMPDEST PUSH2 0x46BE DUP3 PUSH2 0x469B JUMP JUMPDEST PUSH2 0x46D1 PUSH2 0x46CA DUP3 PUSH2 0x46AC JUMP JUMPDEST DUP4 SLOAD PUSH2 0x462B JUMP JUMPDEST DUP3 SSTORE POP POP POP JUMP JUMPDEST PUSH0 PUSH0 DUP4 CALLDATALOAD PUSH1 0x1 PUSH1 0x20 SUB DUP5 CALLDATASIZE SUB SUB DUP2 SLT PUSH2 0x46F4 JUMPI PUSH2 0x46F3 PUSH2 0x45D8 JUMP JUMPDEST JUMPDEST DUP1 DUP5 ADD SWAP3 POP DUP3 CALLDATALOAD SWAP2 POP PUSH8 0xFFFFFFFFFFFFFFFF DUP3 GT ISZERO PUSH2 0x4716 JUMPI PUSH2 0x4715 PUSH2 0x45DC JUMP JUMPDEST JUMPDEST PUSH1 0x20 DUP4 ADD SWAP3 POP PUSH1 0x1 DUP3 MUL CALLDATASIZE SUB DUP4 SGT ISZERO PUSH2 0x4732 JUMPI PUSH2 0x4731 PUSH2 0x45E0 JUMP JUMPDEST JUMPDEST POP SWAP3 POP SWAP3 SWAP1 POP JUMP JUMPDEST PUSH0 DUP3 SWAP1 POP SWAP3 SWAP2 POP POP JUMP JUMPDEST PUSH0 DUP2 SWAP1 POP DUP2 PUSH0 MSTORE PUSH1 0x20 PUSH0 KECCAK256 SWAP1 POP SWAP2 SWAP1 POP JUMP JUMPDEST PUSH0 PUSH1 0x20 PUSH1 0x1F DUP4 ADD DIV SWAP1 POP SWAP2 SWAP1 POP JUMP JUMPDEST PUSH0 DUP3 DUP3 SHL SWAP1 POP SWAP3 SWAP2 POP POP JUMP JUMPDEST PUSH0 PUSH1 0x8 DUP4 MUL PUSH2 0x47A0 PUSH32 0xFFFFFFFFFFFFFFFFFFFFFFFFFFFFFFFFFFFFFFFFFFFFFFFFFFFFFFFFFFFFFFFF DUP3 PUSH2 0x4765 JUMP JUMPDEST PUSH2 0x47AA DUP7 DUP4 PUSH2 0x4765 JUMP JUMPDEST SWAP6 POP DUP1 NOT DUP5 AND SWAP4 POP DUP1 DUP7 AND DUP5 OR SWAP3 POP POP POP SWAP4 SWAP3 POP POP POP JUMP JUMPDEST PUSH0 PUSH2 0x47DC PUSH2 0x47D7 PUSH2 0x47D2 DUP5 PUSH2 0x3C1B JUMP JUMPDEST PUSH2 0x4660 JUMP JUMPDEST PUSH2 0x3C1B JUMP JUMPDEST SWAP1 POP SWAP2 SWAP1 POP JUMP JUMPDEST PUSH0 DUP2 SWAP1 POP SWAP2 SWAP1 POP JUMP JUMPDEST PUSH2 0x47F5 DUP4 PUSH2 0x47C2 JUMP JUMPDEST PUSH2 0x4809 PUSH2 0x4801 DUP3 PUSH2 0x47E3 JUMP JUMPDEST DUP5 DUP5 SLOAD PUSH2 0x4771 JUMP JUMPDEST DUP3 SSTORE POP POP POP POP JUMP JUMPDEST PUSH0 PUSH0 SWAP1 POP SWAP1 JUMP JUMPDEST PUSH2 0x4820 PUSH2 0x4811 JUMP JUMPDEST PUSH2 0x482B DUP2 DUP5 DUP5 PUSH2 0x47EC JUMP JUMPDEST POP POP POP JUMP JUMPDEST JUMPDEST DUP2 DUP2 LT ISZERO PUSH2 0x484E JUMPI PUSH2 0x4843 PUSH0 DUP3 PUSH2 0x4818 JUMP JUMPDEST PUSH1 0x1 DUP2 ADD SWAP1 POP PUSH2 0x4831 JUMP JUMPDEST POP POP JUMP JUMPDEST PUSH1 0x1F DUP3 GT ISZERO PUSH2 0x4893 JUMPI PUSH2 0x4864 DUP2 PUSH2 0x4744 JUMP JUMPDEST PUSH2 0x486D DUP5 PUSH2 0x4756 JUMP JUMPDEST DUP2 ADD PUSH1 0x20 DUP6 LT ISZERO PUSH2 0x487C JUMPI DUP2 SWAP1 POP JUMPDEST PUSH2 0x4890 PUSH2 0x4888 DUP6 PUSH2 0x4756 JUMP JUMPDEST DUP4 ADD DUP3 PUSH2 0x4830 JUMP JUMPDEST POP POP JUMPDEST POP POP POP JUMP JUMPDEST PUSH0 DUP3 DUP3 SHR SWAP1 POP SWAP3 SWAP2 POP POP JUMP JUMPDEST PUSH0 PUSH2 0x48B3 PUSH0 NOT DUP5 PUSH1 0x8 MUL PUSH2 0x4898 JUMP JUMPDEST NOT DUP1 DUP4 AND SWAP2 POP POP SWAP3 SWAP2 POP POP JUMP JUMPDEST PUSH0 PUSH2 0x48CB DUP4 DUP4 PUSH2 0x48A4 JUMP JUMPDEST SWAP2 POP DUP3 PUSH1 0x2 MUL DUP3 OR SWAP1 POP SWAP3 SWAP2 POP POP JUMP JUMPDEST PUSH2 0x48E5 DUP4 DUP4 PUSH2 0x473A JUMP JUMPDEST PUSH8 0xFFFFFFFFFFFFFFFF DUP2 GT ISZERO PUSH2 0x48FE JUMPI PUSH2 0x48FD PUSH2 0x3680 JUMP JUMPDEST JUMPDEST PUSH2 0x4908 DUP3 SLOAD PUSH2 0x453A JUMP JUMPDEST PUSH2 0x4913 DUP3 DUP3 DUP6 PUSH2 0x4852 JUMP JUMPDEST PUSH0 PUSH1 0x1F DUP4 GT PUSH1 0x1 DUP2 EQ PUSH2 0x4940 JUMPI PUSH0 DUP5 ISZERO PUSH2 0x492E JUMPI DUP3 DUP8 ADD CALLDATALOAD SWAP1 POP JUMPDEST PUSH2 0x4938 DUP6 DUP3 PUSH2 0x48C0 JUMP JUMPDEST DUP7 SSTORE POP PUSH2 0x499F JUMP JUMPDEST PUSH1 0x1F NOT DUP5 AND PUSH2 0x494E DUP7 PUSH2 0x4744 JUMP JUMPDEST PUSH0 JUMPDEST DUP3 DUP2 LT ISZERO PUSH2 0x4975 JUMPI DUP5 DUP10 ADD CALLDATALOAD DUP3 SSTORE PUSH1 0x1 DUP3 ADD SWAP2 POP PUSH1 0x20 DUP6 ADD SWAP5 POP PUSH1 0x20 DUP2 ADD SWAP1 POP PUSH2 0x4950 JUMP JUMPDEST DUP7 DUP4 LT ISZERO PUSH2 0x4992 JUMPI DUP5 DUP10 ADD CALLDATALOAD PUSH2 0x498E PUSH1 0x1F DUP10 AND DUP3 PUSH2 0x48A4 JUMP JUMPDEST DUP4 SSTORE POP JUMPDEST PUSH1 0x1 PUSH1 0x2 DUP9 MUL ADD DUP9 SSTORE POP POP POP JUMPDEST POP POP POP POP POP POP POP JUMP JUMPDEST PUSH2 0x49B3 DUP4 DUP4 DUP4 PUSH2 0x48DB JUMP JUMPDEST POP POP POP JUMP JUMPDEST PUSH0 DUP2 ADD PUSH0 DUP4 ADD DUP1 PUSH2 0x49C8 DUP2 PUSH2 0x460B JUMP JUMPDEST SWAP1 POP PUSH2 0x49D4 DUP2 DUP5 PUSH2 0x46B5 JUMP JUMPDEST POP POP POP PUSH1 0x1 DUP2 ADD PUSH1 0x20 DUP4 ADD PUSH2 0x49E9 DUP2 DUP6 PUSH2 0x46D8 JUMP JUMPDEST PUSH2 0x49F4 DUP2 DUP4 DUP7 PUSH2 0x49A8 JUMP JUMPDEST POP POP POP POP POP POP JUMP JUMPDEST PUSH2 0x4A06 DUP3 DUP3 PUSH2 0x49B8 JUMP JUMPDEST POP POP JUMP JUMPDEST PUSH0 DUP2 PUSH0 SHR SWAP1 POP SWAP2 SWAP1 POP JUMP JUMPDEST PUSH0 PUSH4 0xFFFFFFFF DUP3 AND SWAP1 POP SWAP2 SWAP1 POP JUMP JUMPDEST PUSH0 PUSH2 0x4A36 PUSH2 0x4A31 DUP4 PUSH2 0x4A0A JUMP JUMPDEST PUSH2 0x4A15 JUMP JUMPDEST SWAP1 POP SWAP2 SWAP1 POP JUMP JUMPDEST PUSH0 DUP2 PUSH1 0x20 SHR SWAP1 POP SWAP2 SWAP1 POP JUMP JUMPDEST PUSH0 PUSH2 0x4A5B PUSH2 0x4A56 DUP4 PUSH2 0x4A3D JUMP JUMPDEST PUSH2 0x4A15 JUMP JUMPDEST SWAP1 POP SWAP2 SWAP1 POP JUMP JUMPDEST PUSH0 DUP2 PUSH1 0x40 SHR SWAP1 POP SWAP2 SWAP1 POP JUMP JUMPDEST PUSH0 PUSH2 0x4A80 PUSH2 0x4A7B DUP4 PUSH2 0x4A62 JUMP JUMPDEST PUSH2 0x4A15 JUMP JUMPDEST SWAP1 POP SWAP2 SWAP1 POP JUMP JUMPDEST PUSH0 DUP2 SLOAD SWAP1 POP SWAP2 SWAP1 POP JUMP JUMPDEST PUSH0 DUP2 SWAP1 POP DUP2 PUSH0 MSTORE PUSH1 0x20 PUSH0 KECCAK256 SWAP1 POP SWAP2 SWAP1 POP JUMP JUMPDEST PUSH0 PUSH20 0xFFFFFFFFFFFFFFFFFFFFFFFFFFFFFFFFFFFFFFFF DUP3 AND SWAP1 POP SWAP2 SWAP1 POP JUMP JUMPDEST PUSH0 PUSH2 0x4AD4 PUSH2 0x4ACF DUP4 PUSH2 0x4A0A JUMP JUMPDEST PUSH2 0x4AA3 JUMP JUMPDEST SWAP1 POP SWAP2 SWAP1 POP JUMP JUMPDEST PUSH0 DUP2 SLOAD PUSH2 0x4AE7 DUP2 PUSH2 0x453A JUMP JUMPDEST PUSH2 0x4AF1 DUP2 DUP7 PUSH2 0x34FE JUMP JUMPDEST SWAP5 POP PUSH1 0x1 DUP3 AND PUSH0 DUP2 EQ PUSH2 0x4B0B JUMPI PUSH1 0x1 DUP2 EQ PUSH2 0x4B21 JUMPI PUSH2 0x4B53 JUMP JUMPDEST PUSH1 0xFF NOT DUP4 AND DUP7 MSTORE DUP2 ISZERO ISZERO PUSH1 0x20 MUL DUP7 ADD SWAP4 POP PUSH2 0x4B53 JUMP JUMPDEST PUSH2 0x4B2A DUP6 PUSH2 0x4744 JUMP JUMPDEST PUSH0 JUMPDEST DUP4 DUP2 LT ISZERO PUSH2 0x4B4B JUMPI DUP2 SLOAD DUP2 DUP10 ADD MSTORE PUSH1 0x1 DUP3 ADD SWAP2 POP PUSH1 0x20 DUP2 ADD SWAP1 POP PUSH2 0x4B2C JUMP JUMPDEST DUP1 DUP9 ADD SWAP6 POP POP POP JUMPDEST POP POP POP SWAP3 SWAP2 POP POP JUMP JUMPDEST PUSH0 PUSH1 0x40 DUP4 ADD PUSH0 PUSH0 DUP5 ADD SLOAD SWAP1 POP PUSH2 0x4B71 DUP2 PUSH2 0x4AC2 JUMP JUMPDEST PUSH2 0x4B7D PUSH0 DUP8 ADD DUP3 PUSH2 0x34E5 JUMP JUMPDEST POP PUSH1 0x1 DUP5 ADD DUP6 DUP4 SUB PUSH1 0x20 DUP8 ADD MSTORE PUSH2 0x4B94 DUP4 DUP3 PUSH2 0x4ADB JUMP JUMPDEST SWAP3 POP POP DUP2 SWAP3 POP POP POP SWAP3 SWAP2 POP POP JUMP JUMPDEST PUSH0 PUSH2 0x4BAD DUP4 DUP4 PUSH2 0x4B5C JUMP JUMPDEST SWAP1 POP SWAP3 SWAP2 POP POP JUMP JUMPDEST PUSH0 PUSH1 0x2 DUP3 ADD SWAP1 POP SWAP2 SWAP1 POP JUMP JUMPDEST PUSH0 PUSH2 0x4BCB DUP3 PUSH2 0x4A87 JUMP JUMPDEST PUSH2 0x4BD5 DUP2 DUP6 PUSH2 0x38BC JUMP JUMPDEST SWAP4 POP DUP4 PUSH1 0x20 DUP3 MUL DUP6 ADD PUSH2 0x4BE7 DUP6 PUSH2 0x4A91 JUMP JUMPDEST DUP1 PUSH0 JUMPDEST DUP6 DUP2 LT ISZERO PUSH2 0x4C21 JUMPI DUP5 DUP5 SUB DUP10 MSTORE DUP2 PUSH2 0x4C02 DUP6 DUP3 PUSH2 0x4BA2 JUMP JUMPDEST SWAP5 POP PUSH2 0x4C0D DUP4 PUSH2 0x4BB5 JUMP JUMPDEST SWAP3 POP PUSH1 0x20 DUP11 ADD SWAP10 POP POP PUSH1 0x1 DUP2 ADD SWAP1 POP PUSH2 0x4BEA JUMP JUMPDEST POP DUP3 SWAP8 POP DUP8 SWAP6 POP POP POP POP POP POP SWAP3 SWAP2 POP POP JUMP JUMPDEST PUSH0 PUSH1 0xFF DUP3 AND SWAP1 POP SWAP2 SWAP1 POP JUMP JUMPDEST PUSH0 PUSH2 0x4C51 PUSH2 0x4C4C DUP4 PUSH2 0x4A0A JUMP JUMPDEST PUSH2 0x4C33 JUMP JUMPDEST SWAP1 POP SWAP2 SWAP1 POP JUMP JUMPDEST PUSH0 PUSH1 0xA0 DUP4 ADD PUSH0 PUSH0 DUP5 ADD SLOAD SWAP1 POP PUSH2 0x4C6D DUP2 PUSH2 0x4A24 JUMP JUMPDEST PUSH2 0x4C79 PUSH0 DUP8 ADD DUP3 PUSH2 0x38AD JUMP JUMPDEST POP PUSH2 0x4C83 DUP2 PUSH2 0x4A49 JUMP JUMPDEST PUSH2 0x4C90 PUSH1 0x20 DUP8 ADD DUP3 PUSH2 0x38AD JUMP JUMPDEST POP PUSH2 0x4C9A DUP2 PUSH2 0x4A6E JUMP JUMPDEST PUSH2 0x4CA7 PUSH1 0x40 DUP8 ADD DUP3 PUSH2 0x38AD JUMP JUMPDEST POP PUSH1 0x1 DUP5 ADD DUP6 DUP4 SUB PUSH1 0x60 DUP8 ADD MSTORE PUSH2 0x4CBE DUP4 DUP3 PUSH2 0x4BC1 JUMP JUMPDEST SWAP3 POP POP PUSH1 0x2 DUP5 ADD SLOAD SWAP1 POP PUSH2 0x4CD1 DUP2 PUSH2 0x4C3F JUMP JUMPDEST PUSH2 0x4CDE PUSH1 0x80 DUP8 ADD DUP3 PUSH2 0x394B JUMP JUMPDEST POP DUP2 SWAP3 POP POP POP SWAP3 SWAP2 POP POP JUMP JUMPDEST PUSH0 PUSH1 0x20 DUP3 ADD SWAP1 POP DUP2 DUP2 SUB PUSH0 DUP4 ADD MSTORE PUSH2 0x4D02 DUP2 DUP5 PUSH2 0x4C58 JUMP JUMPDEST SWAP1 POP SWAP3 SWAP2 POP POP JUMP JUMPDEST PUSH0 DUP2 PUSH1 0x60 SHL SWAP1 POP SWAP2 SWAP1 POP JUMP JUMPDEST PUSH0 PUSH2 0x4D20 DUP3 PUSH2 0x4D0A JUMP JUMPDEST SWAP1 POP SWAP2 SWAP1 POP JUMP JUMPDEST PUSH0 PUSH2 0x4D31 DUP3 PUSH2 0x4D16 JUMP JUMPDEST SWAP1 POP SWAP2 SWAP1 POP JUMP JUMPDEST PUSH2 0x4D49 PUSH2 0x4D44 DUP3 PUSH2 0x34D4 JUMP JUMPDEST PUSH2 0x4D27 JUMP JUMPDEST DUP3 MSTORE POP POP JUMP JUMPDEST PUSH0 DUP2 SWAP1 POP SWAP2 SWAP1 POP JUMP JUMPDEST PUSH2 0x4D69 PUSH2 0x4D64 DUP3 PUSH2 0x3C1B JUMP JUMPDEST PUSH2 0x4D4F JUMP JUMPDEST DUP3 MSTORE POP POP JUMP JUMPDEST PUSH0 PUSH2 0x4D7A DUP3 DUP6 PUSH2 0x4D38 JUMP JUMPDEST PUSH1 0x14 DUP3 ADD SWAP2 POP PUSH2 0x4D8A DUP3 DUP5 PUSH2 0x4D58 JUMP JUMPDEST PUSH1 0x20 DUP3 ADD SWAP2 POP DUP2 SWAP1 POP SWAP4 SWAP3 POP POP POP JUMP JUMPDEST PUSH32 0x4461707020416C72656164792045786973747300000000000000000000000000 PUSH0 DUP3 ADD MSTORE POP JUMP JUMPDEST PUSH0 PUSH2 0x4DCE PUSH1 0x13 DUP4 PUSH2 0x381A JUMP JUMPDEST SWAP2 POP PUSH2 0x4DD9 DUP3 PUSH2 0x4D9A JUMP JUMPDEST PUSH1 0x20 DUP3 ADD SWAP1 POP SWAP2 SWAP1 POP JUMP JUMPDEST PUSH0 PUSH1 0x20 DUP3 ADD SWAP1 POP DUP2 DUP2 SUB PUSH0 DUP4 ADD MSTORE PUSH2 0x4DFB DUP2 PUSH2 0x4DC2 JUMP JUMPDEST SWAP1 POP SWAP2 SWAP1 POP JUMP JUMPDEST PUSH32 0x4E6F2072652D656E7472616E6379000000000000000000000000000000000000 PUSH0 DUP3 ADD MSTORE POP JUMP JUMPDEST PUSH0 PUSH2 0x4E36 PUSH1 0xE DUP4 PUSH2 0x381A JUMP JUMPDEST SWAP2 POP PUSH2 0x4E41 DUP3 PUSH2 0x4E02 JUMP JUMPDEST PUSH1 0x20 DUP3 ADD SWAP1 POP SWAP2 SWAP1 POP JUMP JUMPDEST PUSH0 PUSH1 0x20 DUP3 ADD SWAP1 POP DUP2 DUP2 SUB PUSH0 DUP4 ADD MSTORE PUSH2 0x4E63 DUP2 PUSH2 0x4E2A JUMP JUMPDEST SWAP1 POP SWAP2 SWAP1 POP JUMP JUMPDEST PUSH2 0x4E73 DUP2 PUSH2 0x3C1B JUMP JUMPDEST DUP3 MSTORE POP POP JUMP JUMPDEST PUSH0 PUSH1 0x40 DUP3 ADD SWAP1 POP PUSH2 0x4E8C PUSH0 DUP4 ADD DUP6 PUSH2 0x4E6A JUMP JUMPDEST PUSH2 0x4E99 PUSH1 0x20 DUP4 ADD DUP5 PUSH2 0x4E6A JUMP JUMPDEST SWAP4 SWAP3 POP POP POP JUMP JUMPDEST PUSH32 0x44617070204E6F74204372656174656400000000000000000000000000000000 PUSH0 DUP3 ADD MSTORE POP JUMP JUMPDEST PUSH0 PUSH2 0x4ED4 PUSH1 0x10 DUP4 PUSH2 0x381A JUMP JUMPDEST SWAP2 POP PUSH2 0x4EDF DUP3 PUSH2 0x4EA0 JUMP JUMPDEST PUSH1 0x20 DUP3 ADD SWAP1 POP SWAP2 SWAP1 POP JUMP JUMPDEST PUSH0 PUSH1 0x20 DUP3 ADD SWAP1 POP DUP2 DUP2 SUB PUSH0 DUP4 ADD MSTORE PUSH2 0x4F01 DUP2 PUSH2 0x4EC8 JUMP JUMPDEST SWAP1 POP SWAP2 SWAP1 POP JUMP JUMPDEST DUP3 DUP2 DUP4 CALLDATACOPY POP POP POP JUMP JUMPDEST PUSH2 0x4F1E PUSH2 0x100 DUP4 DUP4 PUSH2 0x4F08 JUMP JUMPDEST POP POP JUMP JUMPDEST PUSH0 PUSH2 0x1A0 DUP3 ADD SWAP1 POP PUSH2 0x4F36 PUSH0 DUP4 ADD DUP10 PUSH2 0x4E6A JUMP JUMPDEST PUSH2 0x4F43 PUSH1 0x20 DUP4 ADD DUP9 PUSH2 0x4E6A JUMP JUMPDEST PUSH2 0x4F50 PUSH1 0x40 DUP4 ADD DUP8 PUSH2 0x4E6A JUMP JUMPDEST PUSH2 0x4F5D PUSH1 0x60 DUP4 ADD DUP7 PUSH2 0x4E6A JUMP JUMPDEST PUSH2 0x4F6A PUSH1 0x80 DUP4 ADD DUP6 PUSH2 0x4E6A JUMP JUMPDEST PUSH2 0x4F77 PUSH1 0xA0 DUP4 ADD DUP5 PUSH2 0x4F11 JUMP JUMPDEST SWAP8 SWAP7 POP POP POP POP POP POP POP JUMP JUMPDEST PUSH32 0x4E6F207369676E61747572657300000000000000000000000000000000000000 PUSH0 DUP3 ADD MSTORE POP JUMP JUMPDEST PUSH0 PUSH2 0x4FB6 PUSH1 0xD DUP4 PUSH2 0x381A JUMP JUMPDEST SWAP2 POP PUSH2 0x4FC1 DUP3 PUSH2 0x4F82 JUMP JUMPDEST PUSH1 0x20 DUP3 ADD SWAP1 POP SWAP2 SWAP1 POP JUMP JUMPDEST PUSH0 PUSH1 0x20 DUP3 ADD SWAP1 POP DUP2 DUP2 SUB PUSH0 DUP4 ADD MSTORE PUSH2 0x4FE3 DUP2 PUSH2 0x4FAA JUMP JUMPDEST SWAP1 POP SWAP2 SWAP1 POP JUMP JUMPDEST PUSH32 0x4E756D626572206F66207369676E617475726573206E6F7420657175616C2074 PUSH0 DUP3 ADD MSTORE PUSH32 0x6F206E756D626572206F66207769746E65737365730000000000000000000000 PUSH1 0x20 DUP3 ADD MSTORE POP JUMP JUMPDEST PUSH0 PUSH2 0x5044 PUSH1 0x35 DUP4 PUSH2 0x381A JUMP JUMPDEST SWAP2 POP PUSH2 0x504F DUP3 PUSH2 0x4FEA JUMP JUMPDEST PUSH1 0x40 DUP3 ADD SWAP1 POP SWAP2 SWAP1 POP JUMP JUMPDEST PUSH0 PUSH1 0x20 DUP3 ADD SWAP1 POP DUP2 DUP2 SUB PUSH0 DUP4 ADD MSTORE PUSH2 0x5071 DUP2 PUSH2 0x5038 JUMP JUMPDEST SWAP1 POP SWAP2 SWAP1 POP JUMP JUMPDEST PUSH32 0x4475706C696361746564205369676E61747572657320466F756E640000000000 PUSH0 DUP3 ADD MSTORE POP JUMP JUMPDEST PUSH0 PUSH2 0x50AC PUSH1 0x1B DUP4 PUSH2 0x381A JUMP JUMPDEST SWAP2 POP PUSH2 0x50B7 DUP3 PUSH2 0x5078 JUMP JUMPDEST PUSH1 0x20 DUP3 ADD SWAP1 POP SWAP2 SWAP1 POP JUMP JUMPDEST PUSH0 PUSH1 0x20 DUP3 ADD SWAP1 POP DUP2 DUP2 SUB PUSH0 DUP4 ADD MSTORE PUSH2 0x50D9 DUP2 PUSH2 0x50A0 JUMP JUMPDEST SWAP1 POP SWAP2 SWAP1 POP JUMP JUMPDEST PUSH32 0x5369676E6174757265206E6F7420617070726F70726961746500000000000000 PUSH0 DUP3 ADD MSTORE POP JUMP JUMPDEST PUSH0 PUSH2 0x5114 PUSH1 0x19 DUP4 PUSH2 0x381A JUMP JUMPDEST SWAP2 POP PUSH2 0x511F DUP3 PUSH2 0x50E0 JUMP JUMPDEST PUSH1 0x20 DUP3 ADD SWAP1 POP SWAP2 SWAP1 POP JUMP JUMPDEST PUSH0 PUSH1 0x20 DUP3 ADD SWAP1 POP DUP2 DUP2 SUB PUSH0 DUP4 ADD MSTORE PUSH2 0x5141 DUP2 PUSH2 0x5108 JUMP JUMPDEST SWAP1 POP SWAP2 SWAP1 POP JUMP JUMPDEST PUSH0 DUP2 SWAP1 POP SWAP2 SWAP1 POP JUMP JUMPDEST PUSH0 PUSH8 0xFFFFFFFFFFFFFFFF DUP3 AND SWAP1 POP SWAP2 SWAP1 POP JUMP JUMPDEST PUSH0 PUSH2 0x517E PUSH2 0x5179 PUSH2 0x5174 DUP5 PUSH2 0x5148 JUMP JUMPDEST PUSH2 0x4660 JUMP JUMPDEST PUSH2 0x5151 JUMP JUMPDEST SWAP1 POP SWAP2 SWAP1 POP JUMP JUMPDEST PUSH2 0x518E DUP2 PUSH2 0x5164 JUMP JUMPDEST DUP3 MSTORE POP POP JUMP JUMPDEST PUSH0 PUSH1 0x20 DUP3 ADD SWAP1 POP PUSH2 0x51A7 PUSH0 DUP4 ADD DUP5 PUSH2 0x5185 JUMP JUMPDEST SWAP3 SWAP2 POP POP JUMP JUMPDEST PUSH0 PUSH1 0x60 DUP3 ADD SWAP1 POP PUSH2 0x51C0 PUSH0 DUP4 ADD DUP7 PUSH2 0x4E6A JUMP JUMPDEST PUSH2 0x51CD PUSH1 0x20 DUP4 ADD DUP6 PUSH2 0x4E6A JUMP JUMPDEST PUSH2 0x51DA PUSH1 0x40 DUP4 ADD DUP5 PUSH2 0x4126 JUMP JUMPDEST SWAP5 SWAP4 POP POP POP POP JUMP JUMPDEST PUSH0 PUSH2 0x51ED DUP3 DUP5 PUSH2 0x4269 JUMP JUMPDEST SWAP2 POP DUP2 SWAP1 POP SWAP3 SWAP2 POP POP JUMP JUMPDEST PUSH0 PUSH2 0x5202 DUP3 PUSH2 0x3C1B JUMP JUMPDEST SWAP2 POP PUSH2 0x520D DUP4 PUSH2 0x3C1B JUMP JUMPDEST SWAP3 POP DUP3 DUP3 MUL PUSH2 0x521B DUP2 PUSH2 0x3C1B JUMP JUMPDEST SWAP2 POP DUP3 DUP3 DIV DUP5 EQ DUP4 ISZERO OR PUSH2 0x5232 JUMPI PUSH2 0x5231 PUSH2 0x43CB JUMP JUMPDEST JUMPDEST POP SWAP3 SWAP2 POP POP JUMP JUMPDEST PUSH0 PUSH2 0x5243 DUP3 PUSH2 0x3C1B JUMP JUMPDEST SWAP2 POP PUSH2 0x524E DUP4 PUSH2 0x3C1B JUMP JUMPDEST SWAP3 POP DUP3 PUSH2 0x525E JUMPI PUSH2 0x525D PUSH2 0x4341 JUMP JUMPDEST JUMPDEST DUP3 DUP3 DIV SWAP1 POP SWAP3 SWAP2 POP POP JUMP JUMPDEST PUSH32 0x3078000000000000000000000000000000000000000000000000000000000000 PUSH0 DUP3 ADD MSTORE POP JUMP JUMPDEST PUSH0 PUSH2 0x529D PUSH1 0x2 DUP4 PUSH2 0x425F JUMP JUMPDEST SWAP2 POP PUSH2 0x52A8 DUP3 PUSH2 0x5269 JUMP JUMPDEST PUSH1 0x2 DUP3 ADD SWAP1 POP SWAP2 SWAP1 POP JUMP JUMPDEST PUSH0 DUP2 MLOAD SWAP1 POP SWAP2 SWAP1 POP JUMP JUMPDEST PUSH0 DUP2 SWAP1 POP SWAP3 SWAP2 POP POP JUMP JUMPDEST PUSH0 PUSH2 0x52D1 DUP3 PUSH2 0x52B3 JUMP JUMPDEST PUSH2 0x52DB DUP2 DUP6 PUSH2 0x52BD JUMP JUMPDEST SWAP4 POP PUSH2 0x52EB DUP2 DUP6 PUSH1 0x20 DUP7 ADD PUSH2 0x350E JUMP JUMPDEST DUP1 DUP5 ADD SWAP2 POP POP SWAP3 SWAP2 POP POP JUMP JUMPDEST PUSH0 PUSH2 0x5301 DUP3 PUSH2 0x5291 JUMP JUMPDEST SWAP2 POP PUSH2 0x530D DUP3 DUP5 PUSH2 0x52C7 JUMP JUMPDEST SWAP2 POP DUP2 SWAP1 POP SWAP3 SWAP2 POP POP JUMP JUMPDEST PUSH0 PUSH2 0x5322 DUP3 PUSH2 0x393F JUMP JUMPDEST SWAP2 POP PUSH2 0x532D DUP4 PUSH2 0x393F JUMP JUMPDEST SWAP3 POP DUP3 DUP3 ADD SWAP1 POP PUSH1 0xFF DUP2 GT ISZERO PUSH2 0x5346 JUMPI PUSH2 0x5345 PUSH2 0x43CB JUMP JUMPDEST JUMPDEST SWAP3 SWAP2 POP POP JUMP JUMPDEST PUSH32 0x4F6666736574202B2034206D7573742062652077697468696E20646174612062 PUSH0 DUP3 ADD MSTORE PUSH32 0x6F756E6473000000000000000000000000000000000000000000000000000000 PUSH1 0x20 DUP3 ADD MSTORE POP JUMP JUMPDEST PUSH0 PUSH2 0x53A6 PUSH1 0x25 DUP4 PUSH2 0x381A JUMP JUMPDEST SWAP2 POP PUSH2 0x53B1 DUP3 PUSH2 0x534C JUMP JUMPDEST PUSH1 0x40 DUP3 ADD SWAP1 POP SWAP2 SWAP1 POP JUMP JUMPDEST PUSH0 PUSH1 0x20 DUP3 ADD SWAP1 POP DUP2 DUP2 SUB PUSH0 DUP4 ADD MSTORE PUSH2 0x53D3 DUP2 PUSH2 0x539A JUMP JUMPDEST SWAP1 POP SWAP2 SWAP1 POP JUMP JUMPDEST PUSH0 DUP2 MLOAD SWAP1 POP PUSH2 0x53E8 DUP2 PUSH2 0x3412 JUMP JUMPDEST SWAP3 SWAP2 POP POP JUMP JUMPDEST PUSH0 PUSH1 0x20 DUP3 DUP5 SUB SLT ISZERO PUSH2 0x5403 JUMPI PUSH2 0x5402 PUSH2 0x33C8 JUMP JUMPDEST JUMPDEST PUSH0 PUSH2 0x5410 DUP5 DUP3 DUP6 ADD PUSH2 0x53DA JUMP JUMPDEST SWAP2 POP POP SWAP3 SWAP2 POP POP JUMP JUMPDEST PUSH0 PUSH2 0x5424 DUP3 DUP7 PUSH2 0x4269 JUMP JUMPDEST SWAP2 POP PUSH2 0x5430 DUP3 DUP6 PUSH2 0x4269 JUMP JUMPDEST SWAP2 POP PUSH2 0x543C DUP3 DUP5 PUSH2 0x4269 JUMP JUMPDEST SWAP2 POP DUP2 SWAP1 POP SWAP5 SWAP4 POP POP POP POP JUMP JUMPDEST PUSH0 PUSH2 0x5454 DUP3 DUP7 PUSH2 0x4269 JUMP JUMPDEST SWAP2 POP PUSH2 0x545F DUP3 PUSH2 0x42C1 JUMP JUMPDEST SWAP2 POP PUSH2 0x546B DUP3 DUP6 PUSH2 0x4269 JUMP JUMPDEST SWAP2 POP PUSH2 0x5476 DUP3 PUSH2 0x42C1 JUMP JUMPDEST SWAP2 POP PUSH2 0x5482 DUP3 DUP5 PUSH2 0x4269 JUMP JUMPDEST SWAP2 POP DUP2 SWAP1 POP SWAP5 SWAP4 POP POP POP POP JUMP JUMPDEST PUSH32 0x19457468657265756D205369676E6564204D6573736167653A0A000000000000 PUSH0 DUP3 ADD MSTORE POP JUMP JUMPDEST PUSH0 PUSH2 0x54C3 PUSH1 0x1A DUP4 PUSH2 0x425F JUMP JUMPDEST SWAP2 POP PUSH2 0x54CE DUP3 PUSH2 0x548F JUMP JUMPDEST PUSH1 0x1A DUP3 ADD SWAP1 POP SWAP2 SWAP1 POP JUMP JUMPDEST PUSH0 PUSH2 0x54E3 DUP3 PUSH2 0x54B7 JUMP JUMPDEST SWAP2 POP PUSH2 0x54EF DUP3 DUP6 PUSH2 0x4269 JUMP JUMPDEST SWAP2 POP PUSH2 0x54FB DUP3 DUP5 PUSH2 0x52C7 JUMP JUMPDEST SWAP2 POP DUP2 SWAP1 POP SWAP4 SWAP3 POP POP POP JUMP JUMPDEST PUSH0 PUSH2 0x5512 DUP3 DUP5 PUSH2 0x52C7 JUMP JUMPDEST SWAP2 POP DUP2 SWAP1 POP SWAP3 SWAP2 POP POP JUMP JUMPDEST PUSH0 DUP2 PUSH1 0x1 SHR SWAP1 POP SWAP2 SWAP1 POP JUMP JUMPDEST PUSH0 PUSH0 DUP3 SWAP2 POP DUP4 SWAP1 POP JUMPDEST PUSH1 0x1 DUP6 GT ISZERO PUSH2 0x5572 JUMPI DUP1 DUP7 DIV DUP2 GT ISZERO PUSH2 0x554E JUMPI PUSH2 0x554D PUSH2 0x43CB JUMP JUMPDEST JUMPDEST PUSH1 0x1 DUP6 AND ISZERO PUSH2 0x555D JUMPI DUP1 DUP3 MUL SWAP2 POP JUMPDEST DUP1 DUP2 MUL SWAP1 POP PUSH2 0x556B DUP6 PUSH2 0x551D JUMP JUMPDEST SWAP5 POP PUSH2 0x5532 JUMP JUMPDEST SWAP5 POP SWAP5 SWAP3 POP POP POP JUMP JUMPDEST PUSH0 DUP3 PUSH2 0x558A JUMPI PUSH1 0x1 SWAP1 POP PUSH2 0x5645 JUMP JUMPDEST DUP2 PUSH2 0x5597 JUMPI PUSH0 SWAP1 POP PUSH2 0x5645 JUMP JUMPDEST DUP2 PUSH1 0x1 DUP2 EQ PUSH2 0x55AD JUMPI PUSH1 0x2 DUP2 EQ PUSH2 0x55B7 JUMPI PUSH2 0x55E6 JUMP JUMPDEST PUSH1 0x1 SWAP2 POP POP PUSH2 0x5645 JUMP JUMPDEST PUSH1 0xFF DUP5 GT ISZERO PUSH2 0x55C9 JUMPI PUSH2 0x55C8 PUSH2 0x43CB JUMP JUMPDEST JUMPDEST DUP4 PUSH1 0x2 EXP SWAP2 POP DUP5 DUP3 GT ISZERO PUSH2 0x55E0 JUMPI PUSH2 0x55DF PUSH2 0x43CB JUMP JUMPDEST JUMPDEST POP PUSH2 0x5645 JUMP JUMPDEST POP PUSH1 0x20 DUP4 LT PUSH2 0x133 DUP4 LT AND PUSH1 0x4E DUP5 LT PUSH1 0xB DUP5 LT AND OR ISZERO PUSH2 0x561B JUMPI DUP3 DUP3 EXP SWAP1 POP DUP4 DUP2 GT ISZERO PUSH2 0x5616 JUMPI PUSH2 0x5615 PUSH2 0x43CB JUMP JUMPDEST JUMPDEST PUSH2 0x5645 JUMP JUMPDEST PUSH2 0x5628 DUP5 DUP5 DUP5 PUSH1 0x1 PUSH2 0x5529 JUMP JUMPDEST SWAP3 POP SWAP1 POP DUP2 DUP5 DIV DUP2 GT ISZERO PUSH2 0x563F JUMPI PUSH2 0x563E PUSH2 0x43CB JUMP JUMPDEST JUMPDEST DUP2 DUP2 MUL SWAP1 POP JUMPDEST SWAP4 SWAP3 POP POP POP JUMP JUMPDEST PUSH0 PUSH2 0x5656 DUP3 PUSH2 0x3C1B JUMP JUMPDEST SWAP2 POP PUSH2 0x5661 DUP4 PUSH2 0x3C1B JUMP JUMPDEST SWAP3 POP PUSH2 0x568E PUSH32 0xFFFFFFFFFFFFFFFFFFFFFFFFFFFFFFFFFFFFFFFFFFFFFFFFFFFFFFFFFFFFFFFF DUP5 DUP5 PUSH2 0x557B JUMP JUMPDEST SWAP1 POP SWAP3 SWAP2 POP POP JUMP JUMPDEST PUSH0 PUSH2 0x56A0 DUP3 PUSH2 0x393F JUMP JUMPDEST SWAP2 POP PUSH2 0x56AB DUP4 PUSH2 0x393F JUMP JUMPDEST SWAP3 POP DUP3 PUSH2 0x56BB JUMPI PUSH2 0x56BA PUSH2 0x4341 JUMP JUMPDEST JUMPDEST DUP3 DUP3 DIV SWAP1 POP SWAP3 SWAP2 POP POP JUMP JUMPDEST PUSH0 PUSH2 0x56D0 DUP3 PUSH2 0x393F JUMP JUMPDEST SWAP2 POP PUSH2 0x56DB DUP4 PUSH2 0x393F JUMP JUMPDEST SWAP3 POP DUP3 DUP3 MUL PUSH2 0x56E9 DUP2 PUSH2 0x393F JUMP JUMPDEST SWAP2 POP DUP1 DUP3 EQ PUSH2 0x56FB JUMPI PUSH2 0x56FA PUSH2 0x43CB JUMP JUMPDEST JUMPDEST POP SWAP3 SWAP2 POP POP JUMP JUMPDEST PUSH0 PUSH2 0x570C DUP3 PUSH2 0x393F JUMP JUMPDEST SWAP2 POP PUSH2 0x5717 DUP4 PUSH2 0x393F JUMP JUMPDEST SWAP3 POP DUP3 DUP3 SUB SWAP1 POP PUSH1 0xFF DUP2 GT ISZERO PUSH2 0x5730 JUMPI PUSH2 0x572F PUSH2 0x43CB JUMP JUMPDEST JUMPDEST SWAP3 SWAP2 POP POP JUMP JUMPDEST PUSH32 0x4E487B7100000000000000000000000000000000000000000000000000000000 PUSH0 MSTORE PUSH1 0x21 PUSH1 0x4 MSTORE PUSH1 0x24 PUSH0 REVERT JUMPDEST PUSH0 PUSH1 0x20 DUP3 ADD SWAP1 POP PUSH2 0x5776 PUSH0 DUP4 ADD DUP5 PUSH2 0x4E6A JUMP JUMPDEST SWAP3 SWAP2 POP POP JUMP JUMPDEST PUSH0 PUSH1 0x80 DUP3 ADD SWAP1 POP PUSH2 0x578F PUSH0 DUP4 ADD DUP8 PUSH2 0x3BF3 JUMP JUMPDEST PUSH2 0x579C PUSH1 0x20 DUP4 ADD DUP7 PUSH2 0x4179 JUMP JUMPDEST PUSH2 0x57A9 PUSH1 0x40 DUP4 ADD DUP6 PUSH2 0x3BF3 JUMP JUMPDEST PUSH2 0x57B6 PUSH1 0x60 DUP4 ADD DUP5 PUSH2 0x3BF3 JUMP JUMPDEST SWAP6 SWAP5 POP POP POP POP POP JUMP INVALID LOG2 PUSH5 0x6970667358 0x22 SLT KECCAK256 DIV ORIGIN 0x2D 0x4B PUSH5 0xF18FEC9BFA 0xB9 PUSH7 0xB5D825CE7C7CCF CALLCODE 0xD8 CODECOPY CREATE2 BLOCKHASH 0xDA TLOAD PUSH32 0x147D05AE2E64736F6C634300081B003300000000000000000000000000000000 "
		},
		"gasEstimates": {
			"creation": {
				"codeDepositCost": "4503400",
				"executionCost": "infinite",
				"totalCost": "infinite"
			},
			"external": {
				"UPGRADE_INTERFACE_VERSION()": "infinite",
				"addNewEpoch((address,string)[],uint8)": "infinite",
				"createDapp(uint256)": "infinite",
				"createGroup(string,uint256)": "infinite",
				"currentEpoch()": "2540",
				"epochDurationS()": "2563",
				"epochs(uint256)": "infinite",
				"extractFieldFromContext(string,string)": "infinite",
				"fetchEpoch(uint32)": "infinite",
				"fetchWitnessesForClaim(uint32,bytes32,uint32)": "infinite",
				"getMerkelizedUserParams(string,string)": "infinite",
				"getProviderFromProof(((string,string,string),((bytes32,address,uint32,uint32),bytes[])))": "infinite",
				"initialize(address)": "infinite",
				"merkelizeUser(((string,string,string),((bytes32,address,uint32,uint32),bytes[])),uint256)": "infinite",
				"owner()": "2655",
				"proxiableUUID()": "infinite",
				"renounceOwnership()": "infinite",
				"semaphoreAddress()": "2640",
				"transferOwnership(address)": "infinite",
				"upgradeToAndCall(address,bytes)": "infinite",
				"verifyMerkelIdentity(string,uint256,uint256,uint256,uint256,bytes32,uint256[8])": "infinite",
				"verifyProof(((string,string,string),((bytes32,address,uint32,uint32),bytes[])))": "infinite"
			},
			"internal": {
				"_authorizeUpgrade(address)": "infinite",
				"calculateGroupIdFromProvider(string memory)": "infinite",
				"calculateUserParamsHash(string memory,string memory)": "infinite"
			}
		},
		"methodIdentifiers": {
			"UPGRADE_INTERFACE_VERSION()": "ad3cb1cc",
			"addNewEpoch((address,string)[],uint8)": "4729504c",
			"createDapp(uint256)": "5438243c",
			"createGroup(string,uint256)": "e367fc6a",
			"currentEpoch()": "76671808",
			"epochDurationS()": "289989fd",
			"epochs(uint256)": "c6b61e4c",
			"extractFieldFromContext(string,string)": "3755667e",
			"fetchEpoch(uint32)": "3d3c3e07",
			"fetchWitnessesForClaim(uint32,bytes32,uint32)": "10abbe56",
			"getMerkelizedUserParams(string,string)": "739c6891",
			"getProviderFromProof(((string,string,string),((bytes32,address,uint32,uint32),bytes[])))": "5ee4a99e",
			"initialize(address)": "c4d66de8",
			"merkelizeUser(((string,string,string),((bytes32,address,uint32,uint32),bytes[])),uint256)": "79ffdb1d",
			"owner()": "8da5cb5b",
			"proxiableUUID()": "52d1902d",
			"renounceOwnership()": "715018a6",
			"semaphoreAddress()": "f7da2ac9",
			"transferOwnership(address)": "f2fde38b",
			"upgradeToAndCall(address,bytes)": "4f1ef286",
			"verifyMerkelIdentity(string,uint256,uint256,uint256,uint256,bytes32,uint256[8])": "8925affe",
			"verifyProof(((string,string,string),((bytes32,address,uint32,uint32),bytes[])))": "a960e69e"
		}
	},
	"abi": [
		{
			"inputs": [
				{
					"internalType": "address",
					"name": "target",
					"type": "address"
				}
			],
			"name": "AddressEmptyCode",
			"type": "error"
		},
		{
			"inputs": [],
			"name": "ECDSAInvalidSignature",
			"type": "error"
		},
		{
			"inputs": [
				{
					"internalType": "uint256",
					"name": "length",
					"type": "uint256"
				}
			],
			"name": "ECDSAInvalidSignatureLength",
			"type": "error"
		},
		{
			"inputs": [
				{
					"internalType": "bytes32",
					"name": "s",
					"type": "bytes32"
				}
			],
			"name": "ECDSAInvalidSignatureS",
			"type": "error"
		},
		{
			"inputs": [
				{
					"internalType": "address",
					"name": "implementation",
					"type": "address"
				}
			],
			"name": "ERC1967InvalidImplementation",
			"type": "error"
		},
		{
			"inputs": [],
			"name": "ERC1967NonPayable",
			"type": "error"
		},
		{
			"inputs": [],
			"name": "FailedInnerCall",
			"type": "error"
		},
		{
			"inputs": [],
			"name": "InvalidInitialization",
			"type": "error"
		},
		{
			"inputs": [],
			"name": "NotInitializing",
			"type": "error"
		},
		{
			"inputs": [
				{
					"internalType": "address",
					"name": "owner",
					"type": "address"
				}
			],
			"name": "OwnableInvalidOwner",
			"type": "error"
		},
		{
			"inputs": [
				{
					"internalType": "address",
					"name": "account",
					"type": "address"
				}
			],
			"name": "OwnableUnauthorizedAccount",
			"type": "error"
		},
		{
			"inputs": [],
			"name": "Reclaim__GroupAlreadyExists",
			"type": "error"
		},
		{
			"inputs": [],
			"name": "Reclaim__UserAlreadyMerkelized",
			"type": "error"
		},
		{
			"inputs": [],
			"name": "UUPSUnauthorizedCallContext",
			"type": "error"
		},
		{
			"inputs": [
				{
					"internalType": "bytes32",
					"name": "slot",
					"type": "bytes32"
				}
			],
			"name": "UUPSUnsupportedProxiableUUID",
			"type": "error"
		},
		{
			"anonymous": false,
			"inputs": [
				{
					"indexed": true,
					"internalType": "bytes32",
					"name": "dappId",
					"type": "bytes32"
				}
			],
			"name": "DappCreated",
			"type": "event"
		},
		{
			"anonymous": false,
			"inputs": [
				{
					"components": [
						{
							"internalType": "uint32",
							"name": "id",
							"type": "uint32"
						},
						{
							"internalType": "uint32",
							"name": "timestampStart",
							"type": "uint32"
						},
						{
							"internalType": "uint32",
							"name": "timestampEnd",
							"type": "uint32"
						},
						{
							"components": [
								{
									"internalType": "address",
									"name": "addr",
									"type": "address"
								},
								{
									"internalType": "string",
									"name": "host",
									"type": "string"
								}
							],
							"internalType": "struct Reclaim.Witness[]",
							"name": "witnesses",
							"type": "tuple[]"
						},
						{
							"internalType": "uint8",
							"name": "minimumWitnessesForClaimCreation",
							"type": "uint8"
						}
					],
					"indexed": false,
					"internalType": "struct Reclaim.Epoch",
					"name": "epoch",
					"type": "tuple"
				}
			],
			"name": "EpochAdded",
			"type": "event"
		},
		{
			"anonymous": false,
			"inputs": [
				{
					"indexed": true,
					"internalType": "uint256",
					"name": "groupId",
					"type": "uint256"
				},
				{
					"indexed": true,
					"internalType": "string",
					"name": "provider",
					"type": "string"
				}
			],
			"name": "GroupCreated",
			"type": "event"
		},
		{
			"anonymous": false,
			"inputs": [
				{
					"indexed": false,
					"internalType": "uint64",
					"name": "version",
					"type": "uint64"
				}
			],
			"name": "Initialized",
			"type": "event"
		},
		{
			"anonymous": false,
			"inputs": [
				{
					"indexed": true,
					"internalType": "address",
					"name": "previousOwner",
					"type": "address"
				},
				{
					"indexed": true,
					"internalType": "address",
					"name": "newOwner",
					"type": "address"
				}
			],
			"name": "OwnershipTransferred",
			"type": "event"
		},
		{
			"anonymous": false,
			"inputs": [
				{
					"indexed": true,
					"internalType": "address",
					"name": "implementation",
					"type": "address"
				}
			],
			"name": "Upgraded",
			"type": "event"
		},
		{
			"inputs": [],
			"name": "UPGRADE_INTERFACE_VERSION",
			"outputs": [
				{
					"internalType": "string",
					"name": "",
					"type": "string"
				}
			],
			"stateMutability": "view",
			"type": "function"
		},
		{
			"inputs": [
				{
					"components": [
						{
							"internalType": "address",
							"name": "addr",
							"type": "address"
						},
						{
							"internalType": "string",
							"name": "host",
							"type": "string"
						}
					],
					"internalType": "struct Reclaim.Witness[]",
					"name": "witnesses",
					"type": "tuple[]"
				},
				{
					"internalType": "uint8",
					"name": "requisiteWitnessesForClaimCreate",
					"type": "uint8"
				}
			],
			"name": "addNewEpoch",
			"outputs": [],
			"stateMutability": "nonpayable",
			"type": "function"
		},
		{
			"inputs": [
				{
					"internalType": "uint256",
					"name": "id",
					"type": "uint256"
				}
			],
			"name": "createDapp",
			"outputs": [],
			"stateMutability": "nonpayable",
			"type": "function"
		},
		{
			"inputs": [
				{
					"internalType": "string",
					"name": "provider",
					"type": "string"
				},
				{
					"internalType": "uint256",
					"name": "merkleTreeDepth",
					"type": "uint256"
				}
			],
			"name": "createGroup",
			"outputs": [],
			"stateMutability": "nonpayable",
			"type": "function"
		},
		{
			"inputs": [],
			"name": "currentEpoch",
			"outputs": [
				{
					"internalType": "uint32",
					"name": "",
					"type": "uint32"
				}
			],
			"stateMutability": "view",
			"type": "function"
		},
		{
			"inputs": [],
			"name": "epochDurationS",
			"outputs": [
				{
					"internalType": "uint32",
					"name": "",
					"type": "uint32"
				}
			],
			"stateMutability": "view",
			"type": "function"
		},
		{
			"inputs": [
				{
					"internalType": "uint256",
					"name": "",
					"type": "uint256"
				}
			],
			"name": "epochs",
			"outputs": [
				{
					"internalType": "uint32",
					"name": "id",
					"type": "uint32"
				},
				{
					"internalType": "uint32",
					"name": "timestampStart",
					"type": "uint32"
				},
				{
					"internalType": "uint32",
					"name": "timestampEnd",
					"type": "uint32"
				},
				{
					"internalType": "uint8",
					"name": "minimumWitnessesForClaimCreation",
					"type": "uint8"
				}
			],
			"stateMutability": "view",
			"type": "function"
		},
		{
			"inputs": [
				{
					"internalType": "string",
					"name": "data",
					"type": "string"
				},
				{
					"internalType": "string",
					"name": "target",
					"type": "string"
				}
			],
			"name": "extractFieldFromContext",
			"outputs": [
				{
					"internalType": "string",
					"name": "",
					"type": "string"
				}
			],
			"stateMutability": "pure",
			"type": "function"
		},
		{
			"inputs": [
				{
					"internalType": "uint32",
					"name": "epoch",
					"type": "uint32"
				}
			],
			"name": "fetchEpoch",
			"outputs": [
				{
					"components": [
						{
							"internalType": "uint32",
							"name": "id",
							"type": "uint32"
						},
						{
							"internalType": "uint32",
							"name": "timestampStart",
							"type": "uint32"
						},
						{
							"internalType": "uint32",
							"name": "timestampEnd",
							"type": "uint32"
						},
						{
							"components": [
								{
									"internalType": "address",
									"name": "addr",
									"type": "address"
								},
								{
									"internalType": "string",
									"name": "host",
									"type": "string"
								}
							],
							"internalType": "struct Reclaim.Witness[]",
							"name": "witnesses",
							"type": "tuple[]"
						},
						{
							"internalType": "uint8",
							"name": "minimumWitnessesForClaimCreation",
							"type": "uint8"
						}
					],
					"internalType": "struct Reclaim.Epoch",
					"name": "",
					"type": "tuple"
				}
			],
			"stateMutability": "view",
			"type": "function"
		},
		{
			"inputs": [
				{
					"internalType": "uint32",
					"name": "epoch",
					"type": "uint32"
				},
				{
					"internalType": "bytes32",
					"name": "identifier",
					"type": "bytes32"
				},
				{
					"internalType": "uint32",
					"name": "timestampS",
					"type": "uint32"
				}
			],
			"name": "fetchWitnessesForClaim",
			"outputs": [
				{
					"components": [
						{
							"internalType": "address",
							"name": "addr",
							"type": "address"
						},
						{
							"internalType": "string",
							"name": "host",
							"type": "string"
						}
					],
					"internalType": "struct Reclaim.Witness[]",
					"name": "",
					"type": "tuple[]"
				}
			],
			"stateMutability": "view",
			"type": "function"
		},
		{
			"inputs": [
				{
					"internalType": "string",
					"name": "provider",
					"type": "string"
				},
				{
					"internalType": "string",
					"name": "params",
					"type": "string"
				}
			],
			"name": "getMerkelizedUserParams",
			"outputs": [
				{
					"internalType": "bool",
					"name": "",
					"type": "bool"
				}
			],
			"stateMutability": "view",
			"type": "function"
		},
		{
			"inputs": [
				{
					"components": [
						{
							"components": [
								{
									"internalType": "string",
									"name": "provider",
									"type": "string"
								},
								{
									"internalType": "string",
									"name": "parameters",
									"type": "string"
								},
								{
									"internalType": "string",
									"name": "context",
									"type": "string"
								}
							],
							"internalType": "struct Claims.ClaimInfo",
							"name": "claimInfo",
							"type": "tuple"
						},
						{
							"components": [
								{
									"components": [
										{
											"internalType": "bytes32",
											"name": "identifier",
											"type": "bytes32"
										},
										{
											"internalType": "address",
											"name": "owner",
											"type": "address"
										},
										{
											"internalType": "uint32",
											"name": "timestampS",
											"type": "uint32"
										},
										{
											"internalType": "uint32",
											"name": "epoch",
											"type": "uint32"
										}
									],
									"internalType": "struct Claims.CompleteClaimData",
									"name": "claim",
									"type": "tuple"
								},
								{
									"internalType": "bytes[]",
									"name": "signatures",
									"type": "bytes[]"
								}
							],
							"internalType": "struct Claims.SignedClaim",
							"name": "signedClaim",
							"type": "tuple"
						}
					],
					"internalType": "struct Reclaim.Proof",
					"name": "proof",
					"type": "tuple"
				}
			],
			"name": "getProviderFromProof",
			"outputs": [
				{
					"internalType": "string",
					"name": "",
					"type": "string"
				}
			],
			"stateMutability": "pure",
			"type": "function"
		},
		{
			"inputs": [
				{
					"internalType": "address",
					"name": "_semaphoreAddress",
					"type": "address"
				}
			],
			"name": "initialize",
			"outputs": [],
			"stateMutability": "nonpayable",
			"type": "function"
		},
		{
			"inputs": [
				{
					"components": [
						{
							"components": [
								{
									"internalType": "string",
									"name": "provider",
									"type": "string"
								},
								{
									"internalType": "string",
									"name": "parameters",
									"type": "string"
								},
								{
									"internalType": "string",
									"name": "context",
									"type": "string"
								}
							],
							"internalType": "struct Claims.ClaimInfo",
							"name": "claimInfo",
							"type": "tuple"
						},
						{
							"components": [
								{
									"components": [
										{
											"internalType": "bytes32",
											"name": "identifier",
											"type": "bytes32"
										},
										{
											"internalType": "address",
											"name": "owner",
											"type": "address"
										},
										{
											"internalType": "uint32",
											"name": "timestampS",
											"type": "uint32"
										},
										{
											"internalType": "uint32",
											"name": "epoch",
											"type": "uint32"
										}
									],
									"internalType": "struct Claims.CompleteClaimData",
									"name": "claim",
									"type": "tuple"
								},
								{
									"internalType": "bytes[]",
									"name": "signatures",
									"type": "bytes[]"
								}
							],
							"internalType": "struct Claims.SignedClaim",
							"name": "signedClaim",
							"type": "tuple"
						}
					],
					"internalType": "struct Reclaim.Proof",
					"name": "proof",
					"type": "tuple"
				},
				{
					"internalType": "uint256",
					"name": "_identityCommitment",
					"type": "uint256"
				}
			],
			"name": "merkelizeUser",
			"outputs": [],
			"stateMutability": "nonpayable",
			"type": "function"
		},
		{
			"inputs": [],
			"name": "owner",
			"outputs": [
				{
					"internalType": "address",
					"name": "",
					"type": "address"
				}
			],
			"stateMutability": "view",
			"type": "function"
		},
		{
			"inputs": [],
			"name": "proxiableUUID",
			"outputs": [
				{
					"internalType": "bytes32",
					"name": "",
					"type": "bytes32"
				}
			],
			"stateMutability": "view",
			"type": "function"
		},
		{
			"inputs": [],
			"name": "renounceOwnership",
			"outputs": [],
			"stateMutability": "nonpayable",
			"type": "function"
		},
		{
			"inputs": [],
			"name": "semaphoreAddress",
			"outputs": [
				{
					"internalType": "address",
					"name": "",
					"type": "address"
				}
			],
			"stateMutability": "view",
			"type": "function"
		},
		{
			"inputs": [
				{
					"internalType": "address",
					"name": "newOwner",
					"type": "address"
				}
			],
			"name": "transferOwnership",
			"outputs": [],
			"stateMutability": "nonpayable",
			"type": "function"
		},
		{
			"inputs": [
				{
					"internalType": "address",
					"name": "newImplementation",
					"type": "address"
				},
				{
					"internalType": "bytes",
					"name": "data",
					"type": "bytes"
				}
			],
			"name": "upgradeToAndCall",
			"outputs": [],
			"stateMutability": "payable",
			"type": "function"
		},
		{
			"inputs": [
				{
					"internalType": "string",
					"name": "provider",
					"type": "string"
				},
				{
					"internalType": "uint256",
					"name": "_merkleTreeRoot",
					"type": "uint256"
				},
				{
					"internalType": "uint256",
					"name": "_signal",
					"type": "uint256"
				},
				{
					"internalType": "uint256",
					"name": "_nullifierHash",
					"type": "uint256"
				},
				{
					"internalType": "uint256",
					"name": "_externalNullifier",
					"type": "uint256"
				},
				{
					"internalType": "bytes32",
					"name": "dappId",
					"type": "bytes32"
				},
				{
					"internalType": "uint256[8]",
					"name": "_proof",
					"type": "uint256[8]"
				}
			],
			"name": "verifyMerkelIdentity",
			"outputs": [
				{
					"internalType": "bool",
					"name": "",
					"type": "bool"
				}
			],
			"stateMutability": "nonpayable",
			"type": "function"
		},
		{
			"inputs": [
				{
					"components": [
						{
							"components": [
								{
									"internalType": "string",
									"name": "provider",
									"type": "string"
								},
								{
									"internalType": "string",
									"name": "parameters",
									"type": "string"
								},
								{
									"internalType": "string",
									"name": "context",
									"type": "string"
								}
							],
							"internalType": "struct Claims.ClaimInfo",
							"name": "claimInfo",
							"type": "tuple"
						},
						{
							"components": [
								{
									"components": [
										{
											"internalType": "bytes32",
											"name": "identifier",
											"type": "bytes32"
										},
										{
											"internalType": "address",
											"name": "owner",
											"type": "address"
										},
										{
											"internalType": "uint32",
											"name": "timestampS",
											"type": "uint32"
										},
										{
											"internalType": "uint32",
											"name": "epoch",
											"type": "uint32"
										}
									],
									"internalType": "struct Claims.CompleteClaimData",
									"name": "claim",
									"type": "tuple"
								},
								{
									"internalType": "bytes[]",
									"name": "signatures",
									"type": "bytes[]"
								}
							],
							"internalType": "struct Claims.SignedClaim",
							"name": "signedClaim",
							"type": "tuple"
						}
					],
					"internalType": "struct Reclaim.Proof",
					"name": "proof",
					"type": "tuple"
				}
			],
			"name": "verifyProof",
			"outputs": [],
			"stateMutability": "nonpayable",
			"type": "function"
		}
	]
}